:1000000000000120B1010000DD010000DD01000061
:10001000611B0200DD010000DD010000652C000015
:10002000652C0000652C0000652C0000F1B9010072
:10003000DD010000DC01000051BA0100B5BA010089
:10004000F1270100A1A60200DD010000DD01000092
:10005000199E02000DA70200ADA60200C5A602006F
:10006000A5A60200DD010000E5A6000059D50000AC
:10007000DD010000DD010000DD010000DD01000008
:10008000DD010000DD0100000DA7000055DF0000CC
:10009000DD010000DD010000DD010000DD010000E8
:1000A000DD010000DD010000DD010000553200002F
:1000B00011A70200A9A60200F5CF020029B901008C
:1000C00051A702000D250100318F0200DD01000063
:1000D000DD010000DD010000DD010000DD010000A8
:1000E000DD010000DD010000DD010000DD01000098
:1000F000DD010000DD010000652C000010B5054C9D
:10010000237833B9044B13B10448AFF300800123C3
:10011000237010BDE8050020000000001416030045
:1001200008B5034B1BB103490348AFF3008008BD7A
:1001300000000000EC05002014160300154B002BF6
:1001400008BF134B9D46A3F5803A00218B460F460E
:100150001348144A121A2DF03DFC0F4B002B00D00F
:1001600098470E4B002B00D0984700200021040038
:100170000D000D48002802D00C48AFF300802DF090
:100180007FFB200029001FF09DFE2DF065FB00BFC6
:100190000000080000000120000000000000000036
:1001A000E805002058780020000000000000000052
:1001B000064880470649074A074B9A42BEBF51F896
:1001C000040B42F8040BF8E7FFF7B8FF0503000043
:1001D000A016030004000020E4050020FEE700BF95
:1001E00080B582B000AF00F025F878600A4BD3F8F4
:1001F00008311B0AC3F308033B603B6801337A688C
:10020000B2FBF3F37B60054A7B6813607B6818469A
:100210000837BD4680BD00BF00400E400C000020E6
:1002200080B400AF024B1846BD465DF8047B7047B2
:10023000C017530280B483B000AF1C4BD3F8943086
:1002400003F00703023B032B1BD801A252F823F053
:1002500071020000690200006102000079020000E2
:10026000134B1B687B6010E04FF400437B600CE095
:10027000104B1B687B6008E00F4B1B685B087B60C2
:1002800003E00D4B1B687B6000BF084BD3F80031C7
:100290001B0A03F01F0301337A68B2FBF3F318461D
:1002A0000C37BD465DF8047B704700BF00400E4030
:1002B00008000020040000201000002080B400AFDF
:1002C000034B1B681846BD465DF8047B704700BFB2
:1002D0000400002080B582B000AF7860074A7B68D8
:1002E0001360074BD3F8943003F00703022B01D1BE
:1002F000FFF776FF00BF0837BD4680BD0400002031
:1003000000400E4080B400AF074B084A9A60064B8D
:10031000D3F88830044A43F47003C2F8883000BF31
:10032000BD465DF8047B704700ED00E00000000072
:1003300080B400AF4FF400431846BD465DF8047B1F
:10034000704780B400AF4FF47A731846BD465DF82D
:10035000047B704780B400AF034B1B681846BD4652
:100360005DF8047B704700BF0800002080B584B0B2
:1003700002AF03463960FB71FA793B68009313467C
:10038000044A0C2104481EF022F900BF0837BD467C
:1003900080BD00BF2C0600200406002080B586B07A
:1003A00000AFF8600B467A60FB72FA7A7B68F968F6
:1003B00012481EF053F90346FB75FB7D022B01D159
:1003C000012317E0FB7D002B13D1FB6893F830303D
:1003D0001A460A4B1344002283F85820FB6893F80E
:1003E0003030064A18339B00134400225A60012320
:1003F00000E0002318461837BD4680BD04060020E3
:1004000080B500AF02481EF0F0F800BF80BD00BF0D
:100410000406002080B582B000AF78607968034898
:100420001EF046F900BF0837BD4680BD0406002017
:1004300080B584B000AF78600B46FB707B68BB6012
:10044000BB68FA781A700023FB600AE0FB681B01A6
:10045000BA6813440433184600F071F9FB6801339D
:10046000FB60FB78FA689A42F0DBBB6818461037ED
:10047000BD4680BD80B586B002AFF860B9607A60D5
:1004800000230193002300937B680022B968F86879
:1004900000F086F8034618461037BD4680BD0000C0
:1004A00080B584B000AF786039607B68BB600023A2
:1004B000FB606BE0BA68FB681B01134404331B78D4
:1004C000032B5BD801A252F823F000BFDD0400002B
:1004D000FD040000330500007D050000BA68FB68DC
:1004E0001B01134410331B68B968FA6812010A44EF
:1004F0000C32126839681046984744E03B681B7913
:100500009AB2B968FB681B010B4406331B889A42F8
:1005100036D1BA68FB681B01134410331B68B968F5
:10052000FA6812010A440C3212683968104698477A
:1005300026E03B681B799AB2B968FB681B010B4443
:1005400006331B889A421DD13B685A79B968FB680B
:100550001B010B4408331B789A4213D1BA68FB681D
:100560001B01134410331B68B968FA6812010A446E
:100570000C32126839681046984703E000BF02E069
:1005800000BF00E000BFFB680133FB60BB681B7865
:100590001A46FB6893428DDB00BF1037BD4680BD15
:1005A00080B58AB000AFF860B9603B601346FB715C
:1005B000F86800F0DDF803461A46FB681B789A429B
:1005C00001D1002366E0FB793B743B8E7B8297F878
:1005D00034303B75BB68BB613B68FB6107F11003BE
:1005E000184600F0EAF8034683F00103DBB2002B63
:1005F00001D000234EE007F110031946F86800F01F
:100600004DF80346002B01D0002343E0FB683B621A
:1006100000237B6237E03A6A7B6A1B011344043390
:100620001B78032B2CD13A6A7B6A1B0113440433D9
:10063000FA791A703A6A7B6A1B01134410333A68DC
:100640001A603A6A7B6A1B0113440C33BA681A6059
:100650003B8E002B12D03A6A7B6A1B01134406338F
:100660003A8E1A8097F83430002B07D03A6A7B6AAA
:100670001B011344083397F834201A70012309E052
:100680007B6A01337B623B6A1B781A467B6A934222
:10069000C1DB002318462837BD4680BD80B485B035
:1006A00000AF786039607B68BB600023FB733AE081
:1006B000FB7BBA681B01134404331A783B681B7830
:1006C0009A422DD1FB7BBA681B01134406331A886A
:1006D0003B685B889A4223D1FB7BBA681B011344B9
:1006E00008331A783B681B799A4219D1FB7BBA68A8
:1006F0001B01134410331A683B68DB689A420FD120
:10070000FB7BBA681B0113440C331A683B689B6877
:100710009A4205D1FB7B1B01BA681344043308E0FD
:10072000FB7B0133FB73BB681B78FA7B9A42BFD318
:10073000002318461437BD465DF8047B704780B42B
:1007400083B000AF78607B6803221A707B68002258
:100750005A807B6800221A717B680022DA607B680D
:1007600000229A6000BF0C37BD465DF8047B7047DD
:1007700080B485B000AF78600023FB737B68BB60FA
:100780000023BB730DE0BB7BBA681B011344043329
:100790001B78032B02D0FB7B0133FB73BB7B013344
:1007A000BB73BB681B78BA7B9A42ECD3FB7B1846C1
:1007B0001437BD465DF8047B704780B483B000AF4A
:1007C00078607B68DB68002B13D07B681B78012B7B
:1007D00003D17B685B88002B0BD07B681B78022BD6
:1007E00009D17B681B79002B03D07B685B88002BC9
:1007F00001D1002300E0012318460C37BD465DF807
:10080000047B704780B400AF034B1B6A1846BD469B
:100810005DF8047B704700BF4CDC020080B400AF81
:10082000044B1B6A1B0CDBB21846BD465DF8047B0B
:10083000704700BF4CDC020080B400AF044B1B6A61
:100840001B0ADBB21846BD465DF8047B704700BF4B
:100850004CDC020080B400AF034B1B6ADBB21846CD
:10086000BD465DF8047B70474CDC020080B586B065
:1008700000AF3B600346FB710B46BB7113467B71B7
:100880001DF0C0FC0346184601F054F90346FB7501
:100890001DF0ACFC38613B695B681B78FB737B6ABD
:1008A000002B0BD0BB7997F828201946786A2DF0D9
:1008B00027F80346002B01D001233CE0FB7B03F02B
:1008C0000403002B07D0FB7D032B04D0FB7D042BFE
:1008D00001D000232FE0FB7D002B15D0FA79FB7DA2
:1008E0009A4211D13B68002B0ED0BB7997F820209B
:1008F000194638682DF004F80346002B02D1BB7965
:10090000202B01D1012316E0FB7D002B04D1BB7904
:10091000202B01D101230EE0FB7D042B0AD1BB79F2
:10092000722B07D17B79042B04D1FB79002B01D1E9
:10093000012300E0002318461837BD4680BD80B56E
:100940008CB000AF03460A46FB711346BB711DF025
:100950003BFCF86265233B72FB793B73BB797B738D
:10096000FB6A9B6807F10801002218461DF01CFD78
:1009700000BF3037BD4680BD80B584B000AF786021
:100980000D4819F09DFC0D4B1B6819460C481CF0D6
:100990003DFCF860FB68002B05D0F968094819F0A8
:1009A0006BFC002303E07B68054A1A6001231846AC
:1009B0001037BD4680BD00BF00DC020030000020C3
:1009C000980600201CDC020080B400AF024B1846E1
:1009D000BD465DF8047B70479806002080B500AFE7
:1009E0006022002102482CF0F5FF00BF80BD00BF4F
:1009F0004007002080B582B000AF78600A4800F060
:100A000089F8034683F00103DBB2002B01D00023F9
:100A100006E0054A7B685360044809F071FC044B0A
:100A200018460837BD4680BD400700204C0700200F
:100A30005007002080B582B000AF78600B46FB7095
:100A40007B68074A934206D1FB781946054809F0AE
:100A5000A5FC012300E0002318460837BD4680BDF1
:100A6000500700204C07002080B584B000AFF8602C
:100A7000B9601346FB71124B1B78012B1BD1114837
:100A800009F05EFC0F4809F09DFC03461A46BB685E
:100A90001A70FB79002B09D0FB680A4A1A60BB6800
:100AA0001B780433DAB2BB681A7002E0FB68064AAE
:100AB0001A60012300E0002318461037BD4680BDB0
:100AC000400700204C0700205007002080B582B06E
:100AD00000AF7860084B5B68002B03D0064B5B6867
:100AE000786898477B689B78012B01D100F006F865
:100AF00000BF0837BD4680BD4007002080B500AF6D
:100B0000034B00225A60024800F018F800BF80BD75
:100B10004007002080B483B000AF78607B681B780A
:100B2000002B04D17B6801221A70012300E000230E
:100B300018460C37BD465DF8047B704780B483B01F
:100B400000AF78607B6800221A7000BF0C37BD468A
:100B50005DF8047B7047000080B584B000AFB960D9
:100B60007B600346FB731346BB730F4B00221A7066
:100B700001210E481FF0BCFA0B490D4820F0E6FD9C
:100B8000FB7BBA6819460A4800F014F8BB7B7A6808
:100B90001946074800F030F8002104481FF0A8FA71
:100BA00000BF1037BD4680BD340000200032040075
:100BB0000000014080B584B000AFF8600B467A6059
:100BC000FB72F87A01230422796820F09DFCFB680F
:100BD0009B6F23F4F852FB689A67FB7A7968184692
:100BE00000F02CF80246FB689B6F1A43FB689A677B
:100BF00000BF1037BD4680BD80B584B000AFF8603F
:100C00000B467A60FB72F87A00230122796820F0A3
:100C10007BFCFB689B6F23F01F02FB689A67FB7AE3
:100C20007968184600F0D0F80246FB689B6F1A43BB
:100C3000FB689A6700BF1037BD4680BD80B483B0A3
:100C400000AF03463960FB71FB79052B00F2B480DD
:100C500001A252F823F000BF710C0000B70C000095
:100C6000F30C00003B0D0000B90D00005F0D00000B
:100C70003B68002B01D100239FE03B68012B02D190
:100C80004FF4807399E03B68022B02D14FF400735C
:100C900093E03B68032B02D14FF440738DE03B6837
:100CA000042B02D14FF4806387E03B68052B7AD197
:100CB0004FF4A06381E03B680B2B02D14FF4C0637B
:100CC0007BE03B680C2B02D14FF4E06375E03B689E
:100CD0000D2B02D14FF400636FE03B680E2B02D165
:100CE0004FF4106369E03B680F2B5ED14FF4206333
:100CF00063E03B68062B02D14FF430635DE03B6854
:100D0000072B02D14FF4406357E03B68082B02D118
:100D10004FF4506351E03B68092B02D14FF46063FC
:100D20004BE03B680A2B02D14FF4706345E03B680F
:100D30000B2B3CD14FF480533FE03B680D2B02D18D
:100D40004FF4A85339E03B680E2B02D14FF4B05357
:100D500033E03B680F2B2CD14FF4B8532DE03B68A8
:100D6000002B02D14FF4C05327E03B68012B02D186
:100D70004FF4C85321E03B68022B02D14FF4D0530B
:100D80001BE03B68032B02D14FF4D85315E03B68BE
:100D9000042B02D14FF4E0530FE03B68052B0AD13E
:100DA0004FF4E85309E000BF06E000BF04E000BFD5
:100DB00002E000BF00E000BF002318460C37BD462C
:100DC0005DF8047B704700BF80B483B000AF03467A
:100DD0003960FB71FB79052B00F29B8001A252F870
:100DE00023F000BFFD0D0000390E00006B0E000067
:100DF000A70E0000130F0000C50E00003B68002B7B
:100E000001D11F2386E03B68012B01D1002381E043
:100E10003B68022B01D101237CE03B68032B01D10D
:100E2000022377E03B68042B01D1032372E03B6887
:100E3000052B65D104236DE03B680B2B01D1052305
:100E400068E03B680C2B01D1062363E03B680D2B67
:100E500001D107235EE03B680E2B01D1082359E046
:100E60003B680F2B4ED1092354E03B68062B01D180
:100E70000A234FE03B68072B01D10B234AE03B6874
:100E8000082B01D10C2345E03B68092B01D10D2330
:100E900040E03B680A2B01D10E233BE03B680B2B63
:100EA00032D10F2336E03B680D2B01D1142331E002
:100EB0003B680E2B01D115232CE03B680F2B25D16D
:100EC000162327E03B68002B01D1172322E03B6863
:100ED000012B01D118231DE03B68022B01D11923FE
:100EE00018E03B68032B01D11A2313E03B68042B65
:100EF00001D11B230EE03B68052B09D11C2309E01F
:100F000000BF06E000BF04E000BF02E000BF00E059
:100F100000BF002318460C37BD465DF8047B7047C0
:100F200080B483B000AF78603960134A7B68136087
:100F3000124A3B681360124A13786FF3020313706E
:100F40000F4A13786FF3C50313700D4B00225A70CC
:100F50000C4A13786FF3020313700A4A13786FF385
:100F6000C5031370074B00225A7000BF0C37BD46F3
:100F70005DF8047B704700BFC0070020C407002055
:100F8000645E0020405E002080B582B000AF034662
:100F90000A46FB711346BB71224B1B7ABA799A42FF
:100FA00002D8BB79002B01D1002336E01DF02AF9CD
:100FB0000346184600F0BEFD0346002B12D1FB7914
:100FC00083F00103DBB2002B0AD0164BD968BA7943
:100FD0001346DB009B1A9B001C3B0B4404331CE0B4
:100FE000114B1AE0FB7983F00103DBB2002B0AD02E
:100FF0000C4BD968BA791346DB009B1A9B001C3B4B
:101000000B440C3309E0074BD968BA791346DB006F
:101010009B1A9B001C3B0B44143318460837BD46F3
:1010200080BD00BFA0070020B807002080B5BAB07F
:1010300000AFF8607A603B600B46FB727B685B68D0
:101040009B78002B02D17B6800229A70344B5B782E
:10105000072B01D901235FE0314B1B78C3F3020357
:10106000DBB22F4A9B0013443A685A6007F10B0128
:1010700007F10C037A68184607F0FDFE7B685B6891
:101080001B7887F8C430274B7B617B681B783B76E5
:10109000F968FB7A1A4607F110030A3318462CF058
:1010A0008EFCFB7A7B76002387F8C530002387F817
:1010B000C7307B685B7843F00103DBB287F8C6304A
:1010C0007B685B68DB7887F8C83001233B74164B7C
:1010D0001B6807F11001002218461DF065F9034650
:1010E00087F8E73097F8E730002B13D10C4B1B78CB
:1010F000C3F30203DBB2013303F00703D9B2084A9A
:10110000137861F302031370054B5B780133DAB295
:10111000034B5A7097F8E7301846E837BD4680BD54
:10112000645E002089130000C007002080B5BAB0BB
:1011300000AFF8607A603B600B46FB72354B5B7822
:10114000072B01D9012361E0324B1B78C3F3020363
:10115000DBB2304A9B0013443A685A607B68002B2C
:1011600001D1012352E007F10B0107F10C037A686A
:10117000184607F080FE7B685B681B7887F8C430F0
:10118000254B7B617B681B783B76F968FB7A1A46B6
:1011900007F110030A3318462CF011FCFB7A7B761A
:1011A000002387F8C530002387F8C7307B685B7859
:1011B00087F8C6307B685B68DB7887F8C830012326
:1011C0003B74164B1B6807F11001002218461DF0F6
:1011D000EBF8034687F8E73097F8E730002B13D198
:1011E0000C4B1B78C3F30203DBB2013303F007039C
:1011F000D9B2084A137861F302031370054B5B7888
:101200000133DAB2034B5A7097F8E7301846E837E3
:10121000BD4680BD405E002015140000C0070020C0
:1012200080B586B000AFF8600B467A60FB727B68D1
:101230001B783B747B68DB7A7B747B681B7ABB749E
:10124000FB7C6FF30603FB747B7D6FF306037B75FA
:101250007B7D6FF3C7137B75FA7A07F11003F9688A
:1012600018460AF0AFFC00BF1837BD4680BD00002D
:1012700080B483B000AF78603960254B254A5A604E
:101280003B68234A1A607B689A78224B1A707B6805
:10129000DB78C3F30603D9B21E4A537861F3060321
:1012A00053707B68DB7803F07F03DBB2002B14BF45
:1012B00001230023DBB21A46164B9A707B685A78DA
:1012C000144BDA70124B25221A707B681B7803F0DE
:1012D0000203002B06D00E4B1B7843F00203DAB258
:1012E0000B4B1A707B685B79C3F30603DBB21A46BB
:1012F000074B9A70064B00225A70054B5B687A6860
:101300005278DA7000BF0C37BD465DF8047B704739
:10131000C8070020D007002080B584B000AF7860F7
:101320000023FB73786800F01BF80346002B0AD1FA
:101330007B685B7923F07F03DBB2002B03D1074B83
:101340001B78012B01D10123FB73044B00221A707F
:10135000FB7B18461037BD4680BD00BFA0070020AC
:1013600080B483B000AF78607B681B7803F00C0317
:10137000002B01D0012300E0002318460C37BD46A6
:101380005DF8047B7047000080B584B000AF034671
:101390003960FB7100233B72FB797B720123BB72C6
:1013A0001A4B5B78002B25D0184B1B78C3F3C20374
:1013B000DBB2164A9B0013445B68FB60FB68002BA2
:1013C00004D007F10802FB68104698470F4B1B78C2
:1013D000C3F3C203DBB2013303F00703D9B20B4AF4
:1013E000137861F3C5031370084B5B78013BDAB2E5
:1013F000064B5A70064B1B68002B02D0044B1B682F
:10140000984700BF1037BD4680BD00BF645E002016
:10141000C407002080B584B000AF03463960FB717B
:10142000194B5B78002B24D0174B1B78C3F3C203F6
:10143000DBB2154A9B0013445B68FB60FB68002B22
:1014400003D0FA79FB68104698470F4B1B78C3F31B
:10145000C203DBB2013303F00703D9B20A4A13789F
:1014600061F3C5031370084B5B78013BDAB2064B9E
:101470005A70064B1B68002B02D0044B1B68984720
:1014800000BF1037BD4680BD405E0020C40700206D
:1014900080B483B000AF0346FB71FA79034B1A7036
:1014A00000BF0C37BD465DF8047B7047A0070020E5
:1014B00080B483B000AF7860044A7B68136000BFDB
:1014C0000C37BD465DF8047B704700BFE80700207D
:1014D00080B584B000AF78607B685B78002B0BD060
:1014E0007B6801229A70324B1B68002B55D0304B21
:1014F0001B687868984750E02E4B1B78002B19D05A
:10150000002000F05BF80346FB73FB7B012B0ED140
:101510007B6802225A707B6801229A70244B1B68F8
:10152000002B3CD0224B1B687868984737E0FB7B48
:10153000022B36D104F0F6F802461F4B1A601E4B00
:101540001B68002B0BD17B6801229A70184B1B681B
:10155000002B29D0164B1B687868984724E00020A0
:1015600000F07EF80346BB73BB7B012B0ED17B687A
:1015700002225A707B6801229A700D4B1B68002B67
:1015800011D00B4B1B68786898470CE0BB7B022B93
:101590000AD1002000F0B2F906E000BF04E000BF6D
:1015A00002E000BF00E000BF1037BD4680BD00BFB5
:1015B000885E0020EC070020F007002080B586B090
:1015C00000AF786007F110030422002118462CF0C8
:1015D00001FA1E4B1B68181D1C4B1B68083307F1D2
:1015E0001002194604F0C4F803461A46184B1A7044
:1015F0007B7C23F07F03DBB2002B1ED0134B1B68D8
:101600005B783B7200237B72104B1B689B78BB722C
:1016100007F11003FB600F4B18680F4B197807F1A7
:1016200008020E4BFFF702FD0346FB75FB7D002B06
:1016300014BF01230023DBB204E0054B1B78002B11
:10164000C0D1022318461837BD4680BDDC070020F4
:10165000EC070020D4070020D8070020D114000098
:1016600080B5C2B000AF3B1D186007F1E0031D213B
:1016700018461CF021FE494B00221A70484B0022EC
:101680001A7007F10C030A33AA22002118462CF025
:10169000A1F9444B1968444B1B781A4607F10C0317
:1016A0000A3318462CF08BF9404B3B613E4B1B78BC
:1016B0007B7500233B7504F035F802463C4B1A60FD
:1016C0003B4B1B68012B01D8022362E0394B1B689E
:1016D0009B699B7803F00703002B24D0364B1B68D3
:1016E0001B7887F8C130FF2387F8C030314B1B6867
:1016F0009B699B78184600F01DFA034687F8C230B4
:10170000274B02221A7004233B732A4B1B681B6869
:1017100007F10C01002218461CF046FE0346002B80
:1017200036D0012335E00023C7F8043111E003F07F
:10173000D1FFC7F80001D7F800311A7807F1E003AC
:10174000114618461CF0ACFDD7F804310133C7F838
:101750000431174B1B68D7F804219A42E7D30323BF
:101760003B7307F1E00107F10C03B4331D22184667
:101770002CF025F90F4B1B681B6807F10C010022A8
:1017800018461CF011FE0346002B01D0012300E097
:101790000023184607F58477BD4680BDE107002089
:1017A000E4070020D4070020D8070020E11800003B
:1017B000F0070020E8070020DC07002080B586B095
:1017C00000AFF8607B600B46FB721346BB727B6810
:1017D000002B09D07B681B7A002B05D0FB68002BFF
:1017E00002D0FB7A002B01D1002367E0354A3B6A27
:1017F0001360354A7B681360344AFB681360344ACF
:10180000FB7A1370FB7A1946F868FFF713F9034661
:1018100083F00103DBB2002B01D000234EE02D4A00
:10182000BB7A13702C4B1B689B699A782B4B1A70F0
:101830002A4B1B7803F00703DBB2002B05D0254BA6
:101840001B78002B01D0012300E0002303F00103EB
:10185000DBB21A461E491D48FFF706F9034683F01E
:101860000103DBB2002B01D0002327E0164B1B68DD
:101870005B68184603F0FAFE0020FFF79FFE034660
:10188000FB75FB7D002B01D1012317E0FB7D012BB4
:1018900001D1002312E00020FFF7E2FE0346BB75F2
:1018A000BB7D002B01D1012308E0BB7D012B01D1C1
:1018B000002303E0002000F021F801231846183728
:1018C000BD4680BD885E0020DC070020D4070020D4
:1018D000D8070020E2070020E8070020E3070020E7
:1018E00080B582B000AF03463960FB71002000F084
:1018F00005F800BF0837BD4680BD000080B586B042
:1019000000AF78600023FB755C4B1B78002B28D060
:101910005A4B1B781A465A4B1B689A4202D1012334
:10192000FB7501E00023FB75564AFB7D93707B68D5
:10193000002B08D07B681A78524B1A707B685A7853
:10194000504B5A7005E04F4B00221A704D4B00224D
:101950005A704D4B1B68002B03D04B4B1B684948FA
:101960009847464B1B781A46454B1B689A4280F0B5
:101970008180464B1B685B783B73454B1B787B73C0
:101980003E4B1B78002B0AD1414B1B7803F002031E
:10199000002B04D07B7B43F00403DBB27B733B4B17
:1019A0001B689B78BB7303F095FE03463B613B6964
:1019B0001A78344B1A70374B1B7803F00703DBB2ED
:1019C000002B0CD0344B1B78002B08D03B695B7884
:1019D00023F07F03DBB2002B01D1012300E00023C1
:1019E00003F00103DBB21A462C492D48FFF73CF8FF
:1019F000034683F00103DBB2002B11D0214B002200
:101A00001A70204B02225A701E4B01229A701E4BF4
:101A10001B68002B2BD01C4B1B681A48984726E0EC
:101A20001F4B18681D4B197807F10C021D4BFFF76F
:101A3000FDFA0346BB75BB7D002B11D0114B002274
:101A40001A70104B02225A700E4B01229A700E4BE4
:101A50001B68002B0DD00C4B1B680A48984708E008
:101A6000064B1B780133DAB2044B1A7002E000BF58
:101A700000E000BF1837BD4680BD00BFE107002071
:101A8000F0070020F4070020885E0020DC0700201B
:101A9000E4070020E3070020E2070020D807002029
:101AA000D4070020FD18000080B500AF034B0122D1
:101AB0001A700020FFF722FF00BF80BDE007002062
:101AC00080B483B000AF78603960064A7B681360E9
:101AD000054A3B68136000BF0C37BD465DF8047BC8
:101AE000704700BF040800200808002080B582B0BD
:101AF00000AF786039600B4A7B6813600A4A3B6824
:101B000013600A4B1B681A78094B1A70084B1B7834
:101B1000184600F0C7F8FEF761FF012318460837A2
:101B2000BD4680BDF80700200C08002008080020F2
:101B30008C5E002080B483B000AF0346FB71FB795C
:101B400003F00403DBB2002B01D0032316E0FB7982
:101B500003F00203DBB2002B01D002230EE0FB797D
:101B600003F00103DBB2002B01D0012306E097F95B
:101B70000730002B01DA042300E0002318460C375D
:101B8000BD465DF8047B704780B400AF034B002274
:101B90001A7000BFBD465DF8047B70478C5E002064
:101BA00080B582B000AF0346FB71094AFB79137020
:101BB000FB79184600F076F8064B1B68002B02D024
:101BC000044B1B689847012318460837BD4680BD63
:101BD0008C5E00200C080020F0B58BB004AF78605C
:101BE00039603B6804337B613B6893F8A430FB7435
:101BF0003B68A833FB60FB68D87A7B691C787B69FB
:101C00005D78134B1B681E69114B1B681B7D104AC6
:101C100052680F49097A02910192009333462A468D
:101C20002146FEF723FE0346002B0CD0FB7CFA680E
:101C300019467869FFF7F4FA064B1B68002B02D0AF
:101C4000044B1B68984700BF1C37BD46F0BD00BF62
:101C5000F80700200C080020F0B587B004AF034659
:101C6000FB710B46BB7113467B710D4B1B681E69E4
:101C70000B4B1B681B7D0A4A52680949097ABD79DA
:101C8000FC79787902910192009333462A462146E5
:101C9000FEF7ECFD034618460C37BD46F0BD00BF0D
:101CA000F807002080B582B000AF0346FB71FB79D6
:101CB000002B08D01CF0A6FA03461846FFF73AFF9F
:101CC0000346002B08D10B4B1A680A4B043392E8E9
:101CD000030083E8030008E0064B1A68054B043351
:101CE000083292E8030083E8030000BF0837BD46CE
:101CF00080BD00BFF807002080B483B000AF03466A
:101D00003960FB7197F90730002B0ADB3B68DAB2C8
:101D10000C4997F907305201D2B20B4483F80023E3
:101D20000AE03B68DAB20849FB7903F00F03043B91
:101D30005201D2B20B441A7600BF0C37BD465DF893
:101D4000047B704700E100E000ED00E080B400AFEC
:101D5000BFF34F8F054BDB6803F4E0620349044B8C
:101D60001343CB60BFF34F8F00BFFDE700ED00E0F2
:101D70000400FA0580B485B000AF786039607B68F4
:101D800003F10473DA003B6813449B00FB60FB68BB
:101D90001B6818461437BD465DF8047B704780B455
:101DA00085B000AF786039607B6803F1C063FB6089
:101DB000FB683A681A6000BF1437BD465DF8047BC3
:101DC000704780B485B000AF786039607B6803F1FC
:101DD0008063FB60FB683A681A6000BF1437BD4639
:101DE0005DF8047B7047000080B483B000AF78607A
:101DF000044A7B68C2F8243400BF0C37BD465DF846
:101E0000047B704700A0004080B400AF034BD3F8C0
:101E10001C341846BD465DF8047B704700A00040A6
:101E200080B582B000AF03463960FB71FB79002BAF
:101E30000DD0FB79012B0AD0FB79022B07D0FB795F
:101E4000032B04D0FB79042B01D0FB79052BFA7905
:101E500013465B0013441B011C3303F1804303F55D
:101E6000204339681846FFF785FF034618460837B0
:101E7000BD4680BD80B582B000AF03463960FB71BE
:101E8000FB79002B0DD0FB79012B0AD0FB79022BBB
:101E900007D0FB79032B04D0FB79042B01D0FB790D
:101EA000052BFA7913465B0013441B010C3303F135
:101EB000804303F5204301213A6801FA02F21146FA
:101EC0001846FFF77EFF00BF0837BD4680BD80B5CE
:101ED00082B000AF03463960FB71FB79002B0DD057
:101EE000FB79012B0AD0FB79022B07D0FB79032B5E
:101EF00004D0FB79042B01D0FB79052BFA7913462A
:101F00005B0013441B010C3303F1804303F52043B2
:101F100001213A6801FA02F211461846FFF73FFF25
:101F200000BF0837BD4680BD80B400AF034B01221F
:101F30001A6100BFBD465DF8047B704700300E405B
:101F400080B582B000AF03460A46FB711346BB71F1
:101F5000BB79002B04D0FB79184601F0CBF903E0E4
:101F6000FB79184601F0ACF900BF0837BD4680BDCB
:101F700080B483B000AF0346FB71FB79022B0BD812
:101F8000FA790A4913465B001344DB000B441B78C3
:101F9000002B01D0012300E0002303F00103DBB29A
:101FA00018460C37BD465DF8047B704784DD02009F
:101FB00080B582B000AF0346FB71FB791846FFF78E
:101FC000D7FF0346002B01D0012300E00023184671
:101FD0000837BD4680BD000080B582B000AF034623
:101FE000FB71FB791846FFF7E3FF0346002B09D08E
:101FF000FA79074913465B001344DB000B440833AE
:102000001B7800E0002318460837BD4680BD00BF9E
:1020100084DD020080B582B000AF0346FB71FB791E
:102020001846FFF7C5FF0346002B09D0FA79074988
:1020300013465B001344DB000B440C331B6800E0C9
:10204000002318460837BD4680BD00BF84DD02006E
:1020500080B483B000AF0346FB71FB79022B0BD831
:10206000FA790A4913465B001344DB000B441B78E2
:10207000002B01D0012300E0002303F00103DBB2B9
:1020800018460C37BD465DF8047B7047CCDD020076
:1020900080B582B000AF0346FB71FB791846FFF7AD
:1020A000D7FF0346002B01D0012300E00023184690
:1020B0000837BD4680BD000080B582B000AF034642
:1020C000FB71FB791846FFF7E3FF0346002B09D0AD
:1020D000FA79074913465B001344DB000B440833CD
:1020E0001B7800E0002318460837BD4680BD00BFBE
:1020F000CCDD020080B582B000AF0346FB71FB79F6
:102100001846FFF7C5FF0346002B09D0FA790749A7
:1021100013465B001344DB000B440C331B6800E0E8
:10212000002318460837BD4680BD00BFCCDD020045
:1021300080B582B000AF0346FB71FB791846FFF70C
:10214000A7FF0346002B09D0FA79074913465B0025
:102150001344DB000B4410331B6800E001231846D6
:102160000837BD4680BD00BFCCDD020080B582B01F
:1021700000AF0346FB71FB791846FFF789FF034662
:10218000002B0CD0FA79084913465B001344DB009E
:102190000B4414331B78002B01D0012300E00023F3
:1021A00018460837BD4680BDCCDD020080B582B040
:1021B00000AF03460A46FB711346BB71FB79334AF5
:1021C000D35C012B5DD1324B1A68FB79314951F850
:1021D0002330D31AB3F5967F53D32F4B02221A70B4
:1021E0002E4B1B78012B0DD12D4B1B78002B04D1CE
:1021F00000214520FFF7A4FE39E000215020FFF721
:102200009FFE34E0254B1B78032B0DD1244B1B780C
:10221000002B04D100214620FFF792FE27E0002189
:102220005120FFF78DFE22E01C4B1B78052B0DD1B2
:102230001B4B1B78002B04D100214720FFF780FEA9
:1022400015E000215220FFF77BFE10E0134B1B78B6
:10225000072B0CD1124B1B78002B04D100214820F6
:10226000FFF76EFE03E000215320FFF769FE0D4BE0
:1022700000221A700C4B02221A70FB79034A0221C9
:10228000D15400BF0837BD4680BD00BF50080020B4
:102290004C080020540800209D0D002068080020F4
:1022A000500000206A0800206908002080B584B032
:1022B00000AF7860724B1B680A33714A1360714B30
:1022C0001B680A336F4A136040210020FFF76EFF3E
:1022D0004B210120FFF76AFF0023FB7312E0FB7B19
:1022E000694AD35C002B0AD0684B1B78002B02D0C4
:1022F000674B00221A70634B00221A6005E0FB7BDB
:102300000133FB73FB7B022BE9D95D4B1B6847F262
:102310003052934206D95F481CF017F95E4B0022F9
:102320001A70A8E0574B1B68FA2B40F2A4805B4B55
:102330001B7819465A4B1B781A465A4817F09CFFCF
:10234000594B1B78022B04D1574B00221A7008F00E
:1023500031FD524B1B78022B0DD1544B1B78002BB7
:1023600004D100214220FFF7EBFD78E000214D2051
:10237000FFF7E6FD73E0494B1B78042B0DD14B4B67
:102380001B78002B04D100214320FFF7D9FD66E024
:1023900000214E20FFF7D4FD61E0404B1B78062B57
:1023A0000DD1424B1B78002B04D100214420FFF7B4
:1023B000C7FD54E000214F20FFF7C2FD4FE0374B2F
:1023C0001B78082B21D1364B1B78222B0DD1384B93
:1023D0001B689B691B78002B41D0364B1B78012B67
:1023E0003DD1312000F06CFF39E02D4B1B78132BD1
:1023F00003D1652000F064FF31E0294B1B78312BBD
:102400002DD1662000F05CFF29E0244B1B780A2BBD
:102410000FD1234B1B78412B03D1682000F050FFD4
:102420001DE01F4B1B78142B19D1672000F048FFCB
:1024300015E01A4B1B780C2B06D1194B1B78332B4C
:102440000DD10AF015F90AE0144B1B78142B06D1B4
:10245000134B1B78552B02D1692000F031FF104B34
:1024600000221A700D4B00221A700A481CF06DF8F9
:10247000094B00221A7000BF1037BD4680BD00BF57
:102480004C0800206408002050080020A30D002004
:10249000A40D002010080020480800206808002033
:1024A0006A080020C0DC02009D0D002050000020C2
:1024B000285F0020950A002080B582B000AF034657
:1024C000FB710B46BB7113467B71BB79012B40F04E
:1024D00017819B4B1B78002B02D09A4B00221A705D
:1024E000994B00221A60994B1B78002B03D1984A14
:1024F000FB79137009E0FB79002B03D1944B012287
:102500001A7002E0924B00221A70914B1B78002B3C
:1025100038D1904B1B78002B03D18E4B01221A70BF
:10252000AFE08C4B1B78012B03D18A4B02221A702F
:10253000A7E0884B1B78022B03D1864B03221A702D
:102540009FE0844B1B78032B03D1824B04221A702B
:1025500097E0804B1B78042B03D17E4B05221A7029
:102560008FE07C4B1B78302B03D17A4B31221A70D1
:1025700087E0784B1B78402B40F08380754B4122DD
:102580001A707EE0734B1B78002B03D1714B102225
:102590001A7076E06F4B1B78102B03D16D4B202205
:1025A0001A706EE06B4B1B78202B03D1694B3022E5
:1025B0001A7066E0674B1B78302B03D1654B4022C5
:1025C0001A705EE0634B1B78402B03D1614B5022A5
:1025D0001A7056E05F4B1B78032B03D15D4B13221F
:1025E0001A704EE05B4B1B78022B03D1594B122221
:1025F0001A7046E0574B1B78122B03D1554B222201
:102600001A703EE0534B1B78132B03D1514B2322FE
:102610001A7036E04F4B1B78232B03D14D4B3322DE
:102620001A702EE04B4B1B78042B03D1494B14221C
:102630001A7026E0474B1B78052B03D1454B15221A
:102640001A701EE0434B1B78152B03D1414B2522FA
:102650001A7016E03F4B1B78252B03D13D4B3522DA
:102660001A700EE03B4B1B78352B03D1394B4522BA
:102670001A7006E0374B1B78452B02D1354B55229B
:102680001A70FB79344AD35C002B53D17B79002B31
:1026900012D0324B1B78DBB283F00103DBB2002B8C
:1026A0001DD02F4B00221A600A212E481BF0ECFE91
:1026B0002A4B01221A7012E02A481BF063FF0346DE
:1026C00083F00103DBB2002B09D0254B00221A60F6
:1026D0000A2124481BF0A3FE204B01221A70224B32
:1026E0001B780133DAB2204B1A70FB791A4A0121A8
:1026F000D154FB791A4A12681C4941F8232019E089
:10270000FB79154AD35C002B14D0FB79124A0021C7
:10271000D1540D4B00221A60134B1B780133DAB2EF
:10272000114B1A700E4B1A68FB79104951F823307F
:10273000D31A00E0002318460837BD4680BD00BF0D
:10274000A30D0020A40D002064080020940A00209E
:10275000500000206A08002050080020480800208F
:102760004C080020100800206808002054080020B1
:1027700080B582B000AF0346FB71FB79062B02D017
:10278000072B04D007E0002000F0A9F903E00120A6
:1027900000F0A5F900BF00BF0837BD4680BD80B579
:1027A00086B000AF0346FB71FB791846FFF750FC7B
:1027B0000346002B1CD0FB791846FFF77DFC03462F
:1027C000FB75FB791846FFF795FC3861FB791846D5
:1027D000FFF7AEFCF860FB68012B14BF0123002358
:1027E000DBB2BB60F87DBB68032239691EF08CFE4A
:1027F00000BF1837BD4680BD80B582B000AF03462C
:10280000FB71FB791846FFF7D3FB0346002B09D079
:10281000FA79074913465B001344DB000B4410337D
:102820001B6800E0012318460837BD4680BD00BF85
:1028300084DD020080B582B000AF0346FB71FB79F6
:102840001846FFF7B5FB0346002B09D0FA79074974
:1028500013465B001344DB000B4414331B6800E099
:10286000002318460837BD4680BD00BF84DD020046
:1028700080B586B000AF03460A46FB711346BB71B4
:10288000FB791846FFF774FB0346002B23D0FB7936
:102890001846FFF7A1FB0346BB75FB791846FFF707
:1028A000B9FB3861FB791846FFF7A6FFF8600123F2
:1028B000FB75FB68012B14BF01230023DBB2BB6057
:1028C000BB79002B01D00423FB75FA7DB87DBB6872
:1028D00039691EF019FE00BF1837BD4680BD80B5AE
:1028E00086B000AF03460A46FB711346BB71FB7905
:1028F0001846FFF73DFB0346002B26D0FB79184610
:10290000FFF76AFB0346FB75FB791846FFF782FB6E
:102910003861FB791846FFF76FFFF860BB79002B31
:1029200002D1FB68012B05D0BB79012B08D1FB68D4
:10293000002B05D1FB7D39691846FFF7C8FA04E082
:10294000FB7D39691846FFF795FA00BF1837BD4679
:1029500080BD000080B582B000AF0346FB71FB79FB
:10296000012B2BD0022B1BD1184B1B78002B27D10E
:10297000174B02221A7004210520FFF7A8FA09213B
:102980000220FFF7A4FA05210520FFF7A0FA002393
:1029900000224FF42F714FF4967000F097FB0FE078
:1029A0000B4B1B78022B02D1094B00221A7000231B
:1029B00000220021002000F089FB02E000BF00E0BF
:1029C00000BF00BF0837BD4680BD00BFA50D002079
:1029D0009C0D002080B586B002AF0346FB71FB79E9
:1029E0001946224817F048FCFB791846FFF730FBE0
:1029F0000346002B36D01E4B1B7883F00103DBB25D
:102A0000002B14D01B4A01211B48FDF7C7FC07F01F
:102A100019FE03211220FFF76FF903210A20FFF7A7
:102A20006BF9164B00221A70114B01221A70FB79B8
:102A30001846FFF741FB0346FB73FB791846FFF787
:102A400059FBB860F87B0123019301230093012314
:102A5000BA68B9681EF00CFDBB68DBB208491846BD
:102A600007F000FE00BF1037BD4680BDF8DC020055
:102A70006B080020AD22000010080020480800204C
:102A80007127000080B586B000AF0346FB71FB796B
:102A90001846FFF7DDFA0346002B1BD0FB791846DA
:102AA000FFF70AFB0346FB75FB791846FFF722FB8D
:102AB0003861FB791846FFF73BFBF860FB7D39690D
:102AC0001846FFF7ADF9B860BA68FB689A4201D1C1
:102AD000012300E0002318461837BD4680BD80B5AD
:102AE00082B000AF0346FB71FB790022012118463A
:102AF00000F004F800BF0837BD4680BD80B582B045
:102B000000AF0346FB710B46BB7113467B71FB792B
:102B10001846FFF72BFB0346002B02D01C48FFF79B
:102B200063F9FB791846FFF7ADFF0346012B06D189
:102B3000BA79FB7901211846FFF7BEFC23E0154B5B
:102B40001B78022B19D1134B00221A70124B1B78E1
:102B5000002B09D108F02EF900214920FFF7F0F9E8
:102B60000E4B00221A7008E008F024F900215420CE
:102B7000FFF7E6F9094B00221A70BA79FB790021B8
:102B80001846FFF799FC00BF0837BD4680BD00BF5F
:102B9000000013136908002050000020680800207E
:102BA00080B582B000AF012126481DF0A1FA264B66
:102BB00000221A600023FB710FE0FB791846FFF733
:102BC000EEFDFB79214A0021D154FB79204A0021F6
:102BD00042F82310FB790133FB71FB79022BECD90E
:102BE000FFF7A2F9FFF710F903461B0C1B04194A63
:102BF0001360184B1B681846FFF7F6F800233B607C
:102C000008E03B68DBB201211846FFF731FE3B6864
:102C100001333B603B68022BF3D903210520FFF70A
:102C200029F901230422052100201EF06DFC012357
:102C3000002200210020FDF78FFF002318460837EF
:102C4000BD4680BD00350A004C0800205008002019
:102C5000540800206008002080B500AFFFF776F828
:102C600000BF80BD80B582B000AF01210120FFF719
:102C700036FE00210220FFF732FE00237B6002E0D7
:102C80007B6801337B607B680A4A9342F8DD002150
:102C90000120FFF724FE01210220FFF720FE002380
:102CA0003B6002E03B6801333B603B68014A934272
:102CB000F8DDDAE73F420F0080B584B000AF03468D
:102CC000FB71FB79642B00F2DC8001A252F823F047
:102CD000652E00006F2E0000792E0000792E000076
:102CE000832E0000652E00006F2E0000652E000070
:102CF000652E0000832E0000832E0000832E00002E
:102D0000832E0000832E0000832E0000832E0000FF
:102D1000832E0000832E0000832E0000832E0000EF
:102D2000832E0000832E0000832E0000832E0000DF
:102D3000832E0000832E0000832E0000832E0000CF
:102D4000832E0000832E0000832E0000832E0000BF
:102D5000792E0000792E0000832E0000832E0000C3
:102D6000832E0000832E0000832E0000832E00009F
:102D7000832E0000832E0000832E0000832E00008F
:102D8000832E0000832E0000832E0000832E00007F
:102D9000832E0000832E0000832E0000832E00006F
:102DA000832E0000832E0000832E0000832E00005F
:102DB000832E0000832E0000832E0000832E00004F
:102DC000832E0000832E0000832E0000832E00003F
:102DD000652E0000652E00006F2E00006F2E000093
:102DE000652E0000652E0000652E0000832E000079
:102DF000832E0000832E0000832E0000832E00000F
:102E0000832E0000832E0000832E0000832E0000FE
:102E1000832E0000832E0000832E0000832E0000EE
:102E2000832E0000832E0000832E0000832E0000DE
:102E3000832E0000832E0000832E0000832E0000CE
:102E4000832E0000832E0000832E0000832E0000BE
:102E5000792E0000792E0000652E0000652E0000FE
:102E6000652E00000123FB730023BB7310E00023D9
:102E7000FB730123BB730BE00023FB730023BB73C5
:102E800006E0FB7919460B4817F0F6F900230CE031
:102E9000FB7B04220E2101201EF036FBBB7B0422AB
:102EA0000F2101201EF030FB012318461037BD46CC
:102EB00080BD00BF14DE020080B584B000AF0346C1
:102EC000FB710123FB60FB791846FFF7F5FEF86004
:102ED000FB6818461037BD4680BD000080B483B043
:102EE00000AF0346FB7197F90730002B0BDBFB7932
:102EF00003F01F02074997F907305B09012000FA28
:102F000002F241F8232000BF0C37BD465DF8047B78
:102F1000704700BF00E100E080B483B000AF03461B
:102F20003960FB7197F90730002B0ADB3B68DAB296
:102F30000C4997F907305201D2B20B4483F80023B1
:102F40000AE03B68DAB20849FB7903F00F03043B5F
:102F50005201D2B20B441A7600BF0C37BD465DF861
:102F6000047B704700E100E000ED00E080B483B036
:102F700000AF786039607B683A689A6200BF0C37AE
:102F8000BD465DF8047B704780B483B000AF7860C5
:102F900039607B68DA6A3B681A437B68DA6200BF93
:102FA0000C37BD465DF8047B704780B483B000AF3A
:102FB00078607B681B6A18460C37BD465DF8047B59
:102FC0007047000080B588B000AF0346FB71384BF6
:102FD0001B7883F00103DBB2002B64D0FB79012165
:102FE0001846FFF745FC012132481BF08FF80A21F3
:102FF00031481DF027FC042130481DF023F9012140
:103000002F481DF075F801212C481DF071F808219A
:103010002C48FFF7B9FF07211B20FFF77DFF1B207E
:10302000FFF75CFFFB791846FFF704FCF861254BBE
:103030001B6C244A23F001031364224B5B6C23F0C6
:103040001F022049FB6913434B64FB791846FFF7C5
:10305000D3FB0346002B0CBF01230023DBB21A462F
:10306000194B1A6000233B7300237B730023BB734F
:103070000023FB73144B1B68DBB23B74124B1B68C1
:10308000DBB27B740023BB740023FB7400233B750D
:103090000023BB6107F10C0319460A4807F09EFBA9
:1030A000034B01221A7000BF2037BD4680BD00BF10
:1030B0006C0800207008002002001E008006160028
:1030C00030253E00006004408808002080B58CB0A8
:1030D00000AFF860B9607A60FB70524B1B7883F0E8
:1030E0000103DBB2002B01D0002396E0FB68032B29
:1030F00010D84D4B1B6C4C4A23F001031364002184
:10310000494807F053FB494B00221A7048481BF00E
:1031100020F881E0FA68BB681344FA2202FB03F34B
:10312000444AA2FB03239B097B62BB68FA2202FB91
:1031300003F3404AA2FB03239B093B62002387F869
:103140002F300123BB627B68002B04D0012387F85A
:103150002F307B68BB627B6AB3F5803F03D2BB6ACA
:10316000B3F5803F01D3002357E07A6A00212E484F
:1031700007F0F2FA7A6A3B6AD31A1A4601212A4802
:1031800007F0EAFABA6A0021274807F0A3FB0122F8
:103190000121254807F09EFB234B1C225A60002387
:1031A0003B7400237B740123BB740023FB74224B0C
:1031B0001B68DBB23B75204B1B68DBB27B750323BE
:1031C000BB750323FB7597F82F303B760023FB611B
:1031D000154B1B6C144A43F00103136407F11003F1
:1031E0001946114807F0FAFA7A6A00210E4807F0EA
:1031F000B3FA7A6A3B6AD31A1A4601210A4807F0E1
:10320000ABFA0121084807F0D1FA084AFB7813709D
:10321000002107481AF08CFF012318463037BD46BD
:1032200080BD00BF6C080020006004406D080020D5
:1032300070080020D34D62108808002080B400AFD1
:10324000034B1B781846BD465DF8047B704700BFF2
:103250006D08002080B500AF0E48FFF7A6FE0346BC
:1032600003F00803002B13D008210A48FFF77EFE65
:10327000084B1B6C074A23F0010313640021054827
:1032800007F094FA044B00221A7004481AF071FFF8
:1032900000BF80BD006004406D0800207008002061
:1032A00080B483B000AF7860044A7B68136000BFCD
:1032B0000C37BD465DF8047B704700BF8C080020CA
:1032C00080B584B000AF0346FB71094B1B68F91D44
:1032D000002218461BF068F80346FB73FB7B002BAB
:1032E00001D0002300E0012318461037BD4680BD01
:1032F0008C08002080B584B000AF0346FB71094BF9
:103300001B68F91D002218461BF06FF80346FB737B
:10331000FB7B002B01D0002300E00123184610376F
:10332000BD4680BD8C08002080B582B002AF00236E
:103330000093064B064A0121042017F055F9024676
:10334000044B1A6000BFBD4680BD00BF900800203E
:10335000D8080020DC08002080B582B000AF03460A
:10336000FB71084B1868F91D0023002217F04CF977
:103370000346012B01D1012300E000231846083742
:10338000BD4680BDDC08002080B584B000AF786009
:103390000023FB73084B186800230022796817F09C
:1033A000E5F90346012B01D10123FB73FB7B184692
:1033B0001037BD4680BD00BFDC08002080B500AFDF
:1033C000044B1B68184617F069FA0346DBB218462F
:1033D00080BD00BFDC08002080B582B000AF154A78
:1033E00000211548FCF7DAFF034683F00103DBB246
:1033F000002B01D0002319E00023FB710FE0FB79C3
:103400000E4A1B01134400221A60FB790B4A1B0170
:103410001344043300221A60FB790133FB71FB79FA
:10342000022BECD9064B00221A60012318460837FC
:10343000BD4680BDB9360000905E0020E008002047
:103440001009002080B58EB000AFF860B960134657
:10345000FB71FB68002B02D0BB68002B01D100235D
:10346000E5E0BB68FB62FA6A07F1200310681860A8
:1034700092889A8007F120031846FDF771FF0346F2
:10348000002B01D00123D2E00023FB610023FB7657
:1034900007F11B0307F11C020021012001F0B8F81D
:1034A000FB7E002B01D10123C1E0FB7E012B13D158
:1034B00097F82220FB691B789A420DD197F82330A8
:1034C000C3F30603DAB2FB695B78C3F30603DBB22E
:1034D0009A4201D10123AAE0002387F83730002364
:1034E00087F83630FB79002B3DD053481BF04AF863
:1034F0000346002B37D0002387F835302FE097F8AC
:1035000035304E4A1B0113441B68FA689A4221D198
:1035100097F83530494A1B01134404331B68BB62DA
:10352000BA6A07F114031068186092889A807B7E4B
:10353000C3F30603DAB297F82530C3F30603DBB210
:103540009A4207D1012387F8363097F8353087F84B
:10355000373008E097F83530013387F8353097F881
:103560003530022BCBD997F83630002B03D03248B8
:103570001AF0C0FF5AE0002387F83430002387F8A0
:103580003730002387F8333014E097F833302B4A74
:103590001B0113441B68002B07D1012387F834302B
:1035A00097F8333087F8373008E097F83330013335
:1035B00087F8333097F83330022BE6D997F8343058
:1035C00083F00103DBB2002B01D000232FE097F83A
:1035D0003730FA6819491B010B441A6097F83730E5
:1035E000164A1B0113440433BA681A6097F837303F
:1035F000FA6912491B010B4408331A6097F83730F7
:10360000F97E0E4A1B0113440C330A461A700C4B08
:103610001B68002B0AD197F837301B01074A134467
:10362000074A1360FA2104481AF0F9FE01231846EC
:103630003837BD4680BD00BF905E0020E008002006
:103640001009002080B586B000AF1A4B1B685B687C
:103650007B617A6907F10C031068186092889A8080
:10366000144B1B689B68BB607B7CC3F30603DBB217
:10367000BB7125233B713B7B03F00203002B04D07D
:103680003B7943F00203DBB23B7100237B71094BB2
:103690001B681B68002B08D0064B1B681B68054A7B
:1036A00012685268391D03C9984700BF1837BD46D4
:1036B00080BD00BF1009002080B586B000AF7860E3
:1036C0007B68164A934225D1154B1B685B687B616A
:1036D0007A6907F10C031068186092889A80BA7BA7
:1036E0000F4B1B689B681B789A420CD1FB7BC3F382
:1036F0000603DAB20A4B1B689B685B78C3F30603C8
:10370000DBB29A4202D0FFF79DFF04E0002000F0F8
:1037100009F800E000BF1837BD4680BD905E00206C
:103720001009002080B588B000AF78603E4B1B6860
:103730001A7B013AD2B21A733B4B1B681B7B002BDE
:1037400042D1394B1B6800221A60374B1B6800229C
:103750005A60354B1B6800229A600023FB610023EE
:10376000BB610DE0BB691B01304A1A442E4B1B683C
:103770009A4202D1BB69FB6105E0BB690133BB61C1
:10378000BB69022BEED9284B00221A60FB695A1C38
:10379000274BA3FB021359080B465B000B44D31ABB
:1037A000FB61224AFB691B0113441B68002B06D0F6
:1037B000FB691B011D4A13441B4A136009E0FA69A7
:1037C000BB699A42E2D104E0174B1B689A68043245
:1037D0009A60154B1B68002B21D0134B1B685B684C
:1037E0007B617A6907F10C031068186092889A80EF
:1037F000BA7B0D4B1B689B681B789A420CD1FB7BF4
:10380000C3F30603DAB2084B1B689B685B78C3F30B
:103810000603DBB29A4289D0FFF714FF00E000BF35
:103820002037BD4680BD00BF10090020E008002001
:10383000ABAAAAAA80B5A0B000AFF860B9601346E1
:10384000FB7107F124030833FB67BB685B78013B1E
:103850000A2B00F2CD8001A252F823F0E9380000D3
:1038600089380000F13900000D3900003D390000B1
:10387000F1390000F1390000F1390000F1390000A0
:10388000F13900009D390000F868FDF745FD034659
:10389000002B01D00223ACE04D220021F86F2AF06A
:1038A00099F8FB685B79C3F30603DBB21846B96885
:1038B00007F11F03FA6F01F0FFFD07F1200319461E
:1038C000F868FDF7D5FCF97F3A6A0023F86FFDF739
:1038D0002DFC034687F87B3097F87B30002B01D016
:1038E000022386E0FF2384E0FB685B79C3F30603D1
:1038F000DBB21846FB791A46B96801F0A3FC03460F
:10390000002B01D1022374E0FF2372E0FB79022B2C
:1039100001D802236DE0BB689878FB685B79C3F33C
:103920000603DBB21946FB79BA6801F00FF80346CB
:10393000002B01D102235CE0FF235AE0F868FDF779
:10394000EBFC034683F00103DBB2002B24D04D22B5
:103950000021F86F2AF03EF807F118031946F868BD
:10396000FDF786FCFB6F85221A70FB6F06225A70EA
:10397000FB685B79C3F30603DBB2184600F0D8FEA0
:1039800003461A46FB6F9A70BA6900230321F86F49
:10399000FDF7CCFBFF232CE002232AE0F868FDF7BB
:1039A000BBFC034683F00103DBB2002B1ED04D228B
:1039B0000021F86F2AF00EF807F114031946F86891
:1039C000FDF756FCFB6F85221A70FB6F0C225A70B4
:1039D00000F03AFC03461A46FB6F9A707A6900239E
:1039E0000321F86FFDF7A2FBFF2302E0022300E0B2
:1039F000002318468037BD4680BD00BF80B598B013
:103A000000AF3B1D0833FB654D220021F86D29F006
:103A1000E1FFFB6D002B01D1002333E03B4619464B
:103A20001A48FDF725FCFB6D59221A70FB6D042224
:103A30005A70174B1B78022B01D1802200E0002224
:103A4000FB6D9A70FB6D9B7843F00103DAB2FB6D5E
:103A50009A70104B18780D4B5B79C3F30603DBB2F9
:103A60001946FB6D03331A4600F01EFB3A680A4BF9
:103A70000A21F86DFDF75AFB0346002B01D0002305
:103A800000E0012318466037BD4680BD18090020BC
:103A90001609002014090020B13A000080B582B058
:103AA00000AF7860FFF7AAFF00BF0837BD4680BDB2
:103AB00090B583B000AF0346FB71114B1B78022B0E
:103AC00017D1104B1C78631CDAB20E4B1A700E4BD8
:103AD0001B78184600F0CEFA03469C4209D20B4AE6
:103AE00000210B48FCF75AFC0A2109481AF097FC00
:103AF00002E0034B00221A700C37BD4690BD00BF98
:103B00001609002014090020150900209D3A000024
:103B10002009002080B59EB000AFF860B960134660
:103B2000FB7107F1100308333B67F868FDF7F4FBFE
:103B30000346002B01D002230EE1BB685B78032B08
:103B40004CD0052B00F08E80012B40F001814D22DE
:103B50000021386F29F03EFFFB79032B01D00223AF
:103B6000FAE03B6F59221A703B6F02225A70BB6811
:103B70009B7887F86E3097F86E203B6F9A7097F8B5
:103B80006E30032B03D897F86E30002B02D101233F
:103B900087F86E303B6F181D97F86E10FB685B79E5
:103BA000C3F30603DBB21A4600F00CFA034687F8AB
:103BB0006F303B6F97F86F20DA7007F16803194692
:103BC000F868FDF755FB97F86F300433D9B2BA6E39
:103BD0000023386FFDF7AAFAFF23BDE0604B1B7886
:103BE000002B01D00223B7E0BB689B7803F04003B1
:103BF000002B0ED05A4B02221A705A4B01221A7017
:103C0000FB685B79C3F30603DBB21A46564B1A70A6
:103C10000EE0534B01221A70BB68DA78514B1A70D0
:103C2000FB685B79C3F30603DBB21A464E4B1A708E
:103C30004B4B1B78002B13D00622F9684B4829F018
:103C4000BEFEFFF7DBFE034683F00103DBB2002B71
:103C500004D0434B00221A7002237DE0FF237BE057
:103C6000022379E04D220021386F29F0B3FEBB68B2
:103C7000DB7887F86E30FB685B79C3F30603DBB251
:103C80001A4607F16E031946104600F001FC97F83A
:103C90006E20FB685B79C3F30603DBB2194610465E
:103CA00000F09AFA034687F8773097F87730002BC0
:103CB00001D1022350E007F168031946F868FDF7C7
:103CC000D7FA3B6F59221A703B6F06225A7097F849
:103CD0006E203B6F9A703B6F97F87720DA703B6FDE
:103CE000181D97F86E10FB685B79C3F30603DBB20F
:103CF0001A4600F01FFA034683F00103DBB2002BE3
:103D000001D0022328E097F86E30022B03D097F8F9
:103D10006E30032B0ED1062387F877303B6F97F870
:103D20007720DA703B6F043397F8772010491846F4
:103D300029F045FE97F877300433D9B2BA6E0023E4
:103D4000386FFDF7F3F90346002B03D0022303E09D
:103D5000002301E000BFFF2318467837BD4680BD31
:103D60001609002014090020150900201809002058
:103D70005400002080B59EB000AFF860B9601346D3
:103D8000FB7107F11C0308337B67BB685B78013B61
:103D9000042B00F28F8001A252F823F0053E0000B0
:103DA000B13D0000B53E0000293E00005B3E000032
:103DB000F868FDF7B1FA0346002B01D002237AE040
:103DC0004D220021786F29F005FEFB685B79C3F373
:103DD0000603DBB21846B96807F117037A6F01F0E2
:103DE0006BFB07F118031946F868FDF741FAF97DF6
:103DF000BA690023786FFDF799F9034687F87330A5
:103E0000FF2358E0FB685B79C3F30603DBB2184677
:103E1000FB791A46B96801F015FA0346012B01D067
:103E2000022348E0FF2346E0FB79022B02D1BB6866
:103E300000229A70BB689878FB685B79C3F306032D
:103E4000DBB21946FB79BA6800F080FD0346002B0F
:103E500001D102232FE0FF232DE0F868FDF75CFA83
:103E60000346002B01D0022325E04D220021786F6C
:103E700029F0B0FD07F118031946F868FDF7F8F9C5
:103E80007B6F8E221A707B6F06225A70FB685B79FB
:103E9000C3F30603DBB2184600F04AFC03461A4699
:103EA0007B6F9A70BA6900230321786FFDF73EF9A2
:103EB000FF2300E0002318467837BD4680BD00BFD1
:103EC00090B585B000AF0023FB73154A3B1D07CAB0
:103ED00003C31A70134B01221A703C2200211248AE
:103EE00029F078FD0023FB7312E0FB7B342202FBF8
:103EF00003F30D4A9C183B1D184629F0A7FD024606
:103F00003B1D1946204629F05AFDFB7B0133FB730C
:103F1000FB7B002BE9D000BF1437BD4690BD00BF2E
:103F200050DE02005A0000205809002080B483B0FF
:103F300000AF78600B46FB701346BB70BB78002B5C
:103F400012D1BB780B4A342101FB03F313442C3309
:103F50007A681A60BB78074A342101FB03F31344E3
:103F60003033FA781A7000E000BF0C37BD465DF8B8
:103F7000047B70475809002080B483B000AF78609C
:103F80000B46FB701346BB707B68002B01D10023EE
:103F9000FB70BB78002B0DD1BB78094A0633DB00E0
:103FA0001344FA781A72BB78054A0633DB001344CF
:103FB0007A685A6000BF0C37BD465DF8047B7047D5
:103FC0005809002090B589B000AF78600B46FB70AF
:103FD0001346BB700023FB76244B07F10C040FCB78
:103FE00007C423807B68002B02D0BB78002B01D054
:103FF000FB7E37E0FA78BB781D490633DB000B44C3
:104000001B7A01339A4202DCFB78002B03D107F1C3
:104010000C03FB611AE0FB78012B07D1BB7834223B
:1040200002FB03F3124A1344FB610FE0BB78104A12
:104030000633DB0013445968FA7813465B001344D7
:104040001A011344663B0B440933FB61F86929F0FC
:10405000FDFC0346FB76FB7E1A46F969786829F079
:10406000AEFCFB7E18462437BD4690BD5CDE0200E8
:104070005809002080B483B000AF0346FB71FB7980
:10408000002B01D0002307E0FB79064A0633DB0052
:1040900013441B7A0133DBB218460C37BD465DF87A
:1040A000047B70475809002080B582B000AF0346FA
:1040B0003A60FB710B46BB71FA1DBB79114618467D
:1040C00000F0E6F9FA793B681A70FB79012B06D10A
:1040D0003B6800229A703B680122DA7023E0BB79CA
:1040E000134A0633DB0013445A68FB7919460B4622
:1040F0005B000B4419010B44663B13441A783B6880
:104100009A70BB790A4A0633DB0013445A68FB797C
:1041100019460B465B000B4419010B44663B1344E4
:104120005A783B68DA7000BF0837BD4680BD00BFD3
:104130005809002080B582B000AF78600B46FB7054
:104140001346BB70BB78002B01D000233EE0FB7808
:10415000012B16D1BB781F4A342101FB03F3134412
:104160002C331868BB781B4A342101FB03F313443A
:1041700030331B785B001A460146786829F01FFC33
:1041800023E0BB78134A0633DB0013445968FA78FE
:1041900013465B0013441A011344663B0B44D81CBE
:1041A000BB780C4A0633DB0013445968FA7813468F
:1041B0005B0013441A011344663B0B449B785B007D
:1041C0001A460146786829F0FAFB01231846083799
:1041D000BD4680BD5809002080B485B000AF0346BD
:1041E0000A46FB711346BB710023FB73BB79002B9E
:1041F00001D000231FE0FB79012B0AD1BB79114AC2
:10420000342101FB03F3134430331B785B00FB7351
:1042100010E0BB790B4A0633DB0013445968FA7986
:1042200013465B0013441A011344663B0B449B780E
:104230005B00FB73FB7B18461437BD465DF8047BBF
:10424000704700BF5809002080B400AF034B1B78B3
:104250001846BD465DF8047B704700BF5A00002039
:1042600080B485B000AFB881B9601346FB7102E03D
:10427000FB79013BFB713A7BFB7903F10043013B86
:104280005B00B9680B441B789A4203D0FB79013B71
:10429000002BEDDC3A7BFB7903F10043013B5B0033
:1042A000B9680B441B789A4201D1012300E0002336
:1042B00018461437BD465DF8047B704780B487B05C
:1042C00000AFB88139817A600023FB750023FB754C
:1042D00030E0397B7B681868FA7D13465B00134435
:1042E0001A01134403441B78994220D1797B7B68DF
:1042F0001868FA7D13465B0013441A011344034403
:104300005B78994213D10023BB7500BF7B681968A5
:10431000FA7D13465B0013441A0113440B449B7847
:10432000BA7D9A4203D2FB7D0233DBB208E0FB7D0B
:104330000133FB757B681B79FA7D9A42C9D3FF2351
:1043400018461C37BD465DF8047B704780B586B0C3
:1043500000AFF860B9601346FB710023FB75474B53
:1043600025225A70454AFB799370FB79002B01D0C6
:1043700000237FE0FB681B78002B41D1FB685B7852
:10438000012B3DD1FB793E4A342101FB03F3134459
:104390002C331868FB793A4A342101FB03F31344A8
:1043A00030331978BB681A785B781B021A430023F4
:1043B00062F30F030A4601461846FFF751FF034612
:1043C00083F00103DBB2002B01D0002352E02D4B20
:1043D0002D4A0021012000F01BF90346BB75BB7D6F
:1043E000002B01D0002345E0284B01221A70FB79F5
:1043F0001B01DBB20133DAB2204B1A701F4B39E0DC
:10440000FB790633DB001E4A1344181DBA68FB68AB
:104410001178527812020A43002162F30F011A78D0
:104420005B781B021A43002362F30F03024618460F
:10443000FFF744FF0346FB75FB7DFF2B19D0F9798D
:10444000F87D104B104A00F0E3F80346BB75BB7DC6
:10445000002B01D000230DE00C4AFB7D1370FB798B
:104460001B01DAB2FB7D1344DAB2044B1A70034B22
:1044700000E0002318461837BD4680BD940900208F
:10448000580900209C090020980900205A000020AB
:1044900080B483B000AF03463960FB713B681B7882
:1044A000002B0BD03B681B781946FB79084A063372
:1044B000DB0013441B7A0133994202DD3B68012281
:1044C0001A7000BF0C37BD465DF8047B704700BF13
:1044D0005809002080B483B000AF78607B681B78F7
:1044E000FF2B0CBF01230023DBB218460C37BD465F
:1044F0005DF8047B704780B483B000AF78607B6860
:10450000FF221A7000BF0C37BD465DF8047B704770
:1045100080B483B000AF78607B689B78012B0CBFC0
:1045200001230023DBB218460C37BD465DF8047B3F
:104530007047000080B483B000AF0346FB710B46A8
:10454000BB7113467B71F979BB79013B78791A46C7
:1045500092001A440B461B015B1A134403449B0050
:10456000034A134418460C37BD465DF8047B704778
:10457000A009002080B586B000AF0346FB710B4652
:10458000BB7113467B7105233B617B79FB7520E092
:10459000FB790133D9B2FA7DBB791846FFF7CAFF20
:1045A000F860FB790133D9B2FB7D0133DAB2BB7914
:1045B0001846FFF7BFFFB860B868FFF78BFF0346E8
:1045C000002B0CD1FA68BB681B681360FB7D0133BC
:1045D000FB75FA7D3B69013B9A42D9D300E000BFED
:1045E000B979FB79F87D1A4692001A440B461B01F3
:1045F0005B1A134403449B00044A13441846FFF714
:104600007AFF00BF1837BD4680BD00BFA00900205B
:1046100080B586B000AFBA607B600346FB730B4683
:10462000BB73BB7B012B01D906234AE0BB68002B7F
:1046300001D1032345E07B68002B01D1032340E037
:10464000FB7BBA7B1146184600F03FF8034683F027
:104650000103DBB2002B01D0072332E007F10F0288
:1046600007F10E031146184600F0DCFEBB7BF97B18
:1046700000221846FFF75EFF0246BB681A607B689F
:1046800005221A700023FB7511E0BB681A68FB7DD8
:104690009B0013441846FFF71DFF0346002B03D071
:1046A0007B68FA7D1A7005E0FB7D0133FB75FB7DAD
:1046B000042BEAD97B681B78002B01D1022300E090
:1046C000002318461837BD4680BD80B582B000AFC4
:1046D00003460A46FB711346BB71FB79002B09D0D8
:1046E000BB791846FFF7C6FC03461A46FB79013B27
:1046F0009A4201DC002300E0012318460837BD463A
:1047000080BD80B483B000AF03460A46FB711346F8
:10471000BB71FB79012B04D1BB79002B01D00023A5
:1047200000E0052318460C37BD465DF8047B704752
:1047300080B582B000AF0346FB71FB791846FFF7E6
:1047400099FC034618460837BD4680BD80B582B047
:1047500000AF786039607B681A783B681B789A42B2
:1047600010D97B685B7803F07F03DBB2002B09D0A4
:104770003B685B7803F07F03DBB2002B02D14FF084
:10478000FF331CE07B681A783B681B789A420FD293
:104790003B685B7803F07F03DBB2002B08D07B68BB
:1047A0005B7803F07F03DBB2002B01D1012306E02D
:1047B0007B6839680222184629F0F2F80346184649
:1047C0000837BD4680BD80B588B000AF3A601A4654
:1047D0000346FB710B46BB7113467B71FA1DBB1D73
:1047E0001146184600F01EFEFB79BA7911461846AC
:1047F000FFF787FF0346FB76B879F979FB7E013B2B
:10480000DBB21A46FFF796FE78617869FFF762FE21
:10481000034683F00103DBB2002B01D0002391E0BB
:104820003B681B783B723B685B78C3F30603DAB2E4
:104830007B7A62F306037B723B685B78C3F3C01339
:10484000DAB27B7A62F3C7137B727B79BB7219F0A1
:10485000D9FC03461846FDF76DF90346FB720023A9
:10486000FB611CE0BB79F979FA69D2B21846FFF70F
:1048700061FE78617869FFF72DFE0346002B13D1A6
:1048800007F1080319467869FFF760FF38613B6953
:10489000002B01D1012355E0FB690133FB61FB7E55
:1048A000FA699A42DEDB00E000BF6FF000433B6133
:1048B000FB7E023BFB61BB79F979FA69D2B21846FB
:1048C000FFF738FE78617869FFF704FE0346002B96
:1048D0001CD107F1080319467869FFF737FF3861E3
:1048E0003B69002B0EDDB879F979FB69DBB2013346
:1048F000DBB21A46FFF71EFEF860FA687B691B6898
:10490000136004E03B69002B08DB00E000BFFB699B
:10491000013BFB61FB69002BCDDA00E000BFFB69C6
:104920000133FB61BB79F979FA69D2B21846FFF716
:1049300001FE786107F1080304221946786929F01D
:104940003EF8012318462037BD4680BD80B58AB0A9
:1049500000AF3A601A460346FB710B46BB71134623
:104960007B713B683B62BB79012B05D8FB79012B3E
:1049700004D1BB79002B01D0002397E0BB79184606
:10498000FFF778FB0346FB77FB79002B57D0FB79C9
:10499000FA7F9A4253D3FA1DBB1D1146184600F008
:1049A00041FD7B79032B07D07B79042B35D13B6A02
:1049B00003331B78002B30D1042387F8263027E0FF
:1049C000BB79F97997F826201846FFF7B3FDB8614F
:1049D0003B6A1B78852B08D1B869FFF799FD034620
:1049E00083F00103DBB2002B0BD0B869FFF783FD26
:1049F000FB79013BDBB2B97997F826201846FFF71F
:104A0000B9FD97F92630DBB2013BDBB287F82630DF
:104A100097F92630002BD3DA0EE07A7907F10800F7
:104A20000023396800F09BFC3B6A1878B979FA7961
:104A300007F1080300F03EF800F078FB35E0FB7961
:104A4000002B30D17A7907F108000023396800F093
:104A500086FC0023BB7120E0BB791846FFF70AFBF8
:104A60000346FB77012387F827300DE03B6A18786F
:104A7000B97907F1080397F8272000F01BF897F899
:104A80002730013387F8273097F82720FB7F9A4299
:104A9000ECD9BB790133DBB2BB71BB79002BDBD026
:104AA00000F044FB01E0002300E001231846283712
:104AB000BD4680BD80B586B000AF3B600346FB714C
:104AC0000B46BB7113467B713B681B79002B02D0F0
:104AD0003B681B7900E00123FB740023FB7544E075
:104AE0000423BB753AE0BA7D7979BB791846FFF7A4
:104AF00021FDB860B868FFF7EDFC034683F00103C1
:104B0000DBB2002B24D0B868FFF702FD034683F028
:104B10000103DBB2002B1BD03B681B79002B03D1B8
:104B20003B681B7B002B08D0BB681A783B68196870
:104B3000FB7D0B441B789A420AD1B868FFF7DBFC77
:104B40007B79013BDBB2BA7DB9791846FFF712FDDC
:104B500097F91630DBB2013BDBB2BB7597F9163023
:104B6000002BC0DAFB7D0133FB75FA7DFB7C9A429A
:104B7000B6D3FB79852B78D03B681B7B002B02D00A
:104B80003B681B7B00E00123FB7400237B7567E01F
:104B900004233B755DE03A7D7979BB791846FFF7D0
:104BA000C9FCF860F868FFF795FC034683F0010341
:104BB000DBB2002B47D0F868FFF7AAFC0346002BB6
:104BC00041D03B681B79002B03D13B681B7B002B3A
:104BD00029D0FB681A783B6899687B7D5B000B44A1
:104BE0001B789A422FD1FB685B78C3F30603DAB2D5
:104BF0003B6899687B7D5B000B445B78C3F30603DD
:104C0000DBB29A421FD1FB685B78C3F3C013DAB200
:104C10003B6899687B7D5B000B445B78C3F3C013F2
:104C2000DBB29A420FD1F868FFF765FC3B681B7B4B
:104C3000002B08D07B79013BDBB23A7DB97918466D
:104C4000FFF798FC09E097F91430DBB2013BDBB2C7
:104C50003B7597F91430002B9DDA7B7D01337B7512
:104C60007A7DFB7C9A4293D300E000BF1837BD46A3
:104C700080BD0000F0B593B000AF0346FB71FB7937
:104C8000002B40F01B81934B186807F10C022D2379
:104C9000914918F0DBFB386407F10C03FB63002338
:104CA00087F8463004E1002387F84730F6E0002318
:104CB00087F84530E8E097F8474097F8465097F86E
:104CC000453097F8471097F8460097F84560FA6B1B
:104CD0003A601A4652001A442B461B015B1BD5183A
:104CE00023465B0023441A01D21AAB183A681344D6
:104CF0001D787A4C0246920002440B461B015B1A57
:104D0000134433442A4604F8232097F8474097F881
:104D1000465097F8453097F8471097F8460097F8AF
:104D20004560FA6B3A601A4652001A442B461B0142
:104D30005B1BD51823465B0023441A01D21AAB181B
:104D40003A6813445B78C3F30603DCB2634D024652
:104D5000920002440B461B015B1A134433449B0030
:104D60002B445A7864F306025A7097F8474097F834
:104D7000465097F8453097F8471097F8460097F84F
:104D80004560FA6B3A601A4652001A442B461B01E2
:104D90005B1BD51823465B0023441A01D21AAB18BB
:104DA0003A6813445B78C3F3C013DCB24B4D024640
:104DB000920002440B461B015B1A134433449B00D0
:104DC0002B445A7864F3C7125A7097F8471097F833
:104DD000460097F84530FC6B1A4652001A440346C9
:104DE0001B011B1AD0180B465B000B441A01D21A88
:104DF000831823449B78C3F34013DAB297F8471023
:104E000097F8463097F845001546344C1A469200FC
:104E10001A440B461B015B1A134403449B002344B2
:104E20002A469A7097F8471097F8460097F8453049
:104E3000FC6B1A4652001A4403461B011B1AD01879
:104E40000B465B000B441A01D21A831823449B784B
:104E5000C3F30303DAB297F8471097F8463097F890
:104E6000450015461D4C1A4692001A440B461B017C
:104E70005B1A134403449B0023442A46DA7097F8D4
:104E80004530013387F8453097F84530042B7FF6DD
:104E900012AF97F84730013387F8473097F847301B
:104EA000002B3FF404AF97F84630013387F84630C3
:104EB00097F84630022B7FF6F6AE2CE1002387F8F8
:104EC00046301AE1002387F847300CE1002387F8C9
:104ED0004530FEE0C85E002001100500A00900205A
:104EE00097F8475097F8463097F8456097F847107D
:104EF00097F8460097F84540894A3A601A4692006A
:104F00001A442B461B015B1B134433443A6812F8C6
:104F1000235022465200224403461B011B1AD0187C
:104F20000B465B000B441A01D21A831807F14802A2
:104F300013443C3B2A461A7097F8475097F846307E
:104F400097F8456097F8471097F8460097F845405E
:104F5000734A3A601A4692001A442B461B015B1BA7
:104F6000134433449B003A6813445B78C3F306034D
:104F7000DDB222465200224403461B011B1AD01800
:104F80000B465B000B441A01D21A831807F1480242
:104F90001344A3F13C02537865F30603537097F86A
:104FA000475097F8463097F8456097F8471097F8BC
:104FB000460097F845405A4A3A601A4692001A4409
:104FC0002B461B015B1B134433449B003A6813447C
:104FD0005B78C3F3C013DDB222465200224403467D
:104FE0001B011B1AD0180B465B000B441A01D21A86
:104FF000831807F148021344A3F13C02537865F388
:10500000C713537097F8471097F8463097F8450044
:10501000434C1A4692001A440B461B015B1A134478
:1050200003449B0023449A7897F8471097F846006A
:1050300097F8453002F00102D4B21A4652001A44E1
:1050400003461B011B1AD0180B465B000B441A01C8
:10505000D21A831807F148021344A3F13C02937853
:1050600064F34513937097F8471097F8463097F814
:1050700045002B4C1A4692001A440B461B015B1A42
:10508000134403449B002344DA7897F8471097F8B9
:10509000460097F8453002F00F02D4B21A4652008B
:1050A0001A4403461B011B1AD0180B465B000B4425
:1050B0001A01D21A831807F148021344A3F13C02E3
:1050C000937864F30303937097F84530013387F8BE
:1050D000453097F84530042B7FF602AF97F84730FC
:1050E000013387F8473097F84730002B3FF4EEAE96
:1050F00097F84630013387F8463097F84630022B50
:105100007FF6E0AE074B186807F10C022D23064925
:1051100018F052F9386400BF4C37BD46F0BD00BFEF
:10512000A0090020C85E00200110050080B500AF76
:105130000120FFF79FFD00BF80BD000080B594B047
:1051400000AF03463960FB71FBF73EFC02463B4B68
:105150001A600023BB640023FB63FB7983F0010327
:10516000DBB2002B09D0354B186807F13C0307F17F
:105170004002334918F0AEF9B864BB6C002B05D17E
:10518000FB6B2D2B02D1FB79002B4FD007F10C03C9
:105190002D220021184628F01DFC002387F84F30EF
:1051A00037E0002387F84E302AE0002387F84730A5
:1051B0001DE097F84F1097F84E0097F847301A46C1
:1051C00052001A4403461B011B1AD0180B465B0001
:1051D0000B441A01D21A831807F150021344443BBE
:1051E000FF221A7097F84730013387F8473097F855
:1051F0004730042BDDD997F84E30013387F84E3015
:1052000097F84E30022BD0D997F84F30013387F8FA
:105210004F3097F84F30002BC3D0084B186807F178
:105220000C022D23064918F0C7F8B8640020FFF7D8
:1052300021FD00BF5037BD4680BD00BFC85E0020C5
:105240000110050090B589B000AF03463960FB71CD
:105250001346BB710023FB770023FB72FB79012B04
:1052600014D83B689B78012B02D1FB79002B0DD120
:105270003B689B78002B09D0FB791846FEF7FAFEB5
:1052800003461A463B689B789A4201D2002362E0AB
:1052900007F10B03BA7907F10C00396800F05FF8E9
:1052A0003B7C1A463B7ED4183B689B78FA791146C2
:1052B0001846FFF726FA03469C4201DD00234AE028
:1052C0000023FB771FE0FA68FB7F13441B783B72D7
:1052D0007B7A6FF306037B727B7A6FF3C7137B7263
:1052E0003B68987807F10802F9790023FFF76BFA19
:1052F000034683F00103DBB2002B01D000232AE038
:10530000FB7F0133FB773B7CFA7F9A42DBD30023A0
:10531000FB7719E03B6898787A69FB7F5B001A4459
:10532000FB7A002B14BF01230023DBB2F979FFF7CE
:105330004AFA034683F00103DBB2002B01D00023BD
:1053400009E0FB7F0133FB773B7EFA7F9A42E1D392
:10535000FFF7ECFE012318462437BD4690BD80B40C
:1053600087B000AFF860B9603B601346FB71002363
:10537000FB7500233B61BB68DA1CFB681A60FB68A5
:1053800000221A71FB6800229A60FB6800221A73DF
:10539000FB79032B03D8FB6800221A603CE0FB7901
:1053A000033BFB710023FB7530E0FB681A68FB7D53
:1053B00013443B613B691B78002B1FD13B690133D0
:1053C0001B78002B27D0FA79FB7D0133D31ADA0F33
:1053D00013445B10DAB2FB681A73FB681B7B002B6B
:1053E00011D03B68002B02D03B6801221A703B6948
:1053F0005A1CFB689A60FB79FB7504E0FB7D013366
:10540000DAB2FB681A71FB7D0133FB75FA7DFB791B
:105410009A42CAD300E000BF1C37BD465DF8047B4A
:105420007047000080B485B000AF786039607B6859
:105430001B78002B34D13B681B78012B30D01C4BE0
:105440001B68002B2CD00023FB7324E03B681978E9
:10545000174B1868FA7B13465B00134403441B7810
:10546000994215D1124B1968FA7B13465B0013441D
:105470000B445A787B681A700D4B1968FA7B1346F7
:105480005B0013440B449A783B681A70012308E0D0
:10549000FB7B0133FB73074B1B78FA7B9A42D5D316
:1054A000002318461437BD465DF8047B704700BFE3
:1054B000DC090020E009002090B589B000AFB96098
:1054C0007A603B600346FB73BB6802331C78FB7B4E
:1054D0001846FEF7CFFD03469C4204D8BB68023352
:1054E0001B78002B03D1BB68023301221A70FB7BAF
:1054F000FB75BB689B78BB75FB7B002B07D107F165
:10550000160207F1170311461846FFF78BFFBB6819
:1055100002331B78FA7B11461846FFF7F2F8034670
:105520003B77BB681A787B681A707B680233BA686D
:1055300092781A707B6803333A7F1A707B68043361
:1055400000221A700023BB770023FB7722E0FB7D4B
:10555000B97DFA7F1846FEF7EDFFB861B869FEF72E
:10556000B9FF0346002B1AD1B869FEF7D1FF0346F5
:1055700083F00103DBB2002B09D0BB7F05337A68CF
:105580001344BA6912781A70BB7F0133BB77FB7F73
:105590000133FB77FA7F3B7F9A42D8D300E000BF0C
:1055A000BB681B78852B02D08E2B05D051E07B6821
:1055B000013303221A7051E07B68013303221A7011
:1055C00000237B770023FB772BE0FB7DB97DFA7FFF
:1055D0001846FEF7AFFFB861B869FEF77BFF0346D8
:1055E000002B23D1B869FEF793FF0346002B15D09B
:1055F000BA7F7B7F591C7977134406337A6813444A
:10560000BA6912781A70BA7F7B7F591C7977134474
:1056100006337A681344BA6952781A70FB7F0133F3
:10562000FB77FA7F3B7F9A42CFD300E000BF7B7FBE
:10563000002B12D0BB7F05337A68134400221A7006
:10564000BA7F7B7F1344DBB20633DAB23B681A7051
:1056500009E03B6800221A7000E000BFBB7F053301
:10566000DAB23B681A702437BD4690BD80B584B06D
:1056700000AF7860144B00221A60144B05221A60A8
:105680000023FB6018E0FB689B007A68134418460F
:10569000FEF720FF0346002B03D00C4AFB68136083
:1056A0000DE0FB689B007A681A440949FB6841F8E1
:1056B0002320FB680133FB60FB68042BE3D900BFA8
:1056C0001037BD4680BD00BFFC090020F80900204E
:1056D000E409002080B483B000AF0F4B1B680F4A71
:1056E0001268B3FBF2F102FB01F29B1A0C4A52F86A
:1056F00023307B60084B1B680133074A13607B68CB
:10570000002B00D1E9E700BF7B6818460C37BD4687
:105710005DF8047B704700BF000A0020F8090020F4
:10572000E409002080B483B000AF0F4B1B687B609E
:1057300000233B600BE00D4A3B6852F82330002BFE
:1057400002D17B68013B7B603B6801333B60064BC9
:105750001B683A689A42EED37B6818460C37BD4600
:105760005DF8047B704700BFF8090020E4090020C1
:1057700080B588B000AFF860B9607A60FB681B68DC
:10578000BB610023FB770023BB7784E0BB7F9B00DA
:10579000BA6913445B78C3F30603DBB2FB75BB7FC6
:1057A0009B00BA6913441B78BB75BB7F9B00BA6929
:1057B0001344DB787B75BB7F002B22D1FB7D002B54
:1057C00018D004220021786828F004F97B68BA7D9B
:1057D0001A70FB7D013B012202FA03F303F07F0301
:1057E000D9B27A68537861F3060353707B687A7D87
:1057F000DA7046E07A6853786FF3C713537000236A
:1058000056E0FA7FBB7D9A4213D0BB7F9B00BA69FA
:105810001A44FB681A60BB681A78BB7FD31ADAB2E5
:10582000BB681A70FB7D002B01D0012340E00023F0
:105830003EE07B685B78C3F30603DBB25AB2FB7DC4
:10584000013B012101FA03F35BB213435BB203F0A6
:105850007F03D9B27A68537861F3060353707A688C
:10586000537843F080035370134B1B68013B134A7A
:10587000002142F82310104B1B68104A002142F807
:105880002310BB7DFB77BB7F0133BB770A4B1B68C3
:105890000133094A1360BB681B78BA7F9A42FFF450
:1058A00075AFFB6800221A60BB6800221A700023E3
:1058B00018462037BD4680BDFC090020E4090020C1
:1058C00080B485B000AFF860B9601346FB71FF2368
:1058D00018461437BD465DF8047B704780B58AB022
:1058E00004AFF8607B600B46FB721346BB720B4B38
:1058F0001B88BB8207F10A0007F11402F97A7B6862
:10590000029301230193012300930346F86818F0E2
:105910000DFD034618461837BD4680BD6CDE0200FB
:1059200080B59EB000AFF860B9601346FB7107F117
:105930001C0308337B67BB685B78042B5CD0052BAA
:105940003ED0012B40F08580F868FBF7E5FC03466C
:1059500083F00103DBB2002B30D04D220021786FA1
:1059600028F038F807F118031946F868FBF780FCAF
:105970007B6F184607F031FA034687F872307B6F69
:105980005B221A707B6F02225A707B6FDB7803F008
:105990000703DAB27B6FDA707B6FDB7863F07F032B
:1059A000DAB27B6FDA7097F872300433D9B2BA6921
:1059B0000023786FFBF7BAFBFF234BE0022349E09B
:1059C000F868FBF7A9FC034683F00103DBB2002B68
:1059D00010D007F118031946F868FBF749FC786FF7
:1059E00000F0C2F8BA6900230321786FFBF79EFB31
:1059F000FF232FE002232DE0BB689B78DB09DBB29D
:105A00003B7507F11403184607F00CFA034687F8B4
:105A1000733097F87330002B03D097F87330012B55
:105A20000FD1062200210D4827F0D4FF0B4BFA6856
:105A30001168196092889A80012208490848FDF788
:105A400001FD97F87330002B01D1022302E0FF2300
:105A500000E0002318467837BD4680BDCC5E0020AC
:105A6000315B000080B588B002AF7860084611460F
:105A70001A460346FB700B46BB7013467B7000232F
:105A80007B61386AFAF7B6FF38613B69002B01D1B8
:105A9000012345E03B695B221A703B6903225A707F
:105AA000214B1B785A1CD1B21F4A11703A6993706E
:105AB00007F10C03184607F0A5F93B7BDB01DAB2CE
:105AC0003B69DA703B69DB785AB297F9023023F010
:105AD00078035BB213435BB2DAB23B69DA703B69BD
