:020000040000FA
:10180000022A8019F319F8227FB8181267F16809C3
:1018100068672202735CEF90181F93901900730A97
:1018200020364CE560FF22EFF5602202481C1BA623
:101830001BB01BB51BBA1BBF1BC41BCE1BD81BDDAB
:0A1840001BFB1C001CDC1CE11CE675
:01184A00FF9E
:10184B00023A7BC2D5E830E70FB2D5E4C39BFBE489
:10185B009AFAE499F9E498F8EC30E717B2D5121834
:10186B00841223C6E4C39BFBE49AFAE499F9E49847
:10187B00F880031223C630D50DE4C39FFFE49EFE10
:10188B00E49DFDE49CFC227895E4F6D8FD900000E5
:10189B007F007E10E4F0A3DFFCDEFA904FFFA3E5A0
:1018AB0083C394204011FEAF829020000E0FE48082
:1018BB0002F0A3DFFCDEFA121920022A9222325E1A
:1018CB00868559725A7380847A21EF26001C2D1C51
:1018DB00321C371C3C1C411C461C4B1C501C551C01
:1018EB005A1C5F1C641C731C781C7D1C821C871C7F
:1018FB00FA1CFF1D04C0607419C0E0C082C0837560
:10190B00600AE5FF54CF4490F5FF22C0607419C004
:10191B00E0C082C083756020E5FF54CF4490F5FF93
:10192B0022C0607419C0E0C082C083756036E5FFC9
:10193B0054CF44A0F5FF22C0607419C0E0C082C030
:10194B008375604CE5FF54CF44B0F5FF229088952A
:10195B00211690892C2116908939211690900121FE
:10196B001690A002211690A008211690A7FF211611
:10197B0090A66F211690A80A211690AFF52116900C
:10198B00A1DD211690AFF8211690B0032116909F80
:10199B00CC211690B7F2211690B02E211690B98B50
:1019AB0021169090C7211690BA1F21169090AD2149
:1019BB001690BACC211690BAE7211690A7E72116FC
:1019CB0090A7A72116908D55211690BB212116901B
:1019DB00BB49211690BBFF2116908E14211690AF98
:1019EB00EE211690AA14211690C000211690A1E4A6
:1019FB00211690AB55211690AEF3211690A3AF2173
:101A0B001690C046211690C0E62116909FF621161F
:101A1B0090C7DE211690C45C211690BC2421169031
:101A2B00C6A1211690C687211690C4B2211690C765
:101A3B00A9211690A0372116908149211690C4F345
:101A4B00211690C7F0211690A5CC211690BD8F21A1
:101A5B001690BF2C211690BE55211690C86F2116DB
:101A6B0090B57A211690C552211690C36D21169010
:101A7B009020211690A1A7211690A6B9211690A807
:101A8B007D211690AF8D211690BC64211690A7F284
:101A9B00211690C8DF211690A883211690910A2158
:101AAB001690A0FF211690A9342116908D36211681
:101ABB00908D01211690C99B211690C6032116907B
:101ACB008170211690865C21169086D2211690A7E4
:101ADB006E2116908586211690BF4021169090C4DA
:101AEB00211690A572211690C9C9211690C5A72160
:101AFB001690A928211690A164211690C181211658
:101B0B0090A53B211690AAE4211690A94A21169084
:101B1B008ACF211690C30A211690B6F3211690B1E5
:101B2B007B211690CAB2211690B0DD211690B72BEF
:101B3B002116909AE3211690B531211690CB3E21B8
:101B4B001690CB83211690CBA1211690CBF52116A5
:101B5B0090CC45211690B25D211690B2B121169012
:101B6B00CC54211690CE32211690CC6D211690CEEE
:101B7B00D2211690B2ED211690CEE4211690CEB262
:101B8B0021169084F42142908621214290865C217B
:101B9B00429086B021429088232142908A1D214297
:101BAB009083372142908A2B214290876721429064
:101BBB008A602142908A8321429081BC2142908A83
:101BCB00462142908A9C21429081642142908C3123
:101BDB002142908C9E21429087372142908DD021BB
:101BEB00429084362142908E922142908F0D214259
:101BFB00908F6C214290800021429083482142902B
:101C0B008EF3214290901221429090442142909069
:101C1B00CA2142908B572142908CDA21429091320B
:101C2B00214290A2E6212C90B5E6212C90B5F8210B
:101C3B002C90B6D1212C90B6D8212C909DCB212C59
:101C4B0090B6F4212C909E26212C909DB2212C90A5
:101C5B009D2A212C90B70E212C90B732212C9099D4
:101C6B0074212C90B740212C909BD2212C909D4914
:101C7B00212C909C19212C909CE3212C90B78B212B
:101C8B002C90A342212C9098C1212C908000212CC8
:101C9B00908B2F212C90A002212C90B7FE212C9001
:101CAB00B88E212C90BAEA212C90BB10212C909E3F
:101CBB0055212C909A07212C90BA61212C909C666F
:101CCB00212C909EE4212C909A1A212C909AD821A9
:101CDB002C90B3BC212C90B42F212C90B005212C2F
:101CEB0090AD24212C90BC9D212C90A9AC212C9043
:101CFB00BD35212C90BDE5212C90BAC7212C90A489
:101D0B0088212C90BE2E212C90BE91212C90BFC1EE
:101D1B00212C90BFF1212C90C005212C90C0432188
:101D2B002C90C05D212C0002207AE86480F8E93306
:101D3B00E83360110460F0ED33EC337009E8FCE933
:101D4B00FDEAFEEBFF220460DED3EB9FEA9EE99DEA
:101D5B00E8C2E78CF0C2F795F0400CE8CCF8E9CD7F
:101D6B00F9EACEFAEBCFFB12204585D0F058047080
:101D7B000320D5B3E80470075002B2D50220849239
:101D8B00D5EC0460F7E4CCC0E0C398F8603B941842
:101D9B006008400DD0E0FB02205CE4FBFAC9FC803C
:101DAB0028E830E406E4C9FBE4CAFCE830E305E4C8
:101DBB00C9CACBFCE854076010F8C3E913F9EA135E
:101DCB00FAEB13FBEC13FCD8F130F52FC3E49CFCBE
:101DDB00EF9BFFEE9AFEED99FDD0E0FBEF4E4D4CE5
:101DEB00701222DB03022081EC2CFCEF33FFEE336D
:101DFB00FEED33FDED30E7EB02205CEF2BFFEE3A0F
:101E0B00FEED39FDD0E0FB50130BBB000302208429
:101E1B00ED13FDEE13FEEF13FFEC13FC02205CEC55
:101E2B004D6011E8497017ED33EC3304600DE4FCA1
:101E3B00FFFEFD22E933E8330470F802207A12200A
:101E4B004558046009E4CC2481500628500902202F
:101E5B0084284003022081C0E0EB4A7044B980061D
:101E6B00D0E0FB022070EF4E701CBD8008EBFFEA48
:101E7B00FEE9FD80EBE98DF0A4FEE5F0021F13E90E
:101E8B00CDF9EAFEEBFFEF89F0A4FCE5F0CE89F08B
:101E9B00A42EFFE435F0CD89F0A42DFEE435F080BF
:101EAB0067EF4E7005BD80D780C3EF8BF0A4ACF00D
:101EBB00EE8BF0A42CFCE435F0F8EF8AF0A42CE5C3
:101ECB00F038FCE433CB8DF0A42CFCE5F03BF8EEC2
:101EDB008AF0A42CFCE5F038F8E433CF89F0A42C7D
:101EEB00FCE5F038CF3400CE89F0A42FFFE5F03EAF
:101EFB00FEE433C98DF0A42EFEE5F039CD8AF0A4B3
:101F0B002FFFE5F03EFEE43DFD33D0E0FB50070B29
:101F1B00BB000F022084EC2CFCEF33FFEE33FEED05
:101F2B0033FD02205C022084EC5D046005E859045B
:101F3B00700302207A122045580460F6EC4860F2D8
:101F4B00EC7004FDFEFF22C860DB2481C85009C37E
:101F5B0098600250060220819850CAF582E9294BFD
:101F6B004A7005AB8202207075F0007C1A7880C332
:101F7B00EF9BEE9AED99400DC3EF9BFFEE9AFEEDB2
:101F8B0099FDE842F0DC23ACF0D0E0FFD0E0FED0CE
:101F9B00E0FDAB8220E7101BEB60BAEC2CFCEF33BF
:101FAB00FFEE33FEED33FD02205CE803F830E7056E
:101FBB00C0F075F000EF2FFFEE33FEED33FD40B8B0
:101FCB0030E7C280AA75F020800E75F01080057581
:101FDB00F0087D007E007F003392D530D5031224AC
:101FEB0065EC334010EF33FFEE33FEED33FDEC3396
:101FFB00FCD5F0ED22E5F0247EA2D513CC92E7CDF3
:10200B00CEFF22EDD2E7CD33EC3392D524814006BF
:10201B00E4FFFEFDFC22FCE4CFCECDCC24E050113E
:10202B0074FF80EDC3CC13CCCD13CDCE13CECF1319
:10203B00CF0470F030D5DE022465E9D2E7C933E86E
:10204B0033F892D5EDD2E7CD33EC33FC5002B2D559
:10205B0022EC30E7100FBF000C0EBE00080DBD00C8
:10206B00040BEB6014A2D5EB13FCED92E7FD22748D
:10207B00FFFCFDFEFF22E480F8A2D574FF13FC7D6C
:10208B0080E480EFBB010689828A83E0225002E75D
:10209B0022BBFE02E32289828A83E49322BB010CDA
:1020AB00E58229F582E5833AF583E0225006E9259E
:1020BB0082F8E622BBFE06E92582F8E222E58229B8
:1020CB00F582E5833AF583E49322BB010989828A81
:1020DB0083F8E028F022500327F722BBFE05F8E334
:1020EB0028F3228A838982F8E4932822BB010FF814
:1020FB00E58229F582E5833AF583E028F022500941
:10210B00C58229F8E58226F622BBFE09C58229F88D
:10211B00E22582F222F8EA2583F583E9932822BB94
:10212B00010689828A83F0225002F722BBFE01F35B
:10213B0022F8BB010DE58229F582E5833AF583E8A8
:10214B00F0225006E92582C8F622BBFE05E925825E
:10215B00C8F222EF8DF0A4A8F0CF8CF0A428CE8D7E
:10216B00F0A42EFE22BC000BBE0029EF8DF084FFE5
:10217B00ADF022E4CCF875F008EF2FFFEE33FEEC58
:10218B0033FCEE9DEC984005FCEE9DFE0FD5F0E97F
:10219B00E4CEFD22EDF8F5F0EE8420D21CFEADF07E
:1021AB0075F008EF2FFFED33FD4007985006D5F083
:1021BB00F222C398FD0FD5F0EA22C2D5EC30E70925
:1021CB00B2D5E4C39DFDE49CFCEE30E715B2D5E43B
:1021DB00C39FFFE49EFE122170C3E49DFDE49CFCB3
:1021EB00800312217030D507C3E49FFFE49EFE22CB
:1021FB00C5F0F8A3E028F0C5F0F8E582158270026F
:10220B001583E038F022A3F8E0C5F025F0F0E58265
:10221B00158270021583E0C838F0E822BB010A89E9
:10222B00828A83E0F5F0A3E022500687F009E719D4
:10223B0022BBFE07E3F5F009E3192289828A83E4C6
:10224B0093F5F074019322BB0110E58229F582E529
:10225B00833AF583E0F5F0A3E0225009E92582F8F3
:10226B0086F008E622BBFE0AE92582F8E2F5F008C3
:10227B00E222E5832AF583E993F5F0A3E99322BBE8
:10228B00010789828A830221FB500B09C5F027F7CE
:10229B00C5F01937F722BBFE0D09F8E325F0F3C59E
:1022AB00F019E338F322F889828A8374019325F0BD
:1022BB00C5F0F8E4933822BB010DC58229C582C550
:1022CB00833AC5830221FB5011C58229F808E5F03A
:1022DB0026F618F5F0E58236F622BBFE11C58229EB
:1022EB00F808E225F0F5F0F218E23582F222F8E573
:1022FB008229F582E5832AF58374019325F0F5F0A5
:10230B00E4933822BB010A89828A83F0E5F0A3F0BB
:10231B00225006F709A7F01922BBFE06F3E5F009D8
:10232B00F31922EF2BFFEE3AFEED39FDEC38FC22D0
:10233B00E88FF0A4CC8BF0A42CFCE98EF0A42CFC41
:10234B008AF0EDA42CFCEA8EF0A4CDA8F08BF0A4BF
:10235B002DCC3825F0FDE98FF0A42CCD35F0FCEB1E
:10236B008EF0A4FEA9F0EB8FF0A4CFC5F02ECD39E3
:10237B00FEE43CFCEAA42DCE35F0FDE43CFC2275DA
:10238B00F008758200EF2FFFEE33FECD33CDCC334B
:10239B00CCC58233C5829BED9AEC99E58298400CB3
:1023AB00F582EE9BFEED9AFDEC99FC0FD5F0D6E491
:1023BB00CEFBE4CDFAE4CCF9A88222B800C1B90077
:1023CB0059BA002DEC8BF084CFCECDFCE5F0CBF9D8
:1023DB007818EF2FFFEE33FEED33FDEC33FCEB33D0
:1023EB00FB10D703994004EB99FB0FD8E5E4F9FAFE
:1023FB00227818EF2FFFEE33FEED33FDEC33FCC9E3
:10240B0033C910D7059BE99A4007EC9BFCE99AF975
:10241B000FD8E0E4C9FAE4CCFB2275F010EF2FFFE4
:10242B00EE33FEED33FDCC33CCC833C810D7079B4E
:10243B00EC9AE899400AED9BFDEC9AFCE899F80FB1
:10244B00D5F0DAE4CDFBE4CCFAE4C8F922EF5BFF7C
:10245B00EE5AFEED59FDEC58FC22C3E49FFFE49EBF
:10246B00FEE49DFDE49CFC22EB9FF5F0EA9E42F01E
:10247B00E99D42F0E89C45F022E8600FECC313FCA9
:10248B00ED13FDEE13FEEF13FFD8F122E8600FEF13
:10249B00C333FFEE33FEED33FDEC33FCD8F122BB3F
:1024AB00010789828A830224EC5005E9F80226C1D0
:1024BB00BBFE05E9F80226CD22E0FCA3E0FDA3E07C
:1024CB00FEA3E0FF22E493FC740193FD740293FEE0
:1024DB00740393FF22E0F8A3E0F9A3E0FAA3E0FB77
:1024EB0022ECF0A3EDF0A3EEF0A3EFF022A882858F
:1024FB0083F0D083D08212250F12250F12250F12D5
:10250B00250FE473E493A3C583C5F0C583C8C582C7
:10251B00C8F0A3C583C5F0C583C8C582C822A4254E
:10252B0082F582E5F03583F58322E6FB08E6FA08AF
:10253B00E6F922EBF608EAF608E9F622E0FBA3E05F
:10254B00FAA3E0F922F8E0FBA3A3E0F925F0F0E50C
:10255B0082158270021583E0FA38F022EBF0A3EAC1
:10256B00F0A3E9F022BB010789828A830225475039
:10257B0005E9F8022535BBFE05E9F80226D9898263
:10258B008A830226EBBB011A89828A83D0F0D0E0C2
:10259B00F8D0E0F9D0E0FAD0E0FBE8C0E0C0F00200
:1025AB0025675016E9F8D083D082D0E0F9D0E0FA55
:1025BB00D0E0FBC082C08302253EBBFE16E9F8D0FB
:1025CB0083D082D0E0F9D0E0FAD0E0FBC082C083A8
:1025DB000226E222BB010DE58229F582E5833AF55D
:1025EB00830225475007E92582F8022535BBFE07F4
:1025FB00E92582F80226D9E58229F582E5833AF5A9
:10260B00830226EBBB0120E58229F582E5833AF5AF
:10261B0083D0F0D0E0F8D0E0F9D0E0FAD0E0FBE8DE
:10262B00C0E0C0F00225675018E92582F8D083D0AE
:10263B0082D0E0F9D0E0FAD0E0FBC082C083022563
:10264B003EBBFE18E92582F8D083D082D0E0F9D0CA
:10265B00E0FAD0E0FBC082C0830226E222D083D016
:10266B0082F8E4937012740193700DA3A393F87422
:10267B000193F5828883E4737402936860EFA3A3DC
:10268B00A380DF8A838982E473EC8EF0A4CCC5F03F
:10269B00CCCDF8EFA4CEC5F02DFDE43CFCE8A42E88
:1026AB00C8C5F03DFDE43CFCEFA4FFE5F028FEE4DB
:1026BB003DFDE43CFC22ECF608EDF608EEF608EFE7
:1026CB00F622ECF208EDF208EEF208EFF222E2FB52
:1026DB0008E2FA08E2F922EBF208EAF208E9F22240
:1026EB00E493FB740193FA740293F92241270200DD
:1026FB004102B200C139C13BE0080200005A654EED
:10270B007359730000E00102001554E0010200163A
:10271B00A5410415060114004104140141041301E1
:10272B00C142011A00011700C14541216A05C14C84
:10273B0043230100000041231200C138013000C1C6
:10274B0035C136412BEE00C164432A1F0000004106
:10275B002A1E00412A2200C13CC13E4126950001A0
:10276B005E00C13341268700412694004424368005
:10277B00035A01602E240700000000000000000037
:10278B00000000000000000000000000000000003E
:10279B00000000000000000000000000000000002E
:1027AB00000000000041243F00C122C1A14124715F
:1027BB00004123F50041244100C11AC11FC119C1B9
:1027CB001EC11DC11BC120C11C41243A00412466FE
:1027DB00004123FA014124720141246FFF41246A15
:1027EB00FF41246D0041246E004124050041246803
:1027FB00004124350041246B004123FB004124069A
:10280B00004124030041244000412443004224455D
:10281B0000004124440041243E0041246400412433
:10282B003B0041246C004124700041243D004124B5
:10283B0067004124020041246500412442014124E8
:10284B00040041243C0041246900E00C02606A0052
:10285B0063733348433033050B0426412672FF4123
:10286B002671004126850041266F00C125C12441F8
:10287B00266E0041268400C129C127C128C123C16E
:10288B0026412683004426760000000041267EFF69
:10289B0044267A0000000044267F000000004126F9
:1028AB007050412675004126730041266D0041266C
:1028BB007400412872004128740041286F004128A0
:1028CB006E004128730041286D0041286C0041289F
:1028DB00700041287500C165412AE400412AE300DC
:1028EB00412AE600412AE500412944FF41293EFFE8
:1028FB0041294100C1664925614C6966656C696E69
:10290B00650041256B0041256A01C1EA6096235F92
:10291B0000000000000000000000000000000000AC
:10292B00000000000000000000000000000000009C
:10293B00000000000000000000000000000000008C
:10294B00000000000000000000000000000000007C
:10295B00000000000000000000000000000000006C
:10296B00000000000000000000000000000000005C
:10297B00000000000000000000000000000000004C
:10298B00000000000000000000000000000000003C
:10299B00000000000000000000000000000000002C
:1029AB000000000000004126B4004126BD00412676
:1029BB00C1004126C0004126BC004126B70042267B
:1029CB00B500004226C30000432B07000000412B3B
:1029DB000A004329C20000004129C70041263528BF
:1029EB005126140000000000000000000000000051
:1029FB0000000000422A420000422A4400000090DE
:102A0B0026F7E47E0193700122A3FF543F30E509C2
:102A1B00541FFEE493A360010ECF54E0B4E03AEFF1
:102A2B00FAEEF9E493FBA3E493FEA3E493FFA3E490
:102A3B0093FDC083C082C001C002C006C00712193B
:102A4B008AD007D006D002D001D082D083A30FEF5B
:102A5B0070010EDADAD9D880A954C025E060105085
:102A6B0005A3DFFD809CA3A3A3DFFDDEFB8093A367
:102A7B00A3DFFD808D75819575FF03759E0212197D
:102A8B002002326B0218C89026F7E47E019360F4A3
:102A9B00A3FF543F30E509541FFEE493A360010EDE
:102AAB00CF54E0B4E00EEFFAEEF9A3A3A3A3DAFD43
:102ABB00D9FB80D654C025E0604B5026E493A3F895
:102ACB005407240CC8C333C4540F4420C883400498
:102ADB00F456800146F6DFE480B0010204081020B2
:102AEB004080E493A3FAE493A3F8E493A3C8C582CC
:102AFB00C8CAC583CAF0A3C8C582C8CAC583CADF02
:102B0B00E9DEE78085E493A3F8E493A34003F68022
:102B1B0001F208DFF4022A953F241E16110E0B0951
:102B2B00070504030201F0C8A791776760463835A3
:102B3B003230242220140001010202030304040595
:102B4B000506060707BC201A2A1A2F1A341A391A37
:102B5B00481A4D1A571A611A931A981A9D1AAC1AD9
:102B6B00B61AC51ACA1AD91ADE1B011B061B0B0093
:102B7B000DFA20000DDC7000000000020C00013F7C
:102B8B003F3F0404041CB41CB91CBE1CC31CC81C52
:102B9B00CD1CD21CD75A2D5761766520342E333875
:102BAB0000822D1C16131110101D131D181D1D1D39
:102BBB00221B5B1B651CEB1CF01D091D0E1D271D2D
:102BCB002C1B2E1CAA1CAF1CF57F01D14E9026FA94
:102BDB00E01226682BFB042C03142C08152C0D1764
:102BEB002C1D302C22342C27362C2C3700002C1586
:102BFB00534EEF854E80802F534FEF8008534FDF9E
:102C0B008003534F7F854F90801D5350DF8550A01D
:102C1B0080155351FE800D5351EF80085351BF80E7
:102C2B000353517F8551B07F0CDFFE227F01D14EC4
:102C3B00902BD57401F0902BD5E0602EF17C91CECA
:102C4B00902BD5EFF0B17091BD9026F6EFF0B170EF
:102C5B00902BD5E05401F1B160DCA3E0F460D7EF29
:102C6B0030E7D3E4902BD5F080CC71D87F9F91B512
:102C7B0091CE9026F791CC9026FC91CC9026FDEF2F
:102C8B00F0D14A9026F5E0F4601BA3E0F4601690B7
:102C9B0026FCE0FD541F240FA3F0EDC4135407448E
:102CAB00809026FCF0221224C4E4E5C820E2FB8FBE
:102CBB00EB2271D87FD791B57FFF91B591D290263A
:102CCB00F5EFF07FFF91B5E5C820E2FBAFEB227F7C
:102CDB0001D14E304D14F17C91CE902BD7EFF0B14A
:102CEB0070902BD7E020E002C24D304D1791BD9074
:102CFB0026F6EFF1B1600BA3E0F46006EF30E702CC
:102D0B00C24DB170E4FFD14EA24DE433FF22902AA5
:102D1B004D1224EC902A4D1224C4D15A902A51E022
:102D2B006F6034F13D91DAEF6004F12880F7B16404
:102D3B0071D89026F8E0FFF11F6007902A4DF18CB7
:102D4B0091B5902A4DF18291B5902A4D91B1902A6F
:102D5B0051E0FFD148D322C3227F01D14ED24D7116
:102D6B00D87F0691B5F1D1EF70FB9026FCE0F460B3
:102D7B000A902BD47406F0F19670FC9026FAE012B0
:102D8B0026682DA9042DB1142DB6152DBB172DCBEF
:102D9B00302DD0342DD5362DDA3700002DC3434ED0
:102DAB0010854E80802F434F108008434F208003A7
:102DBB00434F80854F90801D4350208550A0801538
:102DCB00435101800D435110800843514080034310
:102DDB0051808551B0902BD4740CF0F19670FC227D
:102DEB009028801224EC902884122567F13D91DA0B
:102DFB00EF6004F12880F7B16471D89026F8E0FFFA
:102E0B00F11F6007902880F18C91B5902880F1829A
:102E1B0091B59028801224C4E48018902887F1C3C0
:102E2B006015902884F1AA6008902884E4F1BA8098
:102E3B0001E4FF91B580E4B170E4FF800691B5B178
:102E4B0070E4FFEFB4010443FE202253FEDF229017
:102E5B002A481224ECF13D91DAEF6004F12880F757
:102E6B00F1176007902A48F18C91B5902A48F182AE
:102E7B0091B5902A4891B191CE902A4CEFF0D14A5E
:102E8B00902A4CE0FF229028891224EC90288D1276
:102E9B002567F13D91DAEF6004F12880F7F11760B7
:102EAB0007902889F18C91B5902889F18291B59082
:102EBB00288991B1902890F1C3601491CE90288D00
:102ECB00122547EF12212A90288EE4F1D880E5B124
:102EDB0070E4FFC14EF13D91DAEF6004F12880F709
:102EEB00B16471D87F0191B57F0391B5B170E4FFE7
:102EFB00C14E9026F5E020E01271D47F3D91B57F55
:102F0B002A91B57F8091B57FA6D148227F01D14E02
:102F1B0071D87F0391B59026FBE0640222E5153052
:102F2B00E20FE51520E50AE51530E0057F011237C4
:102F3B00B52275FF02E5E430E10675E40675E4039E
:102F4B0022902BD6EFF0902703E06402702271D40D
:102F5B00902BD6E07FAB60027FB991B5B170902B0F
:102F6B00D6E0902702F070047F1EDFFEE4FFD14E07
:102F7B002271D87F0581B51224C47808122484E409
:102F8B00221224C47810122484E422902BD4E0144F
:102F9B00F0E022F13D91DAEF6004F12880F7221284
:102FAB002547EA494B22F09026F5E0FFF422E47521
:102FBB00F00112255002208F74FFF5F012221145FB
:102FCB00F022E4FFC14EE5C85404FF22E475F00182
:102FDB000221FB35F0FEAF01E4FCFDC15A7E1F7FE1
:102FEB00C8AB05E4FCFD902A51EBF0A1199026F734
:102FFB00E012212A9026FCE090000112213C902641
:10300B00FDE090000202213C7A2679FA7F031275CB
:10301B00647A2779037D017F08121B977A27790041
:10302B007F0931D77A2679FE7F0B31D79026FEE0C8
:10303B00FEA3E0FF4E6006BEFF1BBFFF18902703E9
:10304B00E024FD600304700431DE80099026FEE469
:10305B00F0A37440F0902703E024FD600304700894
:10306B009026FB7403F080069026FB7402F09026EA
:10307B00FAE0122668309C0430A71430AF1530B735
:10308B001730CD3030D53430DD3630E537000030F9
:10309B00C275FF01534AEF854AFD804775FF015307
:1030AB004BEF800E75FF01534BDF800675FF01530D
:1030BB004B7F854BC9802C75FF01534CDF854CCA68
:1030CB00802175FF01534DFE801675FF01534DEFA7
:1030DB00800E75FF01534DBF800675FF01534D7F69
:1030EB00854DCB122D707F1131C9E4FF122F4C127D
:1030FB002C379026F87402F09026FCE0247F6009B0
:10310B0004701631CF740A8007122EFD31CF74581C
:10311B00F09026FB7403F031DE9026FDE0F46002A4
:10312B0021C6902700E0FEA3E0FF64104E700690CE
:10313B0026FD740EF0EF64204E70069026FD740F82
:10314B00F0EF64404E70069026FD7410F0EF648033
:10315B004E70069026FD7411F0E4B5070AEEB4012B
:10316B00069026FD7412F0E4B5070AEEB402069041
:10317B0026FD7413F0E4B5070AEEB404069026FDA1
:10318B007414F0E4B5070AEEB408069026FD741526
:10319B00F0E4B5070AEEB410069026FD7416F0E4C1
:1031AB00B5070AEEB420069026FD7417F0E4B507B8
:1031BB000AEEB440069026FD7418F0022EE0EF44A0
:1031CB0020F5FE227F1031C99026F8227B017D026B
:1031DB00021B979026FE7401F0A3E4F02211131248
:1031EB001B6A126A9012196C7E007F15122FE3BFB7
:1031FB00540C7E007F16122FE3EF64A560147E0043
:10320B007F10C0061275BA12753AD00612384712E3
:10321B002A0A121AC0121A52121A02306404755773
:10322B00012212750512197B9002B6E0FFA3E0FE96
:10323B004FFDA3E0FC4DFDA3E0FB4D600BEE5FFFEC
:10324B00EC5FFFEB5FF470031240D0E5575403249F
:10325B00B6F582E43402F583E065579002B1F022B3
:10326B0075FF0275E404E4F5E4121892126EDE9019
:10327B0002B3EFF0901200E0B47A14901214E0B4A1
:10328B009C0D9002B3E0FF64056004EFB4032EE4E1
:10329B009002BCF09002BCE0FFC394405013E42FAB
:1032AB00F582E43412F583E4F09002BCE004F08084
:1032BB00E3901200747AF0901214749CF0121B9C21
:1032CB007B017A1279107D017F01121B977A12799B
:1032DB00117F211275647A1279127D017F22121BE4
:1032EB0097121B51126EDE121B4C9002B3EFF012B1
:1032FB006A96121B479002B3E0FF121C8CEF24FF5F
:10330B00B3926475FF0253E6BF124800121B56318D
:10331B00E820640C121C917B017A237924121A6623
:10332B00D2AF30647B1219671219A8121CA5121B9D
:10333B009240F29002B2E06043121B79EF700512DB
:10334B0075A74038E51470FCE51520E50312468897
:10335B00121976EF70FA126E8A5005126E765005BE
:10336B007F01122F4C9002B2E0B40204E4FF8009FB
:10337B009002B2E0B403057F01126F9B121B74E540
:10338B001530E1A11275774002E4F0E51520E50652
:10339B0091627D0191749002BC916512508780857A
:1033AB0012479B9002B2E06049201603200643129D
:1033BB001B79EF70051275A74038E51470FCE51505
:1033CB0020E503124688121976EF70FA126E8A50B6
:1033DB0005126E7650057F01122F4C9002B2E0B4AD
:1033EB000204E4FF80099002B2E0B403057F0112EE
:1033FB006F9B9002B2E0600C20160930060620018C
:10340B0003121A3E1219671219A8121C969002B0D9
:10341B00E07005121B748015126A87FF9002B0E0F2
:10342B00FEC3EF9EC394064002E4F0D2AD12180720
:10343B00E51530E11A1275774002E4F0E51520E549
:10344B000691627D0191749002BC916512508712B6
:10345B001B331247C261AB9002B4E075F0AA900225
:10346B00BF122529AF82AE8322900435EEF0A3EF75
:10347B00F0E514706F12466C5004C25791F0900433
:10348B0035E0FEA3E08E11F512AE11AF127DAA123C
:10349B006FB9E4F5FF75D908F510E5155421602CCB
:1034AB00E51530E505E4FF123BE7E4900437F090B7
:1034BB000437E004F01243A8EF6009900437E0C32F
:1034CB00941040EB7F02121C6E5315DE900413E038
:1034DB007F00B403027F01123BB4D25791F0D2EBC1
:1034EB00A24192ED22902BD8E5F4F0E0547FF5F455
:1034FB007F827E00123FD7123EBB5005E5FC20E6D3
:10350B00F6305708902BD8E04480F5F4123FD312D5
:10351B003EBB5005E5FC20E6F675FF01E5D520E73F
:10352B0002C322E5F4D330E601C322900426EEF069
:10353B00A3126A55C2EBE5146002C1F0E51530E247
:10354B0002C3221246745004C25791F01246F2E5A0
:10355B00D120E0FBE4F510900427E05407C394035B
:10356B00E49400502290042FE0FF90042BE02FFFF7
:10357B00E433FED3EF9440EE64809480400943150E
:10358B0004A24192EDD32290042C122547CFE9CF10
:10359B008A118F1290042FE0F516AE11126FE39083
:1035AB0004281225478B1C8A1D891E90042BE0F5DD
:1035BB001F900426E0FCA3E0FD54606032900430C1
:1035CB00E0FF123A21900428D1FBFB7A00900424EF
:1035DB00E0FEA3E0FF7C007D1712215EEF2BFFEADC
:1035EB003EFEEF2414FBE43EFA7D027F01C1D7902F
:1035FB000426A3E05407900414F0751408900428D3
:10360B00122547123A6E90042BE0FFAD16126FFF96
:10361B00900414E06403702C7B01FDF16CD1FBF181
:10362B00D3500A900428F1AA74011220D5E4F5FFB7
:10363B001276BB900428D1FB2428FBE433FA7D03DC
:10364B00E4FFC1D7900414E064027026F169D1FB4A
:10365B00F1D3400A900428F1AA74FF1220D51275F9
:10366B00FB900428D1FB2414FBE433FA7D027F0189
:10367B00805AE4F169D1FBF1D3400A900428F1AAF6
:10368B0074FF1220D5E4F5FFF16144104E7F056005
:10369B00027F0AEF547FFFE5D254804FF5D2E4F559
:1036AB00FF43D280900428D1FBFD7C00F1614410D4
:1036BB004E7E0060047F0A80027F05EF25E0FFEE5F
:1036CB0033FEEF2DFBEE3CFA7D017F01126DBBF15A
:1036DB0061FF126B414006A24192EDC322A24192BF
:1036EB00EDD2EBD322A24192EDD2EBC32290281C58
:1036FB00122547E92407F9E43AFA02208F9029E2D0
:10370B001225679029E51225477D05E4FF121971F3
:10371B009029E2F15AF101FF9029E5122547EF12AA
:10372B00212A9029E5F15A125F6C9029E21275213A
:10373B00F1019029E51256A3124F7F9029E21257FF
:10374B0032F101FF9029E5124DB2EF02212AA312AB
:10375B002547E9240122900426E0FEA3E022FB7D0D
:10376B0001FFF17390042822E4F5FF75D102E5D136
:10377B0020E0FBE4F5FFF5D1EF6008E4F5FF43D261
:10378B00808006E4F5FF53D27FEB6006E4F5FF4340
:10379B00D104ED6006E4F5FF43D1082290281C12FA
:1037AB002547E92407F9E43AFA22EF60089162E42D
:1037BB00FD917480103039037F0022121B88124652
:1037CB0088E433FF227F0122FF90042FE0FD900459
:1037DB002BE02DFDE433FCED2401FDE43CFCD3EFA9
:1037EB009DEC6480F874809822C2AFEFF45215D22E
:1037FB00AF229029DB7405F09029D8123823C0072B
:10380B009029D81225479029DBE0FF902890E4F00F
:10381B00A3EFF0D007022E91122567E4FCFD227571
:10382B00F005A42403F9742035F0FEAF017B017A77
:10383B0028794E90296BE4F0A37405F09029681158
:10384B0023C00790296812254790296B1275E6D083
:10385B00079027B91224EC9027BD12256731689089
:10386B0027C051049027B91224C4316E500221187D
:10387B009026FFE024FFFF9026FEE034FFFEE4FCE1
:10388B00FD9027B91224E01224589027C2511160E1
:10389B0030311AC39026FFE09FFF9026FEE09EFE7C
:1038AB009027C2F0A3EFF09027C012765950025127
:1038BB001A3123E94A6004311A80457E007F00806B
:1038CB003F9027C0E0FEA3E0FF4E603F9026FEE056
:1038DB00FCA3E0FDD3EF9DEE9C400A9027C2ECF0D9
:1038EB00A3EDF0800D9027C0E0FFA3E0A3CFF0A3E2
:1038FB00EFF03123E94A6004311A80047E007F0027
:10390B009027BEEE8FF01221FB80B6D322C32290FC
:10391B0027C2E0FEA3E0FF229027BD122547902788
:10392B00C2E0FFA3E0902887CFF0A3EFF09027B978
:10393B001224C4122DEB9027C2E0FEA3E0FFC3902C
:10394B0027C1E09FF09027C0E09EF09027B912248A
:10395B00E0E4FCFD12232E9027B91224EC9027BD36
:10396B000225479025A01224EC9025A4122567E48C
:10397B009025C7F0D39025A8E0941E9025A7E0943E
:10398B00004001227B017A2579A99025A7E0FFA3AE
:10399B00E0902890CFF0A3EFF09025A01224C41252
:1039AB002E919025A4122547E94A600C9025C7E07B
:1039BB00F582127592FF80027F009025C7E024A943
:1039CB00F582E43425F583E06F6002C3229025C7AE
:1039DB00E004FFF0D39025A8E09F9025A7E094008A
:1039EB0050C02290296F1123C00790296F122547D1
:1039FB009029725104D007216EE0FFA3E09025A718
:103A0B00CFF0A3EFF022EEF0A3EFF04E22EFF0A3F6
:103A1B00ECF0A3EDF0229004385118751401E4FB7F
:103A2B00FDFF1237737B017A047916516EE4FD7F2B
:103A3B0002126FFF1275FB9004167455F090043848
:103A4B00E0900417F09004147402F090043AE090A4
:103A5B00042430E507E4F0A3743CF022E4F0A374F3
:103A6B00F0F022E4F5FFE9126FDAEA540F42D622A6
:103A7B00C0E0C0F0C083C082C0D075D008C0FFD1F9
:103A8B00C68F18E51864027052E51424F8604224BE
:103A9B00076002619B90042412755A702AAB1CAA12
:103AAB001DA91E516EAD16AF1F126FFFE4FB7D01FA
:103ABB00FF12377375FF001276BB43FA0475FF00D4
:103ACB0071BC751408619B43FA0475FF0071BC61EE
:103ADB009BC2EB751400431504619BE518640160F0
:103AEB0002619B1273554002619BE510705471A8E3
:103AFB00E0900447F01272CF126D9F900413EFF019
:103B0B00900447E0FFD394094056900413E0D394FC
:103B1B0002400CEFD394AA7F0040027F01800D90EE
:103B2B000447E0D394407F0040027F01EF600280A6
:103B3B002F900447E0FFF51675FF008FD975100322
:103B4B00804EE51064037048F5FF900413E0C394B6
:103B5B0003E5D350055402FF80035401FFEF6004CB
:103B6B0071C3802CC2571234F075FF001246F5E575
:103B7B00D120E0FBC2EB431502751000900413E05B
:103B8B00B40307151671A8E516F09002B5E516F00B
:103B9B00D0FFD0D0D082D083D0F0D0E032E5122449
:103BAB0007F582E43511F5832271E743FA04E4F556
:103BBB00FF53D1FD43D101221246EDE5D120E0FBAD
:103BCB00E4F5FF75D908900413E07F00B403027F7E
:103BDB000171B4D2571234F0E4F5102275FF01E5F0
:103BEB00D530E602C322E4F5FF439A80EF1276ED5F
:103BFB00E4F5FF539A7FD3229029821275319029D5
:103C0B00887401F0C256F1D3D1BB5005E5FC20E618
:103C1B00F7D1C6BF0108E4F5FC75FC408007D1C69F
:103C2B00BF0202D322F1F2902983E0FF1272797561
:103C3B00FF0153D5DF53FAFB902982E0FF71E79028
:103C4B002983E0902982B4080EE012725F12762568
:103C5B002452D1A4FC8003E0B10C1245E6902984D8
:103C6B00E0FF1272F375FF0175FF03759B04F1D32F
:103C7B0075FC42E5FC20E104D1BB40F4902985E0C2
:103C8B00F075FF03E59B20E704D1BB40F4E59B20D7
:103C9B00E70D75FF03759B1F1246B4D256804FD1AB
:103CAB00B4124287902983E0FD90120FE05D701CE7
:103CBB00902982E0FFD1B4126B8A90120FE0FF9033
:103CCB002983E0FEEF4E90120FF0D16712447C7BFC
:103CDB00017A297986124594500FC3902987E09475
:103CEB0020902986E0940340E6D1B412470EF1E30D
:103CFB003056028109902988E0B40103D38001C3B7
:103D0B002225E025E02401F582E43412F583E0FC62
:103D1B00A3E0FDA3E0FEA3E0FF229026531224ECC8
:103D2B0075FF0243E1801246B41270C990266812E7
:103D3B0024F8002DC6C0E4F5FFF5A490120EF0A3F5
:103D4B00F09026637402F01276F5FFF595EF146090
:103D5B001314601C24027027902653B119D1AE9016
:103D6B00265F8016902657B119D1AE902660800A37
:103D7B0090265BB119D1AE902661E090266CF012C3
:103D8B0071C190266CE0700FF5FFF59675FF01750C
:103D9B00D70975F418805890120EE004F090266342
:103DAB00E01276ED902668B11990266412726DC3FD
:103DBB001224735009902664B119A31224EC902697
:103DCB006CE0FF127029902662E0FFA3E0FDA25584
:103DDB009253127077A3B119902A621224EC902699
:103DEB0063E0FF1271CE902663E0B10C1245E61230
:103DFB0076B26002A1527402F01276F5F595E5F4F5
:103E0B0054077016902668D185F1EC9026631272D8
:103E1B005D1224ECEBB10C1245E61276B270DA753A
:103E2B00FF03759580F1F9400343F420A25592549A
:103E3B001270F29026681276252420FFEE344ED1B4
:103E4B00A7FCE4FB7A04F9F8D195F1ECC2521244C9
:103E5B009FE4F5FFE5BD54F84404F5BD90121374CF
:103E6B0001F07E127F01E4FDEF2D1276DDFC901246
:103E7B0013E02CF00DEDB412EF22FF7E04FDFCE0FD
:103E8B00F8A3E0F9A3E0FAA3E0FB12233BE47B7D6C
:103E9B00FAF9F81223C6EF2401FFE43EFEE43DFDE0
:103EAB00E43C229026640224EC7B017A2979882257
:103EBB0075FF03E591C330E701D3227FFAF1A4E547
:103ECB00FC30E604D1BB40F7E5FC30E6037F032270
:103EDB0075FF01E5D530E6037F0222E5D57F003083
:103EEB00E7027F012275FF01E5D520E702C322C25D
:103EFB00581272AE204302E19453F4DF902B1FE073
:103F0B00FF71E775FF0143D81030440543F440803F
:103F1B000353F4BFE4F5FF53F5F0902B20E0FAA325
:103F2B00E0FBEA42F5EBF5F6D2581272AEF1A2E4E1
:103F3B00F5FFE59320E604D1BB40F4304457E5F49C
:103F4B0030E3047D288010E5F430E2047D288007FF
:103F5B00E5F430E1027D281243A17F28F1A4D1BB07
:103F6B0040FC7F78F1A4D1BB502BF1CC50F812461A
:103F7B002CEFC39D50F0F1CC50ECE5F720E5E7C2F8
:103F8B00581272AE1243A180DD53F4BFF1F9400514
:103F9B0043F420F1F2D3227FC87E00F1AF75FF030B
:103FAB004391802275FF03D3EF9402EE94004008F7
:103FBB0074FE2FFF74FF3EFEEFF592EE540FF5915A
:103FCB002275FF01E5E433227FE87E031245B180C1
:103FDB00CC7F3FFEF1AFF1A875FF03E59120E7FB26
:103FEB0022FC780102248475FF0153D8EF22901232
:103FFB000EE0D3940122E4F97D0CAC0109EC902B7B
:10400B00A093FC0FEFAA0670010E14F5828A83ECC5
:10401B00F0DDE77F02228F828E83E4F0A37404111C
:10402B003474261134A3E4F022F08F828E83A3A381
:10403B002275FF0275E40475E40175E4022275FF35
:10404B000275E404E4F5E422A24E92392290044274
:10405B00EDF0900441EFF0BF0411A3E0FB7D017F75
:10406B000111989004417403F0800B900442E0FB23
:10407B007D01E4FF1198900441E09002B2F0D2066A
:10408B001219BC9002BDEEF0A3EFF0D322EB600847
:10409B0075FF0153CDFD800675FF0143CD02ED6029
:1040AB000553FBDF800343FB20EF600775FF0243E3
:1040BB00E1402275FF0253E1BF2275FF028FE3221D
:1040CB00A24F923B22E4FF1237B5EF602F7A0279B1
:1040DB00B63108C394C040F57A0279B83108FFA312
:1040EB00E05FFFA3E05FFFA3E05FF460EB755701B8
:1040FB007E007F087B017A0279B6D153227B013196
:10410B00119002B6E02290043B122567C250E4FFE7
:10411B001237B5BF010A90043B1225473133925039
:10412B007F011237B5A250229027C471769027CA0F
:10413B001224F8000000019027CE7401F0F5FFE582
:10414B00D554C07004D1745002C322E4F5FF5396CA
:10415B007F75FF0175D504123FDC75FF0143D50850
:10416B00E4F5FF5394FBF5FF53847FF5FF7598FF40
:10417B009027C8E5F4F075F49C75FF01A3E5E4F016
:10418B0075E4257B017A2779CE51879027CEE064A1
:10419B00016002415AF5FF9027C77414F09027CAAB
:1041AB00123D1978011224979027CA1224ECE5A727
:1041BB0030E1FB43A7029027CA123D19E5A730E077
:1041CB0005E47B018002E4FBFAF9F8EF4BFFEE4AC2
:1041DB00FEED49FDEC48FC9027CA1224EC9027C752
:1041EB00E014F070B89027CA123D1978101224848D
:1041FB007B6D7A4E79C6784112233BEF2439FFEE63
:10420B003430123EA7FCE4FBFA7901F81223C6EE18
:10421B00547FFEE4FDFCD15F9027CA123D19EB6F72
:10422B00FFEA6EFEE8CDEFCDCCEECCECFF9027C4D1
:10423B00517EEF12212A9027C4517E900001ED127E
:10424B00213C90120FE030E606E4F5FF7596807581
:10425B00FF01E4F5D59027C8E0F5F475FF01A3E065
:10426B00F5E4D1DC9027CEE0B40103D38001C32267
:10427B00902ABCE0FBA3E0FAA3E0F922902B1C717F
:10428B00767F017C127D01E4FEED2EF582E43CF598
:10429B0083E02FFF0EEEB412F0901213E06F600963
:1042AB00902B1C517EE412212A22902ABBEFF0A303
:1042BB00717675FF01123EC6EF64016002C322E501
:1042CB00F430E602C3227FE87E03123FAF123FA811
:1042DB00718B400122C2571234F0902ABBE0FF12BF
:1042EB003BE753F4DFD2571234F07F787E00713303
:1042FB0075FF0153E4BFE5E430E7FBD1227F8A91E0
:10430B009730E605517BE4800775FF01517BE5D9BA
:10431B0012212A75FF0143E440123FF9400343F495
:10432B0020718B400122D322CDEFCDCCEECC717F0F
:10433B00AB94EF4BB1A9CBEFCBFAE59130E71D7105
:10434B0082A994E9F582EF4582FFEB2DF582EA3CD9
:10435B00F583C3EF9582E5F0958340DEE59120E789
:10436B0009CEECCECFEDCF123FDF22EBF0A3EAF07C
:10437B00A3E9F02275FF03AF93EF75F010A4FF22B2
:10438B00E5F730E50FE5F754C07005123EBB40F082
:10439B0071A1C322D32275FF03E4F59122E4902A85
:1043AB00B3F0A304F0E4902AB6F0E5FA30E1FB7524
:1043BB00FF01E5D530E7037F0022E4F5FF75E50843
:1043CB00123FF2E5D530E61A75FF01902AB5E5DA12
:1043DB00F0E4F5DA75FF01E5D630E3FB902AB6740D
:1043EB0001F075FF03759B0475FC4175FF03E59B9D
:1043FB0030E7FBE4FB75FF038B95EB123D0CB1E64D
:10440B000BEBB403F075FF03759580E4F5FF758E28
:10441B00C8917C75FF0153D5FB71A17F14123FA48A
:10442B00123FE375FF0143D504902AB6E070087183
:10443B00A1123FA2123FE37B017A2A79B4F10E90CD
:10444B002AB4E0902AB37006E04404FF8002E0FF38
:10445B00902AB3EFF090120EE0B4010675FF014302
:10446B00D81075FF01902AB5E0F5DA902AB3E0FF7A
:10447B0022E4F5FF75C2E17F1E919730E707E4F563
:10448B00FF75C2A122E4F5FF75C28122FE71339044
:10449B00120FE02290269E1224ECE4F5FF75BB056B
:1044AB0075BB8575FF0175D502205205123FDC9156
:1044BB007C75FF0143D520305202A166E4F5FF5312
:1044CB008EF7438E077D04E4F5FF8DBCF5FF43B1FA
:1044DB0002E5B130E2FBE4F5FFAFDFEFFEACDEEC63
:1044EB00FBEBFFED25E0249CF582E43426F583B14C
:1044FB008DF5FFF5FF53B1FD0DEDB40CCA90269E63
:10450B00123D197809122484A3B18DFDED25E02409
:10451B00A6F582E43426F583E0C313FAA3E013FB7C
:10452B00B180E0C313FEA3E0132BFFEE3AFEB18084
:10453B00EEF0A3EFF0ED240490120DF0EDC3940711
:10454B005019CFEDCF0DEFB181E0FEA3E0FFC3908B
:10455B0026A3E09F9026A2E09E50B1E4F5FF758E56
:10456B00C8F5FF90120DE0F5BCE4F5FF75BB807547
:10457B00FF01F5D522ED25E024A4F582E43426F5E0
:10458B008322EEF0A3EFF0E422717FAD94EF4DB1F7
:10459B00A98FF012230FE591C330E701D32224FB3F
:1045AB00FFE5F034FF22902AABB1DE7A2A79ADB168
:1045BB00945014902AADE0FEA3E0FF902AACE09F4C
:1045CB00902AABE09E400B902AABE0FEA3E0FF12DB
:1045DB003FAF22EEF0A3EFF07B0122902AAF122423
:1045EB00EC75FF01902AAFA3E0FDA3A3E4FFFEE46B
:1045FB00FC78101224848FE1902AAFA3A3E0FEA3D2
:10460B00E4FFE4FDFC78081224848FE2902AAFA328
:10461B00A3A3E0FF8FE32275FF01E4F5EA75EAFF40
:10462B0022D122AFD922E4FFE5F754C0600280F11A
:10463B0075FF01E5D530E30F123FCC50F3D12CEFD2
:10464B0060EE123FCC50E92290296BE4F0A3740486
:10465B00F0023847C8ECC8C9EDC9CAEECACBEFCBDC
:10466B0022C2EBA2ED9241C2EDE5F4C330E701D3D8
:10467B0022D1745006D1D550028001C322E51470AB
:10468B0026D16C5005C2571234F0D1B47F08121CDE
:10469B006ED1F2E5D120E0FB4315205315FEE4F576
:1046AB0010A24192EDD322C322E5FA30E1FB75FC57
:1046BB008075FF0153D5EFE4F5FC75FC4071A1E566
:1046CB00FC20E6FB22E4F51480B3E5F754E024FF6D
:1046DB0022E4F5FF7584E6F5FF439404F5FF759826
:1046EB001422C2571234F0E4F5FFE5D154FE440214
:1046FB00F5D122E51520E507D1EDE5D120E0FBE46E
:10470B00F51022C25175FF03759B1F75FF039012A5
:10471B000FE0FF20E71BE59A540FC394024012EF02
:10472B004480F0E4F5FF75C2A143FC0475FF03D28E
:10473B0051E5FC30E609E59A540FC3940540CCE5EE
:10474B00FC30E611E412212A75FC80F5FC75FC4067
:10475B00E5FC20E6FB305103123E67229002B1E0EC
:10476B0064AA2411FFF022AE07F167EE04FEEF8E70
:10477B00F084AFF022F167EFC4540F6FFEEFC41358
:10478B0054076EFEEFC413131354016E5403FF2230
:10479B00303A0D121A20EF6007C25E121A16C23A97
:1047AB00229002BAE0FCA3E04C700A9002BAEEF041
:1047BB00A3EFF0D322C3229002BAE0FEA3E0FF4E98
:1047CB006009CAEECAC9EFC912268E22EFB40109DD
:1047DB00D2AD75FF0143AE4022C2AD75FF0153AEA2
:1047EB00BF2275C80122E5C85402FF75C80222E535
:1047FB00C85401FF2275FF02D2ADD2BD75FF027501
:10480B008E7175580975FF02E58E546F4480F58ED5
:10481B0022C0E0C0F0C083C082C0D075D008C0FFFA
:10482B0075FF02E58E30E42975FF02E58E54EF44E7
:10483B0010F58E900000E004F0E55830E0020531F1
:10484B00E558700B7558099024C7122FD8800215A4
:10485B005875FF02E58530E40411750559D0FFD07A
:10486B00D0D082D083D0F0D0E03275FF02438510D8
:10487B0022902B131225677F011237B511AD45F02E
:10488B00601F902B13122547C003C002C00111AD4E
:10489B00FFAEF0F58285F083D001D002D003122653
:1048AB009222902B13122547E924DAF9E43AFA0203
:1048BB00222791C74AC36001D34002818AE924B7FA
:1048CB00123701FF7B017A2B7919126010302B15EF
:1048DB0091C7240212370130E50BE490216CF09064
:1048EB00216BF0611091C724DF1237016401706AEC
:1048FB0091C7240212370120E44691C724BA12371C
:10490B0001B1BD121A0C503891C724BC1237015497
:10491B00F0902B1AF091C7B1B6F1C17001D3923F51
:10492B00902B1AE024FF9240B1C8E07E0160027E1A
:10493B0004EF4EB1BD12588D91C7F1BA7402610BE1
:10494B0091C7240312370130E410918BB1B6F1C13A
:10495B007001D3B1C4EF4401817B91C724DF1237BF
:10496B00016402703091C7240312370120E40D91CA
:10497B00C724BA123701FF121A11801991C72403E9
:10498B00123701918BB1B6F1C17001D3B1C4902B29
:10499B0019E04F817B91C7240212370120E202619B
:1049AB001091C724DF123701FFC394035005E49025
:1049BB0021C9F0EFD39403400241C2902B19E0B40C
:1049CB000108C25C91C724BA8006C25C91C724BDA2
:1049DB00123701902BA0F01219EE91C72403123756
:1049EB000154EF91C424B61237016557703F91C73C
:1049FB0024B712370130E73591C7B1B612761A706A
:104A0B002C91C724B9123701D39440502091C7B1D0
:104A1B00B6EF54F84402FFF192F19F4404B1BD127A
:104A2B00588D91C724BB1237014410610B91C724D9
:104A3B00BA1237017A2B791A902782F1E87A2B096F
:104A4B009027851225671B7A0079907D011219FD3D
:104A5B00EF6064902B1AE0FFC454F0FE91C724BCA6
:104A6B00F9E43AFAEE91C41256C5C003C002C00174
:104A7B007B007A007990F1ADD001D002D0031219EE
:104A8B009991C7B1B6122227FF902B1BE0FDF1E2E3
:104A9B0091C7B1B6E48FF012230F91C724DF125CDC
:104AAB00E512212A902168E0B40203D38001C3925E
:104ABB003FF1A14404817B91C724DF123701C394DA
:104ACB0004504291C724BA123701B1BD90297874B2
:104ADB0001F012559791C7B1B612222754F8FDE594
:104AEB00F0FEED4FFFF192EF54076402C37001D358
:104AFB00B1C4EF4401B1BD12588D91C7F1BA740422
:104B0B0012212A818091C724BA123701FFE4FD12CA
:104B1B001AD4302B02818591C724DF123701C3943D
:104B2B00054002818591C7240312370120E00281E1
:104B3B008591C724B6123701FFC00791C724BA125B
:104B4B003701FD91C72408F9E43AFAC003C002C04B
:104B5B000191C724B11237019028BBF091C72402F1
:104B6B00123701540344019028BCF091C724DC1187
:104B7B00B6FFE5F01276D5D001D002D003D00712E4
:104B8B001B29EF70028185B1A72405123701442040
:104B9B00B1A62414F17FB1A712767512212AB1A701
:104BAB001276071219719020C812767EB1A71237B0
:104BBB00AE12768691C7F1F891C724DCF9E43AFA84
:104BCB00741B75F02E12230F91C7B1B6122227AEAC
:104BDB00F054F8FFF192EF4402FFF192B1A72404D5
:104BEB00123701FF91C72402F17FB1A724061237B8
:104BFB0001FF7440C39F500891C7F1B3742F801607
:104C0B007411D39F500BEF24EFFF91C7F1B3EF80DB
:104C1B000591C7F1B3E412212A91C724B1123701D0
:104C2B00FF91C72408F9E43AFAC003C002C001B1EE
:104C3B00A7241CF9E43AFAF1ADD001D002D003124B
:104C4B00199991C7125CFF7B01C003C002C001B16F
:104C5B00A71256BA7B01F1ADD001D002D0037F1160
:104C6B0012199991C7F1BA740512212AF19F4406C2
:104C7B00B1BD12588DB1BE021B83E4FF121B602223
:104C8B0054EF12212A902A1F122547E92406F9E432
:104C9B003AFA122227FF902A1F122547E92404F91A
:104CAB00E43AFAE5F08FF012230F902A1F122547F2
:104CBB00E924DFF9E43AFA740112212A902A1F122F
:104CCB002547E92291C724B7123701FF20E702A13C
:104CDB005E540F6401707C91C724B612370165577F
:104CEB007071202A6E902A2204F091C724BB1237D0
:104CFB000130E34291C724BC123701C4540FFF7E2D
:104D0B000091C724BD125DFD12208F540F702791A7
:104D1B00C72FF9EE3AFAE924BE1237015460601638
:104D2B0091C724BC123701C4540F24041276C47DDE
:104D3B006E7C000257F9E49021D5F091C724BC1288
:104D4B003701C4540F75F03EA4FDACF07E677FF1C4
:104D5B0002506491C724B712370120E73691C7245C
:104D6B00BA123701F1EE91C724B7123701FF20E4D5
:104D7B002230E70A91C724BB12370120E41591C7F3
:104D8B0024BA123701FF91C724B2F9E43AFCAD0102
:104D9B00121A071257F17F01021B60FF9020C812F5
:104DAB002547E922902738122547E92404F9E43AEC
:104DBB00FA22FF902A1F022547923FC240203F2A2A
:104DCB00304013E55454F0FFBFF00353540F7410ED
:104DDB002554F554803CE554540FFFBF0F03535437
:104DEB00F00554E554540FC48028304013E5535458
:104DFB00F0FFBFF00353530F74102553F55380127C
:104E0B00E553540FFFBF0F035353F00553E55354B2
:104E1B000FC454F0FF2290272F127517902735F1EE
:104E2B0070E92402F17F902734E0FF74A9C39F50EF
:104E3B000374A9F0902734F170E92408F9E43AFAE5
:104E4B00C003C002C001902731122547F1ADD0013C
:104E5B00D002D003121999B1AFE4F5F012230F90E1
:104E6B002734F170E924B1F17F902736E0FEA3E0FF
:104E7B00A3F187902738F1F490272FE0FC90273B84
:104E8B00F0F198FE6402603CF172E924BA1237012A
:104E9B00F552B4FF0B90273BE054F84401F080240B
:104EAB00EE64046006F198FFBF0119EC540770140F
:104EBB00F172902730E0902978F0AF52125597900D
:104ECB00273BEFF0B1AF12222754EFF1CDF198FF52
:104EDB00BF020FB1AF1222274410FDE5F08DF01287
:104EEB00230F302C2DEF64046006F1986406700FCD
:104EFB00F1D5BF0203D38001C3923FD240800DF1A5
:104F0B00D5BF0203D38001C3923FC240B1C8EE4F5D
:104F1B00800C902730E0FF902291E0125F84902765
:104F2B0030F0D22CF16DE924B7F17F540F12212A06
:104F3B00121B79EF6005E49021C9F090273BE0FF4D
:104F4B00B1AFE48FF012230FF16D12588DB1AF1288
:104F5B002227F171E92406F9E43AFAF1CEF1720253
:104F6B001B83902730E0FF902738022547FF12253F
:104F7B0047E92406F9E43AFAEF02212AFF12254702
:104F8B00E924DCF9E43AFAEE8FF002230F90273094
:104F9B00E0540F22D23FD240B1C8EF227B017A02FC
:104FAB0079B690299402256724B1F9E43AFA2224C0
:104FBB00DFF9E43AFA2212222754076402C322FDD6
:104FCB00EF4DFFE5F08FF002230F902730E0FE90BE
:104FDB00273BE05407FF22EF54F84DFF22FF7B01E4
:104FEB00022567FF7D01021AD4122547E924DAF95D
:104FFB00E43AFA741B75F06502230F902B94EEF0D4
:10500B00A3EFF0124CC7124DB61222275407FF64C0
:10501B00026005EF64037016115B25E0FBEC33FABD
:10502B00EDAE047803C333CE33CED8F9801C115BBD
:10503B00AE047803C333CE33CED8F9FBAA06EDAE5C
:10504B00047805C333CE33CED8F92BFFEE3AFE22CC
:10505B00902B94E0FCA3E0FD22902B96EEF0A3EFB7
:10506B00F0902A1E7401F0AE04AF051106AC06AD2C
:10507B0007902B96E0FEA3E0FF0219589002B5E0D3
:10508B00FD902830127638788712253EEDD39408A0
:10509B00500281C01236FEFFEDC39F500281C0E467
:1050AB00788EF6900413E09021CFF0121A1B902803
:1050BB0030E0FEA3E07B012405F9E43EFA12208FD9
:1050CB00FF540F64017061EF90283030E71CA3E0B0
:1050DB00FF240AF9E43E125F74FD7C00EF240BF908
:1050EB00E43EFAE92DF9EC3A800BE0FEA3E07B01FC
:1050FB002409F9E43EFAE92401F9E43AFA90283755
:10510B00122567902837F1DEFF601864186014EFE2
:10511B006407600FEFB403109028371275481266BE
:10512B001E70057FFE121B387B007A007987126098
:10513B003B91C224041237019021E3F0788EE620D4
:10514B00E20241207F01121B6F902832122567EA81
:10515B00494B7002412091C97F0312588D91C22493
:10516B000512370130E40D91C9E924B71237014418
:10517B001012212A91C9E9125F6A902832124FF45A
:10518B0091C9E924DCF9E43AFA741875F012122388
:10519B000F788FE6FF91C9E924BA124F7F9028321E
:1051AB00124DB212222754F8FF9021CFE0124FCAB2
:1051BB0091C2240512370130E50F91C9E924B712CA
:1051CB003701442012212A803E788A12253512207D
:1051DB008F64017032E9240112370164187028784A
:1051EB008DE6788AB40411122535E92403123701B0
:1051FB00FF126AF68F1A800F122535E92402123737
:10520B0001FF126D7A8F1A91C9121B839002B0E0C5
:10521B007003121B74303B37202D34788EE654E22A
:10522B00702DB11A4440F0B135902835E0FF30E3D2
:10523B00047D00800991C22408123701FEFD91C242
:10524B002404123701FBC003B142D003121AA7206A
:10525B002D0281A4E490216BF0A3F0788EE630E66A
:10526B006A91C2240912370191C1240A123701FE37
:10527B00EFC4540FFDEE54F0FEEF54F07887B506F3
:10528B000A122535E92404F9E4800B122535D1B92E
:10529B00ED7E0029F9EE3AFA12208FFF90216CEF88
:1052AB00F01D91C2D1BA7E00E92DB12E90216BF089
:1052BB00902A22E0700281C0E41276C4124CC724FB
:1052CB00BC12370154F0FD7C000164788EE620E1BE
:1052DB0002618CE4F552124CC724B7123701FF540C
:1052EB000F64017059EF30E74B124CC724D81237BB
:1052FB0001FFD3940A400A124CC724BC1237018019
:10530B00049021F0E0902836F0902836E0540FFE00
:10531B00EFD3940A400C124CC7D1C5EEB12BF5520A
:10532B00800D74F12EF582E43421F583E0F55212F1
:10533B006A6E800A124CC724BA123701F552124C0E
:10534B00C74A700281C091C22404123701655260B2
:10535B00089021E2E0700281C0D25C902BA0E55254
:10536B00F01219EE91C2240512370130E70D91C2EC
:10537B002409123701540624FF922A124CCFC22A59
:10538B0022788EE630E559902A22E0700281C09196
:10539B00C22404123701FF6003B4EF20124CC74A3A
:1053AB00601AE92409123701B40311902356E0FF68
:1053BB007887122535124DB5EF12212A91C224059B
:1053CB0012370130E70A91C2240912370120E40D8C
:1053DB0091C22404123701FFB122121A07026A5B31
:1053EB0091C22408123701F46036B12224051276DB
:1053FB0050540FFFBF0203D38001C3402391C2243B
:10540B0005123701FF20E41830E70A91C224091274
:10541B00370120E40B91C22404123701FF121A0743
:10542B00788EE630E30B9028301276E57B0112661E
:10543B009030640281C0B11AE49022A5F0788712F3
:10544B00253512208F701AE9240112370170129141
:10545B00C22402123701700991C224031237016072
:10546B00067E007F0180047E007F00EF4E70079068
:10547B0022A5E04401F0B135902835E0FF30E3047C
:10548B007D008004AE57AD0691C22404123701FB98
:10549B00C003B142D003021AA7124DBEEA494B60BA
:1054AB0014902A1EE0600E9021DBE0600812196256
:1054BB00E49021DBF022FF7887122535E922902832
:1054CB0032022547E491C12405123701FD30E50373
:1054DB007402FF788EE630E704EF4480FFED540F43
:1054EB00FDBD0506EF4410FF8024BD011091C224C1
:1054FB0008123701B4FF17EF4404FF801191C22447
:10550B0005123701540FFDBD0204EF4408FF229131
:10551B00CF902835EFF022902830E0FCA3E0FD225D
:10552B007E0029F9EE3AFA02208F7B017A2179DC91
:10553B007D06E4FF021971788A12253590274C12EB
:10554B002567788DE690274FF07B017A2179DCA3D4
:10555B000225679029DC12256791C2126617C003DA
:10556B00C002C0019029DC12254712259091C2245C
:10557B0008123701541FFF9029DF122547EF122124
:10558B002A91C2240812370154E0FF229029751288
:10559B002567902974EFF06557607DE55764EF60E0
:1055AB0077E0FF64EF6071121AACEF606B902974B7
:1055BB00E0FFAD57121B1A902979EFF0902974E098
:1055CB00FFD262121ABB902978E0540F6401706A03
:1055DB00EF6067902975D1AF123701FE640260044A
:1055EB00EEB4010D902975D1A4123701441012218C
:1055FB002AEF5460FFBF20047F2080027F40EF44DE
:10560B0002902979F0D19DE924BA123701FFD19D7F
:10561B00E924D9124F7F8022902974E0FF655760EF
:10562B00139021E3E0FEEFB5060A9021CFE090291D
:10563B0079F080069029797401F0902979E054076C
:10564B0064016048902978E0540F6404703E9029FF
:10565B007AF0D19DE924BC123701C4540FFF902975
:10566B007AE0FEC39F5025902975D1C1EEB12BFF77
:10567B00902979E05407FD121B1540089029797485
:10568B0001F0800890297AE004F080C6902979E037
:10569B00FF22902975022547FF122547E924032293
:1056AB00F09026CF122547E924DF22122547E92463
:1056BB000BF9E43AFA22122547E924BDF9E43AFA48
:1056CB0022902A5D122567902A5CEFF0124CC724BA
:1056DB00BC123701C4540FB50713124CC724BA12AE
:1056EB003701902A5DF1311237016F6002C322E45A
:1056FB00902A60F0902A5CE0FF902A60E0FEC39F46
:10570B005022902A5DD1B6EEFFB12BFD124CC7246F
:10571B00BD125DFD12208F6D6002C322902A60E0E6
:10572B0004F080D0D322FF122547E92404229026CF
:10573B00D51225679026D8EDF01237591237013064
:10574B00E502D22F7F02121B6F9026E1122567EA2A
:10575B00494B607A9026E1D1A412370144081221FB
:10576B002A9026DCE0FEA3E0FFF1E424E0124F8E4A
:10577B009026DE122547C003C002C001F1E424E2EB
:10578B00F9E43AFA1225909026D9F1DEFBC003908A
:10579B0026D512766C9026D8E09026CBF09026D9A1
:1057AB0012375A1237019026CC1275989026E112B7
:1057BB007663D003AD57E4FF125E089026E4EFF05A
:1057CB0060037F01229026E1122547121B7EF1EC2C
:1057DB007F002212254702208F9026E1122547E9F0
:1057EB0022C22FD22C22E4902A1EF002195D902A9D
:1057FB001E7401F0C006C007EDAE047803C333CEB0
:10580B0033CED8F9FBAA06AE04ED7805C333CE33FD
:10581B00CED8F92BFDEE3AFCD007D0060219587BF7
:10582B00017A2179EE0219C6124DB5EE8FF00223E3
:10583B000F124DB5122227FFAEF022902A571225D8
:10584B0047902B16122567902B16302E1F91FBC0FD
:10585B0003C002C0017B017A227992124FADD001B5
:10586B00D002D0037F04121999C22E2291FBC003E0
:10587B00C002C001124FA7D001D002D0037F040297
:10588B001999902A57122567EF540FFE91C924B826
:10589B0012370154F0FDEF54F0FFC4540F4D122199
:1058AB002AEE14606214700261B624FE700221F5B8
:1058BB0024FE700281202403600281B291C991FF02
:1058CB00C003C002C001124FA7D001D002D0037F8A
:1058DB000412199991C924B6F9E43AFAE55791C61D
:1058EB0024B791E591C624B812370154F0FF9022EA
:1058FB0091E0540F4F91C691EC740A91C624D8F9DC
:10590B00E43AFA740981AF114691C924B791D79142
:10591B00C6240212370130E04E20E702800A9021A4
:10592B00F0E0540FFFBF0F0C91C924B7123701449D
:10593B004012212A91C924DF123701640170209192
:10594B00C924021237015490701591C924BA123729
:10595B0001FF902A57122547121A0C50028008910A
:10596B00C9240191E5800491C991D512212A91C9CD
:10597B00240212370130E10C91C924B712370144CC
:10598B002012212A91C9240212370130E70C91C948
:10599B0024B7123701448012212A91C924021237ED
:1059AB000130E70C91C924BA123701F15DEF700C8D
:1059BB0091C924BB12370154F712212AF16391C903
:1059CB0024B8123701549FFEEF54604E91C624BA8F
:1059DB00123701FF91C924D9124F7F7F0991C92436
:1059EB00B112370191B391F381AF91C924021237F0
:1059FB000120E602419891C92409123701F17C90EC
:105A0B002A5BF07404C39E500B7404F0EF540F44E4
:105A1B004012212A902A5BE02402FF91C991DEC03B
:105A2B0003C002C00191C92408F9E43AFA124FAD40
:105A3B00D001D002D00312199991C924B1123701A8
:105A4B00FF902A5BE02403FDE4331237E8403A125F
:105A5B00208FFF902A5BE0FE2403FDC3EF9DFF9197
:105A6B00C62408F9E43AFAC003C002C001EE240AC6
:105A7B00FDE433FC91C92DF9EA3CFA124FADD0018C
:105A8B00D002D003121999800491C9F16A11469181
:105A9B00C924B791D712212A448091C62402123708
:105AAB0001902A5730E00712375A91E5800291D1C5
:105ABB0012212A91C991DEE491C624BA123701FF53
:105ACB00D262121ABBEF7002616A91C924B6123707
:105ADB000165576002616A91C924BB123701FF202F
:105AEB00E07D91C9240312370120E47391C991DE43
:105AFB00EF440891C624BC123701C4540FFF7E003B
:105B0B0091C924BDB1FDE491C624BC123701C45424
:105B1B000FFF91C924BDB1FD12208F441091C624F3
:105B2B00BA123701F15DC007F163EF1313543FFE57
:105B3B00D0E04EFF91C924BC123701C4540FFD7C39
:105B4B000091C92DF9EC3AFAE924BEF9E43AFAEFDF
:105B5B0091C6124DB6122227549F124FCD800C9135
:105B6B00C924BB12370154F712212A91C924BB1245
:105B7B00370130E31991C924BC123701C4540FFF0C
:105B8B007E0091C924BDB1FDF17504FF80027F0039
:105B9B0091C924BC123701C4540F240B2FFF91C998
:105BAB0024B112370191B391F381AF114691C924FE
:105BBB00B7F9E43AFA740291C6240212370130E1C4
:105BCB000C91C924B7123701442012212A91C92400
:105BDB00BAF9E43AFA741D91C691DEC003C002C053
:105BEB00019021D7122547124FADD001D002D0031F
:105BFB007F1D12199991C991D512212A7F2691C91E
:105C0B0091F391C624B1123701FEEF042EFF91C917
:105C1B0091ECEF81AF91C924B8123701540F902A40
:105C2B005AF091C9240212370120E649114691C955
:105C3B0024B7F9E43AFA740591C6240212370130FD
:105C4B00E10C91C924B7123701442012212A91C9C2
:105C5B0024B812370154F0FF902A5AE04F91C62412
:105C6B000212370130E01891C924B71237014440B2
:105C7B0012212A800A91C9124FB374FF1220D591B9
:105C8B00C991D591C624D8F9E43AFA741191C62476
:105C9B00B1123701FF91C924D81237012F04FF919C
:105CAB00C991ECEF12212A22FEEF042EFE902A5707
:105CBB00122547E924B9F9E43AFAEE12212A902A7F
:105CCB0057122547E922122547E92401F9E43AFA4C
:105CDB0074012224BBF9E43AFA22F9E43AFA740388
:105CEB002224B9F9E43AFA2224D8F9E43AFAEF2259
:105CFB00122547E924B2F9E43AFA2290273E1225FD
:105D0B00679027457406F0902741E0FE7411D39EEF
:105D1B004002A1E974409E5002A1E97F02121B6F61
:105D2B00902746122567EA494B7002A1E990274557
:105D3B00E0302C0DFED23FD240124DC8EE4FF0801A
:105D4B000FFFB1EEE92406123701F184902745F0DD
:105D5B00902742E0B1F4E92402124F7F90274612BC
:105D6B004DB2E475F00212230F90274691FBC0034E
:105D7B00C002C001B1EE124FADD001D002D0037FF3
:105D8B0011121999902741E024EFB1F4E924B112D3
:105D9B004F7F902746F19CF9E43AFAC003C002C04A
:105DAB0001B1EEE92411F9E43AFA124FADD001D06A
:105DBB0002D003121999902746124FF4902743E013
:105DCB00FEA3E0902746124F87D22C902745E0FF89
:105DDB00A3122547118DB1F5121B837F0122D22C03
:105DEB007F002290273E022547FF9027460225473A
:105DFB00240BF9E43AFAE92FF9EE3AFA229026C786
:105E0B00EBF09026D37401F0A3EFF09026CCE0FEDC
:105E1B0054C0703C9026CBE0FCD3949F40037F0092
:105E2B00229026C7E0B4FF09ECD3943640037F00E1
:105E3B0022302F0C9026CBE0D3942E40037F0022F0
:105E4B00EE20E40C9026CBE0D3949740037F002206
:105E5B00F157E924B6F9E43AFAED12212A9026C754
:105E6B00E0FFF157E924BA124F7F1256ACF16C30B8
:105E7B002F2EC22FEFF4601F121AACEF6019902671
:105E8B00C7E0FF121AB1EF5407C39403402A9026C0
:105E9B00C7E0F15DEF70219026CFF18D7401801575
:105EAB009026CCE030E6119026D374041256ABF951
:105EBB00E43AFA740512212A9026CCE0FE54907035
:105ECB000F9026D3E0B401081256AC91D712212AB9
:105EDB009026C7E0FDB4FF07EE54FA9026CCF09065
:105EEB002168E09026D2F09021687401F0AF051282
:105EFB0019F340079026CCE054FBF09026D2E090AB
:105F0B0021681256AB1237017005740412212A90C6
:105F1B0026D4E0FF9026D3E0FD9026CBE0902734EB
:105F2B00F09026CCE0902735F09026CDE0FBA3E057
:105F3B00902736CBF0A3EBF0F1579027381225675B
:105F4B009026C8122547124E217F01229026CF02A0
:105F5B002547FFC262021ABBC262AF57021ABB24AB
:105F6B00B1F9E43AFAE402212AFA12208FC4540F51
:105F7B0022FF54F0C4540FFE22540FC454F0FEEF12
:105F8B004E22122547E92403F9E43AFA22FF90281E
:105F9B001C122547E9240822E0FBAD57902713126A
:105FAB0075317F02121B6F90271D122567EA494B33
:105FBB00604D902713E0FFA3E0FD90271612766C3F
:105FCB00902719E09026CBF090271AE09026CCF082
:105FDB0090271BE0FBA3E09026CDCBF0A3EBF0903A
:105FEB00271D127663902715E0FBD108902720EF31
:105FFB00F060037F012290271D122547121B7E1292
:10600B0057EC7F0022EF540F24FE60161460171418
:10601B00601824037019EF30E7047404800E7401C8
:10602B00800A7402800674038002740512212A22EE
:10603B0090281C12256712257090282312256712B1
:10604B0037A7E412212AC22D9021E2F0D131124F51
:10605B00AD7A2179D1D1412064147B01D1377A21DA
:10606B0079D1D12A60081236F8448012212A1236CF
:10607B00F830E76830042A201562D10F2405123757
:10608B000120E758D10FD117E9240112370164031E
:10609B00704AD10FD117125F90D13BD131D12A70F9
:1060AB003BE54264036035E542B40109902355E0BA
:1060BB00C394024027D10F240512370120E702A118
:1060CB000AD10F240A123701C4540FFF7E00D10FDF
:1060DB00125DFB125F90D11E6002A10AD10F240644
:1060EB00123701540FFF9021CFE07E00B402027EE5
:1060FB0080EF4E902291F0124CC724B7123701FF5C
:10610B007B017A28791F1110124CC7124DB612223F
:10611B00275407FF124CC724B8123701540FFE90B7
:10612B00281FE0540FFDBD04047D4080027D00EE6E
:10613B004DFEEF7F00B402027F80EE4F9021D6F030
:10614B00D10F2405123701FF540F24FE7002814436
:10615B0014700281D624FE700281FF24046002A118
:10616B000A9028231236FBFE740AD39E4006123780
:10617B00A7E4802EEF20E70261F5902291E04440E6
:10618B00F0D10F240A123701C4540FFF902820F0CE
:10619B00600BE0D394045005740B9E40081237A794
:1061AB00748002212AD10F240912370130E3537E68
:1061BB0000D10F125DFB12208FFFC4540F29F9EE93
:1061CB003AFAE92401F9E43AFAC003C002C001909B
:1061DB00281C125F8D122590D10F240A123701C48F
:1061EB00540FFFFD7C00D10F1256BAE92DF9EC3A92
:1061FB00125F74FE9028231236FBC39FC39E24F3B9
:10620B008036D10F240A123701C4540FFF7E00D100
:10621B000F125DFBC003C002C00190281C125F8DE2
:10622B00122590D10F240A123701C4540FFF902866
:10623B00231236FB24F4C39F90281C124F78D10FE6
:10624B002409123701FF30E1071236F84420800988
:10625B00EF30E2081236F8444012212AD10F2408FD
:10626B00123701655760026161D10F240A123701A1
:10627B00540FFF902820E06F600261179021D0E04F
:10628B0060026161D10F240512370190281C30E6A2
:10629B00071236FB440D80051236FB440912212AE6
:1062AB00D10F1256BA7E00125E01D14CFA12208F1A
:1062BB00125F98124F7F1236F830E7026161D10FEF
:1062CB00240512370120E7026161D10F240A12372E
:1062DB0001C4540FFFD10F125DFB12208FD3940119
:1062EB005074E924011237016403706AD10F240A38
:1062FB00123701C4540FFFD10F125DFB125F9012C6
:10630B004FAD7A227992D141D22E804AD10F240AF5
:10631B00123701540F640F703DD10F240512370152
:10632B0030E6081236F8440412212AD154501AD1FF
:10633B000F240A123701C4540FFFD1311256CC501F
:10634B00081236F8440112212AD10F240B123701FF
:10635B00125F98124F7FD10F2404123701655760DB
:10636B0025124CC7125CFFD13BD131D12A6002A15F
:10637B000A124CC724B6123701FFD10F240412376F
:10638B00016F6002A10AD1544002A10AD10F240A65
:10639B00123701FF540FFE124CC724BA123701FDFE
:1063AB00D10F24081237016D6002A10AD10F240905
:1063BB0012370130E01DEFC4540F24FE540F6E60F2
:1063CB0002A10A1236F8440312212A9021E2740327
:1063DB00F0A10AEE64016002A10A1236F84403121E
:1063EB00212A9021E27401F0A10AD10FD117C00329
:1063FB00C002C00190281C125F8D1225909028239B
:10640B001236FB24F6B1FD2408123701FF655760E5
:10641B0006EFF46002A10A1236F84401D10C2404F1
:10642B00123701125F98D107240512370120E602BB
:10643B00A10A1236F8440481FAD10F24081237014D
:10644B00541FFF7E00D10F2409125DFDC003C00253
:10645B00C00190281C125F8D122590D10F240812B9
:10646B003701541FFF9028231236FB24F6C39FB12C
:10647B00FD240812370154E0FDE557D39D5002A1CE
:10648B000A12208F541F75F008A42DD17DD3E55728
:10649B009FEE1237ED5068D10F240812370154E0EC
:1064AB00FFC3E5579F14FFD10FD117EF13131354ED
:1064BB001FD1855407FF7401A807088002C333D886
:1064CB00FC5E603B1236F8440180241236F844021D
:1064DB0012212AD17560099021D6E054BF6F701F2D
:1064EB00D10F2408123701B557151236F844011293
:1064FB00212A800B90281C122547121B3D922DD16F
:10650B000F2405123701FF540F64016002A1F4EF51
:10651B0090282330E71D122547E9240A123701C4BE
:10652B00540FFF7E00D10F125DFB12208F9028229B
:10653B00F08014122547E92409123701902822F024
:10654B00A3122547E9D117E924011237019028211D
:10655B00F01236F8FFAE4220040CEE64036007EE37
:10656B0064016002A1F4EF54636401707C902822F3
:10657B00E0D39401506B300470902821E0FE640846
:10658B006067EE64096004EEB40404EF30E75A90E0
:10659B002821E06403704AEF30E74E301513D10F1A
:1065AB00D117125F90D13B7B017A2179D1D12A602F
:1065BB0038D10FD117E92404123701FFD10FD117AE
:1065CB00E924031237014FFFD10FD117E92405122C
:1065DB0037014FFFD10FD117E924061237014F6056
:1065EB00081236F854FA12212A1236F830E002D289
:1065FB002D22FF90281C122547E92406F9E43AFACC
:10660B00EF12212A902823122547E9222409F9E4C5
:10661B003AFA2290299B1225677B017A0279B67F81
:10662B000412199EEF229028230225477A0279B68D
:10663B0090299B0225677B017F04021999F9EC3A9B
:10664B00FAE924FFF9EA34FF22D17560189021D6BC
:10665B00E0FEEF6E600F9021D0E0600C902291E095
:10666B0054BFB50603D38001C322902291E0FF549F
:10667B000F227C00FFEC35F0FE2229F9EC3AFA12DE
:10668B00208FFEEF22902AA71225679021D0E06081
:10669B0002E152F1532409123701440112212A4419
:1066AB000212212AF153240A123701FF540FFE90D4
:1066BB002AAAF0EF54F012212A54F0FFEE14540FD3
:1066CB004F12212A125F75FF902AA71236FBFEC3C9
:1066DB009FFFC3EE9F2402902AAAF0D394A24003FB
:1066EB0074A2F0902AAAE0FFF153D117124FAD7BA1
:1066FB00017A2179EF1219999021F0E054F7F0C249
:10670B002C9021CFE0FF902AA7125732123701FBB2
:10671B00C0037A2179EFF15B902AAAE0902719F058
:10672B00A37481F0A37468F0A37409F0D003AD5780
:10673B00125FA79021D0EFF09002B0E0700990218A
:10674B00D0E06003121B7422902AA7122547E9227E
:10675B007B019027160225679028FF122567902949
:10676B0003E05437F030E502D22F902903E04420A8
:10677B00FEF0C22BAB07C0039028FF122547F15D3B
:10678B00902902E0902719F0A3EEF0902904F1A4D0
:10679B00D003AD57E4FF025FA7E0FFA3E090271BF8
:1067AB00CFF0A3EFF022902907122567902906EF6F
:1067BB00F0121B1050037F0022902906E0FFA3125A
:1067CB00254790290AE0902902F090290BE09029A7
:1067DB0003F090290CF1E4E163E0FDA3E0902904C0
:1067EB00CDF0A3EDF0229021D5E0D394004008E04A
:1067FB0014F0D3940050061257F11248BD22E490C6
:10680B0021D0F022E94A600789828A8312269222DC
:10681B009028921225679028961257DEFF90290236
:10682B00EDF090289612375A123701902903F09009
:10683B0028991267E4902892122547126763EF7F1D
:10684B000060027F0122124DBEEA494B600D124CD3
:10685B00C7240212370130E502D22B22EF600490DD
:10686B002296F09021E7E0FF9021D71225471219CD
:10687B00DA9021E7EFF06045202B429021E4E0C352
:10688B0030E501D3922F90229712254712675D9026
:10689B0021E5E0902719F09021DA11D57468F0A367
:1068AB007467F09021E711DC125FA7EF701B902249
:1068BB00967402F09021CD11E37F0280099022960D
:1068CB00E09021CD11EC12269222E090271AF0A332
:1068DB0022E0FBAD57E4FF22E0FEA3E0F5828E83BE
:1068EB0022FFE0FCA3E0FDF5828C8322C003C002F3
:1068FB00C001902829122547902708122567902858
:10690B002CE090270BF090282DE090270CF090288E
:10691B002EE0FFA3E090270DCFF0A3EFF0D001D036
:10692B0002D003AF57902704515590270F7403F0F3
:10693B0090270CE05437F0E0FE54209021E4F090C7
:10694B00270DE0FDA3E09021CDCDF0A3EDF0514656
:10695B0090229712256790270BE09021E5F0902766
:10696B00051225479021D7122567EE44209021DA96
:10697B00F0E4902296F0C22BF55290270512254792
:10698B00AF521219DA8F52EF602A7D03121B15409A
:10699B00E990270BE0D3941940037F0022AF5212EA
:1069AB001B10500890270F7401F0800890270F746C
:1069BB0002F080C690270BE0D3948240037F002225
:1069CB007F02121B6F902710122567EA494B605A02
:1069DB00902704E0FF902710122547E924B6124FA9
:1069EB007F90270CE0FE30E01BE49021E7F0514C48
:1069FB00EE6401A3F0A37468F07467513890270F0D
:106A0B00E0FF801E90270FE0FF514C90270CE09089
:106A1B002735F09021CDE0FDA3E0902736CDF0EDAA
:106A2B0051387D02124E217F01227F0022A3F0906C
:106A3B002710122547902738122567902708022523
:106A4B004790270BE0902734F022EFF0A302256745
:106A5B00124CC724BA123701124FEE1257F17F01B5
:106A6B00021B609021E2E030E11151879002B0F0FF
:106A7B00E0D394F9400374F9F0D2AD22C2AD902467
:106A8B00C7E0A3E022E49002B0F022E49021E6F00C
:106A9B00C22BC22E9021D0F0D22C22AF14EFC360A8
:106AAB0001D322EFC3940E5005900415EFF022E5AD
:106ABB0017540FFF22E517C394F0501F5317F051D3
:106ACB00E9FE740FC39F4005EE940E400543170D6E
:106ADB008003EF4217E517540FFF227F0022E517C3
:106AEB00C4540FFEEF902B41932E2251E9FFC39418
:106AFB000E40027F0DEF902B2393FF22EF30E30329
:106B0B00AF1322AD1B204204EE30E00BE517C3940C
:106B1B00F0502071598018E51A6006FDE4F51A80D3
:106B2B0012E517C394F0500BE517540FFF60045197
:106B3B00F6AD07AF05224315015315DF7107B112EF
:106B4B004004E4F514225315FB123BB6D3229004F8
:106B5B0015E0FDFFC3740E7183EFC4F8540FC868C2
:106B6B00FFEEC454F048FEE51754F0C39FEE123706
:106B7B00ED7F005002AF05229FFFE49400FE2290B0
:106B8B002AB7EDF0901211E0FEF46006A3E0FDB41D
:106B9B00FF0C902AB97418F0A37413F08008902A94
:106BAB00B9EEF0A3EDF012208F6401600281ED903D
:106BBB002AB7E0FE64086004EEB40408902AB874A7
:106BCB0028F08006902AB8743AF0EF123D0C12248C
:106BDB0065E491EEEF24D8FFEE343FFEED3493FDE8
:106BEB00EC3416FC7B007A807903780012184E1275
:106BFB00465F902ABAE0FF902AB9E0C37183E4FCA8
:106C0B00FD12233BECC0E0EDC0E0EEC0E0EFC0E0D6
:106C1B00902ABAE0FFE4FCFDFE91EED0E0FBD0E061
:106C2B00FAD0E0F9D0E0F8EB2FFBEA3EFAE93DF9B8
:106C3B00E83CF8902AB8E0FFE4FCFDFE12233BEFA2
:106C4B002454FFEE340B123EA7FCE47BA87A16F912
:106C5B00F812184ECBEFCB902AB7E014605F14609C
:106C6B001B24FE600C24FC7079E4F5FF75CE31809B
:106C7B0006E4F5FF75CE21F5FF8BCF22E4FAE4F5A0
:106C8B00FFEA2440F5CEE4F5FFEAFFC374077183F6
:106C9B0074AC2FF582742B3EF583E491F613C39DF0
:106CAB00F5CFE4F5FFEA2448F5CEE4F5FFEA902BA7
:106CBB00AC91F6132DF5CF0AEAB408C222E4F5FF26
:106CCB0075CE01F5FF8BCFF5FF75CE0EF5FFEB25DE
:106CDB00E0F5CFE4F5FF75CE0FF5FFEB75F003A4F0
:106CEB00F5CF227B64FAF9F802233B9325E0FDE410
:106CFB0033FCEB75F010A4FFAEF0122170CDEFCD8D
:106D0B00EBFFE4C313EF22900433EFF0900414E095
:106D1B0024FD6011047007B1597404F08012B1594D
:106D2B007408F0800BE4900434F09004327402F099
:106D3B007F01121C6E900434E0FF900432E0FDA33F
:106D4B00E0FBE4902985F0123C0350E9D322900438
:106D5B00347401F090043222E51754F0C4540F2F11
:106D6B00FFC3941040027F0FEF902B3193FF227ED5
:106D7B0010EE60091EEE902B3193B507F4EEC39421
:106D8B000E40027E0DEE902B2393FF22C2AFEF42FB
:106D9B0015D2AF22EF24FE600C24FE600580007F2D
:106DAB0001227F02227F0322900424E0A3E0FF2232
:106DBB0090043EEFF0ED24FE60191460262402705F
:106DCB003BEB2402FFE43AFE7C007D5012215E7DFA
:106DDB0060801ED12FC333CE33CED8F9FF7C007D1C
:106DEB0028800ED12FC333CE33CED8F9FF7C007D54
:106DFB006412217090043FEEF0A3EFF090043EE09C
:106E0B00D13AC083C0821224E0900440E02401FFF9
:106E1B0090043FE03400FEE4FCFD12232ED082D020
:106E2B00830224ECEB2401FFE43AFEEF78032225E6
:106E3B00E025E02418F582E43404F58322EFD13AFF
:106E4B001224C40224AAE4900418D168E490041C10
:106E5B00D16FE4FFFEFDFC9004200224ECFFFEFD4D
:106E6B00FC0224ECFFFEFDFC0224EC7F017E009073
:106E7B0017FCE4935EFE7401935F4E24FFB32290E4
:106E8B000001740193B40007E493B41802C322D336
:106E9B0022EF7011ED600775FF0143AE012275FF04
:106EAB000153AEFE22EFB40110ED600775FF0143F5
:106EBB00AE022275FF0153AEFD2275FF01434B025B
:106ECB00434F02854F90854BC9D28AC2AAE4FD7FFE
:106EDB000180BE75FF02E5E630E2037F0322E5E6A3
:106EEB0030E3037F0022E5E630E1037F0422E5E691
:106EFB007F0530E0027F0122EF600775FF0253E64A
:106F0B00BF2275FF0243E64022EF14600F1460149A
:106F1B00240270188B8075FF018DFD228B9075FFFD
:106F2B00018DC9228BA075FF018DCA22AF038FB0D3
:106F3B0075FF01AF058FCB2290297C122567EF14CB
:106F4B0060111460182402701EF17DE580F183E559
:106F5B00FD801CF17DE590F183E5C98012F17DE5A3
:106F6B00A0F183E5CA8008F17DE5B0F183E5CB02A2
:106F7B00212A90297F02254712212A75FF0190298A
:106F8B007C022547E4F5FFAF9122E4F5FFAF922297
:106F9B0043FB1075FF0243E640EF600D75FF02E502
:106FAB00E120E7FB43FB0D800343FB0E80FEE4F582
:106FBB00FF75D102E5D120E0FBE4F5D1F5FFEFF150
:106FCB00DAEE540F42D6E4F5FFCFEDCF8FD422F596
:106FDB00D7E4F5FF53D6F022E4F5FFEFF5D8E4F54F
:106FEB00FF53D60FEE540FC4F854F0C8E4C4540F3B
:106FFB004842D622E4F5FF8FD4F5FFCFEDCF8FD5E6
:10700B0022E4F5FF8FD422E4F5FFE5D154013333AD
:10701B003354F8FFE4F5FFE5D354074FFF22EF306D
:10702B00E00E43F401E4F5FF43A404F5FF75962449
:10703B00EF30E10E43F401E4F5FF43A408F5FF75CF
:10704B009624EF30E20943F402E4F5FF75961EEF48
:10705B0030E30943F404E4F5FF75961075FF01EF77
:10706B005403600475D7122275D72D22CCEFCCCFE9
:10707B00EDCF74017E00C8EFC8088005C333CE3353
:10708B00CED8F9FFCDECCDEF5D601B30531875FFFB
:10709B000175DCAD75FF0175DDCDE4F5FF759A74F7
:1070AB00F5FF7594842275FF0175DC5375FF01752F
:1070BB00DD33E4F5FF759A14F5FF7594042211E89E
:1070CB0053DB7F75FF0175D5027F14123FA4123F6E
:1070DB00E311E843DB8075FF01E4F5D52275FF0171
:1070EB00438E1075FF0122E4F5FF75933F75FF0387
:1070FB00759A401246DCE4F5FF759C93F5FF75A17C
:10710B00A3F5FF758531F5FF758628E5FA543044F4
:10711B0080F5FA75FF0175E74A75FF0275DF497552
:10712B00FF0143D30475FF0153D367E4F5FF53E627
:10713B00BF75FF0175D825F5FF75B503F5FF75B262
:10714B0015F5FF75BA02F5FF75AFB3F5FF75CD0AEF
:10715B00F5FF75CB08F5FF75CA12F5FF75BF0EF578
:10716B00FF75CC96F5FFF5BDF5FF75C281F5FF7583
:10717B00AEE1F5FF75DA55F5FF75F580F5FF75E9AD
:10718B0003F5FF75E933F5FF75972A75FF01759BBD
:10719B0042759CA4759D29759E48759F2475A112F7
:1071AB0075A312759AF820540CF5FF439680901234
:1071BB000FE04440F02275FF0175E46575FF017522
:1071CB00D64722902A61EFF0E4A3123E85123FECE2
:1071DB00902A61515D1224EC901210E0FF648060E4
:1071EB0070EFC3947F5038EB515FC083C082123D68
:1071FB0019EEC0E0EFC0E0901210E075F004A4AE01
:10720B00F0FBCAEECAEA3395E0F9F8D0E0FFD0E024
:10721B00FEC3EF9BFFEE9AFEED99FDEC98802A9052
:10722B002A61E0515FC083C082516D901210E0F46F
:10723B000475F004A4FFAEF0EE3395E0FDFCEB2FEC
:10724B00FFEA3EFEE93DFDE83CFCD082D0831224F0
:10725B00EC22E0FB25E025E02401F582E43412F575
:10726B008322E0F8A3E0F9A3E0FAA3E0FB2275FF89
:10727B0001E5D530E602C32253FACFEFB40805433C
:10728B00FA308012EFB4040543FA208009EFB40200
:10729B000543FA108000D322E5F45418131313544A
:1072AB001FFF22AFF4EF547FF5F4305805EF448005
:1072BB00F5F475FF01E5D520E702C322E5F4D330E1
:1072CB00E601C322E5F75406FFBF06037F0822E55C
