:020000040000FA
:0A1800000229011A7A1A7F227FB82C
:01180A00FFDE
:0F180B000266295A2D5761766520342E3334003A
:01181A00FFCE
:0F181B0002667219B219BC19C119C619CB19DAB4
:01182A00FFBE
:10182B00025044EF90183793901900730A20364CEE
:10183B00E562FF22EFF56222822D1C1613111010A8
:10184B000248C6C2D5E830E70FB2D5E4C39BFBE430
:10185B009AFAE499F9E498F8EC30E717B2D5121834
:10186B0084122549E4C39BFBE49AFAE499F9E498C2
:10187B00F8800312254930D50DE4C39FFFE49EFE8B
:10188B00E49DFDE49CFC22788CE4F6D8FD900000EE
:10189B007F007E10E4F0A3DFFCDEFA904FFFA3E5A0
:1018AB0083C394204011FEAF829020000E0FE48082
:1018BB0002F0A3DFFCDEFA12192002291322323FB9
:1018CB00241E16110E0B09070504030201F0C8A70D
:1018DB00917767604638353230242220140001019D
:1018EB000202030304040505060607071B7E1B8380
:0418FB001B881B8D9E
:0118FF00FFE9
:10190000C0627419C0E0C082C08375620AE5FF54EA
:10191000CF4490F5FF22C0627419C0E0C082C0833A
:10192000756220E5FF54CF4490F5FF22C062741920
:10193000C0E0C082C083756236E5FF54CF44A0F595
:10194000FF22C0627419C0E0C082C08375624CE59A
:10195000FF54CF44B0F5FF2290981E211690A7F4B3
:10196000211690A804211690B7EE211690B7F12108
:101970001690BFE7211690AFC321169098662116E6
:1019800090C004211690C00F211690970021169048
:10199000983F211690A3F4211690C4DF211690A73A
:1019A0002F211690A4BA211690C7BD211690C7D832
:1019B000211690C863211690C932211690858A217C
:1019C0001690C9C7211690C9DF21169097202116BD
:1019D00090C65B211690CB4A211690A12B21169020
:1019E0009048211690CBBD211690CBD2211690CBDA
:1019F000E4211690CD54211690CE2A211690CE4186
:101A0000211690CE6F211690A78E211690CE8D2193
:101A10001690A3AC211690CF2B211690A3AA2116C5
:101A200090C48F211690C600211690A319211690FC
:101A3000A288211690C4AA211690CD0C211690BF21
:101A400015211690CCC6211690CF59211690D1158C
:101A5000211690A8D1211690D1A8211690C28321D9
:101A60001690D1B6211690D1FB211690D2192116CD
:101A700090D269211690D276211690D2C621169066
:101A80008F74211690CDF2211690B61B211690C1AD
:101A900085211690D2EC211690800021429080FE84
:101AA0002142908139214290818C21429081F821FC
:101AB000429083FD2142908330214290850C214247
:101AC00090865F2142908759214290A593212C90C6
:101AD000D359212C90DDD4212C90DDE4212C90DDF4
:101AE000F4212C90DE04212C90DE14212C90DE2099
:101AF000212C90DCB8212C90A495212C90D47A2113
:101B00002C90A64E212C90DAED212C908533212C9F
:101B1000908720212C90DD20212C90DEEE212C902E
:101B2000DF7E212C90DF8A212C90DF94212C90E203
:101B30002F212C90E3EA212C90E825212C90EB49D1
:101B4000212C90EB55212C90EBD2212C90EC622192
:101B50002C90A8CF212C90D4BE212C90A29B212C7C
:101B600090F195212C90A10C212C90C0A4212C90B7
:101B70009410212C90F1E7212C90AD3B212C90C4A6
:101B80008C212C90F481212C90F48D212C90F4A1A7
:101B9000212C90A1BB212C90E624212C90F4E02153
:101BA0002C90C449212C90C460212C004102B20029
:101BB000410415060114004104140141041301C13C
:101BC00023011A00011700412BE800C12FC126C1D3
:101BD00016412744004127AAFF4127A200C115C191
:101BE000144127AB004127AC004127A301C1184194
:101BF000274300C11C013000C119C11A4131010045
:101C0000C140432F3B000000412F3A00412F3E00CE
:101C1000C127C1294124B90046244E5A0171052625
:101C200003605C23E8200120014261736963207333
:101C300065740000000000000000000000000000CB
:101C40000000000000000000000000000000000094
:101C500000000020012001426173696320736574F4
:101C60000000000000000000000000000000000074
:101C70000000000000000000000000000000000064
:101C8000004624450201020302024824A20600067F
:101C9000000C000C004C2468110104FF29A407016A
:101CA00003FF29A8432474020000C10541247FFFDB
:101CB000C1034123CB00C10241247EFFC104412363
:101CC000C3FF4124AAFF4124650041247D00412433
:101CD0004DFF41247A0041247B004123DDFF412454
:101CE000B400412484004124630041246200412463
:101CF000B2FFC10B4124B6FF4123C0004123C9FFFD
:101D00004923DE4C6966656C696E65004624950062
:101D100000000000004624AC000000000000432446
:101D20007701020341249CFF41244B0041249D0084
:101D300041244C004124A15A4F2485FF29BD11FFA5
:101D400029CE01FF29CF11031101C107C108C10923
:101D50004123CA004123CC004123CD00C1004124CE
:101D600064004124B5004124A0004124AB0041237C
:101D7000C200412B28FF412B2AFF412B30FF412B72
:101D80002B00C11FC11D4130D900412A7900412AD1
:101D90007600412A8700412A7D00412A8900412A94
:101DA0008400412A7A00412A8800412A7E00412A83
:101DB0008300412A71FF412A7300412A7200412A9F
:101DC0008500412A7C00412A7B00412A7800412A73
:101DD0008100412A75FFC145412A7F02412A8000C6
:101DE000412A86A6422ECC0000412ECE00412ECFA5
:101DF00000412ECB00412ECAFFC12AC12CC12B416C
:101E00002000004121010041220200412203FF4144
:101E100022010060FF20010000000000000000001F
:101E200000000000000000000000000000000000B2
:101E300000000000000000000000000000000000A2
:101E40000000000000000000000000000000000092
:101E50000000000000000000000000000000000082
:101E60000000000000000000000000000000000072
:101E70000000000000000000000000000000000062
:101E80000000000000000000000000000000000052
:101E90000000000000000000000000000000000042
:101EA0000000000000000000000000000000000032
:101EB0000000000000000000000000000000000022
:101EC0000000000000000000000000000000000012
:101ED0000000000000000000000000000000000002
:101EE00000000000000000000000000000000000F2
:101EF00000000000000000000000000000000000E2
:101F000000000000000000000000000000000000D1
:101F100000000000000060FF21020000000000003F
:101F200000000000000000000000000000000000B1
:101F300000000000000000000000000000000000A1
:101F40000000000000000000000000000000000091
:101F50000000000000000000000000000000000081
:101F60000000000000000000000000000000000071
:101F70000000000000000000000000000000000061
:101F80000000000000000000000000000000000051
:101F90000000000000000000000000000000000041
:101FA0000000000000000000000000000000000031
:101FB0000000000000000000000000000000000021
:101FC0000000000000000000000000000000000011
:101FD0000000000000000000000000000000000001
:101FE00000000000000000000000000000000000F1
:101FF00000000000000000000000000000000000E1
:1020000000000000000000000000000000000000D0
:102010000000000000000000004B2D4D00000000FB
:1020200000000000000000432F58000000432CAEC9
:10203000000000412CAB00412CB1004430330000C3
:102040000000412B7900412B8200412B8600412B5F
:102050008500412B8100412B7C00422B7A000042FD
:102060002B88000043295A00000041295D004128C7
:10207000960041289501C1CDC14E412DF900412F57
:10208000FDFF412FFC04C1CF412FFA00E00C02629A
:10209000E200637D33494D3033051B0422609627EF
:1020A000FA00000000000000000000000000000036
:1020B0000000000000000000000000000000000020
:1020C0000000000000000000000000000000000010
:1020D0000000000000000000000000000000000000
:1020E00000000000000000000000000000000000F0
:1020F00000000000000000000000000000000000E0
:1021000000000000000000000000000000000000CF
:1021100000000000000000000000000000000000BF
:1021200000000000000000000000000000000000AF
:1021300000000000000000412A7028512A4F0000D2
:10214000000000000000000000000000000000424D
:102150002C840000422C860000472C7D00000000EB
:10216000000000412C880243268200000041268A9C
:102170000041268D0041268E004126B9FFC15160E5
:10218000C824D10064006B0073007A0082008900CB
:1021900091009800A000A700AF00B700BE00C600E5
:1021A000CD00D500DC00E400EB00F300FB010201F0
:1021B0000A0111011901200128012F0137013E01F7
:1021C00046014E0155015D0164016C0173017B0103
:1021D00082018A0192019901A101A801B001B70110
:1021E000BF01C601CE01D501DD01E501EC01F4011D
:1021F000FB0203020A021202190221022902300222
:1022000038023F0247024E0256025D0265026C022E
:1022100074027C0283028B0292029A02A102A9023A
:10222000B002B802C002C702CF02D602DE02E50247
:10223000ED02F402FC0303030B0313031A0322034E
:1022400029033103380340034703484124CB0141AC
:10225000259A034124CE0141259C034124BA014122
:1022600024CF0341259D014124CC034124D00041CA
:10227000259B004124C7004124C6FF412599000049
:10228000BB010689828A83E0225002E722BBFE025C
:10229000E32289828A83E49322BB010CE58229F53B
:1022A00082E5833AF583E0225006E92582F8E622AA
:1022B000BBFE06E92582F8E222E58229F582E58364
:1022C0003AF583E49322BB010989828A83F8E028E6
:1022D000F022500327F722BBFE05F8E328F3228AF9
:1022E000838982F8E4932822BB010FF8E58229F55F
:1022F00082E5833AF583E028F0225009C58229F867
:10230000E58226F622BBFE09C58229F8E22582F283
:1023100022F8EA2583F583E9932822BB0106898206
:102320008A83F0225002F722BBFE01F322F8BB01A0
:102330000DE58229F582E5833AF583E8F02250061F
:10234000E92582C8F622BBFE05E92582C8F222EF04
:102350008DF0A4A8F0CF8CF0A428CE8DF0A42EFE92
:1023600022BC000BBE0029EF8DF084FFADF022E40B
:10237000CCF875F008EF2FFFEE33FEEC33FCEE9D4A
:10238000EC984005FCEE9DFE0FD5F0E9E4CEFD2271
:10239000EDF8F5F0EE8420D21CFEADF075F008EFFC
:1023A0002FFFED33FD4007985006D5F0F222C39879
:1023B000FD0FD5F0EA22C5F0F8A3E028F0C5F0F84B
:1023C000E582158270021583E038F022A3F8E0C59B
:1023D000F025F0F0E582158270021583E0C838F030
:1023E000E822BB010A89828A83E0F5F0A3E022504B
:1023F0000687F009E71922BBFE07E3F5F009E319A8
:102400002289828A83E493F5F074019322BB011040
:10241000E58229F582E5833AF583E0F5F0A3E02231
:102420005009E92582F886F008E622BBFE0AE92574
:1024300082F8E2F5F008E222E5832AF583E993F5D4
:10244000F0A3E99322BB010DC58229C582C5833A59
:10245000C5830223B65011C58229F808E5F026F697
:1024600018F5F0E58236F622BBFE11C58229F80880
:10247000E225F0F5F0F218E23582F222F8E5822941
:10248000F582E5832AF58374019325F0F5F0E49352
:102490003822BB010A89828A83F0E5F0A3F022503A
:1024A00006F709A7F01922BBFE06F3E5F009F319B8
:1024B00022EF2BFFEE3AFEED39FDEC38FC22E88FDF
:1024C000F0A4CC8BF0A42CFCE98EF0A42CFC8AF0B8
:1024D000EDA42CFCEA8EF0A4CDA8F08BF0A42DCCBA
:1024E0003825F0FDE98FF0A42CCD35F0FCEB8EF013
:1024F000A4FEA9F0EB8FF0A4CFC5F02ECD39FEE4F9
:102500003CFCEAA42DCE35F0FDE43CFC2275F0083D
:10251000758200EF2FFFEE33FECD33CDCC33CCC52B
:102520008233C5829BED9AEC99E58298400CF58246
:10253000EE9BFEED9AFDEC99FC0FD5F0D6E4CEFBB8
:10254000E4CDFAE4CCF9A88222B800C1B90059BAA6
:10255000002DEC8BF084CFCECDFCE5F0CBF97818D4
:10256000EF2FFFEE33FEED33FDEC33FCEB33FB10CE
:10257000D703994004EB99FB0FD8E5E4F9FA2278E8
:1025800018EF2FFFEE33FEED33FDEC33FCC933C9FA
:1025900010D7059BE99A4007EC9BFCE99AF90FD804
:1025A000E0E4C9FAE4CCFB2275F010EF2FFFEE3324
:1025B000FEED33FDCC33CCC833C810D7079BEC9A63
:1025C000E899400AED9BFDEC9AFCE899F80FD5F0EC
:1025D000DAE4CDFBE4CCFAE4C8F922EF5BFFEE5A73
:1025E000FEED59FDEC58FC22C3E49FFFE49EFEE49F
:1025F0009DFDE49CFC22EB9FF5F0EA9E42F0E99DF4
:1026000042F0E89C45F022E8600FECC313FCED13A8
:10261000FDEE13FEEF13FFD8F122E8600FEFC33396
:10262000FFEE33FEED33FDEC33FCD8F122BB0107A6
:1026300089828A8302266F5005E9F8022843BBFE8F
:1026400005E9F802284F22E0FCA3E0FDA3E0FEA389
:10265000E0FF22E493FC740193FD740293FE740383
:1026600093FF22E0F8A3E0F9A3E0FAA3E0FB22EC59
:10267000F0A3EDF0A3EEF0A3EFF022A8828583F0A3
:10268000D083D0821226921226921226921226927D
:10269000E473E493A3C583C5F0C583C8C582C8F0BD
:1026A000A3C583C5F0C583C8C582C822F5F0C5821D
:1026B000A4C582C5F0C583A42583F58322A4258201
:1026C000F582E5F03583F58322E0FBA3E0FAA3E091
:1026D000F922F8E0FBA3A3E0F925F0F0E5821582EA
:1026E00070021583E0FA38F022EBF0A3EAF0A3E9D8
:1026F000F022BB010789828A830226C95005E9F8C6
:1027000002285BBBFE05E9F802286D89828A8302F4
:10271000287FBB011A89828A83D0F0D0E0F8D0E00C
:10272000F9D0E0FAD0E0FBE8C0E0C0F00226E950C2
:1027300016E9F8D083D082D0E0F9D0E0FAD0E0FBFF
:10274000C082C083022864BBFE16E9F8D083D08221
:10275000D0E0F9D0E0FAD0E0FBC082C08302287656
:1027600022BB010DE58229F582E5833AF583022635
:10277000C95007E92582F802285BBBFE07E92582DC
:10278000F802286DE58229F582E5833AF58302286F
:102790007FBB0120E58229F582E5833AF583D0F0FD
:1027A000D0E0F8D0E0F9D0E0FAD0E0FBE8C0E0C03B
:1027B000F00226E95018E92582F8D083D082D0E0D3
:1027C000F9D0E0FAD0E0FBC082C083022864BBFEEF
:1027D00018E92582F8D083D082D0E0F9D0E0FAD091
:1027E000E0FBC082C08302287622D083D082F8E446
:1027F000937012740193700DA3A393F8740193F571
:10280000828883E4737402936860EFA3A3A380DFDC
:102810008A838982E473EC8EF0A4CCC5F0CCCDF829
:10282000EFA4CEC5F02DFDE43CFCE8A42EC8C5F015
:102830003DFDE43CFCEFA4FFE5F028FEE43DFDE4B3
:102840003CFC22ECF608EDF608EEF608EFF622EC7A
:10285000F208EDF208EEF208EFF222E6FB08E6FAE3
:1028600008E6F922EBF608EAF608E9F622E2FB08A8
:10287000E2FA08E2F922EBF208EAF208E9F222E4CD
:1028800093FB740193FA740293F922901BACE47EDB
:102890000193700122A3FF543F30E509541FFEE469
:1028A00093A360010ECF54E0B4E03AEFFAEEF9E4FE
:1028B00093FBA3E493FEA3E493FFA3E493FDC083FF
:1028C000C082C001C002C006C00712197BD007D069
:1028D00006D002D001D082D083A30FEF70010EDAB0
:1028E000DAD9D880A954C025E060105005A3DFFDD7
:1028F000809CA3A3A3DFFDDEFB8093A3A3DFFD8069
:102900008D75818C75FF03759E021219200238EDBA
:102910000218C8901BACE47E019360F4A3FF543FFF
:1029200030E509541FFEE493A360010ECF54E0B4D8
:10293000E00EEFFAEEF9A3A3A3A3DAFDD9FB80D64C
:1029400054C025E0604B5026E493A3F85407240CB0
:10295000C8C333C4540F4420C8834004F4568001D4
:1029600046F6DFE480B00102040810204080E493C2
:10297000A3FAE493A3F8E493A3C8C582C8CAC583A5
:10298000CAF0A3C8C582C8CAC583CADFE9DEE7802A
:1029900085E493A3F8E493A34003F68001F208DFF3
:1029A000F40229165E5926205E59715E725A73260A
:1029B000272B2C708671608E85597A56005E725A6C
:1029C0007326272B2C708671608E85597A56005E8F
:1029D000725A7326272B2C708671608E85597A5611
:1029E0001ACF1AD41AD91ADE1AE31AE81AED1AF213
:1029F0001AFC1B241B29000DFA20000DDC700000BE
:102A00000000020C00013F3F3F04040419F819FDC7
:102A10001A021A071A0C1A111A1B1A2AA2821B4729
:102A20001B4C1B511B5B1B601B6563F54EED656A00
:102A30001B3D1B421B6A1B741BA11BA61A4D1A5778
:102A40001B331B38902CDAECF0A3EDF0902F12EF33
:102A5000F0902F107403F0A374EEF0902CE4E0FDDE
:102A6000C374EE9D902F11F074039400902F10F01A
:102A7000126AAE435A40855AB0EF60026148EB7566
:102A8000F004A4FF902CDA1237EE95F040037F019A
:102A900022EB75F004A42DFFEC35F0FED3EF94F497
:102AA000EE940140037F0322EBD394FA400E75FFAE
:102AB0000275AAFA902F1574FAF0800A75FF028B3E
:102AC000AA902F15EBF0D125D3902CDBE09D902C14
:102AD000DAE09C402075FF02902F1071ECEF780631
:102AE000CEC313CE13D8F9540C42A7902F13ECF099
:102AF000A3EDF0802575FF02902CDA71ECEF7806DB
:102B0000CEC313CE13D8F9540C42A7902CDAE0FFB1
:102B1000A3E0902F13CFF0A3EFF0902CE1E0700230
:102B2000A3E0700F902CDDE0B40108902CE1E4F0FC
:102B3000A304F0902F15E0FF7E007C007D1C122383
:102B40004FF1D5503D7F0222902F12E0B40115D1F4
:102B50000385A7A7126A6B7802CEC313CE13D8F9E8
:102B6000F5AB801E126A6BD107EE540342A775FFC6
:102B700002E471F185A7A775FF02F5AB75FF027539
:102B8000AA0175FF02902CE0E05401C433333354A2
:102B900080FF902CDDE05403C43354E04FFFA3E0EA
:102BA0005401C454F04FF5A575FF02902CE3E05496
:102BB00001C454F0FF902CDFE054014F4420F5A6EF
:102BC00075FF02902CE1E0FEA3E0FFF5A975FF027E
:102BD00053A7CF75FF0212676C543042A775FF02EE
:102BE00043A5017F002275FF02902E76E0FEA3E050
:102BF000FFF5AC75FF0253A7F375FF0222F1EDF06C
:102C0000E5A530E0037F0122902F12E06002A15F72
:102C1000902E76126A937008902E7AF0A3F0800FAF
:102C2000902F13E0FFA3E0902E7ACFF0A3EFF012E5
:102C300069F5CEC313CE13D8F97802C333CE33CEA1
:102C4000D8F9FFC3ED9FEC9E5003F1EDF0D11DC309
:102C50009FEC9E400EED9FFFEC9E902E78F0A3EF30
:102C6000F08007E4902E78F0A3F01269F5CEC3133C
:102C7000CE13D8F97802C333CE33CED8F9FFF1C9D9
:102C80005046902F15E075F004A4FBAAF0FDAC02AD
:102C9000902E78D11674F89FFF74019EFE12236166
:102CA000A907902E7CE9F0AD03AC027E0012234F01
:102CB000F1C95006902E7CE004F0902E7CE0D39475
:102CC00007400A7407F08005E4902E7CF0902E787F
:102CD000D116902F11E09FFF902F10E09EFEEF780D
:102CE00002CEC313CE13D8F9FF902E7CE0FD902FB7
:102CF00015E08DF0A4FEC3EF9EFC75F004A4FF90D8
:102D00002F13E0FAA3E0FBD39FEA95F04012EB24E7
:102D100003FFE43AFEEF7802CEC313CE13D8F9FCDA
:102D200075FF02ED25E0540EFFE5A654F14FF5A620
:102D300075FF02902E78E0FEA3E0D107EE54034227
:102D4000A775FF02D14171F1EF7806CEC313CE1300
:102D5000D8F9540C42A775FF02AF048FABA1FA90CB
:102D60002E76D11694E8EE94035009D125C3EF9D39
:102D7000EE9C401775FF0275ACE871F343A70C7524
:102D8000FF0275AAFBE4FFF1F5806F75FF02E5A570
:102D900020E1047F01F1F5902F12E06401701A71B7
:102DA000E6EF7806CEC313CE13D8F9F1BBE0780274
:102DB000CEC313CE13D8F9803ED11DC39FEC9E40E5
:102DC00014F1BFE0FFFBED9BD107C3ED9FEC9E54D8
:102DD0000342A78005D10385A7A771E6EF7806CE49
:102DE000C313CE13D8F9F1BBE07802CEC313CE13D0
:102DF000D8F9F5AB75FF0204F5AA75FF0243A501EA
:102E00007F002275FF02E4F5AD75FF0253A7FC7544
:102E1000FF0222902E22E0FEA3E0FFC322902E7636
:102E2000E0FEA3E0FF902F10E0FCA3E0FD22E025F0
:102E3000E025E02401F582E43412F583E0FCA3E010
:102E4000FDA3E0FEA3E0FF22902A8C12266F75FFFF
:102E50000243E1801247621247D6902AA112267BD4
:102E6000002DC6C0E4F5FFF5A490120EF0A3F0907B
:102E70002A9C7402F0F1E5FFF595EF1460131460DD
:102E80001C24027027902A8CD13CF1B5902A98809E
:102E900016902A90D13CF1B5902A99800A902A94F4
:102EA000D13CF1B5902A9AE0902AA5F0125E659087
:102EB0002AA5E0700FF5FFF59675FF0175D7097526
:102EC000F418805790120EE004F0902A9CE0126AE9
:102ED000FA902AA1D13C902A9D125629C31225F6B8
:102EE0005009902A9DD13CA312266F902AA5E0FF9D
:102EF000125CE6902A9BE0FFA3E0FDA23A92381212
:102F00005E13A3D13C902FA512266F902A9CE0FF60
:102F1000125635902A9CD12E125CAAF1DDEF600288
:102F2000C1757402F0F1E5F595E5F45407701D9054
:102F30002AA11256241247BC7801122607902A9C17
:102F40001256C812266FEBD12F125CAAF1DDEF707A
:102F5000D475FF03759580126A63400343F420A281
:102F60003A9239125D45902AA1126A762420FFEE2A
:102F7000344E1247CEE4FB7A04F9F81247BC7801CC
:102F8000122607C237124493E4F5FFE5BD54F84416
:102F900004F5BD9012137401F07E127F01E4FDEF81
:102FA0002DF582E43EF583E0FC901213E02CF00D49
:102FB000EDB412EB22902A9D02266F540C42A775A5
:102FC000FF02902E76E0FEA322902E79E02FFF9054
:102FD0002E78E03EFEC3EF94F8EE940122902A9CF6
:102FE000E0FF14F02275FF03902A9CE022902E76D9
:102FF000EEF0A3EF22EFB4010A75FF0243A50243EE
:10300000A5012275FF0253A5FD22EF600975FF029D
:1030100043A508D2E82275FF0253A5F7C2E822753E
:10302000FF0243A5042275FF02E5A54404131354CF
:103030003F24FF22E4F97D0CAC0109EC90180E93BB
:10304000FC0FEFAA0670010E14F5828A83ECF0DD06
:10305000E77F03228F828E83E4F0A37404116774E8
:10306000221167A3E4F022F08F828E83A3A32211A2
:10307000CE121A841219E412195D9002B3E06401B1
:103080007F0060027F01121A39121A3E1219B7121C
:1030900069857A0279B612196CF1DEFE4FFDA3E064
:1030A000FC4DFDA3E0FB4D600BEE5FFFEC5FFFEB23
:1030B0005FF47003123EB690121CE0FF540324B676
:1030C000F582E43402F583E06F9002B1F0227A2BAE
:1030D00079E07F031269977A2B79E97F08F1E67A24
:1030E0002B79E67D027F09121AA27B017A2B79E403
:1030F0007D027F0B121AA2902BE4E0FEA3E0FF4EAC
:103100006006BEFF1BBFFF18902BE9E024FD6003A3
:10311000047004F1A58009902BE4E4F0A37440F05E
:10312000902BE9E024FD6003047008902BE1740308
:10313000F08006902BE17402F0902BE0E01227EA79
:10314000315C04316714316F15317717318D3031AF
:103150009534319D3631A5370000318275FF01531A
:1031600053EF8553FD804775FF015354EF800E7573
:10317000FF015354DF800675FF0153547F8554C906
:10318000802C75FF015355DF8555CA802175FF01DD
:103190005356FE801675FF015356EF800E75FF01E2
:1031A0005356BF800675FF0153567F8556CB71A9D4
:1031B0007F11D14AE4FFB1F251BA902BDE7402F0D4
:1031C000902BE2E0247F600E04701F7F10D14A90A4
:1031D0002BDE740A800BB1C37F10D14A902BDE74B2
:1031E00058F0902BE17403F0F1A5902BE3E0F4602C
:1031F00002418C902BE6E0FEA3E0FF64104E7006C7
:10320000902BE3740EF0EF64204E7006902BE37465
:103210000FF0EF64404E7006902BE37410F0EF64F3
:10322000804E7006902BE37411F0E4B5070AEEB4FB
:103230000106902BE37412F0E4B5070AEEB402061F
:10324000902BE37413F0E4B5070AEEB40406902B58
:10325000E37414F0E4B5070AEEB40806902BE374A7
:1032600015F0E4B5070AEEB41006902BE37416F0DF
:10327000E4B5070AEEB42006902BE37417F0E4B52A
:10328000070AEEB44006902BE37418F0D13B71515D
:10329000EF6004D12680F7719D91B47F0151B27F18
:1032A0000351B271A9E4FF816E12264778081226F5
:1032B00007E4E5C820E2FB8FEB227F01916E90309E
:1032C000F07401F09030F0E0603B91B47F05714301
:1032D0009030F0EFF071A991B47FD77143902BDB60
:1032E000EFF07145902BDCEFF071A99030F0E054D5
:1032F00001F18960CFA3E0F460CAEF30E7C6E49043
:1033000030F0F080BF91B47F9F7143902BDDEFF0E0
:103310007145902BE2EFF07145902BE3EFF0916A4D
:10332000902BDBE0F4601BA3E0F46016902BE2E04E
:10333000FD541F240FA3F0EDC41354074480902BB9
:10334000E2F02251B27FFF51B2E5C820E2FBAFEBC1
:10335000227F01916E30351691B47F057143903014
:10336000F2EFF071A99030F2E020E002C235303582
:103370002291B47FD77143902BDBEFF07145902BF6
:10338000DCEFF189600BA3E0F46006EF30E702C2E6
:103390003571A9E4FF916EA235E433FF227F0191DC
:1033A0006ED23591B47F0651B2F1CAEF70FB902B0B
:1033B000E2E0F4600A9030EF7406F0F17570FC9072
:1033C0002BE0E01227EA33E20433EA1433EF15333B
:1033D000F417340430340934340E36341337000013
:1033E00033FC435710855780802F43581080084383
:1033F00058208003435880855890801D435920856C
:1034000059A08015435A01800D435A108008435A31
:10341000408003435A80855AB09030EF740CF0F12D
:103420007570FC22902F9F12266FD150917A902FA9
:10343000A3E06F6031D13B7151EF6004D12680F77A
:10344000719D91B4902BDEE0FFB1E96006D1507818
:103450001051AE902F9F51A9D150E451B2902FA39B
:10346000E0FF9168D322C32251B271A9E4FFEFB407
:10347000010443FE202253FEDF22902F9A12266F72
:10348000D13B7151EF6004D12680F7B1E1600A9021
:103490002F9A122647781051AE902F9A51A9902F4B
:1034A0009A122647E47143902F9EEFF0916A902F75
:1034B0009EE0FF22902BE0E01227EA34D70434DFAD
:1034C0001434E41534E91734F93034FE3435033656
:1034D000350837000034F15357EF855780802F535C
:1034E00058EF80085358DF800353587F85589080E9
:1034F0001D5359DF8559A08015535AFE800D535A2C
:10350000EF8008535ABF8003535A7F855AB07F0C0F
:10351000DFFE22902D9F12266F902DA31226E9D157
:103520003B7151EF6004D12680F7719D91B4902BCF
:10353000DEE0FFB1E9600A902D9F12264778105116
:10354000AE902D9F51A9902D9F122647E4801B908D
:103550002DA6F19B6018902DA31226C9EA494B6055
:1035600007902DA3F1918001E4FF51B280E171A990
:10357000E4FF816E902DA812266F902DAC1226E9E3
:10358000D13B7151EF6004D12680F7B1E1600A9020
:103590002DA8122647781051AE902DA851A9902D34
:1035A000A8122647E451B2902DAFF19B600F7145F0
:1035B000902DACF1D0902DAD1250AD80EA71A9E400
:1035C000FF816E902BDBE020E0167F01916E91B4BD
:1035D0007F3D51B27F2A51B27F8051B27FA6916860
:1035E000227F01916E91B47F0351B2902BE1E06490
:1035F00002229030F1EFF0902BE9E0640270267F18
:1036000001916E91B49030F1E07FAB60027FB951CF
:10361000B271A99030F1E0902BE8F070047F1EDFCA
:10362000FEE4FF916E22E51530E20FE51520E50A74
:10363000E51530E0057F01123C022275FF02E5E44A
:1036400030E10675E40675E40322EF4420F5FE221E
:10365000902F9F022647902D2112266F902D251224
:1036600026E9F167902D28125C3D902D2112264706
:10367000125BA35002E121902BE5E024FFFF902B89
:10368000E4E034FFFEE4FCFD902D211226631225B8
:10369000DB902D2AEEF0A3EFF04E6038902D2A1229
:1036A0002E16902BE5E09FFF902BE4E09EFE902DE0
:1036B0002AF0A3EFF0902D28F1EE9E5006A3ECF037
:1036C000A3EDF0F123E94A6005F16DFF80467E002D
:1036D0007F008040902D28E0FEA3E0FF4E604090E8
:1036E0002BE4E0FCA3E0FDD3EF9DEE9C400A902D7F
:1036F0002AECF0A3EDF0800D902D28E0FFA3E0A3CD
:10370000CFF0A3EFF0F123E94A6005F16DFF8004EB
:103710007E007F00902D26EE8FF01223B680B5D369
:1037200022C322902D251226C9902D2AE0FFA3E066
:10373000902DA6CFF0A3EFF0902D21122647B113C4
:10374000902D2AE0FEA3E0FFC3902D29E09FF0908A
:103750002D28E09EF0902D21122663E4FCFD12241A
:10376000B1902D2112266F902D250226C9902D2A69
:10377000E0FEA3E0229030EFE014F0E022D13B71B4
:1037800051EF6004D12680F722F0902BDBE0FFF4AC
:1037900022E475F0011226D202228074FFF5F012A5
:1037A00023CC45F022902BE47401F0A3E4F02290A6
:1037B0002F18F1D7C007902F181226C9902F1B126F
:1037C00069CED007A174E4FF816EE5C85404FF22DE
:1037D0001226C9EF02231B1226E9E4FCFD22900207
:1037E000B6E0FFA3E0227D01121AA27B0122E0FCD9
:1037F000A3E0FDD39FEC2275FF0275E40475E4019C
:1038000075E4022275FF0275E404E4F5E4229004F5
:103810003312579D90121DE0543060071257ED503F
:1038200002C322900433E0B4040BA3117790043355
:103830007403F08025900433E06405701890121D25
:10384000E090043430E50611777F1F8004117FE497
:10385000FFF1EB8005900434117F900433E0900277
:10386000B2F0900435E0901222F01219A89002BD37
:10387000EEF0A3EFF0D322E0FB7D017F018006E0B4
:10388000FB7D01E4FFEB600875FF0153CDFD800671
:1038900075FF0143CD02ED600553FBDF800343FB61
:1038A00020EF600775FF0243E1402275FF0253E1FC
:1038B000BF2290121DE07B027D0130E5087F0111DF
:1038C000857F1F8006E4FF1185E4FFF1EB7F014354
:1038D000FB1075FF0243E640EF600D75FF02E5E166
:1038E00020E7FB43FB0D800343FB0E80FE75FF02C8
:1038F00075E404E4F5E4C22275FF02901215E0605D
:103900003BE5E6540364017033121A6B1240924097
:103910001F901222E0600DE014F07008121892E47B
:10392000901215F0901215E0700221B011B221B082
:10393000121892D222E4901215F08074121892128A
:103940005A659002B3EFF0901200E0B47A1490122E
:1039500014E0B49C0D9002B3E0FF64056004EFB482
:10396000032EE49002BCF09002BCE0FFC3944050F0
:1039700013E42FF582E43412F583E4F09002BCE006
:1039800004F080E3901200747AF0901214749CF0AA
:10399000121AA77A1279107F011269977A12791197
:1039A0007F211237E67A1279127D017F22121AA244
:1039B000121A70125A65121A669002B3EFF01219B9
:1039C000EE121A619002B3E0FFB40602800C3022BE
:1039D000047F0280059002B3E0FF121B06EF24FF74
:1039E000B3924075FF0253E6BF9002B3E0640160FA
:1039F00005E4901215F0125028121A7512306F90CB
:103A00001215E0700F20400C121B0B7B017A2779F6
:103A1000AE121A2090121DE030E002800330220422
:103A20007F019102D2AF20400241A9121958121908
:103A300094121B1A121A9D40F29002B2E0604112D9
:103A40001A8EEF70051269E24036E51470FCE51538
:103A500020E5029119121967EF70FA125A2A5005DF
:103A6000125A1650057F011235F29002B2E0B402EC
:103A700004E4FF80099002B2E0B403047F0111CF97
:103A8000121A89E51530E1A312589D4002E4F0E5D1
:103A90001520E506716E7D0171809002BC717190F8
:103AA00002B5E0FD1219DF808212488112484F50A2
:103AB00002D1B69002B2E0605D902744E0705712E8
:103AC0001A8EEF70051269E2404CE51470FCE515A2
:103AD00020E50990121DE020E0029119121967EF0C
:103AE00070FA125A2A5005125A1650057F011235E3
:103AF000F29002B2E0B40203E480189002B2E0B4A3
:103B000003047F01800E9002B2E0B4050990121503
:103B10007401F0FF11CF121958121994121B109052
:103B200002B0E07005121A8980151248BDFF90029C
:103B3000B0E0FEC3EF9EC394064002E4F0D2AD12A3
:103B40001807E51530E11F12589D4002E4F0E51515
:103B500020E506716E7D0171809002BC717190024A
:103B6000B5E0FD1219DF121A5212501341A990024A
:103B7000B4E075F0AA9002BF1226BDAF82AE8322D8
:103B8000900439EEF0A3EFF0E5147071F1F35004F6
:103B9000C23C9146900439E0FEA3E08E11F512AECE
:103BA00011AF127DAA125C4AE4F5FF75D901F51038
:103BB000E5155421602CE51530E505E4FF1242E7D8
:103BC000E490043BF090043BE004F012434BEF60C0
:103BD0000990043BE0C3941040EB7F02121B1F537B
:103BE00015DE900413E07F00B403027F011242E768
:103BF000124A43D23C9146D2EBA22192ED22EFF041
:103C00007F01EF6008716EE4FD71808009121A93E4
:103C10009119E433FF227F0122E5147027F1F3505C
:103C200004C23C91461247627F08121B1F124A7B56
:103C3000E5D120E0FB4315205315FEE4F510A22149
:103C400092EDD322C3229030F3E5F4F0E0547FF5F7
:103C5000F47F827E00F1261241CF5005E5FC20E67C
:103C6000F6303C089030F3E04480F5F4F122124144
:103C7000CF5005E5FC20E6F675FF01E5D520E7020B
:103C8000C322E5F4D330E601C322900427126A0769
:103C90001226E9C2EBE5146002C13DE51530E202EF
:103CA000C322F1FB5004C23C9146124A7BE5D1206D
:103CB000E0FBE4F510C222900428E05407C394030B
:103CC000E494005022900430E0FF90042CE02FFF99
:103CD000E433FED3EF9440EE6480948040094315B2
:103CE00004A22192EDD32290042D1226C9CFE9CF50
:103CF0008A118F12900430E0F516AE11125C7190AB
:103D000004291226C98B1C8A1D891E90042CE0F5FB
:103D10001F900427E0FCA3E0FD5460602E90043166
:103D2000E0FF1258C6D148122280FB7A0090042589
:103D3000126A5B7D1712234FEF2BFFEA3EFEEF2442
:103D400014FBE43EFA7D027F01C124900427A3E026
:103D50005407900414F07514089004291226C9120F
:103D6000593090042CE0FFAD16125923900414E052
:103D70006403702C7B01FDD145D1925007D148746A
:103D8000011222C6E4F5FFE5D254804414F5D2D1E5
:103D9000481222802428FBE433FA7D03E4FFC12487
:103DA000900414E064027024FB7D01D145D192405F
:103DB00007D14874FF1222C6125917D14812228027
:103DC0002414FBE433FA7D027F018058E4FB7D017B
:103DD000D145D1924007D14874FF1222C6E4F5FFC5
:103DE000D18A44104E7F0560027F0AEF547FFFE5C1
:103DF000D254804FF5D2E4F5FF43D280D14812224D
:103E000080FD7C00D18A44104E7E0060047F0A80D1
:103E1000027F05EF25E0FFEE33FEEF2DFBEE3CFACF
:103E20007D017F0112595BD18AFF124A874006A2A9
:103E30002192EDC322A22192EDD2EBD322A22192B4
:103E4000EDD2EBC322FFD1569004291226C9E924F2
:103E500007F9E43AFA22E4F5FF75D102E5D120E052
:103E6000FBE4F5FFF5D1EF6008E4F5FF43D2808075
:103E700006E4F5FF53D27FEB6006E4F5FF43D1047F
:103E8000ED6006E4F5FF43D10822900427E0FEA38D
:103E9000E022122280FF900430E0FD90042CE02DFF
:103EA000FDE433FCED2401FDE43CFCD3EF9DEC6428
:103EB00080F874809822E4FF9102EF60437B017ADE
:103EC0000279B6F1019002B6E0C394C040EF7B01E5
:103ED0007A0279B8F1011237DE5FFFA3E05FFFA33A
:103EE000E05FF460E990121DE030E0047F01910290
:103EF000E490121CF07B017A0279B6E0FD12197190
:103F00002290043F1226E9C234E4FF9102BF010B64
:103F100090043F1226C912457E92347F019102A27D
:103F200034227FE87E03F12A8036903003126A4BF8
:103F30007A30790512471F5014903005E0FEA3E057
:103F4000FF903004E09F903003E09E400B903003E0
:103F5000E0FEA3E0FF124303227FC87E001243036A
:103F600075FF0343918022903013EFF0A31247B303
:103F700075FF01124320EF64016002C322E5F430B3
:103F8000E602C3227FE87E03124303F16012473446
:103F9000400122C23C9146903013E0FF1242E753A9
:103FA000F4DFD23C91467F787E0012443575FF01E4
:103FB00053E4BFE5E430E7FB126AB87F8A1247A4F6
:103FC000E030E6061246D9E4800875FF011246D9B2
:103FD000E5D912231B75FF0143E440126A634003D5
:103FE00043F420124734400122D32275FF028FE3AD
:103FF0002280F8C2EBA2ED9221C2EDE5F4C330E7D6
:1040000001D322900445EFF0C23D31AED22D900491
:1040100045E090305AF0D22EA3E4F0A3740DF011D5
:10402000FEE4900446F0123FFB503E900446E070E0
:1040300038E5F754C060EF117F117F900446EFF030
:10404000BF5512117F900446126AF2900446701414
:104050007402F080D1900446E0B454057433F080CB
:10406000C59004467401F080BD900446E0B4020798
:10407000C23C123C46800011F1900446E0FF22E56C
:10408000F720E008E5F754C070F5FF2243F701AFD1
:10409000F9225315FEE51530E5047F0151E7714B18
:1040A000EF70FB7F02121B1F7F01110390044CEF86
:1040B000F0BF0202801390044CE0B43311E4F07FAF
:1040C000011103BF020D90044C7401F08005E490CF
:1040D000044CF090044CE07011123FFB5005C23CC0
:1040E000123C46F1627F08121B1F90044CE024FF33
:1040F00022C22DE490305AF0C22EA3F0A3F075FF37
:1041000001E5D520E702C322C23D31AE202D0221B8
:104110009F53F4DF90305AE0FF51E775FF0143D819
:1041200010302E0543F440800353F4BFE4F5FF53F1
:10413000F5F090305BE0FAA3E0FBEA42F5EBF5F630
:10414000D23D31AE123F59E4F5FFE59320E604314C
:10415000CF40F4302E56E5F430E3047D288010E59E
:10416000F430E2047D288007E5F430E1027D2891F7
:104170001D7F28123F5B31CF40FC7F78123F5B31BF
:10418000CF5029D1C350F8F19EEFC39D50F1D1C358
:1041900050EDE5F720E5E8C23D31AE911D80E053DA
:1041A000F4BF126A63400543F420D1CAD322AFF4AE
:1041B000EF547FF5F4303D05EF4480F5F475FF01D1
:1041C000E5D520E702C322E5F4D330E601C322752A
:1041D000FF03E591C330E701D322902E9212579D41
:1041E000902E987401F0C23B123F2231CF5005E56A
:1041F000FC20E6F77120BF0108E4F5FC75FC408067
:10420000077120BF0202D322D1CA902E93E0FF1281
:104210005E7275FF0153D5DF53FAFB902E92E0FFDB
:1042200051E7902E93E0902E92B4080DE01256CAFA
:10423000126A762452F1CB8003122E2E125CAA90C1
:104240002E94E0FF125ECB75FF0175FF03759B0492
:10425000123F2275FC42E5FC20E10431CF40F4908E
:104260002E95E0F075FF03E59B20E70431CF40F485
:10427000E59B20E70C75FF03759B1FF162D23B8025
:104280004C51E0D1E5902E93E0FD90120FE05D706F
:104290001D902E92E0FF51E0124B1B90120FE0FF99
:1042A000902E93E0FEEF4E90120FF0122F93917725
:1042B0007B017A2E7996F11F500FC3902E97E094D0
:1042C00020902E96E0940340E751E0F1F6912C30D7
:1042D0003B0221E0902E98E0B40103D38001C32279
:1042E0007B017A2E79982275FF01E5D530E602C36D
:1042F00022E4F5FF439A80EF126AFAE4F5FF539A3D
:104300007FD32275FF03D3EF9402EE94004008742C
:10431000FE2FFF74FF3EFEEFF592EE540FF5912253
:104320007FFA123F5BE5FC30E60431CF40F7E5FC55
:1043300030E6037F032275FF01E5D530E6037F02F7
:1043400022E5D57F0030E7027F0122E490300BF0B8
:10435000A304F0E490300EF0E5FA30E1FB75FF01C4
:10436000E5D530E7037F0022E4F5FF75E508D1CA03
:10437000E5D530E61A75FF0190300DE5DAF0E4F589
:10438000DA75FF01E5D630E3FB90300E7401F0756D
:10439000FF03759B0475FC4175FF03E59B30E7FB4C
:1043A000E4FB75FF038B95EB122E2F125CAA0BEB2F
:1043B000B403EF75FF03759580E4F5FF758EC89122
:1043C0007775FF0153D5FB911D7F14123F5B912C34
:1043D00075FF0143D50490300EE07007911D123F28
:1043E00059912C7B017A30790CF1F690300CE090E9
:1043F000300B7006E04404FF8002E0FF90300BEFCA
:10440000F090120EE0B4010675FF0143D81075FF5D
:104410000190300DE0F5DA90300BE0FF2275FF03DC
:10442000E4F591227F3FFE7103123F6075FF03E5C3
:104430009120E7FB22CDEFCDCCEECCF113AB94EF86
:104440004BF1ABCBEFCBFAE59130E71DF116A99418
:10445000E9F582EF4582FFEB2DF582EA3CF583C357
:10446000EF9582E5F0958340DEE59120E708CEECFC
:10447000CECFEDCF912722E4F5FF75C2E17F1EF18B
:10448000A4E030E707E4F5FF75C2A122E4F5FF756B
:10449000C28122902AC012266FE4F5FF75BB057514
:1044A000BB8575FF0175D50220370491249177757E
:1044B000FF0143D520303702A159E4F5FF538EF7B1
:1044C000438E077D04E4F5FF8DBCF5FF43B102E5A3
:1044D000B130E2FBE4F5FFAFDFEFFEACDEECFBEB6F
:1044E000FFED25E024BEF582E4342AD1D1E4F5FFC6
:1044F000F5FF53B1FD0DEDB40CCB902AC0122E3C4C
:104500007809122607A3EEF0A3EFF0E4FDED25E015
:1045100024C8F582E4342AF583E0C313FAA3E01338
:10452000FBB173F583E0C313FEA3E0132BFFEE3A58
:10453000FEB173D1D1ED240490120DF0EDC39407B8
:104540005017CFEDCF0DEFB174F15BFFC3902AC5CB
:10455000E09F902AC4E09E50B4E4F5FF758EC8F544
:10456000FF90120DE0F5BCE4F5FF75BB8075FF010F
:10457000F5D522ED25E024C6F582E4342A22902DDB
:104580002CF1B3902D3212267B00000001902D36C5
:104590007401F0F5FFE5D554C07005123FFB5002E1
:1045A000C322E4F5FF53967F75FF0175D50491246E
:1045B00075FF0143D508E4F5FF5394FBF5FF5384E1
:1045C0007FF5FF7598FF902D30E5F4F075F49C753C
:1045D000FF01A3E5E4F075E4257B017A2D7936D15E
:1045E000E5902D36E064016002C1A1F5FF902D2F0A
:1045F0007414F0902D32122E3C780112261A902D50
:104600003212266FE5A730E1FB43A702902D32124C
:104610002E3CE5A730E005E47B018002E4FBFAF9DB
:10462000F8EF4BFFEE4AFEED49FDEC48FC902D32D1
:1046300012266F902D2FE014F070B8902D32122EAC
:104640003C78101226077B6D7A4E79C67841122489
:10465000BEEF2439FFEE3430F1CEE4FBFA7901F8F5
:10466000122549EE547FFEE4FDFC126A3E902D3285
:10467000122E3CEB6FFFEA6EFEE8CDEFCDCCEECC18
:10468000ECFF902D2CD1DCEF12231B902D2CD1DCD4
:10469000ED125B4390120FE030E606E4F5FF7596ED
:1046A0008075FF01E4F5D5902D30E0F5F475FF013C
:1046B000A3E0F5E4125D34902D36E0B40103D3801D
:1046C00001C32275FF01E5E4332275FF0153D8EFE2
:1046D00022F583EEF0A3EFF022903014E0FBA3E08C
:1046E000FAA3E0F922903057F1B37F017C127D01EB
:1046F000E4FEED2EF582E43CF583E02FFF0EEEB4F0
:1047000012F0901213E06F6009903057D1DCE41280
:10471000231B2275FF03AF93EF75F010A4FF22F166
:1047200013AD94EF4DF1AB8FF0122492E591C330AD
:10473000E701D322E5F730E50EE5F754C070043108
:10474000CF40F1911DC322D3229024C8E04408F049
:10475000A3E025E024D1F582E43424F583E0FEA330
:10476000E022E5FA30E1FB75FC8075FF0153D5EFDF
:10477000E4F5FC75FC40911DE5FC20E6FB22E4FF1E
:10478000E5F754C06002801675FF01E5D530E30DF2
:10479000D1C350F4F19EEF60EFD1C350EB22126A07
:1047A000B8AFD922FE913590120F2224FBFFE5F01D
:1047B00034FF22EBF0A3EAF0A3E9F0221224BEE4D6
:1047C0007B7DFAF9F8122549EF2401FFE43EFEE46F
:1047D0003DFDE43CFC22126AC253DB7F75FF01758C
:1047E000D5027F14123F5B912C126AC243DB8075A5
:1047F000FF01E4F5D522C23675FF03759B1F75FFD7
:104800000390120FE0FF20E71BE59A540FC39402B8
:104810004012EF4480F0E4F5FF75C2A143FC04753B
:10482000FF03D236E5FC30E609E59A540FC3940540
:1048300040CCE5FC30E611E412231B75FC80F5FC4E
:1048400075FC40E5FC20E6FB303603122F932290E6
:10485000121CE070111237DE4FFFA3E04FFFA3E000
:104860004F7003D38001C3229002B1E064AA2411E7
:10487000FFF022AE071168EE04FEEF8EF084AFF079
:104880002230330C902744E07006FF1219F3C23334
:1048900011950219E930222411BFFF900424E0FE93
:1048A000EFC39E400AEF9ED394024010C222229092
:1048B0000424E0F42FD394014002C22222C2AD901E
:1048C00029B2E0A3E022C0E0C0F0C083C082C0D023
:1048D00075D008C0FF1243208F18E5186402705885
:1048E000E51424F860482407600241219004251251
:1048F0006A0E7030AB1CAA1DA91E125930AD16AF3E
:104900001F125923E4FB7D01FF123E5675FF00E59F
:10491000D254804414F5D243FA0475FF005149750E
:104920001408412143FA0475FF0051494121C2EBAB
:104930007514004315044121E5186401600241210A
:10494000125F2140024121E510702A8512828511F3
:1049500083E090044BF0E0FF64556004EFB4540A28
:10496000D22211BF900424F021F275100275FF00CD
:1049700075D9084121E510640270565137E0900462
:104980004BF0125EA71258B2900413EFF090044B54
:10499000E0FFD394094025900413E0D39402400C27
:1049A000EFD394AA7F0040027F01800D90044BE07A
:1049B000D394407F0040027F01EF6004512E80328B
:1049C00090044BE0FFF51675FF008FD9751003803A
:1049D00050E5106403704A512E75FF00900413E0F7
:1049E000C39403E5D350055402FF80035401FFEF45
:1049F00060045150802BC23C123C4675FF00517E32
:104A0000E5D120E0FBC2EB431502751000900413C2
:104A1000E0B4030715165137E516F09002B5E51618
:104A2000F0D0FFD0D0D082D083D0F0D0E03230228E
:104A300005C2221240F122E5122407F582E4351165
:104A4000F5832243FA04E4F5FF53D1FD43D101225B
:104A50005176E5D120E0FBE4F5FF75D90190041310
:104A6000E07F00B403027F011242E75143D23C12BF
:104A70003C46E4F51022C23C123C46E4F5FFE5D189
:104A800054FE4402F5D1224315015315DF519E9186
:104A9000A14004E4F514225315FB5143D322EF3017
:104AA000E303AF1322AD1B202304EE30E00BE51728
:104AB000C394F0502051EA8018E51A6006FDE4F531
:104AC0001A8012E517C394F0500BE517540FFF60DE
:104AD0000451D8AD07AF0522125845FFC3940E40CC
:104AE000027F0DEF9018CA93FF22900415E0FDFF9E
:104AF000C3740E7114EFC4F8540FC868FFEEC454A9
:104B0000F048FEE51754F0C39FEE123EAF7F005011
:104B100002AF05229FFFE49400FE2290300FEDF0DB
:104B2000901211E0FEF46006A3E0FDB4FF0C90309B
:104B3000117418F0A37413F08008903011EEF0A3F4
:104B4000EDF012228064016002817B90300FE0FE64
:104B500064086004EEB404089030107428F08006F5
:104B6000903010743AF0EF122E2F1225E8E4917C69
:104B7000EF24D8FFEE343FFEED3493FDEC3416FC09
:104B80007B007A807903780012184E126A3E9030CA
:104B900012E0FF903011E0C37114E4FCFD1224BE5A
:104BA000ECC0E0EDC0E0EEC0E0EFC0E0903012E01D
:104BB000FFE4FCFDFE917CD0E0FBD0E0FAD0E0F910
:104BC000D0E0F8EB2FFBEA3EFAE93DF9E83CF8903B
:104BD0003010E0FFE4FCFDFE1224BEEF2454FFEE93
:104BE000340B1247CEE47BA87A16F9F812184ECB94
:104BF000EFCB90300FE014605D14601B24FE600C5E
:104C000024FC7077E4F5FF75CE318006E4F5FF757E
:104C1000CE21F5FF8BCF22E4FAE4F5FFEA2440F53C
:104C2000CEE4F5FFEAFFC37407711474432FF582D5
:104C300074183EF583E49184C39DF5CFE4F5FFEA53
:104C40002448F5CEE4F5FFEA90184391842DF5CF82
:104C50000AEAB408C422E4F5FF75CE01F5FF8BCF54
:104C6000F5FF75CE0EF5FFEB25E0F5CFE4F5FF750A
:104C7000CE0FF5FFEB75F003A4F5CF227B64FAF9B4
:104C8000F80224BE9325E0FDE433FCEB75F010A49C
:104C9000FFAEF0122361CDEFCDEBFFE4C313EF13B2
:104CA00022900437EFF0900414E024FD60110470AA
:104CB0000791E87404F0801291E87408F0800BE426
:104CC000900438F09004367402F07F01121B1F909C
:104CD0000438E0FF900436E0FDA3E0FBE4902E955D
:104CE000F01241DA50E9D3229004387401F09004B4
:104CF000362290304F12579DE4A3F0EBD3947F906F
:104D00003051E04009B15CE47B3C917E8005FFE4DA
:104D1000FCFDFE9024BE12266FB1699024C21226BB
:104D20006F903050E0FD30E604F1C98005E4902436
:104D3000D0F0ED30E50D9024C8E020E312A374011B
:104D4000F0800C90304FE09024C9F0F1E6D1E6F10C
:104D5000937E657F6AF19D7F01022FF52481FFE438
:104D6000FCFDFE9024BE12266F9024BE02264790C2
:104D700030B5EDF09030B4EFF0E49030B6F0BFFF16
:104D8000089030B47463F0800B9030B4E0D3946436
:104D90004002C1579030B4E09024CAF07F01121B4A
:104DA000019030B5E0FFD3947F400AEFB15CE47B23
:104DB000707A17800A9030B5E0B15EE47B64FAF94E
:104DC000F81224BE9024BE12266F9024C8E020E37F
:104DD0001BE4126AA49030B6F0700122D1A4EFF067
:104DE000E49024D0F09024C904F080449024C9E0D9
:104DF000126AA49024BDE0FED39F400AEE9F90303B
:104E0000B6F0F1C980149024BDE0FF9030B4E0C347
:104E10009F9030B6F0E49024D0F09030B4E0FF7072
:104E20000B126490F0E490259BF08004D1A4EFF085
:104E3000B169C0079030B6E0FBE4FAF9F8D0071288
:104E40002549B1639024C212266FF1937E4E7FED07
:104E5000F19D7F01122FF522F1DF6002F1F3229024
:104E600030EB126A9A30E506D1A4F0FFF17C902471
:104E7000D0E054BFFFF09030ECE054404F9024D08D
:104E8000F04420F09030EBE09024C9F0F1E6D158E6
:104E90007E637FF590259AE0FD7BFFF1A1D1E67F4F
:104EA00001022FF5E49024C7F090259B229030ED6D
:104EB000126A9A30E505F1B7D1A4F0902599E090F7
:104EC00024C9F07F011264DE9030EDE0FE30E50889
:104ED0009024C9E0FFEE80099030EEE0FF9030EDC5
:104EE000E05440FDC15F124749FF022BFD9024C9E9
:104EF000E0FB1265F3600612660F02266FB16912BD
:104F000065FE30E57630E6111265E1EBD39E400593
:104F1000EB9FFB80297B0180251265E9FEEBC39E98
:104F2000501A90259BE0FE600B2FFFEBC39F4004BF
:104F3000E0FB800A9024CDE02BFB80027B63AF0373
:104F4000EB1264A8E060081264A0500312636E9034
:104F5000259BE0FF601C9024D0E030E60D9024C932
:104F6000E0D39F500D12649880061264C44003EF92
:104F7000F1AA9024D0E030E502D1E622903121EF71
:104F8000F0F1D1F1B71264B0F0903121E06003127A
:104F9000639422D1589024D0E04420F0227BFF7DFE
:104FA000011219999024C6EFF022F0D1E6E4FFF146
:104FB0007CE490259BF022D1589024D0E054DFF07F
:104FC0009024C9E0902599F0229024D0E04440F04C
:104FD00022F1DF6002F1F322E09024C9F0F1E690C3
:104FE00024C6E0FFF4229024C9E0D3946340037404
:104FF00001F0221219A39024C674FFF0229002BA85
:10500000E0FCA3E04C700A9002BAEEF0A3EFF0D3FC
:1050100022C3229002BAE0FEA3E0FF4E6009CAEE6E
:10502000CAC9EFC91228102275FF02D2ADD2BD75D0
:10503000FF02758E71755D0975FF02E58E546F4430
:1050400080F58E22C0E0C0F0C083C082C0D075D091
:1050500008C0FF75FF02E58E30E42875FF02E58E7B
:1050600054EF4410F58E900000E004F0E55D30E070
:10507000020531E55D700A755D099029B211AE80B7
:1050800002155D75FF02E58530E40875FF02438572
:1050900010055ED0FFD0D0D082D083D0F0D0E032E7
:1050A000902683E475F0031223B6902E22E475F067
:1050B000010223B6902E20EDF0902E1D1226E9D18C
:1050C00005FA122280902E21F0902E1D71A112223D
:1050D0008024FC607124036002418F902E21E0FF48
:1050E000B15BB152EF6002418F902E22F0902E22E0
:1050F000E0FFC394055046902E21E0FE75F005A414
:105100002F51A3E0FF5198B5070A7027902E22B1C6
:10511000EF2F801B122280FF902E22E0FE902E2186
:10512000E0FD75F00551A1EFF075F005EDA42E71CD
:105130008DE4F0B1F7902E22E004F080B0902E21A3
:10514000E0FD7F03E1C6902E20E0C394035006E407
:10515000F0A3F08007902E20E024FDF0902E21E0B7
:105160006002410F902E20E0700C9028FDE070024C
:1051700041FFD25061F9902E20E07002418F902EB5
:1051800024E4F0A304F0902E24122E169404EE646E
:105190008094804002418DB15BB152EF706A5191B1
:1051A000122E139405EE648094805021519870065D
:1051B00051B7E4F08013519871C2EDF0902E24A302
:1051C00051D5E024B151CDEFF011A080D351901210
:1051D0002E139405EE64809480502D74B12FB14A43
:1051E000E0FF51D9E0FDD12EF582B1677192EFF069
:1051F000743E2DF58274273CF583E0FF8B82B16706
:1052000051A8EFF011AA80C7902E2411AD218690ED
:105210002E21E0FFE4C39F5076EFC394045070D179
:10522000D8EF706B5191122E139405EE6480948028
:1052300050215198700651B7E4F08013122280710A
:10524000C2EDF0902E2151D5E024B151CDEFF011F7
:10525000A080D35190B13AFF24B1B14AE0FD902E25
:1052600021E0F975F005B1427192EDF0B13AFF24F9
:105270003E71C6E0FD75F005E9B14251A8EDF011AF
:10528000AA902E22E07004A3E0640570C871672222
:10529000E4902E22F0A3F0229026821226C9022248
:1052A00080A42EF582E435F0F583E58224FDF582B5
:1052B000E5833426F58322902E22E0FCA3E0FD2432
:1052C0003EF58274273CF583E4F074B12DF58274C9
:1052D000263CF58322E0FF51E0902E22E0FCA32241
:1052E000E4FE75F005EF51A1E0B5050B75F005EF93
:1052F000A42E718DE0FF220EEEB405E67F00229011
:10530000311F7401F090311FE0FFC394045058D155
:10531000D8EF704BFC5198700A71ACE4F071B7E4AF
:10532000F08013122280FD71ACEDF090311FE0FF90
:1053300051E071B7EFF0B1F70CECB405D8E4FC71B3
:10534000B7E0FF90311FE0FE75F005A42C718DEFE2
:10535000F071ACB1EF2C51A3EFF00CECB405E09080
:10536000311FE004F0809E7E607F7E7B017A27798A
:105370002071D412198FD10C71D4B1DF7B017A2640
:10538000799371D402198F75F005EFA42DF582E49D
:1053900035F0F583E582241BF582E5833427F58318
:1053A000221226C9E92401F9E43AFA22743E2CF5C6
:1053B00082E43427F5832274B12CF582E43426F597
:1053C0008322FD743E2FF58274273EF583227B00F5
:1053D0007A007900902D68E4F0A3741EF0E4A3F045
:1053E000A3F0227E607F7E71CE12198F7E607F9C3B
:1053F00071CEB1DF71CE02198F30500271E37E6041
:105400007F7E7A277920911F121980D10C91211269
:1054100019807E607FBA7A267993911F0219807B6A
:1054200001902F27741EF022902F881226E99026D3
:105430008DE0640270709026BAB1E7902F8B519B7B
:10544000902F88B1307B017A2679BC12198A902F6F
:105450008B519B2402FD7B017A2679BAB177902685
:1054600088EEF0A3EFF0902688E0FF902F8B519B01
:10547000FE24BCF582E43426F583EFF0902688A361
:10548000E0FF74BD2EF582E43426D1177A2679BA6E
:10549000B134902F881226C912198A902F8B1226A8
:1054A000C974041222C6E490268DF022902F8E1229
:1054B00026E990268EE0640270709026EDB1E790A8
:1054C0002F91519B902F8EB1307B017A2679EF126C
:1054D000198A902F91519B2402FD7B017A2679ED48
:1054E000B17790268BEEF0A3EFF090268BE0FF9043
:1054F0002F91519BFE24EFF582E43426F583EFF0E3
:1055000090268BA3E0FF74F02EF582E43426D117A9
:105510007A2679EDB134902F8E1226C912198A900D
:105520002F911226C974041222C6E490268EF0220E
:10553000FF1226C9902EA40226E9902E22E0FEA397
:10554000E022A42FF582E5F03E22F58274263EF596
:1055500083227A267982E4FD021B567B017A267922
:105560008A902E630226E98A8374051226ACE582AE
:105570002DF582E5833C22902F021226E9902F051B
:10558000EDF0902F07741DF0A3740FF0902F05E03D
:10559000FF14F0EF603D902F02123791902F06F02C
:1055A0007C80EC60E7B1D7FFEE7D0030E7027D0143
:1055B000902F06E05C7B0060027B01EB6DFD902F7D
:1055C00007F1B0AF05EF6005902F07F1A6ECC3130C
:1055D000FC80CFB1D7FF22902F07E0FEA3E022127C
:1055E000198F7E607FBA227456F0A37401F022E016
:1055F000FF75F005EEA422902683E475F0030223E4
:10560000B6FF1226C9E92402F9E43A227E607F9CA3
:105610007B017A27790222F583EFF012228024049D
:10562000FF7B0122FF7E04FDFCE0F8A3E0F9A3E08C
:10563000FAA3E0FB22902FA4EFF0E4A3D1241247B9
:10564000BC7801122607902FA4D1C812266F9012A1
:1056500010E0FF64806070EFC3947F5038EBD1CAD4
:10566000C083C082122E3CEEC0E0EFC0E09012106A
:10567000E075F004A4AEF0FBCAEECAEA3395E0F997
:10568000F8D0E0FFD0E0FEC3EF9BFFEE9AFEED996D
:10569000FDEC98802A902FA4E0D1CAC083C082D1AB
:1056A00029901210E0F40475F004A4FFAEF0EE337C
:1056B00095E0FDFCEB2FFFEA3EFEE93DFDE83CFCFA
:1056C000D082D08312266F22E0FB25E025E0240162
:1056D000F582E43412F583227B017A26798A902EB2
:1056E000631226E97A267982E4FD021B56E4902CA7
:1056F000DDF0A30471DCF18D746EF0E4FBFDFC7F42
:1057000002122A44E4FF122FF5E4FFFE022BFD9063
:105710002F09F19D121B6F902F0C1226E9E94A60A8
:1057200061E4902F0FF09024C8E030E308A3E090EC
:105730002F0FF08005E4902F0FF0902F0AE0FF90DC
:105740002F0C1237D0902F0C71A1740312231B90D1
:105750002F0FE0902F0CD101FAEF12231B902F098D
:10576000E0902F0CF1957403F0902F0BE0902E73C6
:10577000F0A3741BF0A37474F0121B9CEF7003125F
:105780001B79227187EBF0227187E0FF22A3F0A33F
:10579000F0A3F0A322FF1226C9902E7222EFF0A3ED
:1057A000EDF0A3EBF022E06410F0A3E06421F0221E
:1057B000EF25E0FFEE33F0A3EFF02275F005EFA444
:1057C0002D51A3E0FF22F1E4D2519026ECEFF090AE
:1057D0002687EDF0E4902686F09026B904F0E49058
:1057E0002685F022C2519026B974FFF022A222220F
:1057F000123FFB5005125F164003302203D3800195
:10580000C322AF14EFC36001D322EFC3940E50053F
:10581000900415EFF022E517540FFF22E517C3940B
:10582000F0501F5317F01145FE740FC39F4005EE53
:10583000940E400543170D8003EF4217E517540FF0
:10584000FF227F0022E517C4540FFEEF9018E89363
:105850002E22E51754F0C4540F2FFFC394104002BA
:105860007F0FEF9018D893FF227E10EE60091EEE96
:105870009018D893B507F4EEC3940E40027E0DEE57
:105880009018CA93FF22E4F514023C19C2AFEF420C
:1058900015D2AF22C2AFEFF45215D2AF227F021160
:1058A000949002B4E09002BCF09002B404F0C3946F
:1058B0000222EF24FE600C24FE600580007F01229E
:1058C0007F02227F032290043CEFF0A3ECF0A3EDD3
:1058D000F0751401E4FBFDFF123E567B017A04795A
:1058E000163130E4FD7F02312331179004167455D0
:1058F000F090043CE0900417F09004147402F090CF
:10590000043EE090042530E507E4F0A3743CF02267
:10591000E4F0A374F0F022E4F5FFE5D25480440AE9
:10592000F5D222E4F5FF8FD4F5FFCFEDCF8FD5224E
:10593000E4F5FFE9F5D7E4F5FF53D6F0EA540F425A
:10594000D622E51520E508124A76E5D120E0FBE4F1
:10595000F51022900425E0A3E0FF22900442EFF02E
:10596000ED24FE60191460262402703BEB2402FF34
:10597000E43AFE7C007D5012234F7D60801E31CFC3
:10598000C333CE33CED8F9FF7C007D28800E31CFD3
:10599000C333CE33CED8F9FF7C007D6412236190EF
:1059A0000443EEF0A3EFF0900442E031DAC083C08C
:1059B00082122663900444E02401FF900443E03403
:1059C00000FEE4FCFD1224B1D082D08302266FEBEE
:1059D0002401FFE43AFEEF78032225E025E02418B5
:1059E000F582E43404F58322EF31DA1226470226E9
:1059F0002DE49004185108E490041C510FE4FFFEBC
:105A0000FDFC90042002266FFFFEFDFC02266FFFC6
:105A1000FEFDFC02266F7F017E009017FCE4935E82
:105A2000FE7401935F4E24FFB32290000174019332
:105A3000B40007E493B41802C322D322EF7011ED2F
:105A4000600775FF0143AE012275FF0153AEFE22D0
:105A5000EFB40110ED600775FF0143AE022275FF40
:105A60000153AEFD2275FF02E5E630E2037F03221B
:105A7000E5E630E3037F0022E5E630E1037F042220
:105A8000E5E67F0530E0027F0122EF600775FF0247
:105A900053E6BF2275FF0243E64022EF14600F1465
:105AA0006014240270188B8075FF018DFD228B908D
:105AB00075FF018DC9228BA075FF018DCA22AF032E
:105AC0008FB075FF01AF058FCB22902E7E1226E995
:105AD000EF14601414601E240270277110E58071A9
:105AE000161226C9E5FD80257110E5907116122663
:105AF000C9E5C980187110E5A071161226C9E5CA5A
:105B0000800B7110E5B071161226C9E5CB02231B7C
:105B1000902E810226C912231B75FF01902E7E2232
:105B2000E4F5FFAF9122E4F5FFAF9222902BDDE088
:105B300012231B902BE2E07143902BE3E0900002D4
:105B400002232D90000102232D75F002A42480F978
:105B5000740F35F07B02FEAF01E4FCFD02347A7570
:105B6000F002A42480F9740F35F07B02FEAF01AD82
:105B700052AB05E4FCFD902FA3EBF0023424902EF1
:105B8000861237D7C007902E861226C9902E8971AB
:105B900096D007023656E0FFA3E0902D28CFF0A361
:105BA000EFF022902A0312266F902A071226E9E4CA
:105BB000902A2AF0D3902A0BE0941E902A0AE094AF
:105BC000004001227B017A2A790C902A0AE0FFA387
:105BD000E0902DAFCFF0A3EFF0902A0312264712EA
:105BE0003574902A071226C9E94A600F902A2AE0E4
:105BF000F582758300122299FF80027F00902A2A85
:105C0000E0240CF582E4342AF583E06F6002C322BD
:105C1000902A2AE004FFF0D3902A0BE09F902A0AF2
:105C2000E0940050BD22902E8D1237D7C007902EE1
:105C30008D1226C9902E90913DD00761A3E0FFA35D
:105C4000E0902A0ACFF0A3EFF022E4F5FF75D1022D
:105C5000E5D120E0FBE4F5D1F5FFEFF5D7E4F5FF62
:105C600053D6F0EE540F42D6E4F5FFCFEDCF8FD4EC
:105C700022E4F5FFEFF5D8E4F5FF53D60FEE540F0D
:105C8000C4F854F0C8E4C4540F4842D622E4F5FFE7
:105C90008FD422E4F5FFE5D1540133333354F8FFB8
:105CA000E4F5FFE5D354074FFF2290300712266F2B
:105CB00075FF01903007A3E0FDA3A3E4FFFEE4FC21
:105CC00078101226078FE1903007A3A3E0FEA3E42B
:105CD000FFE4FDFC78081226078FE2903007A3A3AB
:105CE000A3E0FF8FE322EF30E00E43F401E4F5FF81
:105CF00043A404F5FF759624EF30E10E43F401E46C
:105D0000F5FF43A408F5FF759624EF30E20943F44C
:105D100002E4F5FF75961EEF30E30943F404E4F561
:105D2000FF75961075FF01EF5403600475D71222BA
:105D300075D72D22E4F5FF7584E6F5FF439404F54D
:105D4000FF75981422E4F5FF75933F75FF03759A6C
:105D500040B134E4F5FF759C93F5FF75A1A3F5FF01
:105D6000758531F5FF758628E5FA54304480F5FADB
:105D700075FF0175E74A75FF0275DF4975FF01433D
:105D8000D30475FF0153D367E4F5FF53E6BF75FFF6
:105D90000175D825F5FF75B503F5FF75B215F5FF4B
:105DA00075BA02F5FF75AFB3F5FF75CD0AF5FF754E
:105DB000CB08F5FF75CA12F5FF75BF0EF5FF75CC60
:105DC00096F5FFF5BDF5FF75C281F5FF75AEE1F5FE
:105DD000FF75DA55F5FF75F580F5FF75E903F5FFF9
:105DE00075E933F5FF75972A75FF01759B42759C20
:105DF000A4759D29759E48759F2475A11275A312DF
:105E0000759AF820390CF5FF43968090120FE04404
:105E100040F022CCEFCCCFEDCF74017E00C8EFC8AC
:105E2000088005C333CE33CED8F9FFCDECCDEF5D7E
:105E3000601B30381875FF0175DCAD75FF0175DD2D
:105E4000CDE4F5FF759A74F5FF7594842275FF0112
:105E500075DC5375FF0175DD33E4F5FF759A14F5B4
:105E6000FF7594042275FF0175E46575FF0175D611
:105E7000472275FF01E5D530E602C32253FACFEF82
:105E8000B4080543FA308012EFB4040543FA2080C9
:105E900009EFB4020543FA108000D322E5F4541848
:105EA000131313541FFF22E5F75406FFBF06037FA9
:105EB0000822E5F75406FFBF04037F0422E5F754E8
:105EC00006FFBF02037F02227F012275FF018FDAE6
:105ED0002275FF01E5D520E602C322E5FA540360EE
:105EE000FA75FF018FC3D322CEEFCE75FF01E5D542
:105EF00020E602C32243FA04E4FDEDC39E50077F6F
:105F000055D1D10D80F4E5FA543070047F0F800232
:105F10007FF0D1D1D322E5F754E024FF22E5F71337
:105F200022E5F754C024FF22EFB40109D2AD75FF7A
:105F30000143AE4022C2AD75FF0153AEBF2275C80A
:105F40000122E5C85402FF75C80222E5C85401FFCA
:105F500022F156EBF02275F005EFA42DF582E43521
:105F6000F0F583E582248EF582E5833426F58322DD
:105F7000F156E0FF229026B9E06401702190268559
:105F8000F19F401AE4F09026ECE0B403037401F0B2
:105F90009026ECE0B40407E4F0C2511257E422E08A
:105FA00004F0E0D3940422A2512290268EE0FF2236
:105FB0007402F07F0190268EEFF02290268DE0FF94
:105FC0002290268DEFF0227F0122EF605B9024CBA0
:105FD0007401F09024CD1260787D0112197B7E60EF
:105FE0007F767D0112197B7E607F777D0112197BA0
:105FF0009024CE7401F09024BAF090259DF07E603C
:106000007F787D0312197B7E607F797D0312197B77
:106010007E607F7A7D0312197B90259C7403F0903B
:1060200024CFF09024CCF0229024CD7401F0902461
:10603000CB11781219769024CEEFF07E607F781223
:10604000197690259CEFF07E607F76121976902469
:10605000BAEFF07E607F791219769024CFEFF07E50
:10606000607F7712197690259DEFF07E607F7A121F
:1060700019769024CCEFF022F090259A7403F07EEC
:10608000607F7522903120EDF0EF14601F14602BBB
:1060900014603714604314604F2405705B90312006
:1060A000E0FD9024CEF07E607F758049903120E045
:1060B000FD90259DF07E607F77803A903120E0FD55
:1060C0009024BAF07E607F76802B903120E0FD90A6
:1060D000259CF07E607F78801C903120E0FD90242C
:1060E000CCF07E607F7A800D903120E0FD9024CF4F
:1060F000F07E607F7912197B22EF1460161460190C
:1061000014601C14601F146022240570249024CE97
:10611000E0FF2290259DE0FF229024BAE0FF22902C
:10612000259CE0FF229024CCE0FF229024CFE0FFCA
:10613000227F0022715DF0E4FFFE022BFDAD077FA0
:106140000990304BEFF0A3ED1253DC9024D0E030F7
:10615000E51D90304E7401F090304BE0FD700571FC
:106160005DF08006EDB404027164E4FF124F7C9090
:10617000304BE024FC70024117147002414E24FCA5
:10618000605124096002417D9024C8E030E302415F
:106190004690304EE0602090259BE0700E9024C722
:1061A000E0600890259BF09024CAF0518D124E5F5C
:1061B000E49024C7F041469024C9E090259B91804B
:1061C000E49024C7F09024C904F0E4FD7F01124E4E
:1061D0005F8073E49024C7F090304D7408F09030E5
:1061E0004CE0FF9024CAF09024C8E020E30B9025F7
:1061F0009BEFF0E4FD7F0180199024C9E0FF90300F
:106200004CE0FED39F4005EE5189800690304CE073
:106210005195124E5F80669024C8E020E3129025CD
:106220009B7463F09024C97401F0E4FD7F01800D3C
:106230009024C9E0C39463500774635189124E5F80
:106240009024CA7463F090304D7408F0802F90242D
:10625000C8E030E32190304EE060129024C7E07037
:106260000F90259BE060069024C7F080039190F08A
:10627000E45195024E5F3134E49024CAF07E607F91
:106280007490304DE0FD02197B90259BF09024C95D
:10629000E0FFE4FD2290259BF09024C9E0FF7D40C3
:1062A00022903123EFF070139024C7E06002615C0C
:1062B0007D019188121ACA7F02804A903123E0F44E
:1062C000704690259BE06002615C7E627FDD121962
:1062D00076E4C39F50267E627FDD1219767464D304
:1062E0009F40197D027F09121AF79024C8E020E32D
:1062F000127E627FDD121976313D80077D01E4FF59
:10630000121AF77F01021B01903123E0FFC394644E
:10631000504A9024CAEFF07F01121B01E4FF124F94
:106320007C9024C8E020E3057F01122FF571649072
:10633000249DE0B4011091B8E090259AF0903123AB
:10634000E0FD7F092141903123124FD86003124FA5
:10635000F37E657F09E4FB7D03124FA1229024C8E0
:10636000E054F722E490259BF09024C7F0223134CA
:10637000E4FF124F7C9024C7E060099024C9F0E448
:106380009024C7F090259BE0FF60099024C9F0E4B9
:1063900090259BF07E607F739024C9E0FD71E80238
:1063A000197B903124EFF09024CAF0E4FF124F7C67
:1063B0007164903124124FD86003124FF39031244E
:1063C000E07009FFFE122BFD715D80109024C91250
:1063D0004751FF122BFD9024C8E04408F07E607FF7
:1063E000737D6371E802197B12197B7E607F749064
:1063F00024C8E0FD229024C9E0FF91B0F09024D0A1
:10640000E030E57B30E6159024CDE0FE04FDEFD3CF
:106410009D4005EF9EFF802F7F01802B9024CDE0D3
:10642000FEC374639EFDEFC39D501A90259BE0FD53
:10643000600B2EFEEFC39E4004E0FF800A9024CD47
:10644000E02FFF80027F63EF91A8E0600691A050EB
:1064500002716E90259BE0FF601B9024D0E030E637
:106460000C9024C9E0D39F500C9198800591C440B2
:1064700004EF124FAA9024D0E030E503124EE6223A
:10648000F09024C9E0A3F0227F05121AF77F1E22A4
:106490009024C9E09024C72290259BE09024C92233
:1064A0009024C9E0D39401229024C9F09024C722FB
:1064B0009024CBE09024CD229024CEE09024CBF009
:1064C00090259C2290259BE0FF9024C9E0C39F2249
:1064D0007F01124F7C7D017F06121AF76164EFB4D1
:1064E000010491B8801DEF700B90259DE09024CBA6
:1064F000F0A3800FEFB402109024BAE09024CBF008
:106500009024CFE090259AF0229024C6E0FF124F0D
:10651000F3124749FF122BFD7D017F06021AF73067
:1065200052149024C97463F07E607F73E0FD1219E9
:106530007B124EA4F0227E607F731219769024C9DC
:10654000EFF0124FE67E607F741219769024C8EF48
:10655000F02290259BE0FF22124749FF9024C9E0DA
:1065600060028003E4FFFE022BFD9024C9E090311D
:1065700022F0B1F36005D10F02266F124D69B1FE12
:1065800030E55D30E618B1E1903122E0FDD39E4068
:1065900005ED9FF0801E9031227401F08016B1E964
:1065A000FF903122E0C39F5005E004F08006903157
:1065B000227463F0903122E09024C9F09024D0E05E
:1065C00030E503124EE69024D0E030E60990312207
:1065D000E0B4010C8007903122E0B46303124E58FE
:1065E000229024CDE0FF04FE229024CDE0FFC3746E
:1065F000639F229024C2122647EC4D4E4F229024D6
:10660000C212266F9024CD7401F09024D0E0229025
:1066100024C2122647EF24FFFFEE34FFFEED34FFC5
:10662000FDEC34FFFC9024C222C0E0C0F0C083C067
:1066300082C0D075D000C000C001C002C003C00439
:10664000C005C006C007C0FF758CDF758A6FC28D9C
:10665000D28C121B2ED0FFD007D006D005D004D08C
:1066600003D002D001D000D0D0D082D083D0F0D0DF
:10667000E032C0E0C0F0C083C082C0D075D000C09E
:1066800007C0FF758D63758BBFC28FD28E902ECFE2
:10669000E004F0E054037024F0D22B902ECBE00401
:1066A000F0E0FF75F00A84E5F07002D22CEF75F08F
:1066B0006484E5F07006902ECBF0D22AD0FFD0078C
:1066C000D0D0D082D083D0F0D0E032EF600A75F223
:1066D0008075F24043F14022E5F130E70653F17F47
:1066E00043F180E5F130E308E5F230E7FB75F2C0F5
:1066F00022E5F130E70653F17F43F18022EF600499
:1067000043F1802275FF01E4F58E53F17F22EFB44F
:106710000807F13A4403F58422EFB40407F13A4440
:1067200002F58422EFB40207F13A4401F58422EF26
:10673000B4010675FF015384FC2275FF01E5845402
:10674000FC22E5F130E40F75FF0175FF015385F080
:1067500075FF018F862275FF01EF540FFDE585540B
:10676000F04DF58575FF01F16CF58622EEC4F85405
:10677000F0C8EFC4540F4822EF6003D2EA22C2EA05
:106780002275F24022E5F2C330E601D322E4F55B44
:10679000F55CE5F230E72675F280E5F1AFF330E421
:1067A00007755B008F5C8010EF75F010A4F55C85B9
:1067B000F05BE5F2540F425CAE5BAF5C227EFF7F84
:1067C000FF22EF600775FF014384042275FF015328
:1067D00084FB2275FF0153853FEF428522EFB40110
:1067E0000443F1102253F1EF22EFB4010443F1040A
:1067F0002253F1FB22EF600443F1012253F1FE2208
:10680000EFB4020343F108EFB4010353F1F7EFB41F
:10681000030543F101803FEDB4040875FF01438592
:10682000208014EDB40107115A5384F78009EDB4A8
:106830000205115A438408EBB4100875FF01538513
:10684000EF800AEBB4200675FF0143851075FF0148
:10685000903056E0F58E43F1802275FF015385DFBD
:1068600075FF0122EF5403FFE58954FC4FF589229F
:10687000EF6004438904225389FB22AF8CAD8AEF79
:10688000B58C04FEEDFF22AF8CEFFEAD8AEDFF224A
:10689000EFC45430FFE58954CF4FF58922EF24FF30
:1068A00092AB22EF24FF928E22EF600443894022B4
:1068B0005389BF22AF8DAD8BEFB58D04FEEDFF2266
:1068C000AF8DEFFEAD8BEDFF2275FF01EF4420F59C
:1068D000A42275FF0143A4102275FF01E5A4541002
:1068E000FF22EF24FF92E92275FF01EF600443A429
:1068F000112243A41075FF0243F60222EF600775D0
:10690000FF0243F6012275FF0253F6FE22AD07ACEB
:106910000675FF01ECF5A9EDF5A72275FF01AFA9FA
:10692000EFFEE5A7FDEDFF2275FF01AFA6E5A5701F
:10693000011FEFFEADA5ED24FFFDE434FF4EFEED9B
:10694000FF2275FF01EF54C4442AF5A42275FF010C
:106950008FA9AF058FA72275FF01E5A912231B9010
:106960002F971226C9E5A702231B1226C990000300
:10697000022299EFF0A3EDF0A30226E98F828E8325
:106980007F010228147B017A12791C902F1F0226A6
:10699000E99000010222997B017D01121AA27B017C
:1069A00022EFC41313135401221226C9E92406F955
:1069B000E43AFA22AA06A90702281090000112233D
:1069C0002D900002221226C9900004022299E0FFB5
:1069D000902DAFE4F0A3EFF022E0FFA3E0FDA3E0F1
:1069E000FB229002BDE0FEA3E0FF1219ADD3EF94AD
:1069F000C8EE940022902F14E02403FF902F13E0A0
:106A00003400FEEF780222EEF0A3EFF0A32274FF31
:106A1000F5F01223B645F0221226C9740502231B95
:106A20001226C9740102231BE090000402232DFAF0
:106A3000E924FFF9EA34FF221226E9022280C8EC99
:106A4000C8C9EDC9CAEECACBEFCB22EEF0A3EFF076
:106A50007B0122AF03EAF0A3EFF022E0FEA3E0FF08
:106A60007C002290120EE0D394012275FF02902F39
:106A700010E0FEA3E022E0FCA3E0FDA3E0FEA3E023
:106A8000221226C97D05E4FF0219627C00FFEC3565
:106A9000F0FE22E0FCA3E0FD4C22EFF0A3EDF0902D
:106AA00024D0E0229024BDF09030B4E0FF2275FFA6
:106AB000015356BF8556CB2275FF01E4F5EA75EA0E
:106AC000FF2275FF01438E1075FF0122EF7C002924
:106AD000F9EC3A228B828A83022814FFEE5CFEEFE7
:106AE0005D4E22758300EF02232D74017E00A80500
:106AF0000822EFF090121CE06F2233333354F8F584
:026B0000F4227D
:0E6B0200FFFFFFFFFFFFFFFFFFFFFFFFFFFF93
:106B1000FFFFFFFFFFFFFFFFFFFFFFFFFFFFFFFF85
:106B2000FFFFFFFFFFFFFFFFFFFFFFFFFFFFFFFF75
:106B3000FFFFFFFFFFFFFFFFFFFFFFFFFFFFFFFF65
:107FB000FFFF3F3F3F0404047FC65435798008C269
:067FC00000637D33FD406B
:0A7FC600FFFFFFFFFFFFFFFFFFFFBB
:107FD000FFFFFFFFFFFFFFFFFFFFFFFFFFFFFFFFB1
:107FE000FFFFFFFFFFFFFFFFFFFFFFFFFFFFFFFFA1
:107FF000FFFFFFFFFFFFFFFFFFFFFFFFFFFFFFFF91
:10800000EF547024F0602624F0603C24F060522489
:10801000307067303E0B117E8002C333D8FC428043
:1080200022117E8002C333D8FCF4528022303E0BF2
:10803000117E8002C333D8FC429022117E8002C39D
:1080400033D8FCF4529022303E0B117E8002C333B1
:10805000D8FC42A022117E8002C333D8FCF452A087
:1080600022303E0B117E8002C333D8FC42B0221175
:108070007E8002C333D8FCF452B02275FF01EF5466
:1080800007FF7401A8070822F9E43AAD0190306DAA
:10809000F0A3EDF0915B903023EFF0C39402400227
:1080A0004181903023B138E0FF903026F09027AC2A
:1080B000E0FEEFB50605E4F54C8006903026E0F5CD
:1080C0004CE54C75F011A42407F9740035F0FEAFAF
:1080D00001903026E0FD125B71E54C12D066125B18
:1080E000528F52E5525403FF602F903023E0FE512F
:1080F00086E0548FF0741E2E5188E04420F09030BA
:1081000023E0FE9142E0549FF074172E9144E0FE6C
:10811000EFC43354E0FFEE4FF0E4903025F0E490EC
:108120003024F0E54CB17EFA903025B154FA90300D
:1081300024E0F1D2FEAF01125B598F52903023E060
:10814000FF5186E0540FFE903024E0FDC39E500B9B
:10815000EF914DB12DE0FD7C00800F903024E07058
:1081600005FC7DFE80047C007D00AF05EF6552605C
:1081700002801EEF64FE70024181903024E0FD60B9
:1081800009EF7006EE6D70024181903024F1DD4000
:1081900092903024E0640470024181903025F1DD3A
:1081A0005002211EE54CB17EAF01F54A8F4B518242
:1081B000E0540FF552E4903024F0903024E0FFC3F7
:1081C00094045019AD4CF1B2A4FDACF0E54CB17E75
:1081D00012BF706008903024E004F080DD903024FD
:1081E000E0C3940440037403F0903024E0FFAD4CEE
:1081F000B18A903024EFF05182E0540FF552E490B0
:108200003025F0E5527009B143FEAF017DFE801EBE
:10821000903025E0C395525020B143FAA3E0F1D24B
:10822000FEAF01E0FD903023914CB12DE0FD125BDB
:1082300071903025E004F080D7903025E0C394049D
:10824000500AB143FAA3E0F1D212BEDDE54C125B55
:10825000498F525182E054F0C3940250119030245F
:10826000E011818002C333D8FCF45252800E90306A
:1082700024E011818002C333D8FC4252E54C125BEA
:108280005F22903023E0241EF582E43412F583222D
:10829000902FBDEEF0A3EFF020250E902206E0B463
:1082A000010A9136912B20E7037FFF2291367B0153
:1082B0002404912FF1F56002800991367B01240896
:1082C000912FFFAD0712CC8E902FC1EFF0F4704FBD
:1082D000F1E55036E004F0E4902FC1F0902FC1E0BA
:1082E000FFC39402501074192FB13BE06008902F27
:1082F000C1E004F080E6902FC1E0B402037401F005
:10830000902FC1E024FF9224801520260CB224A2D5
:1083100024E433902FC1F08006902FC17401F090B7
:108320002FC1B138ED912220E70261BFEF240991FE
:108330002F30E31D902FBDA3E0240A912F12D3808C
:108340003AFAE924011289A55418FF913EEFF08012
:1083500004913EE4F091367B01240A912FC4540F1E
:10836000FF902FC15185EFF0902FBDE0FCA3E024DA
:108370000BF9E43CAD01A3F0A3EDF0902FBDA3E019
:108380002409F9E43CFA12228020E017AE071FEE20
:108390006043B15FFE902FC1914CE5822FB130EE6A
:1083A000F080E9E4FEAD071FED602AB15FFDAC0689
:1083B0000E902FC1914CE5822CB130EDF080E6900B
:1083C0002FC1E0FF5186E4F074172F9144E4F0EFE1
:1083D000914D74FEF0902FC15185C083C082E0FFA3
:1083E000902206E012D3E2D082D083912230E708B7
:1083F000EF2409912F20E4079136912B30E40C12E1
:10840000CC0B8002C333D8FC4F800B12CC0B800204
:10841000C333D8FCF45F90121BF0D225902FC1E03B
:10842000FF22F0902FBDE0FEA3E0FF7B012405F9C1
:10843000E43EFA022280902FBDE0FEA3E022902FBE
:10844000C1E02417F582E43412F58322E025E0250B
:10845000E02423F582E43412F58322AD0779FF305E
:108460002502A12A12CC8EA907EFF47027F1E5505E
:108470001AE004F0E4F9741929B13BE0600509E958
:10848000B402F3E9B4020D79018009202604E4F96D
:1084900080027901741929B13BEDF07417299144D8
:1084A000E4F090306DE0FCA3E0F5828C83E0540FA3
:1084B000FE741E295188EEF0741E295188C083C0B5
:1084C00082E0FD902206E0C454F0FCED4CD082D056
:1084D00083F0EE6035E4FDAC061EEC603390306D49
:1084E000E475F001303F111223B6B169FCAB050D04
:1084F000E9914DE5822B800C1223B6B169FCE9911C
:108500004DE5822EB130ECF080CDE9914D74FEF056
:1085100090121BE0FEAF017401A807088002C3336C
:10852000D8FCF45E90121BF0D225AF0122E5822D1B
:10853000F582E43583F58322E02419F582E43412D0
:10854000F58322E54C75F011A42408F9740035F088
:10855000FA903024E075F004A429F9EA35F022906D
:108560002FBFE475F0011223CC85F082F583E02261
:10857000B18AEF75F004A4FDACF0902219E075F01B
:1085800011A42408F9740035F022E4FE7C03EEC344
:108590009404502A741B2D129618E05CFBEE25E023
:1085A000FAEBA802088002C313D8FCB50707902392
:1085B0000AEEF0FF220EEC25E025E0FC80D07F00E3
:1085C000229030F5EFF09030F5E0FFC39404505165
:1085D000902219E0FD7880F6B17012BF70603A12F7
:1085E000D403FDB170FAE92DF9EA3C12AFC6123797
:1085F000AF9030F5F1FC6029E4FF74822FF8E6704B
:108600000E9030F5E0601AEF701774FFF08012786A
:1086100081060FEFB404E380089030F57404F08015
:10862000A59030F5E0C39404400574FFF0804390BA
:108630002219E0125B49A90712D403F1B98002C3E1
:1086400013D8FC5403600D24FE600F14701278865A
:108650007618801078867620800A788676108004D6
:108660007886760890221912D065125B52EF60026C
:10867000F1ED9030F5E0FF229030F612D36A12D47B
:108680002C504E7E007F07125B597880EFF66039E0
:108690009030F6E0FFE4FDF1B2B18112AFC61237BF
:1086A000AF9030F6F1FC6029E4FF74822FF8E67099
:1086B0000E9030F6E0601AEF701774FFF0801278B9
:1086C00081060FEFB404E380089030F674FFF08069
:1086D000AD12D42C400574FFF0804F7B027A0F79E5
:1086E000807E0F7F80125B59A9079030F6E0FFE48F
:1086F000F1B98002C313D8FC7E0060047F018002C0
:108700007F00EF7803C333CE33CED8F9FF7886F6F7
:10871000BF10107B027A0F79817E0F7F81125B5927
:10872000EFF1ED7886E6700276209030F6E0FF22D9
