:020000040800F2
:1060000008040020DD610108735801087358010875
:106010001166000873580108735801087358010885
:10602000735801087358010873580108393D030873
:1060300073580108005D0308DD3C0308F9530308A9
:106040009D8E0108735801087358010873580108A0
:1060500073580108735801087358010873580108F0
:1060600073580108735801087358010873580108E0
:1060700073580108735801087358010873580108D0
:106080007358010873580108E9BB000873580108E8
:106090007358010873580108195901087358010809
:1060A0007358010873580108F5580108D1580108C0
:1060B0007358010873580108C5FA020881050308DE
:1060C000592A0308552A030835FD02086F2A0308D8
:1060D0005D2A030851050308612A0308E505030842
:1060E0001D06030873580108735801087358010806
:1060F00073580108257C000873580108735801087B
:10610000735801087358010873580108735801083F
:106110007358010873580108BD7A020873580108C2
:10612000735801087358010873580108735801081F
:10613000735801087358010873580108735801080F
:1061400073580108735801087358010885630108E2
:1061500073580108735801087358010809E30208CD
:106160007358010873580108492A03084F2A030885
:10617000F0B5114A114C124E00F00105E3695F07BA
:1061800013D40DB9334213D103EA00078F4207D16C
:106190000B4A1A40002A0CBF00206FF00100F0BD2E
:1061A000013AEBD16FF00200F9E74FF0FF30F6E76C
:1061B0006FF00100F3E700BF8096980000000350E5
:1061C000020001004FF4803238B50E4B0E4C9A6637
:1061D000E56941F6713315400122E3630B4B002161
:1061E000DA600223606121202361FFF7C1FF10B94B
:1061F0002120FFF7BDFF0122054BDA600DB100231E
:10620000E36338BD009000500000035000100350BD
:10621000002003502DE9F84F16464FF48032274BEB
:10622000274D9A66EB69074603EA020841F6713387
:106230000122EB63234BDFF89490DA600EB930460D
:1062400029E007F5005404EA09046F61E41BEB69D7
:10625000B44228BF34465B072DD48B465BF8043B21
:1062600001EB040AAB61D3450ED1042300212120A8
:106270002B61FFF77DFF70B92120FFF779FF50B93F
:1062800059462744361BD9E708210846FFF770FF17
:1062900068B104232B6101220B4BDA60B8F1000FC7
:1062A00003D00022A3F50053DA63BDE8F88F5BF852
:1062B000043BAB61D7E74FF0FF30ECE700900050B4
:1062C00000000350001003500020035000E0FFFFC7
:1062D000A57600086C00010000000000FF0001002E
:1062E00026000000A89E0020FF0000000000000023
:1062F0001800000001BB010822000000F9B90108E4
:1063000001000000EBBA01080500000055B90108C2
:1063100004000000BDC401080B00000095C6010880
:106320002500000059CC010824000000F5CB01082D
:106330001400000091D801080C00000051CD0108A4
:106340001600000069B7010803000000890902086F
:1063500002000000F9BA010808000000A9DD0108E8
:106360002A000000D50702082900000019090208C8
:1063700002000000F1BA010801000000E5BA0108BE
:106380000300000049CF01080000000029BA0108FD
:1063900002005E0002000000316C000800000000F6
:1063A00000000000000000000000000000000000ED
:1063B0000000000000000000020086000300000052
:1063C0005D730008000000000000000000000000F5
:1063D00000000000000000000000000000000000BD
:1063E00002006C000100000099B9000800000000E4
:1063F0000000000000000000000000006F820008A4
:106400006F8200080000000002007300010000001D
:10641000557D0008000000000000000000000000A2
:1064200000000000236C00087570000800000000E8
:10643000030026000400000009B600080D6C0008E7
:106440007D950008176C0008000000003DC800089A
:106450003DC80008000000000200720002000000B9
:10646000E56A0008000000000000000000000000D5
:10647000000000000000000000000000000000001C
:106480000200870003000000D59200080000000011
:1064900000000000D96A00080000000000000000B1
:1064A000000000000000000002007A00050000006B
:1064B000B5A300080000000000000000000000007C
:1064C00000000000ADA80008ADA800080000000012
:1064D00002005A000100000000000000000000005F
:1064E00000000000A16A0008000000000000000099
:1064F0000000000000000000020070000400000026
:10650000519C000800000000000000000000000096
:1065100000000000BD900008BD90000800000000D1
:1065200002005B0003000000198100080000000069
:1065300000000000616A000800000000CD81000832
:106540000981000800000000030020000200000094
:10655000657200080000000000000000000000005C
:10656000000000000000000000000000000000002B
:1065700002008E0003000000218A000800000000D5
:10658000000000000000000000000000000000000B
:10659000000000000000000002005900030000009D
:1065A000C79A000800000000000000000000000082
:1065B00000000000F3670008000000000000000079
:1065C0000200850002000000718900080000000040
:1065D000000000000000000000000000F58000083E
:1065E00005810008000000000100FF00FF0000001E
:1065F000000000000000000000000000000000009B
:10660000000000000000000000000000000000008A
:10661000BFF34F8F0549064BCA6802F4E06213438B
:10662000CB60BFF34F8F00BFFDE700BF00ED00E080
:106630000400FA05034613B59C6808461146E4B108
:106640001B78022B0BD0032B12D0012B17D1234622
:10665000027AD0E9000102B0BDE810401847131DCE
:1066600000931368027AD0E90001A04702B010BD80
:10667000234602B0BDE8104018472046F6E7042044
:10668000F4E730B403460A4608480949884202D371
:10669000042030BC70475C6845882478A54202D14C
:1066A000194630BCC6E72830F0E700BF9063000809
:1066B00010660008037813F00C0F074B0AD190F90D
:1066C0000820002A06DB1878421E50425041002262
:1066D0001A7070470120FAE7DC0D0020C378012B07
:1066E00002BF0022034B1A70034BDB6803B118474B
:1066F000704700BFD60E00209C4F0020164B30B5CF
:10670000186985B08268416814790B7A012C03F00E
:106710007F0318BF002314880D78ADF800409478EB
:1067200015F0020FC4F306048DF809409478C4F301
:10673000C0148DF80C4052798DF808300CBF252319
:1067400027238DF80B208DF80A3003680BB16846BB
:10675000984705B030BD00BF9C4F002008B5C36905
:1067600003B19847002008BD08B5036A03B19847F4
:10677000002008BD024B1B6803B11847704700BFDB
:10678000200E0020094B1B689B69D88860B1831ECE
:10679000E62B08D9A0F58070B0F5806F2CBF0020E3
:1067A0000120400070470120704700BFDC0A002034
:1067B000438870B5FF2B04460D4607D043692BB1C3
:1067C00000262A68F3B21178994201D8002070BDE2
:1067D0005268D25C63889A4209D16A68636910681A
:1067E00098476A6800B2136803EB400313600136F0
:1067F000E7E7024B024A5A61704700BF9C4F0020F6
:106800008C63030830B50624431CDBB2C3EB0313CF
:106810005B0014FB02335A2414FB0134104B234455
:10682000D4B2042C0CD11E235843062303FB0400CE
:106830005A23FF2203FB01010A4B0B441A8330BD8C
:1068400033F8185C0132FF2D03F10603EBD053F847
:106850001E4C43F8244C33F81A4C23F8204CDFE745
:10686000B44F00209C4F00200128024608B501D8F3
:1068700041B90122FFF786FF022805D1531E584275
:10688000584108BD0020FCE70520FAE72DE9F04F4C
:106890001C461B7987B0012B019338BF01235A2571
:1068A0009A461E2393464FF0000911FB05F513FB92
:1068B0000253494F0390FB18501E0293C0B24FF091
:1068C0000408FF23029E36F806CCBCF1FF0F17D058
:1068D00016F8022C012A13D0019A0AB9227B22B1A0
:1068E000226812F8092062450AD126F8063C5FFAB0
:1068F00088F2CDE90401FFF785FFDDE90401FF23FC
:1069000008F1FF38B8F1FF3FA6F10606DBD109F127
:1069100001095FFA89F39A45D1D8039B852B55D09D
:1069200094F80CA00BF1FF395346012B38BF01231B
:1069300002931E2303FB09F94D4407EB05080027CA
:10694000264B45460426B5F818C0BCF1FF0F33D0DE
:106950002A7F012A30D1019A5ABBBAF1000F38D0F0
:10696000A26802EB470012F81720624500D01ABB5C
:1069700006224FF05A0C02FB06920CFB01221A442D
:1069800092F81AC042780CF07F0E02F07F00864524
:1069900012D1D209B2EBDC1F0ED1FF220BF1FF3076
:1069A0002A83C0B2F2B20391FFF72CFF03990B4B7D
:1069B00002E0BAF1000FD3D1013E721CA5F1060529
:1069C000C1D102980137FAB29042BAD807B0BDE8F7
:1069D000F08FFF222A83EFE7B44F00209C4F002066
:1069E00070B500240331032A0160047184600473CC
:1069F00001D8046070BDD51E043AEDB2D2B28E2B20
:106A00000ED114460A7852B96608012C067301F1BA
:106A1000010102D8002CF4D1ECE78160EAE72246BC
:106A2000AC1A013AD2B2FF2A047101F10101E6D198
:106A3000E0E7002370B50A681578DCB2A54201D8FA
:106A400000200AE05468E65C4488A64206D1C46887
:106A50000CB9046914B14860012070BD0133ECE742
:106A60005B2303220370837006234270C3700220ED
:106A700070470A4B70B55A6F4FF6FF7000232825F8
:106A8000148899B28C4200D870BD05FB03F156689A
:106A90000133715A884228BF0846F2E79C4F002014
:106AA0005A22034602700120587070470120704737
:106AB00008B5436A03B19847002008BD054B93F819
:106AC000780030B193F87900003818BF01204042B7
:106AD000C0B270479C4F002087230370032343708C
:106AE0000120704710B51C46FFF7E4FDA0BB4B78B2
:106AF000042B02D0062B14D010BD72232370052363
:106B000063706323E3704923237144236371352346
:106B1000A3713723E3710823A070029AFF2013703A
:106B2000EAE77223237007230C4A6370936CD26CDC
:106B3000E372110E2171110C6171E271110A1A0ECA
:106B400022721A0C62721A0A0123A3702823A171FF
:106B5000E370A2720C23E0E70220CDE70080E00F93
:106B6000B5EEC00AF1EE10FA06DDB4EEC10AF1EEA0
:106B700010FA06D501207047B5EE400AF1EE10FA82
:106B800014D0F5EE400AF1EE10FA0FD030EE410AC3
:106B9000C0EE207AFCEEE77A17EE900A18B163286F
:106BA00002D9632070470120C0B2704700207047AF
:106BB00030B5084B0146DA6F93F880400023D8B215
:106BC000844201D8204630BD157B01338D42FAD076
:106BD0005C32F4E79C4F002038B5047805464CB190
:106BE000FE2C0FD0FF2C05D1074BDB6F1C7B012047
:106BF0002C7038BD2046FFF7DBFF034B93F8803045
:106C00008342F4D80020F4E79C4F00202623037031
:106C10000123437070472623037003234370012030
:106C200070470022014B83F8812070479C4F002061
:106C300010B51C464B78012B19D1FFF73BFD0346DD
:106C400002209BB95E22227005222371094BE2705B
:106C50001A885B88110AA2711A0AE271092260700F
:106C6000A070FF202372029B61711A7010BD00207A
:106C7000FCE700BFE09D00202DE9F0473B4C14F0FD
:106C800043F9D4F884502EF059FB002848D1002D48
:106C900046D0374F3B689D421AD02DF001FBD5F806
:106CA00028A0D4F888906E69D4F88C802DF06EFB03
:106CB00004F190039A450BD04E4509D0464507D0C4
:106CC00004F1A4039E4225D1AB6A0BB995F85C3060
:106CD0002E1D2DF0E5FA30462EF0B0FCAB6A1BB14C
:106CE00005F118002EF0AAFCD4F8CC300133C4F81A
:106CF000CC303B689D42D4F8D03013D01D4A136885
:106D0000013B13602DF0E2F92DF040FB28462EF0F8
:106D100014FC1EE004F1B8039E4201D0002ED7D12E
:106D2000BDE8F087002BE9D0D4F8BC309A68AB609E
:106D3000EA6056609E60104B6B61D4F8B830013346
:106D4000C4F8B830D4F8D4300133C4F8D4302DF0BE
:106D50001DFBD4F8D030002BE2D03B689D42DFD140
:106D6000D4F8D830BDE8F0472EF013BB9C4F00207C
:106D70005C0C0020B020002054500020014808F096
:106D8000BAB800BF340D0020442300B5ABB08DF875
:106D90000030054B4FF4FA721B686946986808F09A
:106DA00076F82BB05DF804FBDC0A0020C378012BD9
:106DB00000D1E9E77047712300B5ABB08DF8003022
:106DC000044B00221B686946986808F060F82BB0F5
:106DD0005DF804FBDC0A0020EDE730B50A4BABB0F0
:106DE0000446A822002168461D682BF039F97D234E
:106DF0004FF4FA726946A8688DF800308DF80440A7
:106E000008F045F82BB030BDDC0A0020418808B5F9
:106E1000982908D009D8552905D05E2903D000202B
:106E2000C9B220F079FD002008BD9F29F6E72DE9C1
:106E3000F041B8B0E022002168462BF011F9FF23A1
:106E40008DF800301D4BDFF878801F686946786840
:106E50002EF0A2FB012802D038B0BDE8F0819DF8E9
:106E60000030822B26D0842B24D0802BEED1D8F872
:106E700000600025344633789D42E7DA2379012B00
:106E800007D0022B0DD04BB969462369E0689847BB
:106E900004E09DF80420E3889A42F5D001351034CF
:106EA000E9E79DF80420E3889A42F7D19DF8052090
:106EB000237AF1E7FFF75EFCC8E700BFDC0A002099
:106EC0001C0E0020002373B5CDE900330D4D0E4E8E
:106ED000694628682EF060FB012810D002B070BD12
:106EE000A288BDF804309A4205D123681BB10099ED
:106EF0009DF8060098470834B442F1D3E8E7034C04
:106F0000FAE700BF980F0020E0620008D062000896
:106F100010B5094A044692F88130013BD8B282F894
:106F2000810040B982F8DC00FFF757FF2046BDE83A
:106F300010401FF029BE10BD9C4F00202D49F8B510
:106F40000B69002B54D00025032601F1E00401F168
:106F5000F00701F5807C0A69137B013BDBB21373F8
:106F60007BBBA242C2E90033936021D0BA4221D058
:106F7000624521D1022213460D610133B3FBF6F0C5
:106F800000EB40001B1A01EB031EDEF8E0E01801E5
:106F9000BEF1000F12D0204408610A69AAB9164850
:106FA00007F08DFF20B3BDE8F84013481FF0ECBD9B
:106FB0001A46E0E70122DEE70322DDE79A42DCD150
:106FC000EBE7936806339360E7E7506892680379CC
:106FD000B2F800E0408803F07F03864504D1927840
:106FE00002F07F029A42B6D0BDE8F840FFF786BBB8
:106FF000F8BD00BF9C4F0020AC5000200C4B03F5A7
:107000008872824213D11A698AB1516892680B79E9
:107010001088498803F07F03884204D1927802F0F7
:107020007F029A4201D0FFF769BB002086E77047D4
:107030009C4F002010B5064C204607F040FF10B1D1
:1070400020461FF0A1FD0022024B1A7510BD00BFA3
:10705000F89D0020E09D0020044B93F8AB20FF2A10
:1070600003D1034AC3F89820E4E77047E09D00206D
:1070700000000F1D38B500250E4C2846A4F85051CD
:1070800084F85251A4F85451A4F8565184F8585138
:1070900084F8DC50FFF7A1FE04F5AE7084F881504F
:1070A00007F00DFF28B104F5AE70BDE838401FF0C1
:1070B0006BBD38BD9C4F0020002105234FF4FA62C0
:1070C000084621F0E9BA10B50E4CE3680BB1607CBC
:1070D0009847637C2BB994F8AA30812B01D0FFF735
:1070E0006AFE94F8AC30012B04D1074B074A5A6270
:1070F0001CF084FD0021BDE81040032364220846F3
:1071000021F0CABAE09D002000000850FFFF1D03D7
:10711000F8B50446007BFFF74BFD276B844694F8D7
:10712000256094F82C30224D010197B9A6BB6A184E
:1071300092F89C219A423AD0294481F89C311D4B07
:107140000FFA8CF103EB01116046BDE8F84020F026
:10715000C3B96A18D2F8A001874207D0C2F8A0715B
:107160006EB992F89C219A42E6D1E8E7002EDFD072
:10717000D4ED107A92ED697AF4EE477A13E0D4ED0B
:10718000107A92ED697AF4EE477AF1EE10FAE8D0CF
:107190006A18C2ED697AE4E76A18D4ED107A92EDC4
:1071A000697AB4EE677AF1EE10FAF1D1C0E7F8BD72
:1071B0009C4F002038510020F0B406880D888A7852
:1071C000AE420CD002F07F03072B13D8AE4221D879
:1071D000520624D083785B0621D1012024E08478F4
:1071E000544014F07F0301D127061CD502F07F0321
:1071F000072B14D9847804F07F079F4207D3ECD87B
:10720000AE420BD914F07F0F09D054060ED14FF0C7
:10721000FF3009E0837813F07F0FF5E7D8D304221D
:10722000F0BC2BF058BE1846F0BC7047AE42F6D208
:10723000D0E707B50A4B019093F8DC218A420CD1C4
:10724000042203F5EF710DEB02002BF044FE003831
:1072500018BF012003B05DF804FB0120FAE700BF6E
:107260009C4F0020F8B5436805465C780F46012C1A
:1072700003D0022C1ED000241AE09B78643BDBB2C2
:107280009A2B14D90368197A587801F07F0120F0FD
:10729000E7FA06460028EED0C4684CB16868A047FB
:1072A0003A4629463046BDE8F840FFF7C3B9022404
:1072B0002046F8BD05682846FFF7FCF90028F7D1FD
:1072C0002C7A687804F07F04214620F0C9FA00285F
:1072D000D1D00569002DCED02023396820460B700F
:1072E0000323CA1C4B700B1D0231A8470523FF2442
:1072F0003B71DDE708B5094B0022197802201EF02A
:1073000041FA074B4DF2D8611B780648002B08BFA5
:10731000C821BDE8084007F01CBE00BF0B070020D5
:107320000C07002010070020074A084892F8E231B5
:107330001830012B4FF0010380F8913088BF82F89C
:10734000E33120F0CEB800BF9C4F0020E09D00202C
:10735000002844F2374018BF0020704770B51C4623
:10736000FFF7A8F9002840F08F804B78113B062BDF
:1073700000F28C80DFE803F0048A1E8A548A5C00E5
:107380008623237012236370414B1B685B69DA7993
:10739000A270DA78E2701B792371082363711423D9
:1073A000A3710123E371002323720923FF20049AB0
:1073B000137070BD8623237014236370344B8D7853
:1073C0001E68344B29461A785868A5702BF0B9FD11
:1073D00058B9FF23E370304B304A934218D3E37817
:1073E000FF2B04BF0023E3700AE0982D0AD09F2DE5
:1073F0000BD0552DEDD173699B78FF2BE370EAD04C
:107400000423D3E773691B78F7E773695B78F4E7C4
:1074100059882833A94204BF13F8241CE170DCE723
:1074200086232370162363700723A3700323BDE70D
:1074300086230722237018230A216370A270E37049
:107440000122A371AB250023CD2061711049227167
:107450000968E2714969A372E37223736373A373CA
:1074600025726072CE78E6730E7926744979A2741B
:107470003122E274082222751422A3756174192343
:107480006275E575207691E7022092E7002090E78B
:10749000DC0A0020CC0C0020906300081066000875
:1074A00038B500250B4CC82229460B4884F8AD504E
:1074B0002AF0D6FDB4F898002575013080B21DF091
:1074C0007DFC28B104F11800BDE8384020F009B86F
:1074D00038BD00BFE09D002080510020002370B522
:1074E000194E1A4A347C5178814227D11178A14231
:1074F00024D10C22164D02FB0355EB6898472B7CD8
:10750000B4FA84F23374B3FA83F352095B099A42F2
:107510000AD0104D4CB995F8AC322BB120461CF076
:10752000BFFE012385F8AD3270BD95F8AD32002B5A
:10753000FAD0BDE8704001201CF0B2BE01330D2B23
:1075400002F10C02CFD1EFE7E09D00209463030825
:107550008C6303089C4F0020034B1B7C032B0CBF48
:107560000B200820BAE700BFE09D0020064B93F8EF
:10757000AB30FF2B07D183780BB1052B01D1022053
:10758000ACE70320FCE77047E09D0020F8B590F8D9
:1075900025302DED048B044643B390ED0E8A457DD6
:1075A00080ED108A032D21D0F7EE007AB4EEE78A41
:1075B000F1EE10FA384BD3EDAC8A1AD5D0ED087A3B
:1075C00078EEA78AF2EE047A78EEA77AFCEEE77AF4
:1075D000427B324B012D03EB4212196BC2ED1C7A38
:1075E00004D1FCEEE88A1A6BC3ED088ABDEC048B6B
:1075F000F8BD80692AF026FA41EC190B18EE100A42
:107600002AF020FA20A3D3E900232AF09DFBB0EE54
:10761000491AF0EE691A41EC100B0DF045F99FED97
:10762000209AD4ED087A38EEA78A78EEC97A57EC1A
:10763000106B17EE900A2AF005FA32463B462AF004
:1076400059FA13A3D3E900232AF09EF829F066FE25
:1076500007EE900AF8EE677A78EE677AFCEEE77A42
:10766000627B0E4B012D03EB4212196BC2ED1C7AAB
:10767000BCD1F8EE677A77EE897AFCEEE77A1A6B7E
:10768000C3ED087AB2E700BF00000000A0EDE740BC
:10769000000000000078BE409C4F00200080045095
:1076A00000C0F34502460846097C022A01F03F016A
:1076B00007D0032A07D0012A4FF0FF3218BF00225B
:1076C000D2B2002305E0427C12B1012241F08001D8
:1076D000837C1FF0E3BE0028ACBF00F16040064B86
:1076E0004FEA0111C9B2ABBF00F5614000F00F00D5
:1076F00080F800131954704714ED00E02DE9F74F9E
:10770000002800F0E8807549D1E9B24EEFF3118B03
:10771000302383F3118810F8086C30F806CCF30797
:1077200002D5BCF1000F07D18BF31188BFF36F8F27
:10773000012003B0BDE8F08FD1F8BC32D1F8C4927B
:10774000A3EBCC0330F8048C0093C1F8BC3209F1F0
:107750000103A0F108050CF10102C1F8C432B8F12F
:10776000000F3BD0A5EBC803DF88B3F802A0019758
:107770001F7806F00206FF0725D42EBB019EA6EB5C
:107780000A06012E2AD1009E0CF10202A6F108077A
:107790005244C1F8C492C1F8BC7230F8028CB8F1FE
:1077A000000F1DD110F8085C20F8068C68F3000566
:1077B00000F8085C013A5A801A7868F300021A70DF
:1077C0000022DA803FE04EB110F8086C42446FF3BB
:1077D000410600F8086C00269E80DEE72B46DCE7B9
:1077E00005EBC809D1E9AD673744B9450ED310F8A8
:1077F000085C013A6FF3000500F8085C002520F8EA
:10780000065C5A801A7865F30002D8E715F83850FC
:107810004E4615F0010530D010F8085C013A6FF3C0
:10782000000500F8085C002592B220F8065C5A803A
:107830001A7865F300021A70C3F107023244C2F3EA
:10784000CF02DA80B280002C43D09C4241D86288BB
:10785000002A08BF1C46BEF1000F06D09E4504D387
:10786000BEF80220002A18BF7346C1E9B2438BF369
:107870001188BFF36F8F00205BE7A8EB0C08B8F10D
:10788000010FC9D1B9F80270A9F802501744B9F82C
:107890000620E2B109EBC2060025D1F8C422013A64
:1078A000C1F8C422D1F8BC22083AC1F8BC2210F8B1
:1078B000082C20F8065C6FF3000200F8082C1A78F8
:1078C0005F8065F300021A70002EB5D178E7164686
:1078D000E2E71C46BFE722202BE700BF9C4F0020B9
:1078E000002313B5019369B160B101FB00F401A954
:1078F00020461DF043FB014620B9019810B12246F5
:107900002AF0AEFB019802B010BDFEE7002307B5D8
:10791000084601A901931DF031FB019803B05DF801
:1079200004FB0846EAE608461146D9E7002303604F
:107930004360704730B5D0E9054553B394420FD04A
:10794000E2B9046974B9036983B3002918BF0D460D
:107950002B78DB0714D5AB8843B3A5EBC305F7E75A
:1079600004698CB141B904682378DB070CD5E3883E
:107970004BB104EBC304F7E70C46F5E79542E2D0C0
:10798000C0E9054530BD1C469542DCD0002ADAD05E
:10799000F6E7944208D08C4228BF0C46954207D0A7
:1079A0008D4238BF0D46EBE70C46F7E71D46E7E78B
:1079B0000D46E5E700232DE9F3478B4E0193D6F8FA
:1079C000B8320C469A42104604D239B912B101A914
:1079D0001DF0D4FA019802B0BDE8F0871AB9084644
:1079E000FFF78CFEF6E7EFF31187302383F311885E
:1079F00034F8063C07304FEAC30820F00705A845D5
:107A0000A1F108017ED234F8020C002868D0C21A15
:107A1000012A65D101EBC00211F83000C0075FD424
:107A2000B2F802C0A8EB050919EBCC0958D4B9F19A
:107A30001F0F38DDC5F3CF03611924F8063C01336D
:107A4000084624F8023CFFF771FF34F8020C4FEAB5
:107A5000D9038880D0884B8010B3B2F802C0A0EB65
:107A60000C0C1CFA83F39BB202EBC000CB8083802A
:107A700000235E48FFF75EFF1046FFF757FFD6F87A
:107A8000BC32D6F8C0222B44A3EB080393420194E6
:107A9000C6F8BC3233D887F31188BFF36F8F99E7EC
:107AA0000023CB80E4E7D6F8C40201330138C6F8DE
:107AB000C402D088634424F8063C68B1B2F802C01E
:107AC000A0EB0C0C1CFA83F39BB202EBC00024F871
:107AD000023C83800123CCE7002324F8023CF9E731
:107AE000284601A91DF04AFA0028D4D14246214671
:107AF00001982BF0E3F92046FFF700FECBE7C6F82C
:107B0000C032C8E76ED934F8020CA8EB050900F1C1
:107B1000FF3AAAEB030A002839D011F8303001EB04
:107B2000C002DB0734D4BAF1000F31D1C5F3CF0363
:107B3000611924F8063C0133084624F8023CFFF79B
:107B4000F5FE508800EBD90334F8020C4B80888096
:107B5000D088D0B1B2F802C0A0EB0C0C1CFA83F3B1
:107B60009BB202EBC000CB80838020480023FFF74C
:107B7000E1FE1046FFF7DAFED6F8BC3201941D4450
:107B8000A5EB0805C6F8BC5285E7C880EDE70246BC
:107B9000B9F1270FF0D9C5F3CF03611924F8063CDA
:107BA0000133084624F8023CFFF7C0FE34F8020C0B
:107BB00009F1FF33DB084B8088808AB10AF1010AA2
:107BC0001AFA83F39BB2CB809380D6F8C43207486D
:107BD0000133C6F8C43200231A46FFF7ABFECBE7E9
:107BE000CA80F2E7019456E79C4F002050520020D3
:107BF000BFF35F8F074B5A6A22F480325A62D3F880
:107C0000942022F00102C3F89420BFF34F8FBFF3FA
:107C10006F8F704700ED00E00122014B1A70704732
:107C20009C4F0020364B70B51D6F15F001013CD004
:107C3000012203F50053334C1A6794F8F03213B362
:107C40002BF0A2FCD4F8F432C01AC4F8F802D4F82D
:107C5000F8320BB1D4F8F812C4F8F8124FF41671D8
:107C6000D4F8F832284BD4F8F8221B684B43274944
:107C700003F5742303F23F23B3FBF1F3934220D2C5
:107C8000002384F8F03294F8FD3273B194F8FE3298
:107C90005BB12BF01DFC002384F8FE3284F8FF3228
:107CA000012384F8003384F8013315F000521CBF1F
:107CB000174B1A67002DBEBF4FF00042144B1A67D6
:107CC00070BD94F8FC321348D4F8F81250F8232011
:107CD000114E511A3268521AD4F8F812326040F834
:107CE00023100A210932B2FBF1F20C480133DBB256
:107CF0000260B3FBF1F201FB123384F8FC32BFE700
:107D00000040005A9C4F00202011002040420F00EC
:107D10000060005A2C11002028110020241100209E
:107D200038B50B4D134604460A460146284607F06F
:107D3000F3FA022808D048B994F83030EA181C3316
:107D400082F8640045F82300012038BD0020FCE7DC
:107D5000340D002038B50D461C466B780499013B64
:107D6000042B79D8DFE803F0032B783D6200AB7871
:107D7000092B01D9022038BDEB78002BFAD0374C03
:107D80000121374A04F5AE70FFF7CAFF04F5AE7063
:107D90001EF0FAFEAB7843B984F88130A87884F8F5
:107DA000DC00FFF71AF8FF20E5E7EB784FF47A7173
:107DB00004F5AE7084F8813007F0CBF8EEE7FEF7FB
:107DC00079FC0028D6D17323237003236370234BDF
:107DD00093F8DC2093F88130A270E37004230B70D9
:107DE000E1E71E4C94F85831022BC3D0AB885ABA45
:107DF000A4F85421002BBDD043880021A4F85631AB
:107E0000AB78184AA4F85031EB7804F5447084F844
:107E100052310223A4F80C1384F85831FFF780FF85
:107E2000282104F5447007F094F8BCE7FEF742FC03
:107E300000289FD1732306222370084B6270B3F889
:107E40005001A07093F85801B3F80C33E070180A91
:107E5000207163710A70A6E700208CE79C4F002018
:107E6000116F0008ED970008F8B505460E46064C60
:107E7000064FBC4200D3F8BD31462046A847002833
:107E8000F9D12834F5E700BF9063000810660008B8
:107E900030B50A4BABB00446A822002168461D68E5
:107EA0002AF0DEF8652300226946A8688DF80030C4
:107EB0008DF8044006F0EBFF2BB030BDDC0A00204B
:107EC00008B50420FFF7E4FF0022094B1A70094BA4
:107ED00093F850235AB983F8782083F8792083F8EF
:107EE000512305490548BDE808401DF04DB908BDBE
:107EF000D70E00209C4F0020909E0020099600087D
:107F000013460A460146024800681BF049BF00BFFD
:107F1000D80D002013460A460146024800681BF0AF
:107F2000FDBF00BFD80D002007B500210848FFF7AE
:107F30009BFF0422074B0DEB020100200193FFF78A
:107F4000E9FF002113201FF05AFC03B05DF804FB89
:107F50006967000800140800F0B40C460025FF27EC
:107F600001F12D0622460523012812D192F800C006
:107F7000BCF1000F0FD0013B13F0FF0302F103022D
:107F8000F2D10F34A642EDD145B1F0BC2D22012033
:107F9000C0E70028EFD101251770ECE7F0BC70476F
:107FA0002DE9F0474FF0000805468EB02D224146DE
:107FB00002A8CDF804802AF053F8022D4A4C11D0C3
:107FC000032D49D0012D09D1484B2946186801AA33
:107FD0001CF022FF10B9019A2D2A7FD0284602A951
:107FE000FFF7BAFF02A92D220120FFF789FF4FF00A
:107FF000060800214FF01E0E3D4E02AB3546002014
:108000000EFB01FCC1EB011700EB400213F80290DC
:108010003A44A5F8009008FB00C938326A4412F8C7
:108020002FACA14489F81AA012F82E2C0130C2F30B
:1080300040190528C2F3030285F804906A7105F11E
:108040000605E1D10131032906F11E0603F10F03F4
:10805000D4D10EB0BDE8F08741464FF006094FF08D
:108060001E0E04F1180602AF354600200EFB01FC7F
:10807000C1EB01182B8800EB4002BB54424402F1D3
:1080800038030DEB030A09FB00C323449B7E013038
:108090000AF82F3C02AB1A442B7995F805A05B0136
:1080A0000AF00F0A03F0200343EA0A0392F802A041
:1080B00005282AF02F0A43EA0A03937005F1060502
:1080C000D8D10131032906F11E0607F10F07CBD1E4
:1080D0002D2202A90120FFF71DFFBAE7284602A9B9
:1080E000FFF70EFF7AE700BF9C4F0020D80D00205D
:1080F000B44F00200120024B83F8BE0050E700BFC0
:10810000E09D002000204BE7012202490B200A706D
:1081100000E700BF0C07002073B51C464B780546EE
:10812000042B069E29D0052B14D0012B46D1FEF737
:10813000C1FA10B1022002B070BD02231F22A37049
:108140006370832322715B22E370052322703370F6
:10815000FF20F0E7FEF7AEFA01460028EAD1A72299
:10816000E01C29F07DFF5B23237006236370144B12
:108170001B78DB01A3700323E9E78B780122DB097D
:1081800001A90B208DF80430FFF7C4FE9DF80420F0
:108190000B4B0C491A700023C1F85233C1F8563307
:1081A000C1F85A332B6801F252310B606B680648F4
:1081B0004B60AB688B601CF0E7FFC9E70020BAE7B3
:1081C0000C0700209C4F00209996000837B500212D
:1081D000154D0123286801AA8DF800108DF80410B0
:1081E0001BF0DEFD044650B9012201A90B208DF8D9
:1081F0000420FFF78FFE214628681DF019FC01229C
:1082000069460B20FFF77CFE50B99DF80020074B14
:108210001A700121064A0748FFF782FD03B030BDFE
:10822000FFF772FFF5E700BFD40D00200C07002018
:10823000F57200081007002007B501224FF43670D0
:108240000DF10701FFF75CFE60B11BF0CCFC00F004
:108250003F008DF8070001224FF436700DF1070141
:10826000FFF758FE9DF8070003B05DF804FB0023FC
:1082700010B5044C84F85E33FFF7DEFF84F85F032B
:1082800010BD00BF9C4F00202DE9F0439846294BBC
:108290000446D3F800900D46D9F8183016461878E1
:1082A000BFB0002841D057683B7903B99370AA2D1D
:1082B0003ED8ACB1B378BA780BB9510610D0602172
:1082C00004F8041C0D2104F8023C02F08003C2F300
:1082D0000602134304F8031C04F8013C0435043C73
:1082E000F8220021684629F0BBFE01238DF80030FA
:1082F00033788DF809508DF808303B882A46ADF860
:10830000B430737821468DF8B8307B790DF10A00CE
:108310008DF8BA30CDF804802AF0D0FD4FF47A629F
:108320006946D9F8000006F0B2FD3FB0BDE8F08321
:108330000220FAE7DC0A00204107034607D482073F
:1083400007D410F0010005D1DB0998007047032025
:1083500070470220704738B50D465E2104461FF075
:10836000DBFA2A0603D5982120461FF0D5FA6B07C1
:1083700003D09F2120461FF0CFFA8CB185212046E3
:108380001FF0CAFA8E2120461FF0C6FA5921204656
:108390001FF0C2FA6C212046BDE838401FF0BCBA7D
:1083A0005521F8E7024B1B689B691879704700BF9D
:1083B000DC0A0020F8B5064607980D4617461C460D
:1083C00020B19DF820202AF0BCFDE8B9FFF7EAFFB4
:1083D000FFF7B2FF48B1B0420CD1BCB129462046EC
:1083E0009DF818202AF0ADFD70B9A5F12003584280
:1083F0005841F8BD042809D1722D07D1042F05D1A9
:10840000B6FA86F04009F4E70120F2E70020F0E731
:10841000002070472DE9FF41104B05465F6893F837
:1084200000800F4B0E461B6814469B69DB889BB18E
:10843000FFF7B8FFFFF780FF70B10A4B1A782946A3
:1084400002925B683246CDE9008320463B46FFF747
:10845000B1FF04B0BDE8F081034BEFE7DC0C002076
:10846000DC0A0020D40C0020CC0C002008B5024609
:10847000FEF788F902281DBFB2FA82F040094000D9
:10848000012018BF013008BD10B5104C94F86033BE
:10849000022B17D194F8611394F862034B1C84F8F3
:1084A0006133FFF7E3FF81420CD2002104F55970DC
:1084B000074AFFF735FC04F559700A21BDE8104062
:1084C00006F047BD002384F8603310BD9C4F0020A8
:1084D000C59A00082DE9F0430D4685B004461646BE
:1084E0000021102268461F4629F0BAFD012D61D8EF
:1084F000012C37D1002D5DD12846FFF7B7FFA042F0
:1085000058D3032F04D0042F47D1F378002B44D144
:108510005A221E2315FB02F213FB0423264A4FF0B6
:10852000FF0902EB03080422013CE4B23378D7B21E
:10853000852B03D118F8023C012B06D03A46294678
:10854000204628F8069CFEF75DF97A1E52B2531CAD
:10855000A8F10608EAD10320FFF722FD012005B0AB
:10856000BDE8F0832846FFF781FF002CC7D18E239A
:108570003A4668463146FEF733FA2046FFF776FF63
:1085800001240546AC42E6D822466B4600213078ED
:108590000134FEF77BF9E4B2F4E768463A46314627
:1085A0008E23FEF71DFA0346224629463078FEF751
:1085B0006DF9D0E70020D2E7B44F00202DE9F74F46
:1085C000804614469A46FFF751FF0F46897881424C
:1085D00000D809B90123BB70BE7841463046FEF78A
:1085E00043F93B785A212370BB780022A3701E23E5
:1085F00018FB01F113FB0613354DE0701D44AC462A
:1086000013462271D1B2884207D83A78852A17D00A
:108610008E2A18D00533DBB230E03CF81E1CFF294F
:10862000F3D01CF81AEC0132BEF1010F1FBF04EBAE
:10863000030E01338EF80510DBB20CF1060CE1E7F6
:1086400003226270E6E7032200271E214FF05A0C36
:1086500062704FF0060B3A46013E71430CFB08FC7A
:1086600003F106090191F9B281420CD3002AD1D05D
:1086700000211C4406331A446171D3B28AF80030D9
:1086800003B0BDE8F08F35F81E1CFF29EED015F8B9
:108690001AECBEF1010F18D104EB020808F809101A
:1086A00001990C4E0BFB071161443144897E02F1A4
:1086B000010E01F08008C1F30601023254FA8EFE69
:1086C00048EA0108D2B20EF8098001370635CAE738
:1086D000B44F00209C4F00200129F8B505461746ED
:1086E0001E4626D838B30846FFF7C0FEA84222D35C
:1086F0005A2211FB02F41E226B1E02FB03440F4B95
:10870000284623443B60FEF7AFF800230621307073
:10871000DAB2904207D901FB03F43D6801332C5BC8
:10872000FF2CF5D132703078B0FA80F0400940006B
:10873000F8BD0620FCE70720FAE700BFB44F002091
:108740002DE9F04FB2F800A00546BAF1E80F0F4648
:108750001646994687B018D8FEF714F8022818D1A3
:10876000012D12D10023284604938DF80F3004AA5E
:108770000DF10F03FFF7B0FF9DF80F304BB1012B48
:1087800003D1049B1B88012B03D0002007B0BDE858
:10879000F08F39462846FEF767F84FF000088DF84D
:1087A00014904FF05A09B3781E26ADF81280ADF838
:1087B00010A08DF812300446FFF7F4FDFFF7BCFD62
:1087C00017FB09F9013D06FB0596DFF8CCA08DF8F3
:1087D00015005644444540DC1E21062001FB05F3EC
:1087E000621ED2B200FB02335A2202FB0733294A2F
:1087F00013441B8BFF2BC8D15A23012C98BF002494
:108800004FF0060B01FB05F503FB07F7DFF884804B
:1088100088BF023CA944E6B20BFB06F606EB090052
:108820002E443E444644338B06F11802FF2B50443D
:1088300001920FD004A9FEF7BFFC002819DD631CCC
:10884000DBB20BFB0353B1693B444344019A99618A
:1088500092889A83013CDED50CE03388FF2BBBD095
:10886000304604A9FEF7A8FC063680B108F10108DD
:10887000B0E7EFD006230134E4B203FB0488049888
:10888000BDF81430C844C8F81800A8F81C300120FE
:108890007CE700BF9C4F0020B44F00202DE9F0473B
:1088A000054686B00E4617460021102202A89846BB
:1088B00029F0D6FB2846FFF7D9FD012D03D900206A
:1088C00006B0BDE8F087B478012C48D1002DF6D170
:1088D0008442F4D843463A46314602A8FEF780F86F
:1088E00029462046FDF7C0FF9DF80C909DF81480A6
:1088F00009EB08078742E2DC002FE0D000270124C3
:10890000BA46FBB299450ED9029B8DF806A0DB5DF5
:10891000ADF8043033B300232946B07801AAFFF73D
:108920000FFF00BB04460027FBB2984512D9049BF9
:1089300003EB4702527813F817308DF80620ADF894
:10894000043093B101232946B07801AAFFF7F8FE5D
:1089500060B904460320FFF723FB2046B0E7002C54
:10896000ADD0B5E71C460137CBE71C460137DBE746
:1089700070B51C464B780546013B049E0A2B4AD82D
:10898000DFE803F01506491E2949494949493B00DA
:108990002846FDF78FFE08B1022070BD287A3346C5
:1089A000224600F07F00FFF709FEFF20F5E7287A56
:1089B000852300F07F00FFF771FF0028F5D1EBE77A
:1089C000022AE9D913460A46287A00F07F019078F6
:1089D000FFF780FDF1E72846FDF76CFE0028DBD1AC
:1089E000852323700623287A637000F07F00FFF749
:1089F0003DFDA07003233370D7E72846FDF75AFEEC
:108A00000028C9D1852323700C236370034B93F88E
:108A1000BE30A370EEE70020BFE700BFE09D00205E
:108A200070B51D464B780446013B049E042B3DD88F
:108A3000DFE803F012033C1B2A002046FDF73AFE54
:108A400008B1022070BD207A33462A4600F07F002C
:108A5000FFF7B4FDFF20F5E7207A8E2300F07F00BA
:108A6000FFF71CFF0128ECD1F4E7022A04BF002322
:108A70008B7013460A46207A00F07F019078FFF74A
:108A800029FD0028E6D1DCE72046FDF713FE00288B
:108A9000D7D18E232B700623207A6B7000F07F00D5
:108AA000FFF7E4FC0323A8703370D3E70020C9E785
:108AB000094930B5D1E9E9345D1DB3FBF4F204FB9B
:108AC000123201EB8202D2F8AC03013308B9AB4297
:108AD000F3D1C1F8A43330BD9C4F0020084B0022D5
:108AE000D3F8A81310B5084603F56B738A4200D17A
:108AF00010BD53F8044B04B901380132F6E700BF4A
:108B00009C4F0020002373B5454C94F8C12384F892
:108B1000C0331AB184F8C13302B070BD94F8C223D7
:108B20008AB1D4F8C8339A1A5342534184F8C733F0
:108B3000B4F8CC33A4F8C43300B1807884F8C60309
:108B40003848FDF7CBFD94F8C263D4F8C8339E4291
:108B5000E2D2D4F8D03394F8D4535A789B788DF875
:108B6000002045F001028DF801208DF80230FFF75A
:108B70009FFF01902EB9AB0744BF45F005058DF866
:108B800001500388284DA4F8CC33A4F8C43394F8DA
:108B9000D53313F0070F31D094F8D63373B390F96F
:108BA0000230002B2ADB1CF0DDFCEB7904350433AA
:108BB000C4F8D853C4F8DC331C4B6A46D4E9F60138
:108BC000FFF762FB94F8D633054633B10021042346
:108BD0004FF47A72084620F079F8C5B1022384F880
:108BE000C633FFF77BFFB0FA80F0400984F8C70373
:108BF0000C4802B0BDE87040FDF770BD1CF0B2FC3F
:108C0000EB79C4F8DC330A4BC4F8D833D4E701233A
:108C100084F8C03394F8C233013384F8C2337BE75D
:108C20009C4F002060530020240E0020058B00087C
:108C30002C0E002038B51F4D0446B5F8CC33038008
:108C4000837843B1FFF74AFFB0FA80F04009E07043
:108C50002046FDF743FD95F8E0338BB9FFF73EFF63
:108C6000C5F8C803F8B11CF0F5FBB5F8CC33012802
:108C700023800CD0022815D12046BDE8384041E7BA
:108C80001CF036FBB5F8CC330128238008D1022331
:108C9000A370FFF723FFB0FA80F04009E07004E012
:108CA0000228DBD038BD0123E3702046BDE8384000
:108CB000FDF714BD9C4F002007B5084B8DF806004A
:108CC000B3F8CC3301A8ADF8043001238DF8073098
:108CD000FFF718FF03B05DF804FB00BF9C4F0020B6
:108CE0002DE9F0430025B7B09A4CC422002105A815
:108CF00029F0B6F9D4F8E40305A9CDE903550195A7
:108D0000ADF808502CF048FC012801AE40F01E815F
:108D1000059BBDF8C420C4F8EC3384F8E8039DF843
:108D2000CC30B2B39DF8D11009B18DF80D008DF89B
:108D30000E30003B18BF01239DF8CE10ADF8042083
:108D40009DF8CD208DF80C109DF8D01002F07F0218
:108D50008DF808309DF8CF3042EAC1128DF8062018
:108D60008DF809309DF8D4107B4B03AA06A8049611
:108D7000FFF78AFA002800F09280BDF8C4306846F8
:108D8000ADF800304FF48173ADF8023000F032F9E5
:108D900085E02521329A84F8F11384F8F233002B10
:108DA000EBD12AB11678002E7CD15378012B79D1E2
:108DB0006A4B002101201A1FFFF78EFC0028DCD12E
:108DC0000125674B9DF8D47083F8BE5094F8F833B2
:108DD0009DF8D19084F8F053002BCED0002FCCD04A
:108DE000604E3578002DC8D1DFF88C813A4606A94F
:108DF00040462AF063F8584BC4E9F687E3605A4BC3
:108E000084F8FC53C4F8D0331CF0ACFB94F85F3307
:108E1000013303F03F0384F85F338DF80030FFF730
:108E20000BFA9DF80030834205D0012269464FF4C9
:108E30003670FFF76FF84D4B4D4D1B68EF71C4F85E
:108E400000349B6984F8FC731B7984F8D69384F80A
:108E5000D5335B0702D0B9F1000F57D11CF082FB6C
:108E6000EB79C4E9F68305210023D4F8D023C4F8B4
:108E7000A81352683F4984F8C03384F8C133C4F85A
:108E800004341088FF284BD1C4F8A8330025A4F877
:108E9000CC531CF02DFA00284AD10123337037B08F
:108EA000BDE8F0830023D4F814C09CF804E0DDB2E0
:108EB0007545BFF462AFDCF800701901795C07EB0F
:108EC0000310B1420BD1577841788F4207D100216E
:108ED00090F802809DF81890CFB2B84501D80133C0
:108EE000E5E7476817F811700131B945F4D102354B
:108EF000EDB2FF2D3FF441AF184B002128461A1F59
:108F0000FFF7EAFB00283FF45CAF36E71CF02AFBD2
:108F1000EB7904350433C4F8D853C4F8DC33A2E742
:108F20000133052B41F8042B02F10602A9D1ADE76C
:108F300001283FF422AF1CF08DFA0028ADD00128A3
:108F40003FF41BAF2846FFF7DDFDA6E784F8E853A2
:108F5000A5E700BF9C4F0020199000089453002003
:108F6000E09D0020D60E00208C530020DC0A00205B
:108F7000240E0020485300202C0E00200022044B19
:108F800083F8E32193F8E83303B9A9E6704700BFFB
:108F90009C4F002038B5154B054693F8E231012B64
:108FA00001D9FFF7EBFF124C237D0133DBB2092B14
:108FB00023750ED8B4F89800013080B21BF0FEFE85
:108FC00010B984F8A90038BD2846BDE838401EF025
:108FD00088BA94F8AC300420FF2B04BF012384F836
:108FE000AC30BDE83840FEF779BA00BF9C4F002096
:108FF000E09D002010B5074CD4F8EC3303B198473E
:1090000094F8E33113B9BDE8104069E6002384F811
:10901000E83310BD9C4F0020C37803B1EAE77047E6
:10902000094B70B5596F0246002328250C8898B269
:10903000844201D8002006E005FB03F04E680133AE
:10904000305A9042F3D370BD9C4F00201FB5019160
:1090500003A904461CF0A0FA18B1039A019B9A4296
:1090600008D0042220460DEB0201FEF753FFB0FAB0
:1090700080F0400904B010BD70B5002428260C4DC6
:109080006A6FE0B21188884206D300220120094BA2
:109090001A70094B187009E05368013406FB00335D
:1090A000D9695868FFF7D2FF0028E9D170BD00BF29
:1090B0009C4F0020D10A0020D90A0020F7B50025D6
:1090C0002827134E134B7367736FAAB21988914206
:1090D00001D803B0F0BDACB27C435B6801A9234466
:1090E000586800931CF058FA736F5B68234430B9DA
:1090F000D969009B5868FFF7A9FF0135E4E75B6A6F
:10910000002BFAD0684698470028F6D00199F0E77E
:109110009C4F0020346403080B4BF0B45A6F28278F
:109120000023168899B28E4202D80020F0BC704706
:1091300007FB03F1556801336C18695A8142F1D17C
:10914000E1696068F0BC81E79C4F0020084BF0B5F6
:10915000596F0246002328250C88D8B2A04206D2B7
:1091600005FB00F64F680133BE5B9642F5D1F0BDBA
:109170009C4F002010B50C46FFF7E8FF0B4B5B6FD0
:109180001A8882420DD92146BDE810405B6800B2C2
:1091900000EB800003EBC003586841F8043B1CF06F
:1091A000FBB90023C4E9003310BD00BF9C4F002071
:1091B00007B5FFF7CBFF0B4B5B6F1A8882420DD9C7
:1091C0005B6800B200EB800003EBC003586801A9A4
:1091D0001CF0E2F9019803B05DF804FB0023019351
:1091E000F8E700BF9C4F00200D4B4FF0280C5A6F42
:1091F0000023F0B417889CB2A74202D80020F0BC2C
:1092000070470CFB03F5566801337419755B854292
:10921000F1D1606841F8044BF0BC1CF0BDB900BF4F
:109220009C4F002003289DBF034B03EB8003D3F822
:10923000B0000248704700BF8C630308DC5E03087F
:109240000B289DBF034B03EB8003D3F8C0000248FB
:10925000704700BF8C630308EC5E030810B51C4820
:1092600098B090F8782072B390F8793063B36424A2
:1092700090F8511312FB04F211BB5108FF2B08BFE9
:109280000023521A90F80844C4B1FF24ADF80440FA
:1092900064248DF8074002248DF8084004248DF8DA
:1092A0000C40002404918DF814400692179329B1C4
:1092B000012380F8503301A805F078FE18B010BDE6
:1092C00011FB04F1DAE713461A461946DAE700BF44
:1092D0009C4F00202DE9F8430D466E788046022E03
:1092E00017461C4608997CD0042E00F0B580012E4C
:1092F00040F0CE80674C0E2204F20A490021484615
:1093000028F0AEFED8F80030032FC4F80A34D8F89D
:109310000430C4F80E34D8F80830C4F8123408D138
:1093200028461BF0BDFF0646012E45D1FF20BDE8B3
:10933000F88341D903230421EA7802F01F0213FBCA
:109340000213BB4238D8002AEAD000239846994637
:10935000194618461F4695F804C0BCF1500F2DD190
:1093600095F805E095F806C0BEF1040F28D0BEF1CF
:10937000050F29D0BEF1030F12BF00266146012060
:109380000137BA4205F10305E5D8A8B1B9F1000FDC
:1093900012D099424FF0500584F8781084F8798003
:1093A00014D2002384F85133FFF758FF3A493B4861
:1093B00084F816541BF0E8FE0220B8E70026DFE729
:1093C000E0464FF00109DBE76346D9E784F8513303
:1093D000FFF744FF3049314884F816541BF0D4FE9F
:1093E000A2E7FDF767F902460028E5D1022F08D170
:1093F0008723032223706270FDF760FBA0700A7060
:1094000094E7D9D9AE7887230325502E2370657051
:1094100018D1FDF753FB1F4BA07093F87820E5702F
:10942000A2710422227293F8792093F85133627268
:10943000052223730D2326716571E671A672E2720F
:109440000B7073E7FDF73AFB0123A070E370227104
:1094500007236271A271F3E7FDF72CF90028ABD165
:10946000022FA9D98723AA7823700523502A637075
:1094700000D04AB95023A3700023E3700123237165
:10948000382363710623DBE7A070E0702071D7E713
:1094900000204CE79C4F0020A653002009960008AE
:1094A00010B5084B024693F88040D86F0023D9B21C
:1094B0008C4201D8002010BD017B01339142FAD0CB
:1094C0005C30F4E79C4F002007B58DF807000DF1E4
:1094D0000700FDF781FB40B19DF80700FFF7E0FFB3
:1094E000406B632828BF6320C0B203B05DF804FB63
:1094F00037B58DF807000DF10700FDF76DFBE8B1FA
:109500009DF80700FFF7CCFF806C28F09BFA0FA3B3
:10951000D3E9002304460D4628F07CFD68B1002203
:10952000094B2046294628F00FFC27F0F7FE7F283C
:1095300006D93C23B0FBF3F07F30C0B203B030BD9E
:10954000012838BF0120F8E7000059409A999999FD
:109550009999B93F07B58DF807000DF10700FDF7A0
:109560003BFB40B19DF80700FFF79AFF006B6328B3
:1095700028BF6320C0B203B05DF804FBF8B50F4606
:1095800016461D460446FFF7E5FF38702046FFF7F4
:109590009BFF30702046FFF7ABFF2870F8BDF0B599
:1095A0000D4606461C461746B3B0C022002102A84D
:1095B00028F056FD2A46314602A88DF8C45001977E
:1095C00029F07CFC23462DAC03F1100522461868D7
:1095D0005968083303C2AB421446F7D10023094C43
:1095E0001A46D4F8E40301A92AF0E8FF40B194F840
:1095F000E83323B994F8E3310BB9FFF771FB01208D
:1096000033B0F0BD9C4F002030B50D46ADB0AA225E
:109610000446002101A828F023FD40F287332A7B6D
:10962000ADF80430502A2AD1FDF748FA03238DF80B
:1096300007304FF454738DF80B200422ADF8083036
:10964000134B8DF806008DF80C2093F8792093F8D1
:1096500078108DF80D204FF4AA628DF80A100D21B4
:1096600093F85133ADF80E208DF810300123094ADC
:10967000637301A82346FFF792FF2DB030BDFDF7BD
:109680001DFA012307218DF806008DF80730EDE75C
:109690009C4F00203D6F000810B5ACB00446A722D7
:1096A00000210DF1070028F0DBFC40F25B63ADF810
:1096B0000430074B03211B78064ADB018DF8063086
:1096C000012301A863732346FFF769FF2CB010BD87
:1096D0000C0700203D6F000830B504460D46ADB0C4
:1096E00039B3A82200210DF1060028F0B9FC262389
:1096F0008DF8043003232D7B8DF805302846FFF7C5
:1097000029FF8DF806002846FFF7DEFE8DF80700DA
:109710002846FFF7EDFE01238DF808006373002251
:1097200023460521257201A8FFF739FF0020FDF728
:1097300005FC2DB030BD70B583782A4CB0B023B98C
:10974000B4F80C330133A4F80C3327481DF01CFA8D
:10975000B4F854315BB1013B9BB2A4F8543133B13E
:109760002821214830B0BDE8704005F0F2BBB4F8C4
:109770000C530E22003D18BF012500210DF10600FB
:10978000B4F80C6384F8585128F06AFCB4F85631E8
:1097900076BAADF8043025238DF80E30FEF702FEC0
:1097A000FEF7CAFDA4228DF80F0000210DF11A006A
:1097B00028F056FC40F27363ADF81430B4F8503121
:1097C00000228DF81630012306218DF8113005A8EE
:1097D00001AB8DF81750ADF81860FFF7E0FE30B020
:1097E00070BD00BF9C4F0020AC52002010B5124B42
:1097F000C0B01B68F822002102A81C6828F030FCC9
:109800000B238DF808300D4B204603930C4B02A917
:10981000B3F8502193F85231ADF8102000228DF8A2
:10982000123005F034FB012804D1064B01A8019346
:10983000FFF781FF40B010BDDC0A00203797000819
:109840009C4F00200000020273B500250C4C2946F5
:1098500004F583664FF47572304684F8E85384F853
:10986000E35128F0FDFB3246C421009504F2EC736D
:1098700005202BF028FDC4F8E40302B070BD00BF42
:109880009C4F002030B5A5B08822002102A828F006
:10989000E7FBFF238DF80830284B1C68E06802A91D
:1098A0002BF07AFE012801D025B030BD9DF808309C
:1098B000C32B19D0C42B3ED0C02BEFD19DF8103054
:1098C000002BEBD0039B002BE8D00022ADF8042046
:1098D0009DF8112001A88DF8062002228DF807209E
:1098E0009847FCF747FFD9E79DF80C30ABB9A3695F
:1098F0001A781AB11879FEF71FFD50B1FEF714FB64
:10990000A3691D782DB9FFF79FFF0D4B1D701DF04A
:10991000DAFF32201DF0F2FFE3E7052B03D13920F7
:109920001DF0ECFFBAE7072B01D13220F8E7082B36
:10993000B4D13020F4E73820F2E700BFDC0A002081
:10994000DC0D002043880B800379C3F306034B72C0
:10995000037913F07F0318BF01230B734378CB7295
:10996000037813F0020F0CBF252327238B72037A91
:10997000C3F306030B7200234B73704770B50C469C
:1099800091F8BD60B8B0324649792079FEF742FDC2
:10999000002840D0002594F8B02094F8AE308DF81F
:1099A0000C20B4F8B8208DF82030ADF80E20B4F8B3
:1099B000BA200DAB29461846CDE904558DF80D6047
:1099C000ADF8122003AEAA2204340696079428F0BC
:1099D00047FB01A9CDE9010506A8FCF752FE0428C2
:1099E00014D09DF808408CB102280FD00E222946D1
:1099F0000DF1260028F034FB09A93046FFF7A2FF3D
:109A00002A460B4601982146FFF7C9FD38B0BDE84C
:109A10007040FCF7AFBE38B070BD00B5B1B0A62243
:109A2000002106A828F01CFB0E2200210DF10600E3
:109A300028F016FB214A01A902F63C00FFF782FF3D
:109A400040F25943ADF8143092F8603392F8610354
:109A5000991E4B424B41DB0192F8441843F001033D
:109A600001288DF8163001F07F0106D9536903EB08
:109A7000C1031B790133984202DD012382F861336F
:109A800092F86133012B8DF817300CD0526903F135
:109A9000805352F83120023B180102EB0313125C91
:109AA0005B788DF819208DF81A300A21044A01AB31
:109AB00005A8FFF774FD31B05DF804FB9C4F002052
:109AC00089840008A9E72DE9FF410A9E044617464C
:109AD0001D46FCF7EFFD00285ED14B78032B35D0F7
:109AE000052B5DD0012B58D1032F55D159232B7055
:109AF00002236B708B78012BAB700AD94D49227A07
:109B0000486902F07F0200EBC201097901318B4202
:109B100015DD0123484CAB70204629F020FA214680
:109B20000246281D29F0CAF9204629F018FAE870E3
:109B3000204629F014FA04303070FF202DE050F850
:109B4000322002EB031353F8184CE5E7394D95F832
:109B500060330BBB8B78227A13F0400F4FF0010378
:109B600012BF022185F86033CB78C2F3060285F874
:109B70006133236885F86223C5F83C3863682F4A4F
:109B800018BF85F860135360A3689360FFF745FF23
:109B90000028D2D185F86003022004B0BDE8F0812E
:109BA000CF78237A012F03F07F0305F1040819D938
:109BB000204A516901EBC30212790132974211DC4C
:109BC000CDF80480002BE7D10B6807F18052023AF0
:109BD00003EB02139C78404664002246596829F042
:109BE0006DF919E0CDF80480002BD5D1FEF7DAFB32
:109BF0000446FEF7A1FBD8B9114B124A002C08BF4E
:109C0000134601270293104801AB02A90393FEF704
:109C10002BF9019CA4EB0804002CBDD059232B7018
:109C20000623E4B2EC7004346B70AF70347084E7D8
:109C3000064BE6E79C4F0020FC5E0308D857002047
:109C4000D40C0020CC0C0020B1670008DC0C0020F4
:109C50002DE9F04F4B7805460E2B0C46D5B013D8A6
:109C6000ABB1013B0D2B12D8DFE813F0310311002B
:109C70001100B7007B00110076025B021100280181
:109C80001100130011009501FD2B00F0238300202B
:109C9000D7E2884B10221B68B1F802809B69002133
:109CA00009A89F8928F0DCF92846FCF703FD064641
:109CB00008B10220C5E298FA98F005A980B2FFF732
:109CC00093FA4FF457630246ADF8A430A3782846C0
:109CD0008DF8A630E37809A92A968DF8AC608DF846
:109CE000A730FFF72FFE002A00F05281059BDB68AA
:109CF000D3B91C467D1FADB2B4FBF5F305FB13428F
:109D0000002A08BF013B002603F0FF03A6428DF89E
:109D1000A8300BD3FF2094E20134B4F5807FE9D062
:109D20001A5D002AF8D1E5E73446F9E7A71BAF42F0
:109D300028BF2F46059B3A46D9680DF1A90031444A
:109D400029F0BCF8791D002209ABC9B229A8FFF798
:109D500026FC0028ADD09DF8A8303E44013BDBB284
:109D6000D4E710228C7809A8002128F079F9B222D2
:109D7000002127A828F074F92846FCF79BFC00284E
:109D800097D1204605A9FFF72FFA20B9FCF771FEFD
:109D900005A9FFF729FA05994FF4CE63A1B9ADF8EB
:109DA000A4308DF8A64006AA2AA81DF0DFFB09A959
:109DB0002846FFF7C7FD00220B46082129A8FFF718
:109DC000EEFB0028A6D174E70A88ADF8A4308DF820
:109DD000A6200B7E8DF8A730E5E7CB7803F00702CD
:109DE000022A1ED8002A3FF464AFDB095AD109A920
:109DF0000993E01C1144013310F8015FDBB29A4271
:109E000001F8015DF7D800234FF028092A4E94F895
:109E100002E0716FB1F800C09FB2BC4504D80220C7
:109E200032E0042AE1D044E709FB03F84D6805EB72
:109E3000080090F820A01AF0020F31D135F8085030
:109E400075452DD1037E93427FF433AF28A9406836
:109E50001BF0A2FBD6F874900546D9F8040009A9B6
:109E6000404427901DF070FC00283FF422AF099970
:109E70002891D9F8043043445868FFF7E7F80028E0
:109E80003FF417AF681CC0B2736F1B88BB423FF42E
:109E900010AF01283FF40DAFA0780DF0C5F839E7F9
:109EA0000133B9E7A078FFF737F900283FF401AF95
:109EB000F2E700BFDC0A00209C4F0020A24B1022DA
:109EC0001B68B1F802809B69002109A89F8928F0CE
:109ED000C7F82846FCF7EEFB064600287FF4E9AEFB
:109EE00098FA98F005A980B2FFF77EF94FF437632E
:109EF0000246ADF8A430A37828468DF8A630E37862
:109F000009A92A968DF8AC608DF8A730FFF71AFDE5
:109F1000002A3DD0059B9B68002B37D11C467D1F36
:109F2000ADB2B4FBF5F35A1E05FB1343003B18BF5B
:109F30000123002613FA82F38DF8A830A642BFF45D
:109F4000E9AEA71BAF4228BF2F46059B3A4699684A
:109F50000DF1A900314428F0B1FF791D002209ABB1
:109F6000C9B229A8FFF71BFB00283FF4A2AE9DF859
:109F7000A8303E44013B8DF8A830DFE70134B4F54A
:109F8000807FCCD01A5D002AF8D1C8E73446F9E7C3
:109F9000092109AB12E7CB78B1F802A091F8029041
:109FA0001022002109A8019328F05AF800234FF04D
:109FB000280CDFF8A0B19AFA9AF6DBF87470B6B202
:109FC0003888DAB282423DD34FF000082846FCF7C9
:109FD00071FB00287FF46DAEBAF1000F3CD1FCF7A5
:109FE00048FD5A4AABF84A0809A92846CDF818A0F6
:109FF0000592FFF7A7FCB8F1000F38D1FCF739FD47
:10A000000023FF241A464FF0280EB7F800C0DDB237
:10A0100065457BD34FF47763002A18BF10460022B2
:10A02000ADF8A430019B8DF8A6908DF8A730030AF7
:10A030008DF8A9308DF8A8208DF8AA008DF8AB20F6
:10A0400009ABBAE60CFB02F2796801338A5A9642F0
:10A05000B7D14FF00108B9E7B8F1000F51D005A909
:10A060003046FFF7C1F8284609A9FFF76BFC00212D
:10A0700010222AA827F0F4FF4FF47763ADF8A4303C
:10A08000A378059D8DF8A630E3780DF1A9008DF831
:10A09000A7302B7E6A7E43EAC202013BDBB2032B70
:10A0A0008CBF00262A498DF8A82098BF5B1805F1BF
:10A0B0001002294698BF93F8F0601DF057FA2B7EE6
:10A0C0000DF1A902D4182046294605F114021DF00D
:10A0D0004DFA2B7E29461C4405F11C0220461DF03A
:10A0E00045FA6B88297E1B0A63546B88621853708B
:10A0F00095F820303146C3F380039370002209ABFA
:10A100005CE6284609A9FFF71DFC77E7796801336B
:10A110000EFB051149888D1BA542DCBF0A46ACB277
:10A1200075E749882479FCF7C5FA034600287FF4CF
:10A13000C0AD284649BA14FA81F292B289B255B03C
:10A14000BDE8F04F1DF023BADC0A0020E4570020E0
:10A150008C6303089C4F00204B880F795BBA9BB23D
:10A160000293002F3FF4A5AD91F805B00BF007085E
:10A17000B8F1020F4FEADB193AD8B8F1000F3AD024
:10A180000298FEF74DFF064600283FF492AD029B71
:10A190001F44BFB287427FF68CAD00283FF489ADE3
:10A1A00027A9FFF721F800283FF483AD279B93F8F8
:10A1B0002020910723D4B9F1000F34D130468742D3
:10A1C00001D9002840D1B8F1010F04D0B8F1020F35
:10A1D00018BF4FF004080023B14601930DF1240A83
:10A1E0004F4502D9B9F1000F3BD1019BFBB960E5A6
:10A1F000B8F1040FC4D0B9F1000FC1D159E55888A6
:10A20000C8E7304627A9FEF7EFFF80B1279B93F8F8
:10A2100020309A0705D43046FEF77EFF30460CF01A
:10A2200003FF279B5E88B74201D9002EE9D11BF0BE
:10A23000400F3FF46FAD01233A46284602991DF0C6
:10A24000A6F955B0BDE8F08F27A9FEF7CDFF00288D
:10A250003FF42FAD279B1A7E42457FF42AAD5888E4
:10A26000ADE727A94846FEF7BFFF279A92F82010CE
:10A270008B07C1F3400026D4A9EB060111FB08F1BE
:10A280000631CAF8000054FA81F10AEB080011F80F
:10A2900001CB00F801CD8245F9D110465146039219
:10A2A0001DF052FA039A70B1DAF800105068FEF708
:10A2B000CDFE40B148460CF0B7FE019B03F1010909
:10A2C0001FFA89F30193279BB3F8029088E7FEF702
:10A2D000D3FE76E50E2200210DF1160027F0C0FE18
:10A2E00005A92846FFF72EFB4FF67053A278ADF86C
:10A2F000A430E378FD2A8DF8A6208DF8A73009A9AF
:10A3000049D1072B32D10A46244B254813F8014B7B
:10A31000834202F8014BF9D110252423B5FBF3F455
:10A3200003FB1453DBB2002B18BF01340E46E4B21A
:10A33000002C3FF4ACAC242D2F4628BF24273146F7
:10A340003A460DF1A90028F0B9FD013C791DED1B3D
:10A35000E4B2002205ABC9B229A8EDB23E448DF8A3
:10A36000A840FFF71CF90028E2D1A2E4082B12D183
:10A370000C4B0D4AD8B213F8014B93420C54F9D14F
:10A380000A4B0B489A1F13F8014BD2B283428C54EC
:10A39000F8D16125C1E70025BFE700BFE0E307086A
:10A3A000F0E3070800E407085AE4070860E4070838
:10A3B00067E407082DE9F04FB3B080460C46174616
:10A3C0001D46DDF8F090FCF775F9002840F0188282
:10A3D0004E78731E092B00F22E82DFE813F00A007C
:10A3E0002C02F5002C022C022F002C02DC012C0286
:10A3F00021027A232B70022363226B700023EA7000
:10A400001846AB70FCF7A4FF020A2A71FF222A72D9
:10A410004FF6FC72AB71EB716B72AD4B68711B68E0
:10A420009B699B89063B1A40C3F30723AB72012348
:10A430002B730D23EA7289F8003013E0A54D3A46DC
:10A4400041F60F5004F0FAFC2B7C94F802A0022B8A
:10A4500094F80390A04E09D096F8E231012B01D96F
:10A46000FEF78CFDFF2033B0BDE8F08F48B196F8C1
:10A47000E231012B01D9FEF781FD002385F8AC30D4
:10A48000F0E74FEA0A2303F4FE439944B5F8983005
:10A4900028750133994503D0012385F8AC30DBE7FB
:10A4A00096F87038063FFFB2BB424FFA8AFA02D0E4
:10A4B000BAF1000FF0DA95F8A91089B9A82205A819
:10A4C00027F0CEFD45238DF81430814B4FF4FA72FE
:10A4D0001B6805A9986804F0DAFC012385F8A93007
:10A4E0007E481CF0FEFF96F8E2317D48012B04F116
:10A4F000040496F8703826D995F8ADC03A4621463E
:10A500000CFB030028F0DAFC95F8AD80B5F89A0052
:10A5100008F101083A4621465FFA88F885F8AD80CF
:10A52000A5F8989004F08AFCBAF1000FA5F89A00FB
:10A5300034DA6B8A834213D00023092085F8AC30CB
:10A54000FCF7CCFF88E709F1FF3803FB08F8214648
:10A550003A4628F0B3FC394640461BF08FF9D3E762
:10A5600096F8E231012B0ED9FEF708FD95F8AD30D3
:10A5700096F870085A1E02FB0071A9EB03035843BA
:10A5800089B21BF07BF96421564804F0E2FC0128F3
:10A590007FF468AF0820FCF7A1FF63E796F8E2318B
:10A5A000984501D20520F6E7012B0BD996F87008E3
:10A5B000A9EB080908FB00F100FB09F01BF05EF9AC
:10A5C000FEF7DCFC0720E6E71022002101A827F0B7
:10A5D00047FD0A2F237A1AD8002B57D14FF6FC7566
:10A5E0003B4B1B689B699B89063B1D406288A38887
:10A5F000B2F5C64F374F06D10020FCF7A9FE5BBA73
:10A600009BB2834257D0002687F8AB6002E0B4F8D3
:10A61000095023B30120FCF761FFB222002105A8F5
:10A6200027F01EFD40F27A4301A94046ADF81C30E8
:10A630008DF81E60FFF786F901232B4A8DF8113043
:10A6400007A80B460321FEF7AAFF00287FF40AAFF4
:10A650004FF4003368460093FCF788FF02E70B2FA6
:10A660001C4A18D0E17A92F8AA30C9074CBF43F0CF
:10A67000010303F0FE030C2F82F8AA300BD0237BDA
:10A68000012B08D0042682F8AB60C3E70322114BEC
:10A6900083F8AB20BEE70E4B6DBA1B68ADB29B6969
:10A6A00099894FF6FC7306390B409D4201D8002D65
:10A6B0009CD10226E7E797F8A830002BE6D0E68881
:10A6C000BB6876BAB1B28BB1984778B901269BE7DF
:10A6D000DC0A0020E09D00209C4F0020F89D002017
:10A6E00080510020389E00206D7500080021032352
:10A6F0000846524A1EF0EAFA514A0023C7F8982049
:10A700004FF0010CFF224F4C87F8AC203B743B7597
:10A71000C4F87C387B82C4F87438C4F878C8D8F898
:10A720000000D8F80410484A089303C2D8F808007B
:10A73000EDB2106097F8AA3010228DF81430B8F8F6
:10A7400002300620ADF8183098F8043005A9C3F39C
:10A7500006038DF81A3098F80030ADF816608DF8C1
:10A760001B3098F801308DF815C00793FDF7D2FB28
:10A77000642DD8BFC8237E82D8BFB3FBF5F34FF05A
:10A78000FF064FF0000084F87058D8BF84F8E2311B
:10A7900087F8AB603FE7DFF8B88091F808A0B1F820
:10A7A00002B08F88CE88B8F8121061B9102205A8BF
:10A7B00027F056FC1022062005A9FDF7A1FBBDF8E5
:10A7C0001630A8F81230BBF5C64F1BD15046FCF727
:10A7D000BFFD7FBABFB2874214D1B8F8123076BA43
:10A7E000B6B29E420ED1637A012B0BD16421174879
:10A7F00004F0AFFB01280CBF0B200A20FCF76EFE13
:10A80000022030E623682B6063686B60237A2B722A
:10A8100009236B7000236B72637AAB720B230AE619
:10A820007A232B700B236B700323AB700023EB7028
:10A830002B710523FFE5002015E600BF009F2400D3
:10A8400000000F1D9C4F00207C9E0020389E0020A1
:10A85000E09D0020F0B5B3B005460F461646002136
:10A86000B22205A81C4627F0FBFB40F27A7301A92F
:10A870002846ADF81C308DF81E708DF820602246F9
:10A88000FFF760F80B4607A80521FEF788FE40B9E0
:10A89000054BD3F8F40000906846A047012033B080
:10A8A000F0BD0020FBE700BF8C6303080023F0B578
:10A8B000BFB0734CCDE903330593724B724DA36067
:10A8C000724BE360012384F8A83085F8E23194F8F4
:10A8D000AA3063F07F0384F8AA300EF02BF9002829
:10A8E00040F0BB8005F508601AF024FB002840F01A
:10A8F000B88003A819F0FEF99DF80C300025012B53
:10A9000018BF0023624E18BF84F8A830059B0621AB
:10A9100013F00103306801AA08BF84F8A83001953C
:10A920001AF07AFA70B110242946224611A827F0AD
:10A9300097FB01232246062011A98DF8453001948A
:10A94000FDF7E8FA0021534A5348FDF7E9F90021E1
:10A95000524A5348FDF7E4F9524B1B78072B7AD142
:10A96000514B1D886FF40073EB18092B73D800212D
:10A970004E48FDF779FA1022002109A827F070FB54
:10A980000023062102AA306802931AF045FA062035
:10A99000029A09A9FDF7B4FA029B0C2B13D10120EE
:10A9A0009DF829209DF828109DF82A308DF8250063
:10A9B000ADF828108DF82A200620102209A98DF85C
:10A9C0002B30FDF7A7FA9DF82B3000248DF81830B6
:10A9D0000B9B9DF82A208DF81930BDF82830CDE961
:10A9E0000744ADF81A304FF0000362F306038DF808
:10A9F0001C309DF8243040F20121812B35D18D424D
:10AA000014BF0126FF260E2221460DF13600BDF8A7
:10AA1000267027F025FB2046FCF79AFCB22205465B
:10AA2000214611A827F01CFB214B0DA913930123EC
:10AA300006A87FBA6DBA8DF85630ADF85050ADF813
:10AA400052708DF855602246FEF77CFF0B4613A826
:10AA50000B21FEF7A4FD3FB0F0BD05F508601AF02C
:10AA600069FA002384F8A83043E7234622468D4242
:10AA700014BF0521FF2106A8FFF7ECFEEBE700BF9E
:10AA8000E09D0020AD6A00089C4F0020F996010867
:10AA9000D80D0020958F0008F89D002059750008FA
:10AAA000389E00208813002084130020B16A00081B
:10AAB0007A09006308B5FCF7BDFA0C4890F8AC10B1
:10AAC000FF290ED0FC298CBF00220122084B520026
:10AAD0009C30FFF7BFFE40B1BDE808400020FCF706
:10AAE000F2BABDE80840FCF766B908BDE09D002059
:10AAF000C77000080122014B5A74DBE7E09D00207B
:10AB000070B50026334CC8223146334890B084F8E3
:10AB1000AD6027F0A5FA314B5D6815F0010502D054
:10AB2000304619F0CDF84FF000639B6A03F178438B
:10AB3000B3F5C04F04D21AF0B3F90646002838D056
:10AB400003A80EF037F89DF81430012B17D1069B9F
:10AB50003BB101A81AF0EEF918B9DDE901010EF0D8
:10AB600049F80EF073FE284619F0AAF80123637421
:10AB7000042384F8AC3010B0BDE870409AE74FF081
:10AB80000066B36A03F17842B2F5C04FE9D21B6B9D
:10AB900003F17843B3F5C04FE3D211480DF010FF35
:10ABA000B36A00201B6B5B6998470D480CF0DEFA16
:10ABB000D7E7284619F084F894F8AA30812B14BFFF
:10ABC000FF23FD2384F8AC30FFF774FF667410B0E8
:10ABD00070BD00BFE09D0020805100200040005B60
:10ABE0003C0C00207FB5002300260446456B83649F
:10ABF000C36B0563836380F82460FCF7C7FCAD1B5F
:10AC000094F8261018BF0125B1FA81F16D42304643
:10AC100084F82C5049090BF091FC94F82630162B3F
:10AC20001FBF104A137843F001031370A37A03F097
:10AC30008103812B0FD1237813F00C020BD16946CD
:10AC40002046FEF77FFEA17A13466846FF22C1F335
:10AC500045011CF023FC204604B0BDE87040FCF721
:10AC600057BA00BF040700202DE9F0432DED028BF9
:10AC700085B08DF807000DF107000E4617461D46FA
:10AC80009DF838809DF83C90FBF7A6FF002800F067
:10AC90000E819DF80700FEF703FC0022B9F11B0F9F
:10ACA000044680F8242010D0B9F11C0F10D14FF0C9
:10ACB0001809B54BD3F88808CDE90200C3F8880815
:10ACC000B14BD3F88838A36211E04FF01709F0E7D1
:10ACD000A9F11703DBB2012BF2D98260017B02607C
:10ACE0004260027A052B61F306020272E8D984F809
:10ACF00026906EB994F82C3083B16663CFBBD4ED47
:10AD0000147ADFEDA26AC4ED0F6AC4ED117A05E092
:10AD1000FF2E11D194F82C30FF2B0FD1FF2D54D1E1
:10AD20009B4B1020A364FEF743FA01282ED19FED20
:10AD3000978A84ED128A35E0632E0BD9207BFBF7CE
:10AD400037FF914B03EB001393F8A061731E612B47
:10AD500088BF6326666367B906EE906AD4ED147AFD
:10AD6000B8EE666A94ED167AF0EE676A46EE076A08
:10AD7000C9E707EE906A9FED877AF8EE677A0023BD
:10AD800067EE877A6364C4ED0F7AC7E794F82630DC
:10AD9000182B15D8162B15D8022B13D0032B11D036
:10ADA00094ED128A18EE100A26F04CFE74A3D3E933
:10ADB000002327F02FF900287ED14FF0010816E07C
:10ADC000192BECE79FED748AB3E72B0642BF3C23B7
:10ADD0007F3D5D4307EE905AB8EEE78ADFED6F7A6C
:10ADE00028EE278AB8F1010F84ED128ADAD01020FC
:10ADF000FEF7DEF9012807D1636B1BB163236363A0
:10AE0000674BE3630023A364D4ED108AD4ED0E7A7C
:10AE1000F4EE687A0123F1EE10FA84F825302CD094
:10AE20009845C4ED0E8A28D118EE100A26F00AFEC5
:10AE300053A3D3E9002327F0EDF8F0B1012F60D13F
:10AE40009FED547AC8EE877AFCEEE77ACDED007A72
:10AE50009DF80000636BDFED536A98428BBFC01A08
:10AE60001B1A07EE900A07EE903AF8EE677A67EE43
:10AE7000887A87EEA67A84ED127AD4ED126AF7EE1C
:10AE8000007AF4EEE76AF1EE10FA08D494ED0E7A47
:10AE9000D4ED0F7AB4EE677AF1EE10FA3AD1A37AD4
:10AEA00020466FF30003A372FFF79CFE012005B05C
:10AEB000BDEC028BBDE8F083012F01BFD4ED0E6A1B
:10AEC0009FED347AC6EE877AFCEEE77A0ABFCDEDC5
:10AED000007A94F830209DF80020636BDFED316A32
:10AEE0009A428BBFD21A9B1A07EE902A07EE903A2D
:10AEF000F8EE677A67EE887A87EEA67A84ED127AA2
:10AF00005BE794ED141AD4ED160AB0EE680AFBF76D
:10AF100027FE9FE7B5EE407AF1EE10FAF5EE407AA3
:10AF200008BF94ED117AF1EE10FA08BFD4ED117A52
:10AF3000B4EEE77AF1EE10FACCBF77EE677A77EEEF
:10AF4000C77A87EEA68A18EE100A26F07BFD0CA3BE
:10AF5000D3E9002327F040F8DFED137A002808FE3C
:10AF6000278A84ED138A114803F0A9FF18B90A2132
:10AF70000E4803F0EEFF0123022084F8243096E708
:10AF80009A9999999999B93F9C4F00200000000027
:10AF9000000048420080F743000091430000C8428F
:10AFA000006D3F470000C642CDCCCC3D2858002064
:10AFB0002DE9F04385B08DF80F000DF10F000C4620
:10AFC0001646FBF709FE002855D09DF80F7038464D
:10AFD000FBF7EEFD5C222E4B10FB02F2DD6F010150
:10AFE000154403EB001292F8A8C192F8A921A242DD
:10AFF00044D9621E612A88BF0124644508D00B44ED
:10B0000083F8A841234B01B203EB01111CF064FA51
:10B01000631E07EE903A9FED207AF8EEE77A67EE2E
:10B02000877AC5ED147A17EE900A26F00BFD0246DA
:10B030000B4613A1D1E9000126F0A4FB8046686D00
:10B04000894626F0FFFC02460B464046494626F05C
:10B0500099FB0DA3D3E9002326F076FE26F07EF9B6
:10B06000A86546B114230022CDE900230123384608
:10B070001946FFF7F9FD05B0BDE8F0830124BCE7F0
:10B0800000000000A0EDE7400000000000C05840B4
:10B090009C4F0020385100200080F7432DE9F043F9
:10B0A0002DED028B85B08DF80F000DF10F000C46D1
:10B0B0001646FBF791FD002855D09DF80F703846D5
:10B0C000FBF776FD5C22304B10FB02F2DD6F0101D5
:10B0D000154403EB001292F8A9C192F8A821A242EC
:10B0E00046D2632C28BF6324644508D00B4483F800
:10B0F000A941264B01B203EB01111CF0EDF9C4F19B
:10B10000630308EE103ADFED227AB8EEC88A28EE23
:10B11000278A286D85ED158A26F094FC02460B4699
:10B1200015A1D1E9000126F02DFB804618EE100A8A
:10B13000894626F087FC02460B464046494626F0E3
:10B1400021FB0FA3D3E9002326F0FEFD26F006F92C
:10B15000A86546B1152300226321CDE900233846B6
:10B160000123FFF781FD05B0BDEC028BBDE8F08344
:10B170006324B9E7AFF3008000000000A0EDE740D2
:10B180000000000000C058409C4F002038510020B3
:10B190000080F7431F4BF7B5186818F013FF1E4BDC
:10B1A0000026186818F00EFFFCF7BEFEFDF764FFDE
:10B1B0001A4D05F5CE7795F88030F4B2A34201D848
:10B1C00003B0F0BD07EB041310221846002126F04F
:10B1D00047FF014620461CF07FF95C2300225C43B8
:10B1E000EB6F11462344187BFFF7E2FE0022EB6F62
:10B1F00011462344187BFFF751FFEB6F1E222344B7
:10B20000187B0023CDE9003219461A46FFF72CFDC2
:10B210000136D0E7D40D0020D80D00209C4F00202F
:10B220001FB50020042203A90390FCF769FE044621
:10B23000002839D11E4B1B689B691A7892B90123EB
:10B240000221CDE90031FF231146FFF70DFD042057
:10B25000FDF7AEFF0121174A174B08BB107019709C
:10B2600004B010BD8DF80B000DF10B00FBF7B4FC22
:10B2700068B19DF80B00FBF79BFC104B03EB001330
:10B2800093F89C41003C18BF01246442E4B20123BE
:10B290000222CDE900320022FF2321461046D4E7E6
:10B2A000117000221A70DBE7FFF774FFD8E700BFC8
:10B2B000DC0A0020D10A0020D90A00209C4F00207F
:10B2C00007B58DF807000DF10700FBF785FC78B195
:10B2D0009DF80700FEF7E4F890F8242042B1002220
:10B2E00080F82420026B4263826BC263FFF77AFC12
:10B2F00003B05DF804FB3A232DE9F04FA14D87B070
:10B300008DF81330A04B0DF1130118682AF044F9A1
:10B31000012802D007B0BDE8F08F9DF81330A3F1EB
:10B320003002082A5CD8DFE802F0400E1F1C055BE3
:10B330005B5B3100954B1B781BB133201CF0DEFAB0
:10B34000E0E73120FAE7924B1B689B691B7833B129
:10B350000320FCF79DFD01228C4B1A70D2E70120DF
:10B36000F7E70020FCF794FDFCF7AAFD2B78012BF2
:10B3700009D1874B1B689B691B7823B1854A1378D9
:10B3800043F00103137000232B70BBE7FFF702FFAC
:10B39000814B1A7832B100221A70804B804A5A626F
:10B3A00018F02CFCFFF73CFFACE701227A4B1A7037
:10B3B0004FF080730593764B1B689B69DB881BB944
:10B3C00005A8FBF7F3FC9DE7764B5A210293002377
:10B3D0001846CDE900331AF09FF9002892D0EFE724
:10B3E000702B57D08ED9812B8CD140F6E4426E4B16
:10B3F0001B6853436D4A1278012A59D06C486D4C32
:10B400004178A342827801707ED36B4CA34234BF53
:10B4100001230223427001EB810102EB820201EB66
:10B420008101520002EB81028370134400226349C0
:10B43000DBB201F1F80010F812409C4266D101EB3A
:10B44000420191F8F9A00027BB465D4C574563883F
:10B450005FFA87F977D14FF00008632B9CBF013367
:10B460006380638884F804803C2B5ED106214846C3
:10B470000BF0FCFA534E0621002F4DD138460AF04E
:10B48000DAFF327842F00402327027702771012708
:10B490000634DBE74C4B1B78002B3FF433AF032B18
:10B4A00001D130204AE7012100200BF047F829E7BD
:10B4B0004649474C8B4222784FF0000112D9012AAD
:10B4C000A1703FF41FAF63780133DBB2132B01D8B7
:10B4D000637017E7022A617001D10BF085FD01232B
:10B4E00023700FE7022A61703FF40CAFA378013399
:10B4F000DBB2132B01D8A37004E7012AA17001D19C
:10B500000BF072FD0223EBE7002383E701321B2AD5
:10B5100091D14FF0020A96E701200AF08CFF3278B1
:10B5200042F00802327084F8008094F80080B8F18C
:10B53000000F66D023790133DBB21B2B4AD823716D
:10B54000002FA4D0DEE63B2B14D9072148460BF090
:10B550008DFA1C4B1A7857B967F382021A700020D3
:10B56000FFF7AEFE00232370A4F802B0DDE76FF30F
:10B57000C302F3E7002BF7D02378FF2BF4D001337D
:10B58000F1E700BF1A090020340F0020D70E002079
:10B59000DC0A002004070020D80E0020000008501C
:10B5A00004001D03AD6D000850070020F0060020C8
:10B5B00000070020A87D2500C0F963008C63030804
:10B5C000F4060020E10A0020740800202E087D0007
:10B5D000F10600200023B8F1010F237108D1414684
:10B5E00048460AF028FF414648460BF03FFA05E07E
:10B5F000B8F1020FF3D0B8F1030FF4D00023237099
:10B600009EE784F804809BE72DE9FF4704684668BD
:10B61000237A8046C3F306038DF80F3073780F4604
:10B62000013B052B00F20481DFE813F02B0006003C
:10B6300002018500E200F2002046FBF73BF820B152
:10B640000224204604B0BDE8F0870DF10F00FBF79F
:10B65000C3FA0028F4D026233C689DF80F502370CD
:10B66000032328466370FDF775FFA0702846FDF799
:10B670002BFFE0702846FDF73BFF052320713B714F
:10B6800057E0237813F00C0FDAD10DF10F00FBF720
:10B69000A3FA0028D4D096F802A0AAF16403DBB282
:10B6A0009A2BCDD99DF80F904846FDF7F9FE054637
:10B6B0000028C5D003466168206803C3A0681860ED
:10B6C00098F80830032B04BFFF23F3700AF1FF330F
:10B6D000DBB2FD2B25D82B6B002B14BF18221722B1
:10B6E000544BD4F80210C3F88818F3781BB9A97A20
:10B6F00063F3C711A9720192002251464846009295
:10B70000FFF7B2FA02280ED1AC7A14F001040CD083
:10B710002B7813F00C0F08D14846FDF7E9FE78713D
:10B720008FE71722DCE700288AD0AB7A6FF300039B
:10B73000AB72FF2485E790F80880B8F1030F7FF61D
:10B740007FAF0DF10F00FBF747FA00283FF478AF09
:10B750009DF80F703846FDF7A3FE02466168054666
:10B760002068B37803C2A068B8F1060F03F0200C7C
:10B77000106032D13F2B29D84FF06308BCF1000F85
:10B7800014D1F378632B3FF65BAFD5ED166A95EDD8
:10B79000147A2B634BB307EE903AF8EE677A07EE14
:10B7A000A67A85ED0E7A2846FBF7F0FED4F8022043
:10B7B000204B1921C3F88828012233793846CDE976
:10B7C000002100224146FFF74FFAAEE703F0C00325
:10B7D000402BAED14FF00008D0E7B8F1040F04BF02
:10B7E000FF2232715806C7D5F4E79FED137AD8E7E8
:10B7F000037A022B7FF424AF0DF10F00FBF7ECF975
:10B8000000283FF41DAF9DF80F00FFF759FD90E7AA
:10B810002046FAF74FFF00287FF412AF26220B686C
:10B820001A7007225A700222D8709A70042326E7F1
:10B83000002406E79C4F0020000000002DE9F041A5
:10B84000002701264FF00008514D95F88030FCB2DA
:10B85000A34207D8002E00F09980BDE8F0414D4882
:10B860001BF092B95C235C43EB6F234493F82420D4
:10B87000BAB3D3ED0E7A93ED0F7AF4EE477AF1EE88
:10B8800010FA11D0F4EEC77AF1EE10FA93ED136AC4
:10B89000CCBF77EEC76A77EE676AB4EEE66AF1EE80
:10B8A00010FA20DBC3F84880E86F204490ED0E7A50
:10B8B000D0ED0F7AB4EE677AF1EE10FA08D090ED81
:10B8C000127AF7EE007AB4EEE77AF1EE10FA5AD572
:10B8D000FFF788F9EB6F234493F82430002B18BF4F
:10B8E00000260137B1E7D3ED126AF5EE406AF1EEBA
:10B8F00010FA18BFF7EE005AF4EEC77A1CBF76EEC6
:10B90000E56AC3ED126AF1EE10FAD3ED116A4CBF8D
:10B9100077EE867A77EEC67AF4EEE76AF1EE10FA01
:10B92000C3ED0E7A0ADDB5EE407AF1EE10FA4FF073
:10B93000000212BFC3ED0E6A9A639A6493ED141A63
:10B94000D3ED160A93ED0E0AFBF70AF9196B0246BE
:10B950008142A9D0186393F82C0038B932B193F81A
:10B960002610B1FA81F149090AF0E8FDEB6F234492
:10B9700093F82C20002A97D11A6B002A94D0FF222A
:10B9800083F82C2090E7FBF701FEA3E7BDE8F081E8
:10B990009C4F0020285800202DE9F0474A780446A3
:10B9A000012A0D461F468AB006D0022A00F0B78051
:10B9B00000200AB0BDE8F0870023634EDFF88C81D9
:10B9C00091F8029088F8002096F8DC21017A09F0BD
:10B9D0003F0A5245CDE9043318BF86F8CC384B06F0
:10B9E00050D1427869792879FCF714FD002861D09C
:10B9F0005146D4F80600FBF71CFC08B34FEA490295
:10BA000002F07E022B1D42F0010209F0800942EA99
:10BA100009020793EB78A27204A906A88DF82030DA
:10BA200006940497FAF72DFE474B9DF81410129ACE
:10BA3000042883F8CC08117002D1002283F8CC28A6
:10BA4000002388F80030DFF8008198F8CC98B9F12D
:10BA5000030F15D0AF78D4F806A007F03F0739469A
:10BA60005046FBF7E6FB237813F00C0F24D0002898
:10BA700053D0C8F8DEA1237888F8DC7188F8CD3877
:10BA8000FF2096E7002001F07F01FCF7C1FC034690
:10BA900080B10120FCF7BCFC60B11A7802925B68AF
:10BAA00001930378009343686A7929796078FCF7F9
:10BAB00081FC9BE7244BC0E710B998F8CD3863B3FD
:10BAC000D4F8063019F0FD0FC6F8DE314FF0000350
:10BAD000AD7886F8DC7186F8CD3818D105F03F05D1
