:020000040000FA
:10180000022A7F19F319F8227FB81812637F6397B1
:1018100062BA220273CFEF90181F93901900730AD7
:1018200020364CE560FF22EFF560220249741BA6CA
:101830001BB01BB51BBA1BBF1BC41BCE1BD81BDDAB
:0A1840001BFB1C001CD71CDC1CE184
:01184A00FF9E
:10184B000242F1C2D5E830E70FB2D5E4C39BFBE40B
:10185B009AFAE499F9E498F8EC30E717B2D5121834
:10186B00841223C1E4C39BFBE49AFAE499F9E4984C
:10187B00F880031223C130D50DE4C39FFFE49EFE15
:10188B00E49DFDE49CFC227895E4F6D8FD900000E5
:10189B007F007E10E4F0A3DFFCDEFA904FFFA3E5A0
:1018AB0083C394204011FEAF829020000E0FE48082
:1018BB0002F0A3DFFCDEFA121920022A9122325E1B
:1018CB00868559725A7380847A21EF26001C2D1C51
:1018DB00321C371C3C1C411C461C4B1C501C551C01
:1018EB005A1C5F1C641C731C781C7D1C82822D1C73
:1018FB001613111010C0607419C0E0C082C083753C
:10190B00600AE5FF54CF4490F5FF22C0607419C004
:10191B00E0C082C083756020E5FF54CF4490F5FF93
:10192B0022C0607419C0E0C082C083756036E5FFC9
:10193B0054CF44A0F5FF22C0607419C0E0C082C030
:10194B008375604CE5FF54CF44B0F5FF229088942B
:10195B00211690892F2116908939211690894A21B9
:10196B00169098002116909806211690A003211628
:10197B0090A006211690A801211690B00D2116906B
:10198B00A760211690B018211690B49C2116909642
:10199B00752116909826211690B3B8211690B84A47
:1019AB00211690A412211690B8DE2116908A1E21C2
:1019BB001690B911211690B92C211690AC31211625
:1019CB0090A0502116909AEA211690B96121169099
:1019DB00B98A211690BC032116909AFF211690AF5D
:1019EB00D0211690B6E0211690BE302116909D9F07
:1019FB00211690C115211690B4ED211690BA1F2116
:101A0B001690C1FC211690C29C211690A7EF2116AF
:101A1B0090C357211690C35A211690B4C321169028
:101A2B00C688211690C665211690C59D211690C3B8
:101A3B00FF21169098622116908150211690C517A0
:101A4B00211690BFB6211690A144211690BCE62119
:101A5B001690BE07211690BD9D211690C80B21161E
:101A6B0090A27E211690A7A321169089682116902B
:101A7B008A3C211690A767211690B1F0211690A8E9
:101A8B00C1211690A8C7211690AC44211690AEC365
:101A9B00211690AED0211690A8EA2116908AC62165
:101AAB001690992A211690B5612116909FC921167F
:101ABB00909DC7211690C915211690ADCD2116907A
:101ACB008177211690864821169086BE211690A00C
:101ADB0093211690856D211690C5BB211690A7A05A
:101AEB00211690AD6A211690CB74211690B4BC21AF
:101AFB001690A8DE211690AF8B211690CA452116A1
:101B0B0090CA0E211690B7A1211690B5762116908A
:101B1B00B5C0211690C967211690B2FA211690B163
:101B2B0015211690CC5D2116909744211690A0DDBF
:101B3B00211690A41A211690B332211690CD222192
:101B4B001690CD67211690CD85211690CDD92116F3
:101B5B0090CE29211690B433211690B3DF21169025
:101B6B00A9C0211690ABA1211690A9D9211690AD31
:101B7B00D8211690B41B211690CE38211690AC218B
:101B8B002116908522214290861A2142908655215A
:101B9B00429086E2214290878521429089C721425B
:101BAB009084FA21429089E121429087EB21429067
:101BBB008A7C2142908AA721429082CD2142908932
:101BCB00FB2142908ABB21429080EE2142908ADA1F
:101BDB002142908B1521429087422142908A1521F8
:101BEB004290843A2142908B662142908BF821429D
:101BFB00908C52214290814521429080002142904D
:101C0B008BC72142908D472142908D802142908637
:101C1B00A92142908ED12142908FDA21429090C41B
:101C2B00214290AAFF212C90B361212C90B38921E2
:101C3B002C90B4D8212C90B509212C90890D212CF6
:101C4B0090B525212C90B100212C90B0EC212C903B
:101C5B00B13C212C90B540212C90B5FB212C9094BC
:101C6B00A3212C90B609212C90B175212C909A3D73
:101C7B00212C90AFC1212C90B60F212C90AEFD21C1
:101C8B002C908FFA212C908000212C9090C5212C28
:101C9B00909978212C90B645212C90B6D5212C907B
:101CAB00B373212C90B91F212C90B0BE212C90998D
:101CBB00DA212C909664212C9099FB212C9094E4A2
:101CCB00212C909702212C90961D212C90ADCB218D
:101CDB002C90AE2B212C90B157212C909C1C212C9D
:101CEB0090B962212C90B5B9212C90BB8A212C90F4
:101CFB00BC42212C90B8F1212C90AFBE212C90BC72
:101D0B0051212C90BDD6212C90BDDB212C90BE1CDB
:101D1B00212C90BE30212C90BE6E212C90BE8821A0
:101D2B002C00022075E86480F8E933E83360110475
:101D3B0060F0ED33EC337009E8FCE9FDEAFEEBFFF4
:101D4B00220460DED3EB9FEA9EE99DE8C2E78CF0AC
:101D5B00C2F795F0400CE8CCF8E9CDF9EACEFAEBF6
:101D6B00CFFB12204085D0F05804700320D5B3E888
:101D7B000470075002B2D502207F92D5EC0460F7B5
:101D8B00E4CCC0E0C398F8603B94186008400DD0D9
:101D9B00E0FB022057E4FBFAC9FC8028E830E4069C
:101DAB00E4C9FBE4CAFCE830E305E4C9CACBFCE8B0
:101DBB0054076010F8C3E913F9EA13FAEB13FBECC1
:101DCB0013FCD8F130F52FC3E49CFCEF9BFFEE9A8C
:101DDB00FEED99FDD0E0FBEF4E4D4C701222DB0374
:101DEB0002207CEC2CFCEF33FFEE33FEED33FDEDEC
:101DFB0030E7EB022057EF2BFFEE3AFEED39FDD02B
:101E0B00E0FB50130BBB000302207FED13FDEE1321
:101E1B00FEEF13FFEC13FC022057EC4D6011E84969
:101E2B007017ED33EC3304600DE4FCFFFEFD22E98B
:101E3B0033E8330470F8022075122040580460090F
:101E4B00E4CC2481500628500902207F284003024D
:101E5B00207CC0E0EB4A7044B98006D0E0FB022046
:101E6B006BEF4E701CBD8008EBFFEAFEE9FD80EBCB
:101E7B00E98DF0A4FEE5F0021F0EE9CDF9EAFEEBC9
:101E8B00FFEF89F0A4FCE5F0CE89F0A42EFFE4353A
:101E9B00F0CD89F0A42DFEE435F08067EF4E700590
:101EAB00BD80D780C3EF8BF0A4ACF0EE8BF0A42CED
:101EBB00FCE435F0F8EF8AF0A42CE5F038FCE433C1
:101ECB00CB8DF0A42CFCE5F03BF8EE8AF0A42CFCB7
:101EDB00E5F038F8E433CF89F0A42CFCE5F038CFEB
:101EEB003400CE89F0A42FFFE5F03EFEE433C98D1C
:101EFB00F0A42EFEE5F039CD8AF0A42FFFE5F03EDD
:101F0B00FEE43DFD33D0E0FB50070BBB000F02207E
:101F1B007FEC2CFCEF33FFEE33FEED33FD0220574D
:101F2B0002207FEC5D046005E85904700302207504
:101F3B00122040580460F6EC4860F2EC7004FDFE91
:101F4B00FF22C860DB2481C85009C3986002500689
:101F5B0002207C9850CAF582E9294B4A7005AB8266
:101F6B0002206B75F0007C1A7880C3EF9BEE9AED24
:101F7B0099400DC3EF9BFFEE9AFEED99FDE842F001
:101F8B00DC23ACF0D0E0FFD0E0FED0E0FDAB822054
:101F9B00E7101BEB60BAEC2CFCEF33FFEE33FEEDDE
:101FAB0033FD022057E803F830E705C0F075F00069
:101FBB00EF2FFFEE33FEED33FD40B830E7C280AAC2
:101FCB0075F020800E75F010800575F0087D007E91
:101FDB00007F003392D530D503122460EC334010D0
:101FEB00EF33FFEE33FEED33FDEC33FCD5F0ED229A
:101FFB00E5F0247EA2D513CC92E7CDCEFF22EDD215
:10200B00E7CD33EC3392D524814006E4FFFEFDFC93
:10201B0022FCE4CFCECDCC24E0501174FF80EDC375
:10202B00CC13CCCD13CDCE13CECF13CF0470F03059
:10203B00D5DE022460E9D2E7C933E833F892D5ED57
:10204B00D2E7CD33EC33FC5002B2D522EC30E710A3
:10205B000FBF000C0EBE00080DBD00040BEB60148F
:10206B00A2D5EB13FCED92E7FD2274FFFCFDFEFF06
:10207B0022E480F8A2D574FF13FC7D80E480EFBBD3
:10208B00010689828A83E0225002E722BBFE02E32B
:10209B002289828A83E49322BB010CE58229F58293
:1020AB00E5833AF583E0225006E92582F8E622BB68
:1020BB00FE06E92582F8E222E58229F582E5833ADC
:1020CB00F583E49322BB010989828A83F8E028F027
:1020DB0022500327F722BBFE05F8E328F3228A835D
:1020EB008982F8E4932822BB010FF8E58229F58257
:1020FB00E5833AF583E028F0225009C58229F8E5FB
:10210B008226F622BBFE09C58229F8E22582F2223D
:10211B00F8EA2583F583E9932822BB010689828A95
:10212B0083F0225002F722BBFE01F322F8BB010D14
:10213B00E58229F582E5833AF583E8F0225006E93A
:10214B002582C8F622BBFE05E92582C8F222EF8D57
:10215B00F0A4A8F0CF8CF0A428CE8DF0A42EFE22F4
:10216B00BC000BBE0029EF8DF084FFADF022E4CC58
:10217B00F875F008EF2FFFEE33FEEC33FCEE9DEC21
:10218B00984005FCEE9DFE0FD5F0E9E4CEFD22ED67
:10219B00F8F5F0EE8420D21CFEADF075F008EF2FB1
:1021AB00FFED33FD4007985006D5F0F222C398FDA2
:1021BB000FD5F0EA22C2D5EC30E709B2D5E4C39DC6
:1021CB00FDE49CFCEE30E715B2D5E4C39FFFE49E23
:1021DB00FE12216BC3E49DFDE49CFC800312216B7A
:1021EB0030D507C3E49FFFE49EFE22C5F0F8A3E0C1
:1021FB0028F0C5F0F8E582158270021583E038F0FF
:10220B0022A3F8E0C5F025F0F0E5821582700215E7
:10221B0083E0C838F0E822BB010A89828A83E0F5A3
:10222B00F0A3E022500687F009E71922BBFE07E373
:10223B00F5F009E3192289828A83E493F5F074019E
:10224B009322BB0110E58229F582E5833AF583E001
:10225B00F5F0A3E0225009E92582F886F008E62282
:10226B00BBFE0AE92582F8E2F5F008E222E5832AB3
:10227B00F583E993F5F0A3E99322BB010789828AE1
:10228B00830221F6500B09C5F027F7C5F01937F774
:10229B0022BBFE0D09F8E325F0F3C5F019E338F383
:1022AB0022F889828A8374019325F0C5F0F8E493B0
:1022BB003822BB010DC58229C582C5833AC583026D
:1022CB0021F65011C58229F808E5F026F618F5F02D
:1022DB00E58236F622BBFE11C58229F808E225F00D
:1022EB00F5F0F218E23582F222F8E58229F582E563
:1022FB00832AF58374019325F0F5F0E4933822BB20
:10230B00010A89828A83F0E5F0A3F0225006F709CF
:10231B00A7F01922BBFE06F3E5F009F31922EF2B08
:10232B00FFEE3AFEED39FDEC38FC22E88FF0A4CC41
:10233B008BF0A42CFCE98EF0A42CFC8AF0EDA42CE1
:10234B00FCEA8EF0A4CDA8F08BF0A42DCC3825F0B0
:10235B00FDE98FF0A42CCD35F0FCEB8EF0A4FEA99B
:10236B00F0EB8FF0A4CFC5F02ECD39FEE43CFCEAA8
:10237B00A42DCE35F0FDE43CFC2275F008758200EF
:10238B00EF2FFFEE33FECD33CDCC33CCC58233C52F
:10239B00829BED9AEC99E58298400CF582EE9BFEC0
:1023AB00ED9AFDEC99FC0FD5F0D6E4CEFBE4CDFA1B
:1023BB00E4CCF9A88222B800C1B90059BA002DECBF
:1023CB008BF084CFCECDFCE5F0CBF97818EF2FFF57
:1023DB00EE33FEED33FDEC33FCEB33FB10D70399FF
:1023EB004004EB99FB0FD8E5E4F9FA227818EF2FAC
:1023FB00FFEE33FEED33FDEC33FCC933C910D705CB
:10240B009BE99A4007EC9BFCE99AF90FD8E0E4C9E9
:10241B00FAE4CCFB2275F010EF2FFFEE33FEED3319
:10242B00FDCC33CCC833C810D7079BEC9AE8994046
:10243B000AED9BFDEC9AFCE899F80FD5F0DAE4CDA8
:10244B00FBE4CCFAE4C8F922EF5BFFEE5AFEED5940
:10245B00FDEC58FC22C3E49FFFE49EFEE49DFDE4EB
:10246B009CFC22EB9FF5F0EA9E42F0E99D42F0E8DE
:10247B009C45F022E8600FECC313FCED13FDEE134B
:10248B00FEEF13FFD8F122E8600FEFC333FFEE33FB
:10249B00FEED33FDEC33FCD8F122BB010789828AB8
:1024AB00830224E75005E9F80226BCBBFE05E9F8D8
:1024BB000226C822E0FCA3E0FDA3E0FEA3E0FF227E
:1024CB00E493FC740193FD740293FE740393FF2257
:1024DB00E0F8A3E0F9A3E0FAA3E0FB22ECF0A3ED14
:1024EB00F0A3EEF0A3EFF022A8828583F0D083D087
:1024FB008212250A12250A12250A12250AE473E410
:10250B0093A3C583C5F0C583C8C582C8F0A3C58393
:10251B00C5F0C583C8C582C822A42582F582E5F023
:10252B003583F58322E6FB08E6FA08E6F922EBF69B
:10253B0008EAF608E9F622E0FBA3E0FAA3E0F922A9
:10254B00F8E0FBA3A3E0F925F0F0E5821582700219
:10255B001583E0FA38F022EBF0A3EAF0A3E9F022BE
:10256B00BB010789828A830225425005E9F80225BF
:10257B0030BBFE05E9F80226D489828A830226E65F
:10258B00BB011A89828A83D0F0D0E0F8D0E0F9D071
:10259B00E0FAD0E0FBE8C0E0C0F00225625016E99B
:1025AB00F8D083D082D0E0F9D0E0FAD0E0FBC08243
:1025BB00C083022539BBFE16E9F8D083D082D0E068
:1025CB00F9D0E0FAD0E0FBC082C0830226DD22BB4B
:1025DB00010DE58229F582E5833AF5830225425008
:1025EB0007E92582F8022530BBFE07E92582F802B0
:1025FB0026D4E58229F582E5833AF5830226E6BBEC
:10260B000120E58229F582E5833AF583D0F0D0E00D
:10261B00F8D0E0F9D0E0FAD0E0FBE8C0E0C0F0027F
:10262B0025625018E92582F8D083D082D0E0F9D00A
:10263B00E0FAD0E0FBC082C083022539BBFE18E96B
:10264B002582F8D083D082D0E0F9D0E0FAD0E0FB3D
:10265B00C082C0830226DD22D083D082F8E493703F
:10266B0012740193700DA3A393F8740193F58288F0
:10267B0083E4737402936860EFA3A3A380DF8A8360
:10268B008982E473EC8EF0A4CCC5F0CCCDF8EFA42A
:10269B00CEC5F02DFDE43CFCE8A42EC8C5F03DFDF5
:1026AB00E43CFCEFA4FFE5F028FEE43DFDE43CFC3C
:1026BB0022ECF608EDF608EEF608EFF622ECF2083F
:1026CB00EDF208EEF208EFF222E2FB08E2FA08E282
:1026DB00F922EBF208EAF208E9F222E493FB740127
:1026EB0093FA740293F922412703004102B200C10D
:1026FB0039C13BE0080200005A654E735973000064
:10270B00E00102001554E001020016A54104150674
:10271B000114004104140141041301C142011A00C8
:10272B00011700C14541216A05C14C43230100003B
:10273B000041231200C138013000C135C136412B95
:10274B00EC00C164432A20000000412A1F00412AEB
:10275B002300C13CC13E41269600015E00C13341BE
:10276B002688004126950044243680035A01602EAA
:10277B002407000000000000000000000000000023
:10278B00000000000000000000000000000000003E
:10279B00000000000000000000000000000000002E
:1027AB0041243F00C122C1A1412472004123F50005
:1027BB0041244100C11AC11FC119C11EC11DC11B3A
:1027CB00C120C11C41243A00412467004123FA0176
:1027DB0041247301412470FF41246BFF41246E009F
:1027EB0041246F0041240500412469004124350038
:1027FB0041246C004123FB00412406004124660068
:10280B00412403004124400041244300422445005D
:10281B00004124440041243E004124640041243BF8
:10282B000041246D004124710041243D0041246886
:10283B00004124020041246500412442014124044B
:10284B000041243C0041246A00E00C02604200631A
:10285B00733148433031050B0426412673FF412663
:10286B0072004126860041267000C125C1244126F5
:10287B006F0041268500C129C127C128C123C1266C
:10288B00412684004426770000000041267FFF4448
:10289B00267B0000000044268000000000412671CA
:1028AB0050412676004126740041266E0041267564
:1028BB000041287300412875004128700041286FA2
:1028CB00004128740041286E0041286D0041287199
:1028DB000041287600C165412AE500412AE4004108
:1028EB002AE700412AE600412945FF41293FFF41E4
:1028FB00294200C1664925624C6966656C696E6543
:10290B000041256C0041256B01C1EA6096235F00F5
:10291B0000000000000000000000000000000000AC
:10292B00000000000000000000000000000000009C
:10293B00000000000000000000000000000000008C
:10294B00000000000000000000000000000000007C
:10295B00000000000000000000000000000000006C
:10296B00000000000000000000000000000000005C
:10297B00000000000000000000000000000000004C
:10298B00000000000000000000000000000000003C
:10299B00000000000000000000000000000000002C
:1029AB0000000000004126B5004126BE004126C2B2
:1029BB00004126C1004126BD004126B8004226B683
:1029CB0000004226C40000432B08000000412B0BE3
:1029DB00004329C30000004129C800412636285175
:1029EB0026150000000000000000000000000000A1
:1029FB00000000422A430000422A450000009026B6
:102A0B00F2E47E0193700122A3FF543F30E5095499
:102A1B001FFEE493A360010ECF54E0B4E03AEFFA4B
:102A2B00EEF9E493FBA3E493FEA3E493FFA3E493F7
:102A3B00FDC083C082C001C002C006C00712198A44
:102A4B00D007D006D002D001D082D083A30FEF7075
:102A5B00010EDADAD9D880A954C025E060105005F0
:102A6B00A3DFFD809CA3A3A3DFFDDEFB8093A3A3C9
:102A7B00DFFD808D75819575FF03759E0212192000
:102A8B00023A5F0218C89026F2E47E019360F4A329
:102A9B00FF543F30E509541FFEE493A360010ECFB2
:102AAB0054E0B4E00EEFFAEEF9A3A3A3A3DAFDD939
:102ABB00FB80D654C025E0604B5026E493A3F8541A
:102ACB0007240CC8C333C4540F4420C8834004F4F8
:102ADB0056800146F6DFE480B00102040810204066
:102AEB0080E493A3FAE493A3F8E493A3C8C582C844
:102AFB00CAC583CAF0A3C8C582C8CAC583CADFE9E1
:102B0B00DEE78085E493A3F8E493A34003F680010A
:102B1B00F208DFF4022A943F241E16110E0B09074C
:102B2B000504030201F0C8A7917767604638353278
:102B3B0030242220140001010202030304040505C2
:102B4B0006060707B4BF1A2A1A2F1A341A391A485D
:102B5B001A4D1A571A611A931A981A9D1AAC1AB66B
:102B6B001AC51ACA1AD91ADE1B011B061B0B000D3C
:102B7B00FA20000DDC7000000000020C00013F3F4A
:102B8B003F0404041CAF1CB41CB91CBE1CC31CC8E2
:102B9B001CCD1CD25A2D5761766520342E3338004C
:102BAB001D0E1D131D181D1D1CF51CFA1CFF1B5B98
:102BBB001B651CE61CEB1D041D091D221D271B2E6E
:102BCB001CA51CAA1CF07F01D14F9026FBE01226FE
:102BDB00632BF8042C00142C05152C0A172C1A3017
:102BEB002C1F342C24362C293700002C12534EEF7B
:102BFB00854E80802F534FEF8008534FDF80035358
:102C0B004F7F854F90801D5350DF8550A08015530B
:102C1B0051FE800D5351EF80085351BF8003535128
:102C2B007F8551B07F0CDFFE227F01D14F902BD3DC
:102C3B007401F0902BD3E0602EF17C91CB902BD3D1
:102C4B00EFF0B16D91BA9026F7EFF0B16D902BD3F9
:102C5B00E05401F1AA60DCA3E0F460D7EF30E7D3D6
:102C6B00E4902BD3F080CC71D57F9F91B291CB9018
:102C7B0026F891C99026FD91C99026FEEFF0D14B15
:102C8B009026F6E0F4601BA3E0F460169026FDE0BE
:102C9B00FD541F240FA3F0EDC4135407448090265A
:102CAB00FDF0221224BFE4E5C820E2FB8FEB22717A
:102CBB00D57FD791B27FFF91B291CF9026F6EFF0EF
:102CCB007FFF91B2E5C820E2FBAFEB227F01D14F32
:102CDB00304D14F17C91CB902BD5EFF0B16D902B47
:102CEB00D5E020E002C24D304D1791BA9026F7EF98
:102CFB00F1AA600BA3E0F46006EF30E702C24DB11E
:102D0B006DE4FFD14FA24DE433FF22902A4E1224E3
:102D1B00E7902A4E1224BFD15B902A52E06F6034A9
:102D2B00F13D91D7EF6004F12980F7B16171D59036
:102D3B0026F9E0FFF1206007902A4EF18C91B290BA
:102D4B002A4EF18291B2902A4E91AE902A52E0FF18
:102D5B00D149D322C3227F01D14FD24D71D57F06EA
:102D6B0091B2F1E3EF70FB9026FDE0F4600A902B3B
:102D7B00D27406F0F19670FC9026FBE01226632DC0
:102D8B00A6042DAE142DB3152DB8172DC8302DCD8F
:102D9B00342DD2362DD73700002DC0434E10854E23
:102DAB0080802F434F108008434F208003434F8078
:102DBB00854F90801D4350208550A08015435101B5
:102DCB00800D43511080084351408003435180854F
:102DDB0051B0902BD2740CF0F19670FC229028819C
:102DEB001224E7902885122562F13D91D7EF6004FC
:102DFB00F12980F7B16171D59026F9E0FFF12060E0
:102E0B0007902881F18C91B2902881F18291B29038
:102E1B0028811224BFE4801C902888F1B26019909D
:102E2B002885122542EA494B6008902885E4F1F089
:102E3B008001E4FF91B280E0B16DE4FF800691B2B6
:102E4B00B16DE4FFEFB4010443FE202253FEDF22F9
:102E5B00902A491224E7F13D91D7EF6004F12980C4
:102E6B00F7F1186007902A49F18C91B2902A49F139
:102E7B008291B2902A4991AE91CB902A4DEFF0D12D
:102E8B004B902A4DE0FF2290288A1224E790288E3F
:102E9B00122562F13D91D7EF6004F12980F7F1180B
:102EAB00600790288AF18C91B290288AF18291B2B6
:102EBB0090288A91AE902891F1B2601491CB902812
:102ECB008E122542EF12212590288FE4F1EA80E53E
:102EDB00B16DE4FFC14FF13D91D7EF6004F1298053
:102EEB00F7B16171D57F0191B27F0391B2B16DE4FE
:102EFB00FFC14F9026F6E020E01271D17F3D91B2D9
:102F0B007F2A91B27F8091B27FA6D149227F01D1D6
:102F1B004F71D57F0391B29026FCE0640222E51538
:102F2B0030E20EE51520E509E51530E0047F01F1EF
:102F3B00BC2275FF02E5E430E10675E40675E40397
:102F4B0022902BD4EFF0902704E06402702271D111
:102F5B00902BD4E07FAB60027FB991B2B16D902B17
:102F6B00D4E0902703F070047F1EDFFEE4FFD14F07
:102F7B002271D57F0581B21224BF780812247FE419
:102F8B00221224BF781012247FE422902BD2E0145B
:102F9B00F0E022F13D91D7EF6004F12980F722F0A8
:102FAB009026F6E0FFF42274FFF5F012220C45F0A8
:102FBB0022EF600D9002B4123C59E4FD123C688084
:102FCB00103039037F0022121B881244A8E433FF10
:102FDB00227F0122E4FFC14FE5C85404FF22E475B0
:102FEB00F0010221F675F00112254B02208A902682
:102FFB00F8E01221259026FDE01230119026FEE01C
:10300B009000020221379000010221379027C5F171
:10301B00F89027CB1224F3000000019027CF740106
:10302B00F0F5FFE5D554C070051247C85002C32216
:10303B00E4F5FF53967F75FF0175D504D19575FFA8
:10304B000143D508E4F5FF5394FBF5FF53847FF55B
:10305B00FF7598FF9027C9E5F4F075F49C75FF0197
:10306B00A3E5E4F075E4257B017A2779CF126F7124
:10307B009027CFE0640160022137F5FF9027C874D9
:10308B0014F09027CB316678011224929027CB1243
:10309B0024E7E5A730E1FB43A7029027CB3166E598
:1030AB00A730E005E47B018002E4FBFAF9F8EF4B73
:1030BB00FFEE4AFEED49FDEC48FC9027CB1224E7CE
:1030CB009027C8E014F070BA9027CB3166781012B5
:1030DB00247F7B6D7A4E79C67841122336EF2439E3
:1030EB00FFEE343051EFFCE4FBFA7901F81223C107
:1030FB00EE547FFEE4FDFC1247A69027CB3166EB26
:10310B006FFFEA6EFEE8CDEFCDCCEECCECFF902757
:10311B00C5F1CBEF1221259027C5F1CBED11119005
:10312B00120FE030E606E4F5FF75968075FF01E4BB
:10313B00F5D59027C9E0F5F475FF01A3E0F5E4128E
:10314B0071629027CFE0B40103D38001C32225E045
:10315B0025E02401F582E43412F583E0FCA3E0FDC5
:10316B00A3E0FEA3E0FF229026541224E775FF0292
:10317B0043E1801272A0D1AC9026691224F3002D8A
:10318B00C6C0E4F5FFF5A490120EF0A3F0902664F0
:10319B007402F0127707FFF595EF14601314601C9F
:1031AB00240270279026543166919E9026608016DB
:1031BB009026583166919E902661800A90265C314C
:1031CB0066919E902662E090266DF0127293902687
:1031DB006DE0700FF5FFF59675FF0175D70975F466
:1031EB0018805690120EE004F0902664E0124754BB
:1031FB00902669316690266512764EC312246E5066
:10320B00099026653166A31224E790266DE0FF1224
:10321B007114902663E0FFA3E0FDA2559253127246
:10322B0041A33166902A631224E7902664E0FF5194
:10323B00F6902664E03159D1CB1276DE6002219EE6
:10324B007402F0127707F595E5F454077014902685
:10325B006951CD91A490266471831224E7EB315907
:10326B00D1CB1276DE70DC75FF03759580F1F040E3
:10327B000343F420A255925412717390266912766F
:10328B006D2420FFEE344E51EFFCE4FB7A04F9F889
:10329B0051DD91A4C25212701EE4F5FFE5BD54F846
:1032AB004404F5BD9012137401F07E127F01E4FD0E
:1032BB00EF2D1276FFFC901213E02CF00DEDB412F3
:1032CB00EF22FF7E04FDFCE0F8A3E0F9A3E0FAA3F4
:1032DB00E0FB122336E47B7DFAF9F81223C1EF24CD
:1032EB0001FFE43EFEE43DFDE43C22902A62EFF058
:1032FB00E4A351CD91A4902A6271831224E790121A
:10330B0010E0FF64806070EFC3947F5037EB7185E2
:10331B00C083C0823166EEC0E0EFC0E0901210E0D7
:10332B0075F004A4AEF0FBCAEECAEA3395E0F9F8E7
:10333B00D0E0FFD0E0FEC3EF9BFFEE9AFEED99FDD0
:10334B00EC98802B902A62E07185C083C082127644
:10335B004E901210E0F40475F004A4FFAEF0EE33BF
:10336B0095E0FDFCEB2FFFEA3EFEE93DFDE83CFC62
:10337B00D082D0831224E722E0FB25E025E0240154
:10338B00F582E43412F583229029831262A9F0901E
:10339B0029897401F0C256126F3F91B15005E5FCBB
:1033AB0020E6F791BCBF0108E4F5FC75FC408007F3
:1033BB0091BCBF0202D322F1E9902984E0FF127283
:1033CB00BD75FF0153D5DF53FAFB902983E0FF1244
:1033DB00448D902984E0902983B4080DE071851207
:1033EB00766D245251ECFC8003E03159D1CB9029FE
:1033FB0085E0FF12733775FF0175FF03759B041290
:10340B006F3F75FC42E5FC20E10491B140F490293B
:10341B0086E0F075FF03E59B20E70491B140F4E5EE
:10342B009B20E70D75FF03759B1F1272A0D2568070
:10343B004F91AA126F71902984E0FD90120FE05DFD
:10344B00701C902983E0FF91AA12455090120FE057
:10345B00FF902984E0FEEF4E90120FF051AF126FE8
:10346B00A17B017A297987126F48500FC390298865
:10347B00E09420902987E0940340E691AA126FC54F
:10348B00D19C305602619A902989E0B40103D38014
:10349B0001C3229026650224E7FC780102247F7B7E
:1034AB00017A2979892275FF03E591C330E701D3AE
:1034BB00227FFA91E6E5FC30E60491B140F7E5FC9A
:1034CB0030E6037F032275FF01E5D530E6037F026B
:1034DB0022E5D57F0030E7027F01227E00B1A67581
:1034EB00FF034391802275FF01E5D520E702C3223C
:1034FB00C2581272F2204302A19853F4DF902B2092
:10350B00E0FF12448D75FF0143D81030440543F49E
:10351B0040800353F4BFE4F5FF53F5F0902B21E00B
:10352B00FAA3E0FBEA42F5EBF5F6D2581272F27F02
:10353B00C891E6E4F5FFE59320E60491B140F43041
:10354B004457E5F430E3047D288010E5F430E204C1
:10355B007D288007E5F430E1027D28D1A57F2891F5
:10356B00E691B140FC7F7891E691B1502C127362D9
:10357B0050F712733DEFC39D50EF12736250EAE5A3
:10358B00F720E5E5C2581272F2D1A580DC53F4BFE7
:10359B00F1F0400543F420F1E9D32275FF03D3EF9B
:1035AB009402EE9400400874FE2FFF74FF3EFEEF72
:1035BB00F592EE540FF59122E4902AB4F0A304F0A7
:1035CB00E4902AB7F0E5FA30E1FB75FF01E5D53061
:1035DB00E7037F0022E4F5FF75E508F1E9E5D53057
:1035EB00E61A75FF01902AB6E5DAF0E4F5DA75FF15
:1035FB0001E5D630E3FB902AB77401F075FF037534
:10360B009B0475FC4175FF03E59B30E7FBE4FB7501
:10361B00FF038B95EB3159D1CB0BEBB403F175FF5A
:10362B0003759580E4F5FF758EC8126FA175FF01C8
:10363B0053D5FBD1A57F1491E6D19C75FF0143D5E2
:10364B0004902AB7E07008D1A57FC891E6D19C7B86
:10365B00017A2A79B5126FC5902AB5E0902AB47019
:10366B0006E04404FF8002E0FF902AB4EFF09012D2
:10367B000EE0B4010675FF0143D81075FF01902AC7
:10368B00B6E0F5DA902AB4E0FF227F3FFEB1A691B7
:10369B00EA75FF03E59120E7FB2275FF03E4F59143
:1036AB00221276A953DB7F75FF0175D5027F14912A
:1036BB00E6D19C1276A943DB8075FF01E4F5D52298
:1036CB00902AB01224E775FF01902AB0A3E0FDA366
:1036DB00A3E4FFFEE4FC781012247F8FE1902AB064
:1036EB00A3A3E0FEA3E4FFE4FDFC780812247F8F84
:1036FB00E2902AB0A3A3A3E0FF8FE322CDEFCDCCC2
:10370B00EECC126F5DAB94EF4B126F69CBEFCBFA34
:10371B00E59130E71E126F60A994E9F582EF4582BF
:10372B00FFEB2DF582EA3CF583C3EF9582E5F0952F
:10373B008340DDE59120E708CEECCECFEDCFD198DD
:10374B0022902ABCEFF0A3F1F875FF0191BCEF6456
:10375B00016002C322E5F430E602C3227FE87E0358
:10376B00B1A691EAF1D4400122C257123CE7902A4C
:10377B00BCE0FF12448D53F4DFD257123CE77F7845
:10378B007E00F10775FF0153E4BFE5E430E7FB1260
:10379B0073697F8A126FBC30E605F1C8E480077548
:1037AB00FF01F1C8E5D912212575FF0143E440F172
:1037BB00F0400343F420F1D4400122D322902ABDE0
:1037CB00E0FBA3E0FAA3E0F922E5F730E50EE5F71D
:1037DB0054C0700491B140F1D1A5C322D32275FF1F
:1037EB000153D8EF2290120EE0D3940122EBF0A3F9
:1037FB00EAF0A3E9F0227A2679FB7F031275AF7A00
:10380B002779047D017F08121B977A2779017F099D
:10381B0031C27A2679FF7F0B31C29026FF12428A82
:10382B006006BEFF1BBFFF18902704E024FD60035A
:10383B0004700431C980099026FFE4F0A37440F0B2
:10384B00902704E024FD60030470089026FC7403A9
:10385B00F080069026FC7402F09026FBE0122663A3
:10386B00388704389214389A1538A21738B830387C
:10387B00C03438C83638D037000038AD75FF015327
:10388B004AEF854AFD804775FF01534BEF800E755C
:10389B00FF01534BDF800675FF01534B7F854BC9EF
:1038AB00802C75FF01534CDF854CCA802175FF01BD
:1038BB00534DFE801675FF01534DEF800E75FF01C2
:1038CB00534DBF800675FF01534D7F854DCB122D98
:1038DB006D7F1131B4E4FF122F4C122C349026F96A
:1038EB007402F09026FDE0247F600904701631BA53
:1038FB00740A8007122EFE31BA7458F09026FC74AD
:10390B0003F031C99026FEE0F4600221B19027014B
:10391B00E0FEA3E0FF64104E70069026FE740EF0DE
:10392B00EF64204E70069026FE740FF0EF64404E4D
:10393B0070069026FE7410F0EF64804E7006902691
:10394B00FE7411F0E4B5070AEEB401069026FE747E
:10395B0012F0E4B5070AEEB402069026FE7413F0DB
:10396B00E4B5070AEEB404069026FE7414F0E4B531
:10397B00070AEEB408069026FE7415F0E4B5070AA4
:10398B00EEB410069026FE7416F0E4B5070AEEB4FA
:10399B0020069026FE7417F0E4B5070AEEB4400635
:1039AB009026FE7418F0022EE1EF4420F5FE227FE4
:1039BB001031B49026F9227B017D02021B979026D1
:1039CB00FF7401F0A3E4F0221101121B6A126BD7F2
:1039DB0012196C7E007F155159BF540B7E007F1658
:1039EB005159EF64A560147E007F10C00612760952
:1039FB001275A1D006124053122A09121AC0121ABC
:103A0B0052121A023064047557012212757812197A
:103A1B007B9002B6E0FFA3E0FE4FFDA3E0FC4DFD63
:103A2B00A3E0FB4D600BEE5FFFEC5FFFEB5FF47011
:103A3B000312421FE557540324B6F582E43402F512
:103A4B0083E065579002B1F02235F0FEAF01E4FC44
:103A5B00FD022E5B75FF0275E404E4F5E412189287
:103A6B00126DCA9002B3EFF0901200E0B47A14908A
:103A7B001214E0B49C0D9002B3E0FF64056004EFF8
:103A8B00B4032EE49002BCF09002BCE0FFC3944060
:103A9B005013E42FF582E43412F583E4F09002BC6A
:103AAB00E004F080E3901200747AF0901214749C8E
:103ABB00F0121B9C7B017A1279107D017F01121B86
:103ACB00977A1279117F211275AF7A1279127D01D3
:103ADB007F22121B97121B51126DCA121B4C9002A4
:103AEB00B3EFF0126BDD121B479002B3E0FF121C19
:103AFB0087EF24FFB3926475FF0253E6BF12495858
:103B0B00121B5631D320640C121C8C7B017A237947
:103B1B0024121A66D2AF30647B1219671219A812DD
:103B2B001CA0121B9240F29002B2E06043121B7970
:103B3B00EF70051275E14038E51470FCE51520E5D2
:103B4B00031244A8121976EF70FA126D7650051213
:103B5B006D6250057F01122F4C9002B2E0B402044B
:103B6B00E4FF80099002B2E0B403057F01126E916D
:103B7B00121B74E51530E1A1126C764002E4F0E5FE
:103B8B001520E5099002B491597D01916891561267
:103B9B00506D80851248F69002B2E0604920160302
:103BAB00200643121B79EF70051275E14038E514BE
:103BBB0070FCE51520E5031244A8121976EF70FA94
:103BCB00126D765005126D6250057F01122F4C90CD
:103BDB0002B2E0B40204E4FF80099002B2E0B40345
:103BEB00057F01126E919002B2E0600C2016093035
:103BFB000606200103121A3E1219671219A8121C8D
:103C0B00919002B0E07005121B748015126BCEFF01
:103C1B009002B0E0FEC3EF9EC394064002E4F0D2E4
:103C2B00AD121807E51530E11A126C764002E4F07C
:103C3B00E51520E5099002B491597D0191689156E3
:103C4B0012506D121B3312491D619F9002BCE0751F
:103C5B00F0AA9002BF122524AF82AE8322900435C6
:103C6B00EEF0A3EFF0E51470721247C05004C25788
:103C7B0091E7900435E0FEA3E08E11F512AE11AF83
:103C8B00127DAA126EAFE4F5FF75D908F510E51594
:103C9B005421602CE51530E505E4FF12448DE490CA
:103CAB000437F0900437E004F01235C3EF6009904D
:103CBB000437E0C3941040EB7F02121C6E5315DEE9
:103CCB00900413E07F00B403027F0112448D124471
:103CDB0026D25791E7D2EBA24192ED22902BD6E55B
:103CEB00F4F0E0547FF5F47F827E00126F431234C0
:103CFB00B15005E5FC20E6F6305708902BD6E04492
:103D0B0080F5F4126F3F1234B15005E5FC20E6F656
:103D1B0075FF01E5D520E702C322E5F4D330E601B8
:103D2B00C322900426EEF0A3126BAFC2EBE5146036
:103D3B0002C1EDE51530E202C3221247C85004C29E
:103D4B005791E712446AE5D120E0FBE4F5109004AB
:103D5B0027E05407C39403E49400502290042FE00F
:103D6B00FF90042BE02FFFE433FED3EF9440EE647F
:103D7B008094804009431504A24192EDD322900414
:103D8B002C122542CFE9CF8A118F1290042FE0F528
:103D9B0016AE11126ED19004281225428B1C8A1D6F
:103DAB00891E90042BE0F51F900426E0FCA3E0FD98
:103DBB0054606032900430E0FF12429A900428D194
:103DCB00F8FB7A00900424E0FEA3E0FF7C007D1753
:103DDB00122159EF2BFFEA3EFEEF2414FBE43EFACF
:103DEB007D027F01C1D4900426A3E05407900414F4
:103DFB00F07514089004281225421242E590042B0A
:103E0B00E0FFAD16124458900414E06403702E7B4F
:103E1B0001FDF108D1F81246D6500B90042812750B
:103E2B008D74011220D0E4F5FF124765900428D160
:103E3B00F82428FBE433FA7D03E4FFC1D490041487
:103E4B00E064027028F105D1F81246D6400B9004BD
:103E5B002812758D74FF1220D012478D900428D133
:103E6B00F82414FBE433FA7D027F01805CE4F10556
:103E7B00D1F81246D6400B90042812758D74FF12A0
:103E8B0020D0E4F5FFF1E944104E7F0560027F0A74
:103E9B00EF547FFFE5D254804FF5D2E4F5FF43D2C8
:103EAB0080900428D1F8FD7C00F1E944104E7E008F
:103EBB0060047F0A80027F05EF25E0FFEE33FEEF03
:103ECB002DFBEE3CFA7D017F01126CA7F1E9FF128D
:103EDB0044764006A24192EDC322A24192EDD2EB71
:103EEB00D322A24192EDD2EBC32290281D12254280
:103EFB00E92407F9E43AFA02208AFB7D01FFF1B5C8
:103F0B00900428229026D61225629026D9EDF0F146
:103F1B00F1D1FE30E502D22F7F02121B6F9026E209
:103F2B0012577660799026E2125616D1FE4408128B
:103F3B0021259026DDE0FEA3E0FFF1AFE924E0129E
:103F4B004F919026DF122542C003C002C001F1AF92
:103F5B00E924E2F9E43AFA12258B9026DA12565547
:103F6B00FBC0039026D61263339026D9E09026CC63
:103F7B00F09026DAF1F2D1FE9026CD127623F1AF36
:103F8B009026D0122562D003AD57E4FF12607290D9
:103F9B0026E5EFF060037F0122F1AF121B7E126268
:103FAB00A47F00229026E2022542E4F5FF75D102A0
:103FBB00E5D120E0FBE4F5FFF5D1EF6008E4F5FF78
:103FCB0043D2808006E4F5FF53D27FEB6006E4F525
:103FDB00FF43D104ED6006E4F5FF43D108229004C2
:103FEB0026E0FEA3E022A3122542E92401227E1F34
:103FFB007FC8AB05E4FCFD902A52EBF0022D169026
:10400B0029DC7405F09029D9112FC0079029D912FA
:10401B0025429029DCE0FF902891E4F0A3EFF0D04B
:10402B0007022E92122562E4FCFD2275F005A424F2
:10403B0003F9742035F0FEAF017B017A28794F909C
:10404B00296CE4F0A37405F0902969112FC0079037
:10405B00296912254290296CF199D0079027BA1241
:10406B0024E79027BE12256231729027C1510D9023
:10407B0027BA1224BF317850022122902700E02466
:10408B00FFFF9026FFE034FFFEE4FCFD9027BA1201
:10409B0024DB1224539027C3EEF0A3EFF04E602FD6
:1040AB003124C3902700E09FFF9026FFE09EFE90F7
:1040BB0027C3F0A3EFF09027C1F178500251933151
:1040CB002DE94A6004312480417E007F00803B90C3
:1040DB0027C1518A603F9026FFE0FCA3E0FDD3EFA0
:1040EB009DEE9C400A9027C3ECF0A3EDF0800D9061
:1040FB0027C1E0FFA3E0A3CFF0A3EFF0312DE94AF6
:10410B006004312480047E007F009027BFEE8FF087
:10411B001221F680BAD322C3229027C3E0FEA3E07C
:10412B00FF229027BE1225429027C3E0FFA3E09009
:10413B002888CFF0A3EFF09027BA1224BF122DE8F6
:10414B009027C3E0FEA3E0FFC39027C2E09FF0904F
:10415B0027C1E09EF09027BA1224DBE4FCFD12236A
:10416B00299027BA1224E79027BE0225429025A159
:10417B001224E79025A5122562E49025C8F0D39070
:10418B0025A9E0941E9025A8E094004001227B0114
:10419B007A2579AA9025A8E0FFA3E0902891CFF08B
:1041AB00A3EFF09025A11224BF122E929025A512F9
:1041BB002542E94A600B9025C8E0F582F187FF8024
:1041CB00027F009025C8E024AAF582E43425F5830C
:1041DB00E06F6002C3229025C8E004FFF0D3902566
:1041EB00A9E09F9025A8E0940050C122902970115E
:1041FB002FC007902970122542902973510DD007BB
:10420B002178E0FFA3E09025A8CFF0A3EFF0227474
:10421B0004F00153E4FF122FBCEF60315159516090
:10422B00C394C040F77B017A0279B85160FFA3E0D9
:10423B005FFFA3E05FFFA3E05FF460E97557017ECA
:10424B00007F08515990296CE4F0A3511A227B018D
:10425B007A0279B62251679002B6E02290043B12A3
:10426B002562C250E4FF122FBCBF010B90043B121E
:10427B00254212301792507F01122FBCA25022E020
:10428B00FEA3E0FF4E22EFF0A3ECF0A3EDF02290A3
:10429B0004385191751401E4FBFDFF123FB57B010E
:1042AB007A04791651E5E4FD7F029158F18D900463
:1042BB00167455F0900438E0900417F090041474C1
:1042CB0002F090043AE090042430E507E4F0A37484
:1042DB003CF022E4F0A374F0F022E4F5FFE9F15C8A
:1042EB00EA540F42D622C0E0C0F0C083C082C0D0D7
:1042FB0075D008C0FF1234BC8F18E5186402704FDC
:10430B00E51424F8603F24076002810D900424F12A
:10431B006E7028AB1CAA1DA91E51E5AD16AF1F91DF
:10432B0058E4FB7D01FF123FB575FF00F16543FAC1
:10433B000475FF00912C751408810D43FA0475FF69
:10434B0000912C810DC2EB751400431504810DE512
:10435B001864016002810DF14D4002810DE5107072
:10436B0054911AE0900447F0127313126C8B900463
:10437B0013EFF0900447E0FFD394094056900413D9
:10438B00E0D39402400CEFD394AA7F0040027F014C
:10439B00800D900447E0D394407F0040027F01EFF3
:1043AB006002802F900447E0FFF51675FF008FD950
:1043BB00751003804DE51064037047F5FF900413EF
:1043CB00E0C39403E5D350055402FF80035401FF6F
:1043DB00EF60049133802BC257123CE775FF0091BD
:1043EB006DE5D120E0FBC2EB431502751000900484
:1043FB0013E0B403071516911AE516F09002B5E514
:10440B0016F0D0FFD0D0D082D083D0F0D0E032E500
:10441B00122407F582E43511F5832243FA04E4F5FF
:10442B00FF53D1FD43D101229165E5D120E0FBE49F
:10443B00F5FF75D908900413E07F00B403027F01E8
:10444B00918D9126D257123CE7E4F51022E4F5FF4B
:10445B008FD4F5FFCFEDCF8FD522C257123CE7E4B7
:10446B00F5FFE5D154FE4402F5D122431501531556
:10447B00DF91D5D1F74004E4F514225315FB9126B7
:10448B00D32275FF01E5D530E602C322E4F5FF43E5
:10449B009A80EFF154E4F5FF539A7FD322E5147021
:1044AB0027F1C05005C257123CE71272A07F0812C9
:1044BB001C6E916AE5D120E0FB4315205315FEE4F9
:1044CB00F510A24192EDD322C322EF30E303AF13D9
:1044DB0022AD1B204204EE30E00BE517C394F050E5
:1044EB0020B1208018E51A6006FDE4F51A8012E56C
:1044FB0017C394F0500BE517540FFF6004B10FADC9
:10450B0007AF0522F1B3FFC3940E40027F0DEF906E
:10451B002B2293FF22900415E0FDFFC3740EB149CB
:10452B00EFC4F8540FC868FFEEC454F048FEE5170B
:10453B0054F0C39FEED1F07F005002AF05229FFFD6
:10454B00E49400FE22902AB8EDF0901211E0FEF4F4
:10455B006006A3E0FDB4FF0C902ABA7418F0A374A4
:10456B0013F08008902ABAEEF0A3EDF012208A64C3
:10457B00016002C1B0902AB8E0FE64086004EEB49A
:10458B000408902AB97428F08006902AB9743AF07E
:10459B00EF123159122460E4D1B1EF24D8FFEE347D
:1045AB003FFEED3493FDEC3416FC7B007A807903EF
:1045BB00780012184EF1A6902ABBE0FF902ABAE0C1
:1045CB00C3B149E4FCFD122336ECC0E0EDC0E0EED4
:1045DB00C0E0EFC0E0902ABBE0FFE4FCFDFED1B1F0
:1045EB00D0E0FBD0E0FAD0E0F9D0E0F8EB2FFBEA1B
:1045FB003EFAE93DF9E83CF8902AB9E0FFE4FCFD0E
:10460B00FE122336EF2454FFEE340B1232EFFCE490
:10461B007BA87A16F9F812184ECBEFCB902AB8E09C
:10462B0014605D14601B24FE600C24FC7077E4F5B1
:10463B00FF75CE318006E4F5FF75CE21F5FF8BCFEC
:10464B0022E4FAE4F5FFEA2440F5CEE4F5FFEAFFB5
:10465B00C37407B14974F82FF58274183EF583E4DF
:10466B00D1B9C39DF5CFE4F5FFEA2448F5CEE4F5C7
:10467B00FFEA9018F8D1B92DF5CF0AEAB408C42295
:10468B00E4F5FF75CE01F5FF8BCFF5FF75CE0EF57B
:10469B00FFEB25E0F5CFE4F5FF75CE0FF5FFEB75DE
:1046AB00F003A4F5CF227B64FAF9F80223369325A5
:1046BB00E0FDE433FCEB75F010A4FFAEF012216BC0
:1046CB00CDEFCDEBFFE4C313EF1322FF90042FE0EC
:1046DB00FD90042BE02DFDE433FCED2401FDE43CC7
:1046EB00FCD3EF9DEC6480F874809822900433EF38
:1046FB00F0900414E024FD6011047007F13E740483
:10470B00F08012F13E7408F0800BE4900434F090CA
:10471B0004327402F07F01121C6E900434E0FF909F
:10472B000432E0FDA3E0FBE4902986F012339350B2
:10473B00E9D3229004347401F090043222E4F5148E
:10474B0081A8E5F754C024FF2233333354F8F5F432
:10475B0022F5D7E4F5FF53D6F022E5D2548044146A
:10476B00F5D22274FFF5F01221F645F022E0FCA3FE
:10477B00E0FDD39FEC9E221225428E8275830002B0
:10478B0020A3E4F5FFE5D25480440AF5D222E0FFE2
:10479B00A3E09027C1CFF0A3EFF022C8ECC8C9ED7E
:1047AB00C9CAEECACBEFCB22E517C4540FFEEF906C
:1047BB002B40932E22C2EBA2ED9241C2EDE5F4C346
:1047CB0030E701D322F1C85006F1DC50028001C35F
:1047DB0022E5F754E024FF22E51520E5079165E576
:1047EB00D120E0FBE4F51022E4F97D0CAC0109ECDF
:1047FB00902B9F93FC0FEFAA0670010E14F5828A83
:10480B0083ECF0DDE77F02228F828E83E4F0A374CA
:10481B0004112674261126A3E4F022F08F828E83D6
:10482B00A3A32275FF0275E40475E40175E402226B
:10483B0075FF0275E404E4F5E422A24E923922904E
:10484B000442EDF0900441EFF0BF0411A3E0FB7DB7
:10485B00017F01118A9004417403F0800B90044294
:10486B00E0FB7D01E4FF118A900441E09002B2F07D
:10487B00D2061219BC9002BDEEF0A3EFF0D322EBDF
:10488B00600875FF0153CDFD800675FF0143CD0216
:10489B00ED600553FBDF800343FB20EF600775FFE3
:1048AB000243E1402275FF0253E1BF2275FF028FE5
:1048BB00E322A24F923B229002B1E064AA2411FFA3
:1048CB00F022AE0711C2EE04FEEF8EF084AFF022A1
:1048DB0011C2EFC4540F6FFEEFC41354076EFEEFFB
:1048EB00C413131354016E5403FF22303A0D121AE2
:1048FB0020EF6007C25E121A16C23A229002BAE08B
:10490B00FCA3E04C700A9002BAEEF0A3EFF0D322B6
:10491B00C3229002BA12428A6009CAEECAC9EFC911
:10492B0012268922EFB40109D2AD75FF0143AE40C7
:10493B0022C2AD75FF0153AEBF2275C80122E5C877
:10494B005402FF75C80222E5C85401FF2275FF020D
:10495B00D2ADD2BD75FF02758E7175580975FF0208
:10496B00E58E546F4480F58E22C0E0C0F0C083C04A
:10497B0082C0D075D008C0FF75FF02E58E30E429E8
:10498B0075FF02E58E54EF4410F58E900000E004A5
:10499B00F0E55830E0020531E558700B7558099079
:1049AB0024C8122FEA8002155875FF02E58530E402
:1049BB000875FF024385100559D0FFD0D0D082D0A7
:1049CB0083D0F0D0E032902B141225627F01122F8E
:1049DB00BC510412222245F0601E902B141225426A
:1049EB00C003C002C00151045112F58285F083D07F
:1049FB0001D002D00312268D22902B14122542E9EE
:104A0B0024DAF9E43AFA22122222FFAEF022D1196B
:104A1B004AC36001D34002A1DCE924B7123EFEFF7A
:104A2B007B017A2B791A126354302B15D11924027E
:104A3B00123EFE30E50BE490216CF090216BF0817F
:104A4B006FD11924DF123EFE6401706AD119240262
:104A5B00123EFE20E446D11924BA123EFEF110128A
:104A6B001A0C5038D11924BC123EFE54F0902B1B5B
:104A7B00F0D119F109F1A27001D3923F902B1BE0F9
:104A8B0024FF9240F11BE07E0160027E04EF4EF1A9
:104A9B001012589DD119F1837402816AD119240324
:104AAB00123EFE30E410B1DDF109F1A27001D3F139
:104ABB0017EF4401A1CDD11924DF123EFE64027021
:104ACB0030D1192403123EFE20E40DD11924BA1261
:104ADB003EFEFF121A118019D1192403123EFEB1AA
:104AEB00DDF109F1A27001D3F117902B1AE04FA160
:104AFB00CDD1192402123EFE20E202816FD119247E
:104B0B00DF123EFEFFC394035005E49021C9F0EF82
:104B1B00D3940340028121902B1AE0B40108C25CAC
:104B2B00D11924BA8006C25CD11924BD123EFE9065
:104B3B002B9EF01219EED1192403123EFE54EFD125
:104B4B001624B6123EFE65577042D11924B7123E99
:104B5B00FE30E738D119F109511254076403702C58
:104B6B00D11924B9123EFED394405020D119F1092A
:104B7B00EF54F84402FFF195F1744404F11012580C
:104B8B009DD11924BB123EFE4410816AD11924BA5F
:104B9B00123EFE7A2B791B9027831276377A2B09DC
:104BAB009027861225621B7A0079907D011219FDE0
:104BBB00EF6063902B1BE0FFC454F0FED11924BCB3
:104BCB00F9E43AFAEED11612565BC003C002C001EB
:104BDB007B007A007990F1B1D001D002D003121989
:104BEB0099D119F109122222FF902B1CE0FDF1F053
:104BFB00D119F109E48FF012230AD119F18374034F
:104C0B00122125902168E0B40203D38001C3923FA7
:104C1B00F1764404A1CDD11924DF123EFEC39404D6
:104C2B005042D11924BA123EFEF110902979740129
:104C3B00F012550CD119F10912222254F8FDE5F0AE
:104C4B00FEED4FFFF195EF54076402C37001D3F1F2
:104C5B0017EF4401F11012589DD119F1837404120E
:104C6B002125A1D2D11924BA123EFEFFE4FD121A5E
:104C7B00D4302B02A1D7D11924DF123EFEC39405E9
:104C8B004002A1D7D1192403123EFE20E002A1D786
:104C9B00D11924B6123EFEFFC007D11924BA123E19
:104CAB00FEFDD119F1C6C003C002C001D11924B158
:104CBB00123EFE9028BCF0D1192402123EFE540382
:104CCB0044019028BDF0D119F1BB122222FFE5F06F
:104CDB001276F7D001D002D003D007121B29EF7048
:104CEB0002A1D7D1FA2405123EFE4420D1F9241497
:104CFB00F1D4D1FA127643D1FA127662121971906D
:104D0B0020C81276B3D1FA1275911276BBD1191253
:104D1B0057CED119F1BB741B75F02E12230AD11982
:104D2B00F109122222AEF054F8FFF195EF4402FF85
:104D3B00F195D1FA2404123EFEFFD1192402F1D4CD
:104D4B00D1FA2406123EFEFF7440C39F5008D119BE
:104D5B00F19B742F80167411D39F500BEF24EFFF30
:104D6B00D119F19BEF8005D119F19BE4122125D1CB
:104D7B001924B1123EFEFFD119F1C6C003C002C007
:104D8B0001D1FA241CF9E43AFAF1B1D001D002D0E6
:104D9B0003121999D119125E627B01C003C002C0C4
:104DAB0001D1FA12566B7B01F1B1D001D002D003C5
:104DBB007F11121999D119F1837405122125F17400
:104DCB004406F11012589DF111021B83E4FF121BD4
:104DDB00602254EF122125902A20122542E9240645
:104DEB00F9E43AFA122222FF902A20122542E924F2
:104DFB0004F9E43AFAE5F08FF012230A902A201214
:104E0B002542E924DFF9E43AFA7401122125902AAC
:104E1B0020122542E922D11924B7123EFEFF20E7CA
:104E2B0002C1B0540F6401707CD11924B6123EFE3E
:104E3B0065577071202A6E902A2304F0D11924BB78
:104E4B00123EFE30E342D11924BC123EFEC4540F75
:104E5B00FF7E00D11924BD1257BF12208A540F7048
:104E6B0027D1192FF9EE3AFAE924BE123EFE54600F
:104E7B006016D11924BC123EFEC4540F24041257E1
:104E8B009E7D6E7C00025813E49021D5F0D119243D
:104E9B00BC123EFEC4540F75F03EA4FDACF07E6315
:104EAB007F7F0257EFD11924B7123EFE20E737D18F
:104EBB001924BA123EFE125762D11924B7123EFEC4
:104ECB00FF20E42230E70AD11924BB123EFE20E476
:104EDB0015D11924BA123EFEFFD11924B2F9E43AC6
:104EEB00FCAD01121A071250547F01021B60FF9098
:104EFB0020C8122542E922902739122542E92404C1
:104F0B00F9E43AFA22FF902A20022542923FC2404E
:104F1B00203F2A304013E55454F0FFBFF0035354A5
:104F2B000F74102554F554803CE554540FFFBF0FFC
:104F3B00035354F00554E554540FC48028304013E8
:104F4B00E55354F0FFBFF00353530F74102553F583
:104F5B00538012E553540FFFBF0F035353F0055308
:104F6B00E553540FC454F0FF22D23FD240F11BEF54
:104F7B00229026D0122542E924DFF9E43AFA22FFE7
:104F8B00122542E924DCF9E43AFAEE8FF002230A07
:104F9B0024B1F9E43AFA2212222254076402C32202
:104FAB007B017A0279B6902995022562F1084112AC
:104FBB0024DCF9E43AFA22122542E92408F9E43A0E
:104FCB00FA22FF122542E92406F9E43AFAEF02210C
:104FDB0025F111EA494B600CD1192402123EFE3027
:104FEB00E502D22B22EF54F84DFF22902B92EEF0DC
:104FFB00A3EFF0124E19124F091222225407FF642D
:10500B00026005EF64037016114B25E0FBEC33FADD
:10501B00EDAE047803C333CE33CED8F9801C114BDD
:10502B00AE047803C333CE33CED8F9FBAA06EDAE6C
:10503B00047805C333CE33CED8F92BFFEE3AFE22DC
:10504B00902B92E0FCA3E0FD22E4902A1FF00219C2
:10505B005D124E1924BA123EFEF16211547F010209
:10506B001B609002B5E0FD902831F1B278871225D4
:10507B0039EDD3940850028190123EFBFFEDC39F94
:10508B0050028190E4788EF6900413E09021CFF0DB
:10509B00121A1B90283191F22405F9E43EFA1220E2
:1050AB008AFF540F64017056EF90283130E71BA331
:1050BB00E0FF240AF9E43EF185FD7C00EF240BF9B7
:1050CB00E43EFAE92DF9EC3A800791F22409F9E470
:1050DB003EFAE9F16F902838122562902838D155A5
:1050EB00FF601664186012EF6407600DEFB4030ED7
:1050FB00902838F1A7F1DC70057FFE121B387B007E
:10510B007A0079871263C691922404123EFE902195
:10511B00E3F0788EE620E20221F47F01121B6F9000
:10512B002833F176700221F491997F0312589D91E7
:10513B00922405123EFE30E40D9199E924B7123EFC
:10514B00FE44101221259199E9124F9BE41221255F
:10515B00902833F1CA9199E9124FBB741875F0126C
:10516B0012230A788FE6FF9199E924BA124FD49053
:10517B002833124F0512222254F8FF9021CFE0FD65
:10518B00EF4DD16291922405123EFE30E50F9199BD
:10519B00E924B7123EFE4420122125803E788A1264
:1051AB00253012208A64017032E92401123EFE641C
:1051BB00187028788DE6788AB40411122530E9240A
:1051CB0003123EFEFF12450F8F1A800F122530E996
:1051DB002402123EFEFF126C488F1A9199121B8308
:1051EB009002B0E07003121B74303B37202D3478E3
:1051FB008EE654E2702D91EA4440F0D1729028363D
:10520B00E0FF30E3047D00800991922408123EFEFA
:10521B00FEFD91922404123EFEFBC003D17FD0030E
:10522B00121AA7202D028174E490216BF0A3F07861
:10523B008EE630E66991922409123EFE9191240A82
:10524B00123EFEFEEFC4540FFDEE54F0FEEF54F091
:10525B007887B5060A122530E92404F9E4800B128D
:10526B002530D16AED7E0029F9EE3AFA12208AFF39
:10527B0090216CEFF01D9192D16B7E00E92DB10561
:10528B0090216BF0902A23E070028190E4F19E1242
:10529B004E1924BC123EFE54F0FD7C00E1EF788EDB
:1052AB00E620E102615FE4F552124E1924B7123E7B
:1052BB00FEFF540F64017059EF30E74B124E192467
:1052CB00D8123EFEFFD3940A400A124E1924BC1288
:1052DB003EFE80049021F0E0902837F0902837E0D4
:1052EB00540FFEEFD3940A400C124E19D15BEEB162
:1052FB0002F552800D74F12EF582E43421F583E032
:10530B00F552126BB5800A124E1924BA123EFEF5F5
:10531B0052124E194A7002819091922404123EFE51
:10532B00655260089021E2E070028190D25C902B74
:10533B009EE552F01219EE91922405123EFE30E7D3
:10534B000D91922409123EFE540624FF922A124E0E
:10535B0021C22A22788EE630E558902A23E070028B
:10536B00819091922404123EFEFF6003B4EF201251
:10537B004E194A601AE92409123EFEB40311902318
:10538B0056E0FF7887122530124F08EF1221259136
:10539B00922405123EFE30E70A91922409123EFE3A
:1053AB0020E40D91922404123EFEFF91F9121A078C
:1053BB00015C91922408123EFEF4603591F92405AC
:1053CB00F195540FFFBF0203D38001C34023919289
:1053DB002405123EFEFF20E41830E70A91922409BF
:1053EB00123EFE20E40B91922404123EFEFF121A91
:1053FB0007788EE630E30A902831F18D7B0112613C
:10540B00D7306402819091EAE49022A5F07887125C
:10541B00253012208A701AE92401123EFE70129177
:10542B00922402123EFE700991922403123EFE60FA
:10543B00067E007F0180047E007F00EF4E70079098
:10544B0022A5E04401F0D172902836E0FF30E3044E
:10545B007D008004AE57AD0691922404123EFEFBF4
:10546B00C003D17FD003021AA7124F11EA494B6038
:10547B0014902A1FE0600E9021DBE0600812196285
:10548B00E49021DBF022FF7887122530E922902867
:10549B0033022542E491912405123EFEFD30E503D3
:1054AB007402FF788EE630E704EF4480FFED540F73
:1054BB00FDBD0506EF4410FF8024BD011091922421
:1054CB0008123EFEB4FF17EF4404FF8011919224A3
:1054DB0005123EFE540FFDBD0204EF4408FF22915E
:1054EB009F902836EFF022E0FEA3E07B012290286C
:1054FB0031E0FCA3E0FD227E0029F9EE3AFA02200E
:10550B008A902976122562902975EFF06557607A9B
:10551B00E55764EF6074E0FF64EF606E121AACEF56
:10552B006068902975E0FFAD57121B1A90297AEF2E
:10553B00F0902975E0FFD262121ABB902979E054E2
:10554B000F64017067EF6064D10D24DF123EFEFE25
:10555B0064026004EEB4010D902976D116123EFE62
:10556B004410122125EF5460FFBF20047F208002DE
:10557B007F40EF440290297AF0D10D24BA123EFEFF
:10558B00FFD10D24D9124FD48022902975E0FF65ED
:10559B005760139021E3E0FEEFB5060A9021CFE0B0
:1055AB0090297AF0800690297A7401F090297AE09C
:1055BB00540764016046902979E0540F6404703CF1
:1055CB0090297BF0D10D24BC123EFEC4540FFF90EA
:1055DB00297BE0FEC39F5024D10DD15BEEB102FFBE
:1055EB0090297AE05407FD121B15400890297A7414
:1055FB0001F0800890297BE004F080C890297AE0C4
:10560B00FF22902976122542E922FF122542E92436
:10561B0003229029DD1225629192F168C003C0022A
:10562B00C0019029DD12254212258B91922408127C
:10563B003EFE541FFF9029E0122542EF12212591C7
:10564B00922408123EFE54E0FF2212254202208AC9
:10565B0024BDF9E43AFA22FFE5F08FF002230AE9C0
:10566B00240BF9E43AFA227B017A2179DC7D06E4FA
:10567B00FF021971788A12253090274D1225627816
:10568B008DE6902750F07B017A2179DCA30225620D
:10569B00902A5E122562902A5DEFF0124E1924BCFF
:1056AB00123EFEC4540FB50713124E1924BA123E04
:1056BB00FE902A5EF102123EFE6F6002C322E4905E
:1056CB002A61F0902A5DE0FF902A61E0FEC39F50B3
:1056DB0024902A5E122542D16AEEFFB102FD124ED2
:1056EB001924BDF1BF12208A6D6002C322902A617A
:1056FB00E004F080CED322FF122542E9240422904D
:10570B0029E31225629029E61225427D05E4FF125A
:10571B0019719029E3123FF2123EFEFF9029E61217
:10572B002542EF1221259029E6123FF2F9E43AFACD
:10573B00E41221259029E3F17E123EFE9029E6D159
:10574B0015124FD49029E3F103123EFEFF9029E688
:10575B00124F05EF022125FF7D01021AD42409F90E
:10576B00E43AFA222401F9E43AFA22122562EA49D0
:10577B004B22FF122542E9240522FA12208AC45437
:10578B000F22E0FEA3E0AA06F9227B01F9E43CFA22
:10579B0002208A9021D5F07E637F7F22122542E979
:1057AB002402F9E43AFA22EEF0A3EFF0AA06F97B11
:1057BB000122240BF9E43AFAE92FF9EE3AFA221214
:1057CB002542E924DAF9E43AFA741B75F0650223F1
:1057DB000A90299C1225627B017A0279B67F04120A
:1057EB00199EEF22902B94EEF0A3EFF0902A1F74EA
:1057FB0001F0AE04AF05124FF6AC06AD07902B943B
:10580B00E0FEA3E0FF021958902A1F7401F0C006B6
:10581B00C007EDAE047803C333CE33CED8F9FBAA61
:10582B0006AE04ED7805C333CE33CED8F92BFDEE9F
:10583B003AFCD007D0060219587B017A2179EE0287
:10584B0019C6124F08EE8FF002230A902A58122520
:10585B0042902B17122562902B17302E1FD15EC052
:10586B0003C002C0017B017A227992124FB1D001A1
:10587B00D002D0037F04121999C22E22D15EC0032D
:10588B00C002C001124FABD001D002D0037F040283
:10589B001999902A58122562EF540FFE91D624B80D
:1058AB00123EFE54F0FDEF54F0FFC4540F4D122185
:1058BB0025EE14605E14700261CE24FE700241036B
:1058CB0024FE700281352403600281BF91D6D16220
:1058DB00C003C002C001124FABD001D002D0037F76
:1058EB000412199991D624B6F9E43AFAE55791D3F3
:1058FB00F154740391D324B8123EFE54F0FF90225E
:10590B0091E0540F4F91D3F15B740A91D391EB74E7
:10591B000981BC115691D624B791E491D32402127C
:10592B003EFE30E04F20E702800A9021F0E0540F5A
:10593B00FFBF0F0C91D624B7123EFE444012212517
:10594B0091D624DF123EFE6401702091D624021200
:10595B003EFE5490701591D624BA123EFEFF902A4B
:10596B0058122542121A0C5002800991D612576F09
:10597B007403800491D691E212212591D624021250
:10598B003EFE30E10C91D624B7123EFE442012218C
:10599B002591D62402123EFE30E70C91D624B71285
:1059AB003EFE448012212591D62402123EFE30E7A2
:1059BB000C91D624BA123EFEF162EF700C91D624F4
:1059CB00BB123EFE54F7122125F16891D624B81272
:1059DB003EFE549FFEEF54604E91D324BA123EFE0E
:1059EB00FF91D624D9124FD47F0991D624B1123E00
:1059FB00FE91C091EBEF81BC91D62402123EFE20AA
:105A0B00E60241A591D62409123EFEF18B902A5C49
:105A1B00F07404C39E500B7404F0EF540F44401207
:105A2B002125902A5CE02402FF91D691F2C003C09D
:105A3B0002C00191D6124FC6124FB1D001D002D085
:105A4B000312199991D624B1123EFEFF902A5CE005
:105A5B002403FDE4331246EB403712208AFF902AD1
:105A6B005CE0FE2403FDC3EF9DFF91D3124FC6C034
:105A7B0003C002C001EE240AFDE433FC91D62DF9DC
:105A8B00EA3CFA124FB1D001D002D003121999801F
:105A9B000991D6124F9BE4122125115691D624B7AA
:105AAB0091E4122125448091D32402123EFE902AC8
:105ABB005830E00B123FF2F9E43AFA74038002918A
:105ACB00DE12212591D691F2E491D324BA123EFE37
:105ADB00FFD262121ABBEF7002617F91D624B6120D
:105AEB003EFE65576002617F91D624BB123EFEFFDE
:105AFB0030E002617F91D62403123EFE20E47591C3
:105B0B00D691F2EF440891D324BC123EFEC4540F3D
:105B1B00FF7E0091D624BD1257BFE491D324BC1253
:105B2B003EFEC4540FFF91D624BD1257BF12208ADC
:105B3B00441091D324BA123EFEF162C007F168EF14
:105B4B001313543FFED0E04EFF91D624BC123EFE01
:105B5B00C4540FFD7C0091D62DF9EC3AFAE924BE22
:105B6B00F9E43AFAEF91D3124F09122222549F1201
:105B7B005662800C91D624BB123EFE54F71221259F
:105B8B0091D624BB123EFE30E31B91D624BC123EB1
:105B9B00FEC4540FFF7E0091D624BD1257BF12577F
:105BAB008604FF80027F0091D624BC123EFEC454B3
:105BBB000F240B2FFF91D624B1123EFE91C091EB17
:105BCB00EF81BC115691D6F154740291D324021279
:105BDB003EFE30E10C91D624B7123EFE442012213A
:105BEB002591D624BAF9E43AFA741D91D391F2C0F7
:105BFB0003C002C0019021D7122542124FB1D00130
:105C0B00D002D0037F1D12199991D691E212212552
:105C1B007F2691D691EBEF91D324B1123EFEFEEF8E
:105C2B00042EFF91D6F15BEF81BC91D624B8123EC6
:105C3B00FE540F902A5BF091D62402123EFE20E612
:105C4B0045115691D6F154740591D32402123EFEA0
:105C5B0030E10C91D624B7123EFE4420122125913F
:105C6B00D624B8123EFE54F0FF902A5BE04F91D33E
:105C7B002402123EFE30E01891D624B7123EFE44A9
:105C8B0040122125800A91D6124F9B74FF1220D00F
:105C9B0091D691E291D391EB741191D324B1123E31
:105CAB00FEFF91D624D8123EFE2F04FF91D6F15B56
:105CBB00EF12212522FEEF042EFE902A58122542C8
:105CCB00E924B9F9E43AFAEE122125902A58122563
:105CDB0042E922122542E92401F9E43AFA7401223D
:105CEB0024D8F9E43AFA2224BBF9E43AFA229027B1
:105CFB0030F193902736D14FE92402124FD49027DD
:105D0B0035E0FF74A9C39F500374A9F0902735D1D8
:105D1B004F124FC5C003C002C0019027321225425B
:105D2B00124FB1D001D002D003121999124F02E4D5
:105D3B00F5F012230A902735D14FE924B1124FD435
:105D4B00902737E0FEA3E0A3124F8A902739125712
:105D5B00CA902730E0FC90273CF0D157FE640260DC
:105D6B003CD151E924BA123EFEF552B4FF0B9027F9
:105D7B003CE054F84401F08024EE64046006D157F3
:105D8B00FFBF0119EC54077014D151902731E090EB
:105D9B002979F0AF5212550C90273CEFF0124F02BD
:105DAB0012222254EF125662D157FFBF0210124F2C
:105DBB00021222224410FDE5F08DF012230A302C42
:105DCB002EEF64046006D1576406700FF178BF02A2
:105DDB0003D38001C3923FD240800DF178BF020301
:105DEB00D38001C3923FC240124F1BEE4F800B90EA
:105DFB002731E0FF902291E0F16F902731F0D22C08
:105E0B00D14CE924B7124FD4540F122125121B7910
:105E1B00EF6005E49021C9F090273CE0FF124F02A0
:105E2B00E48FF012230AD14C119D124F0212222241
:105E3B00D150E92406F9E43AFA125663D151021B08
:105E4B0083902731E0FF902739022542902731E0DC
:105E5B00540F22122542E924B2F9E43AFA22902790
:105E6B003F1225629027467406F0902742E0FE749D
:105E7B0011D39E4002E14274409E5002E1427F02E8
:105E8B00121B6F9027471257767002E142902746FC
:105E9B00E0302C0DFED23FD240124F1BEE4FF08064
:105EAB000FFFF147E92406123EFEF16F902746F0F3
:105EBB00902743E0F14DE92402124FD4902747126B
:105ECB004F05E475F00212230A902747D15EC003F9
:105EDB00C002C001F147124FB1D001D002D0037FF5
:105EEB0011121999902742E024EFF14DE924B112D8
:105EFB004FD4902747124FC2C003C002C001F147D5
:105F0B00E92411F9E43AFA124FB1D001D002D003CF
:105F1B001219999027471257CA902744E0FEA3E025
:105F2B00902747124F8AD22C902746F185119DF16D
:105F3B004E121B837F0122D22C7F002290273F021F
:105F4B002542FF90274702254224B7F9E43AFA226B
:105F5B0024B9F9E43AFA22FFC262021ABBC262AF59
:105F6B0057021ABB540FC454F0FEEF4E2290273148
:105F7B00E0FE90273CE05407FF22E0FFA3022542FE
:105F8B00FF54F0C4540FFE22EFF0A3EDF0A3022553
:105F9B0062902908122562902907EFF0121B10500E
:105FAB00037F0022902907F18590290BE0902903AC
:105FBB00F090290CE0902904F090290D126A47907B
:105FCB002900122562902904E05437F030E502D203
:105FDB002F902904E04420FEF0C22BAB07C00390A6
:105FEB0029001262B1902903E090271AF0A3EEF07A
:105FFB00902905126347D003AD57E4FF9027141285
:10600B0062A9F07F02121B6F90271E125776605207
:10601B00902714E0FFA3E0FD902717713390271A08
:10602B00E09026CCF090271BE09026CDF090271C1B
:10603B00E0FBA3E09026CECBF0A3EBF090271E1253
:10604B0025429026D0122562902716E0FB11729004
:10605B002721EFF060037F012290271E12254212A9
:10606B001B7E51A47F00229026C8EBF09026D4749F
:10607B0001F0A3EFF09026CDE0FE54C0703C9026CB
:10608B00CCE0FCD3949F40037F00229026C8E0B461
:10609B00FF09ECD3943640037F0022302F0C90265F
:1060AB00CCE0D3942E40037F0022EE20E40C90260C
:1060BB00CCE0D3949740037F002231C6E924B6F994
:1060CB00E43AFAED1221259026C8E0FF31C6E92407
:1060DB00BA124FD4124F7CE4122125302F2FC22F2E
:1060EB00EFF46020121AACEF601A9026C8E0FF1292
:1060FB001AB1EF5407C3940340289026C8E0125FEF
:10610B0062EF701E9026D031CC740180129026CD98
:10611B00E030E60E9026D47404F0124F7C74051216
:10612B0021259026CDE0FE549070129026D4E0B439
:10613B00010B31C6E924DF125CE41221259026C83D
:10614B00E0FDB4FF07EE54FA9026CDF0902168E005
:10615B009026D3F09021687401F0AF051219F3402B
:10616B00079026CDE054FBF09026D3E090216831C8
:10617B00C5E924DF123EFE7005740412212590261A
:10618B00D5E0FF9026D4E0FD9026CCE0902735F0AB
:10619B009026CDE0902736F09026CEE0FBA3E09042
:1061AB002737CBF0A3EB31C5902739122562902608
:1061BB00C9122542125CF97F0122F09026D00225EC
:1061CB0042122542E92403F9E43AFA22902AA81252
:1061DB0025629021D0E06002419B519C2409123E24
:1061EB00FE44011221254402122125519C240A123E
:1061FB003EFEFF540FFE902AABF0EF54F012212518
:10620B0054F0FFEE14540F4F122125125786FF90B6
:10621B002AA8123EF8FEC39FFFC3EE9F2402902ACA
:10622B00ABF0D394A2400374A2F0902AABE0FF51E1
:10623B009C125768124FB17B017A2179EF12199991
:10624B009021F0E054F7F0C22C9021CFE0FF902A80
:10625B00A8125703123EFEFBC0037B017A2179EF94
:10626B0051B4902AABE090271AF0A37481F0A37479
:10627B0063F0A37497F0D003AD5711079021D0EFC3
:10628B00F09002B0E070099021D0E06003121B7413
:10629B0022902AA8122542E922C22FD22C22EFF0FB
:1062AB00A3EDF0A3EB22122542902717022562EFF4
:1062BB006004902296F09021E7E0FF9021D7122501
:1062CB00421219DA9021E7EFF06042202B3F902128
:1062DB00E4E0C330E501D3922F90229751B1902186
:1062EB00E5E090271AF09021DA71257462F0A3741F
:1062FB00BAF09021E7E0FB1103EF701D902296742A
:10630B0002F09021CD712C8E837F02800990229612
:10631B00E09021CD713C12268D22E090271BF0A33B
:10632B0022E0FEA3E0F582221225429026C9022527
:10633B0062FFE0FCA3E0FDF5828C8322E0FFA3E08B
:10634B0090271CCFF0A3EFF022EF540F24FE601622
:10635B0014601714601824037019EF30E7047404E9
:10636B00800E7401800A7402800674038002740527
:10637B00122125229021D5E0D394004008E014F09F
:10638B00D394005006125054124A1922E49021D093
:10639B00F02271BE60189021D6E0FEEF6E600F9078
:1063AB0021D0E0600C902291E054BFB50603D3805E
:1063BB0001C322902291E0FF540F2290281D122539
:1063CB006212256B90282412256212758AE4122121
:1063DB0025C22D9021E2F012763D124FB11269ECDD
:1063EB007F041219992064171242591269E67A2117
:1063FB0079D11257E86008123EF54480122125121C
:10640B003EF530E77430043120156E1269DE240539
:10641B00123EFE20E7631269DE125768E92401126F
:10642B003EFE640370531269DE12576831CF126956
:10643B00E612763D1257E87040E5426403603AE598
:10644B0042B40109902355E0C39402402C1269DE3B
:10645B002405123EFE20E7030268D61269DE240AE9
:10646B00123EFEC4540FFF7E001269DE1257BD317F
:10647B00CF1257DC60030268D61269DE2406123E87
:10648B00FE540FFF9021CFE07E00B402027E80EF1E
:10649B004E902291F0124E1924B7123EFEFF7B0153
:1064AB007A2879207154124E19124F091222225454
:1064BB0007FF124E1924B8123EFE540FFE902820EF
:1064CB00E0540FFDBD04047D4080027D00EE4DFEC7
:1064DB00EF7F00B402027F80EE4F9021D6F012695D
:1064EB00DE2405123EFEFF540F24FE700302680DDE
:1064FB001470030268A124FE70030268CB240460AD
:10650B00030268D6902824123EF8FE740AD39E40EC
:10651B000612758AE4802FEF20E702E1B7902291F3
:10652B00E04440F01269DE240A123EFEC4540FFF11
:10653B00902821F0600BE0D394045005740B9E401F
:10654B000812758A74800221251269DE2409123E15
:10655B00FE30E3527E001269DE1257BD12208AFF15
:10656B00C4540F29F9EE3AFAE912576FC003C0026F
:10657B00C00190281D31CC12258B1269DE240A1222
:10658B003EFEC4540FFFFD7C001269DE12566BE910
:10659B002DF9EC3A125785FE902824123EF8C39F32
:1065AB00C39E24F380381269DE240A123EFEC454C3
:1065BB000FFF7E001269DE1257BDC003C002C0017F
:1065CB0090281D31CC12258B1269DE240A123EFE57
:1065DB00C4540FFF902824123EF824F4C39F902834
:1065EB001D124FCD1269DE2409123EFEFF30E1076A
:1065FB00123EF544208009EF30E208123EF544408C
:10660B001221251269DE2408123EFE65576002E155
:10661B001D1269DE240A123EFE540FFF902821E062
:10662B006F6002C1CE9021D0E06002E11D1269DEE5
:10663B002405123EFE90281D30E607123EF8440D4D
:10664B008005123EF844091221251269DE12566BA1
:10665B007E001257C31275D1FA12208A1275C2121C
:10666B004FD4123EF530E702E11D1269DE2405120C
:10667B003EFE20E702E11D1269DE240A123EFEC433
:10668B00540FFF1269DE1257BD12208AD3940140BA
:10669B0002E11DE92401123EFE640370751269DEEE
:1066AB00240A123EFEC4540FFF1269DE1257BD318D
:1066BB00CF124FB17B017A2279927F04121999D2B2
:1066CB002E804F1269DE240A123EFE540F640F70A7
:1066DB00411269DE2405123EFE30E608123EF544F7
:1066EB0004122125719D501C1269DE240A123EFEF4
:1066FB00C4540FFF12763D12569B5008123EF544C0
:10670B00011221251269DE240B123EFE1275C212F4
:10671B004FD41269DE2404123EFE6557602B124ED5
:10672B0019125E621269E612763D1257E860030297
:10673B0068D6124E1924B6123EFEFF1269DE2404EF
:10674B00123EFE6F60030268D6719D40030268D64D
:10675B001269DE240A123EFEFF540FFE124E19245C
:10676B00BA123EFEFD1269DE2408123EFE6D600376
:10677B000268D61269DE2409123EFE30E01AEFC41D
:10678B00540F24FE540F6E60030268D6123EF512AE
:10679B0076CC7403F00268D6EE640160030268D60F
:1067AB00123EF51276CC7401F00268D61269DE1235
:1067BB005768C003C002C00190281D31CC12258B35
:1067CB00902824123EF824F61269CC2408123EFEBF
:1067DB00FF65576007EFF460030268D6123EF5447D
:1067EB00011269DB2404123EFE1275C21269D62413
:1067FB0005123EFE20E6030268D6123EF544040263
:10680B0068C61269DE2408123EFE541FFF7E00315B
:10681B00DE24091257BFC003C002C00190281D120D
:10682B0061CC12258B31DE2408123EFE541FFF90E3
:10683B002824123EF824F6C39F31CC2408123EFEC6
:10684B0054E0FDE557D39D500201D612208A541F08
:10685B0075F008A42D31F3D3E5579FEE1246F05097
:10686B006A31DE2408123EFE54E0FFC3E5579F1445
:10687B00FF31DE125768EF131313541F31FB54070C
:10688B00FF7401A807088002C333D8FC5E603C127A
:10689B003EF544018025123EF54402122125126378
:1068AB00BE60099021D6E054BF6F701F31DE240803
:1068BB00123EFEB55715123EF54401122125800BF1
:1068CB0090281D122542121B3D922D31DE240512FC
:1068DB003EFEFF540F6401600221C3EF9028243069
:1068EB00E71D122542E9240A123EFEC4540FFF7E17
:1068FB000031DE1257BD12208A902823F08015122A
:10690B002542E92409123EFE902823F0A3122542CA
:10691B00E9125768E92401123EFE902822F0123E3C
:10692B00F5FFAE4220040CEE64036007EE640160D9
:10693B000221C3EF54636401707E902823E0D3944B
:10694B0001506D300472902822E0FE64086069EEFD
:10695B0064096004EEB40404EF30E75C902822E095
:10696B006403704CEF30E75030151131DE1257686D
:10697B001261CF31E631EC1257E8603C31DE125731
:10698B0068E92404123EFEFF31DE125768E9240346
:10699B00123EFE4FFF31DE125768E92405123EFE10
:1069AB004FFF31DE125768E92406123EFE4F600896
:1069BB00123EF554FA122125123EF530E002D22D8B
:1069CB0022FF90281D122542E92406F9E43AFAEF3A
:1069DB00122125902824122542E92290299C022578
:1069EB00627B017A2179D1227C00FFEC35F0FE220B
:1069FB0029F9EC3AFA12208AFEEF22E94A6007895C
:106A0B00828A8312268D22902893122562902897D2
:106A1B00125655FF902903EDF0902897123FF21272
:106A2B003EFE902904F090289A5147902893122506
:106A3B0042125FCAEF7F0060027F0122E0FDA3E0FC
:106A4B00902905CDF0A3EDF022C003C002C0019048
:106A5B00282A12254290270912256290282DE090B2
:106A6B00270CF090282EE090270DF090282FE0FFB8
:106A7B00A3E090270ECFF0A3EFF0D001D002D0030C
:106A8B00AF5790270571AF9027107403F090270D27
:106A9B00E05437F0E0FE54209021E4F090270EE014
:106AAB00FDA3E09021CDCDF0A3EDF071A090229746
:106ABB0012256290270CE09021E5F0902706122515
:106ACB00429021D7122562EE44209021DAF0E49017
:106ADB002296F0C22BF552902706122542AF521286
:106AEB0019DA8F52EF602A7D03121B1540E99027AC
:106AFB000CE0D3941940037F0022AF52121B1050AD
:106B0B00089027107401F080089027107402F08011
:106B1B00C690270CE0D3948240037F00227F0212A1
:106B2B001B6F902711125776605A902705E0FF9044
:106B3B002711122542E924B6124FD490270DE0FEFF
:106B4B0030E01BE49021E7F071A6EE6401A3F0A303
:106B5B007462F074BA7192902710E0FF801E902738
:106B6B0010E0FF71A690270DE0902736F09021CD15
:106B7B00E0FDA3E0902737CDF0ED71927D02125C22
:106B8B00F97F01227F0022A3F0902711122542905A
:106B9B00273912256290270902254290270CE09095
:106BAB002735F022EFF0A30225629021E2E030E1DD
:106BBB001171CE9002B0F0E0D394F9400374F9F068
:106BCB00D2AD22C2AD9024C8E0A3E022E49002B083
:106BDB00F022E49021E6F0C22BC22E9021D0F0D20D
:106BEB002C22AF14EFC36001D322EFC3940E5005D8
:106BFB00900415EFF022E517540FFF22E517C3940D
:106C0B00F050205317F01247B3FE740FC39F40058B
:106C1B00EE940E400543170D8003EF4217E5175412
:106C2B000FFF227F0022E51754F0C4540F2FFFC330
:106C3B00941040027F0FEF902B3093FF227E10EECB
:106C4B0060091EEE902B3093B507F4EEC3940E4003
:106C5B00027E0DEE902B2293FF22C2AFEF4215D294
:106C6B00AF22C2AFEFF45215D2AF227F02916D90DB
:106C7B0002B4E09002BCF09002B404F0C394022280
:106C8B00EF24FE600C24FE600580007F01227F0252
:106C9B00227F0322900424E0A3E0FF2290043EEF26
:106CAB00F0ED24FE60191460262402703BEB2402E5
:106CBB00FFE43AFE7C007D501221597D60801EB1AD
:106CCB001BC333CE33CED8F9FF7C007D28800EB1A9
:106CDB001BC333CE33CED8F9FF7C007D6412216BFE
:106CEB0090043FEEF0A3EFF090043EE0B126C0839A
:106CFB00C0821224DB900440E02401FF90043FE0AB
:106D0B003400FEE4FCFD122329D082D0830224E759
:106D1B00EB2401FFE43AFEEF78032225E025E02483
:106D2B0018F582E43404F58322EFB1261224BF0256
:106D3B0024A5E4900418B154E490041CB15BE4FF67
:106D4B00FEFDFC9004200224E7FFFEFDFC0224E77D
:106D5B00FFFEFDFC0224E77F017E009017FCE4930D
:106D6B005EFE7401935F4E24FFB322900001740109
:106D7B0093B40007E493B41802C322D322EF70112B
:106D8B00ED600775FF0143AE012275FF0153AEFEA7
:106D9B0022EFB40110ED600775FF0143AE022275BF
:106DAB00FF0153AEFD2275FF01434B02434F02859A
:106DBB004F90854BC9D28AC2AAE4FD7F0180BE7574
:106DCB00FF02E5E630E2037F0322E5E630E3037FD3
:106DDB000022E5E630E1037F0422E5E67F0530E0A3
:106DEB00027F0122EF600775FF0253E6BF2275FF9A
:106DFB000243E64022EF14600F1460142402701853
:106E0B008B8075FF018DFD228B9075FF018DC92243
:106E1B008BA075FF018DCA22AF038FB075FF01AF39
:106E2B00058FCB2290297D122562EF14601414601C
:106E3B001E24027027D175E580D17B122542E5FD1A
:106E4B008025D175E590D17B122542E5C98018D1FB
:106E5B0075E5A0D17B122542E5CA800BD175E5B053
:106E6B00D17B122542E5CB022125902980022542B8
:106E7B0012212575FF0190297D22E4F5FFAF9122A8
:106E8B00E4F5FFAF922243FB1075FF0243E640EFA0
:106E9B00600D75FF02E5E120E7FB43FB0D8003432B
:106EAB00FB0E80FEE4F5FF75D102E5D120E0FBE49B
:106EBB00F5D1F5FFEF12475CEE540F42D6E4F5FF28
:106ECB00CFEDCF8FD422E4F5FFEFF5D8E4F5FF53E8
:106EDB00D60FEE540FC4F854F0C8E4C4540F484214
:106EEB00D622E4F5FF8FD422E4F5FFE5D15401332C
:106EFB00333354F8FFE4F5FFE5D354074FFF2290EB
:106F0B002AACF1377A2A79AEF1485014902AAEE0C8
:106F1B00FEA3E0FF902AADE09F902AACE09E400BD1
:106F2B00902AACE0FEA3E0FF1235A622EEF0A3EF11
:106F3B00F07B01227FE87E03F10A0234EAF15DADBA
:106F4B0094EF4DF1698FF012230AE591C330E701FD
:106F5B00D32275FF03AF93EF75F010A4FF2224FB30
:106F6B00FFE5F034FF22902B1D1237F87F017C12C6
:106F7B007D01E4FEED2EF582E43CF583E02FFF0E60
:106F8B00EEB412F0901213E06F600A902B1D1237C3
:106F9B00CBE412212522E4F5FF75C2E17F1EF1BC83
:106FAB0030E707E4F5FF75C2A122E4F5FF75C28156
:106FBB0022FE12370790120FE022C25175FF0375A4
:106FCB009B1F75FF0390120FE0FF20E71BE59A5400
:106FDB000FC394024012EF4480F0E4F5FF75C2A199
:106FEB0043FC0475FF03D251E5FC30E609E59A54E6
:106FFB000FC3940540CCE5FC30E611E41221257556
:10700B00FC80F5FC75FC40E5FC20E6FB30510312DF
:10701B0032AF2290269F1224E7E4F5FF75BB05756E
:10702B00BB8575FF0175D502205206123695126F7E
:10703B00A175FF0143D52030520201E6E4F5FF5361
:10704B008EF7438E077D04E4F5FF8DBCF5FF43B14E
:10705B0002E5B130E2FBE4F5FFAFDFEFFEACDEECB7
:10706B00FBEBFFED25E0249DF582E43426F583311F
:10707B000DF5FFF5FF53B1FD0DEDB40CCA90269F36
:10708B00123166780912247FA3310DFDED25E02422
:10709B00A7F582E43426F583E0C313FAA3E013FBD0
:1070AB003100E0C313FEA3E0132BFFEE3AFE3100D9
:1070BB00EEF0A3EFF0ED240490120DF0EDC3940766
:1070CB005019CFEDCF0DEF3101E0FEA3E0FFC390E0
:1070DB0026A4E09F9026A3E09E50B1E4F5FF758EA9
:1070EB00C8F5FF90120DE0F5BCE4F5FF75BB80759C
:1070FB00FF01F5D522ED25E024A5F582E43426F534
:10710B008322EEF0A3EFF0E422EF30E00E43F40124
:10711B00E4F5FF43A404F5FF759624EF30E10E432D
:10712B00F401E4F5FF43A408F5FF759624EF30E274
:10713B000943F402E4F5FF75961EEF30E30943F4BF
:10714B0004E4F5FF75961075FF01EF5403600475A9
:10715B00D7122275D72D22E4F5FF7584E6F5FF4390
:10716B009404F5FF75981422E4F5FF75933F75FFB2
:10717B0003759A403162E4F5FF759C93F5FF75A199
:10718B00A3F5FF758531F5FF758628E5FA54304474
:10719B0080F5FA75FF0175E74A75FF0275DF4975D2
:1071AB00FF0143D30475FF0153D367E4F5FF53E6A7
:1071BB00BF75FF0175D825F5FF75B503F5FF75B2E2
:1071CB0015F5FF75BA02F5FF75AFB3F5FF75CD0A6F
:1071DB00F5FF75CB08F5FF75CA12F5FF75BF0EF5F8
:1071EB00FF75CC96F5FFF5BDF5FF75C281F5FF7503
:1071FB00AEE1F5FF75DA55F5FF75F580F5FF75E92D
:10720B0003F5FF75E933F5FF75972A75FF01759B3C
:10721B0042759CA4759D29759E48759F2475A11276
:10722B0075A312759AF820540CF5FF4396809012B3
:10723B000FE04440F022CCEFCCCFEDCF74017E00B9
:10724B00C8EFC8088005C333CE33CED8F9FFCDECD9
:10725B00CDEF5D601B30531875FF0175DCAD75FF0D
:10726B000175DDCDE4F5FF759A74F5FF75948422F5
:10727B0075FF0175DC5375FF0175DD33E4F5FF75A3
:10728B009A14F5FF7594042275FF0175E46575FF7B
:10729B000175D64722E5FA30E1FB75FC8075FF01DD
:1072AB0053D5EFE4F5FC75FC401236A5E5FC20E662
:1072BB00FB2275FF01E5D530E602C32253FACFEF6F
:1072CB00B4080543FA308012EFB4040543FA20806A
