:020000040000FA
:0A1800000229041A7A1A7F227FB829
:01180A00FFDE
:0F180B000266235A2D5761766520342E33340040
:01181A00FFCE
:0F181B0002666C19B219BC19C119C619CB19DABA
:01182A00FFBE
:10182B0002504AEF90183793901900730A20364CE8
:10183B00E562FF22EFF56222822D1C1613111010A8
:10184B000248C2C2D5E830E70FB2D5E4C39BFBE434
:10185B009AFAE499F9E498F8EC30E717B2D5121834
:10186B008412254CE4C39BFBE49AFAE499F9E498BF
:10187B00F8800312254C30D50DE4C39FFFE49EFE88
:10188B00E49DFDE49CFC22788CE4F6D8FD900000EE
:10189B007F007E10E4F0A3DFFCDEFA904FFFA3E5A0
:1018AB0083C394204011FEAF829020000E0FE48082
:1018BB0002F0A3DFFCDEFA12192002291622323FB6
:1018CB00241E16110E0B09070504030201F0C8A70D
:1018DB00917767604638353230242220140001019D
:1018EB000202030304040505060607071B791B7E8A
:0418FB001B831B88A8
:0118FF00FFE9
:10190000C0627419C0E0C082C08375620AE5FF54EA
:10191000CF4490F5FF22C0627419C0E0C082C0833A
:10192000756220E5FF54CF4490F5FF22C062741920
:10193000C0E0C082C083756236E5FF54CF44A0F595
:10194000FF22C0627419C0E0C082C08375624CE59A
:10195000FF54CF44B0F5FF22909824211690A92F70
:10196000211690A93F211690B021211690B0242174
:101970001690B7F7211690C010211690986C21167A
:1019800090C1E9211690C1F42116908F7221169012
:101990009845211690A3E3211690C2D4211690C534
:1019A000AF211690A4A7211690C5DB211690C5F98A
:1019B000211690C7C0211690C85F211690BD6D21D9
:1019C0001690C8F8211690C9102116909714211668
:1019D00090C4B9211690C976211690A11C211690A9
:1019E00090D2211690CAC6211690CADB211690CA41
:1019F000ED211690BF84211690CD4A211690CD611D
:101A0000211690CD8F211690C504211690CDAD21C1
:101A10001690A39B211690CEA7211690A39921166C
:101A200090CFDC211690CF04211690A308211690A8
:101A3000A277211690CF81211690BF39211690B739
:101A40002E211690B816211690CDF5211690D1DAD8
:101A5000211690AE3A211690CFBF211690D0BE210C
:101A60001690D21A211690D25F211690D27D21169F
:101A700090D2CD211690D2D3211690D32321169047
:101A8000D332211690BF17211690C013211690C58E
:101A900069211690C55F211690800021429080F840
:101AA0002142908133214290818621429081F2210E
:101AB000429083D32142908459214290851A214239
:101AC000908627214290870B214290948C212C9064
:101AD000E029212C90E248212C90E258212C90E220
:101AE00068212C90E278212C90E288212C90E294BD
:101AF000212C90E29A212C90927C212C90E167215C
:101B00002C90E2CF212C90E380212C9087C8212CAF
:101B1000909518212C90E51C212C90E5BA212C9051
:101B2000E64A212C90E6BE212C90E6C8212C90EAB2
:101B300054212C90EC0D212C90D706212C90EF7481
:101B4000212C90EFF1212C90F0D1212C90C19821E3
:101B50002C90C832212C90C4A2212C90F3C4212CAB
:101B600090C348212C90A2CE212C908E7B212C90CA
:101B7000F416212C90BE12212C90F647212C90F6C1
:101B80004C212C90F658212C90F66C212C90B8A466
:101B9000212C90D2DD212C90AFF6212C90F67121D2
:101BA0002C90F68B212C004102B200410415060155
:101BB00014004104140141041301C123011A00015E
:101BC0001700412BEC00C12FC126C116412746004A
:101BD0004127ACFF4127A400C115C1144127AD0026
:101BE0004127AE004127A501C11841274500C11C6E
:101BF000013000C119C11A41310600C140432F40D4
:101C0000000000412F3F00412F4300C127C129415F
:101C100024BB0046244E5A0171052603605C23E86C
:101C20002001200142617369632073657400000024
:101C300000000000000000000000000000000000A4
:101C40000000000000000000000000000000200173
:101C50002001426173696320736574000000000015
:101C60000000000000000000000000000000000074
:101C700000000000000000000000000046244502B3
:101C800001020302024824A3060006000C000C0017
:101C90004C2468110104FF29A7070103FF29AB4366
:101CA0002474020000C10541247FFFC1034123CBFE
:101CB00000C10241247EFFC1044123C3FF4124AB84
:101CC000FF4124650041247D0041244DFF41247AD9
:101CD0000041247B004123DDFF4124B600412484E0
:101CE0000041246300412462004124B4FFC10B4140
:101CF00024B8FF4123C0004123C9FF4923DE4C69BA
:101D000066656C696E650046249500000000000061
:101D10004624AD0000000000004324770102034187
:101D2000249CFF41244B0041249D0041244C004150
:101D300024A25A4124B3004F2485FF29C011FF2952
:101D4000D101FF29D211031101C107C108C1094105
:101D500023CA004123CC004123CD00C100412464AB
:101D6000004124B7004124A0004124AC004123C21B
:101D700000412B3DFF412B3FFF412B45FF412B40B5
:101D800000C11FC11D4130DE00412A7B00412A787D
:101D900000412A8900412A7F00412A8B00412A867E
:101DA00000412A7C00412A8A00412A8000412A857C
:101DB00000412A73FF412A7500412A7400412A8795
:101DC00000412A7E00412A7D00412A7A00412A836F
:101DD00000412A77FFC145412A8102412A82004100
:101DE0002A88A6422ED10000412ED300412ED400D5
:101DF000412ED000412ECFFFC12AC12CC12B412042
:101E000000004121010041220200412203FF412242
:101E1000010060FF20010000000000000000000041
:101E200000000000000000000000000000000000B2
:101E300000000000000000000000000000000000A2
:101E40000000000000000000000000000000000092
:101E50000000000000000000000000000000000082
:101E60000000000000000000000000000000000072
:101E70000000000000000000000000000000000062
:101E80000000000000000000000000000000000052
:101E90000000000000000000000000000000000042
:101EA0000000000000000000000000000000000032
:101EB0000000000000000000000000000000000022
:101EC0000000000000000000000000000000000012
:101ED0000000000000000000000000000000000002
:101EE00000000000000000000000000000000000F2
:101EF00000000000000000000000000000000000E2
:101F000000000000000000000000000000000000D1
:101F1000000000000060FF2102000000000000003F
:101F200000000000000000000000000000000000B1
:101F300000000000000000000000000000000000A1
:101F40000000000000000000000000000000000091
:101F50000000000000000000000000000000000081
:101F60000000000000000000000000000000000071
:101F70000000000000000000000000000000000061
:101F80000000000000000000000000000000000051
:101F90000000000000000000000000000000000041
:101FA0000000000000000000000000000000000031
:101FB0000000000000000000000000000000000021
:101FC0000000000000000000000000000000000011
:101FD0000000000000000000000000000000000001
:101FE00000000000000000000000000000000000F1
:101FF00000000000000000000000000000000000E1
:1020000000000000000000000000000000000000D0
:1020100000000000000000004B2D520000000000F6
:10202000000000000000432F5D000000432C8B00E7
:102030000000412C8800412C8E00412C87FF443049
:102040003800000000412B7D00412B8600412B8A87
:1020500000412B8900412B8500412B8000422B7EC3
:102060000000422B8C000043295C00000041295FE6
:10207000004128980041289701C1CDC14E412DFE55
:1020800000413002FF41300104C1CF412FFF00E089
:102090000C0262E200637D34494D30340520042295
:1020A000609627FC00000000000000000000000017
:1020B0000000000000000000000000000000000020
:1020C0000000000000000000000000000000000010
:1020D0000000000000000000000000000000000000
:1020E00000000000000000000000000000000000F0
:1020F00000000000000000000000000000000000E0
:1021000000000000000000000000000000000000CF
:1021100000000000000000000000000000000000BF
:1021200000000000000000000000000000000000AF
:1021300000000000000000000000412A7228512A1F
:10214000510000000000000000000000000000003E
:102150000000422C960000422C980000472C8F0073
:10216000000000000000412C9A0243268400000079
:1021700041268C0041268F00412690004126BBFF5E
:10218000C15160C824D30064006B0073007A0082E0
:1021900000890091009800A000A700AF00B700BE22
:1021A00000C600CD00D500DC00E400EB00F300FB2E
:1021B0000102010A0111011901200128012F013733
:1021C000013E0146014E0155015D0164016C017340
:1021D000017B0182018A0192019901A101A801B04C
:1021E00001B701BF01C601CE01D501DD01E501EC5A
:1021F00001F401FB0203020A021202190221022960
:1022000002300238023F0247024E0256025D02656A
:10221000026C0274027C0283028B0292029A02A177
:1022200002A902B002B802C002C702CF02D602DE83
:1022300002E502ED02F402FC0303030B0313031A8D
:102240000322032903310338034003470348412491
:10225000CD0141259C034124D00141259E03412409
:10226000BC014124D10341259F014124CE034124D7
:10227000D20041259D004124C9004124C8FF4125C9
:102280009B0000BB010689828A83E0225002E7227C
:10229000BBFE02E32289828A83E49322BB010CE520
:1022A0008229F582E5833AF583E0225006E925820A
:1022B000F8E622BBFE06E92582F8E222E58229F54E
:1022C00082E5833AF583E49322BB010989828A83FC
:1022D000F8E028F022500327F722BBFE05F8E32898
:1022E000F3228A838982F8E4932822BB010FF8E560
:1022F0008229F582E5833AF583E028F0225009C56A
:102300008229F8E58226F622BBFE09C58229F8E279
:102310002582F222F8EA2583F583E9932822BB017E
:102320000689828A83F0225002F722BBFE01F32243
:10233000F8BB010DE58229F582E5833AF583E8F0E3
:10234000225006E92582C8F622BBFE05E92582C88F
:10235000F222EF8DF0A4A8F0CF8CF0A428CE8DF05F
:10236000A42EFE22BC000BBE0029EF8DF084FFAD31
:10237000F022E4CCF875F008EF2FFFEE33FEEC33DB
:10238000FCEE9DEC984005FCEE9DFE0FD5F0E9E4D7
:10239000CEFD22EDF8F5F0EE8420D21CFEADF075F6
:1023A000F008EF2FFFED33FD4007985006D5F0F20F
:1023B00022C398FD0FD5F0EA22C5F0F8A3E028F07B
:1023C000C5F0F8E582158270021583E038F022A38B
:1023D000F8E0C5F025F0F0E582158270021583E083
:1023E000C838F0E822BB010A89828A83E0F5F0A3AD
:1023F000E022500687F009E71922BBFE07E3F5F05B
:1024000009E3192289828A83E493F5F07401932207
:10241000BB0110E58229F582E5833AF583E0F5F00A
:10242000A3E0225009E92582F886F008E622BBFEE7
:102430000AE92582F8E2F5F008E222E5832AF5832D
:10244000E993F5F0A3E99322BB010DC58229C5826A
:10245000C5833AC5830223B95011C58229F808E51E
:10246000F026F618F5F0E58236F622BBFE11C5829D
:1024700029F808E225F0F5F0F218E23582F222F8A8
:10248000E58229F582E5832AF58374019325F0F529
:10249000F0E4933822BB010A89828A83F0E5F0A335
:1024A000F0225006F709A7F01922BBFE06F3E5F06B
:1024B00009F31922EF2BFFEE3AFEED39FDEC38FC63
:1024C00022E88FF0A4CC8BF0A42CFCE98EF0A42C95
:1024D000FC8AF0EDA42CFCEA8EF0A4CDA8F08BF0E1
:1024E000A42DCC3825F0FDE98FF0A42CCD35F0FCDF
:1024F000EB8EF0A4FEA9F0EB8FF0A4CFC5F02ECDAB
:1025000039FEE43CFCEAA42DCE35F0FDE43CFC228F
:1025100075F008758200EF2FFFEE33FECD33CDCC82
:1025200033CCC58233C5829BED9AEC99E582984005
:102530000CF582EE9BFEED9AFDEC99FC0FD5F0D6E2
:10254000E4CEFBE4CDFAE4CCF9A88222B800C1B90C
:102550000059BA002DEC8BF084CFCECDFCE5F0CB4A
:10256000F97818EF2FFFEE33FEED33FDEC33FCEB83
:1025700033FB10D703994004EB99FB0FD8E5E4F93E
:10258000FA227818EF2FFFEE33FEED33FDEC33FC2B
:10259000C933C910D7059BE99A4007EC9BFCE99A1F
:1025A000F90FD8E0E4C9FAE4CCFB2275F010EF2F64
:1025B000FFEE33FEED33FDCC33CCC833C810D70764
:1025C0009BEC9AE899400AED9BFDEC9AFCE899F89F
:1025D0000FD5F0DAE4CDFBE4CCFAE4C8F922EF5BE6
:1025E000FFEE5AFEED59FDEC58FC22C3E49FFFE4D8
:1025F0009EFEE49DFDE49CFC22EB9FF5F0EA9E42EA
:10260000F0E99D42F0E89C45F022E8600FECC3132E
:10261000FCED13FDEE13FEEF13FFD8F122E8600F7F
:10262000EFC333FFEE33FEED33FDEC33FCD8F12284
:10263000BB010789828A830226725005E9F80228C5
:1026400046BBFE05E9F802285222E0FCA3E0FDA308
:10265000E0FEA3E0FF22E493FC740193FD74029377
:10266000FE740393FF22E0F8A3E0F9A3E0FAA3E0ED
:10267000FB22ECF0A3EDF0A3EEF0A3EFF022A88292
:102680008583F0D083D08212269512269512269546
:10269000122695E473E493A3C583C5F0C583C8C52A
:1026A00082C8F0A3C583C5F0C583C8C582C822F51A
:1026B000F0C582A4C582C5F0C583A42583F5832215
:1026C000A42582F582E5F03583F58322E0FBA3E0C3
:1026D000FAA3E0F922F8E0FBA3A3E0F925F0F0E586
:1026E00082158270021583E0FA38F022EBF0A3EA3B
:1026F000F0A3E9F022BB010789828A830226CC502D
:1027000005E9F802285EBBFE05E9F8022870898217
:102710008A83022882BB011A89828A83D0F0D0E0A2
:10272000F8D0E0F9D0E0FAD0E0FBE8C0E0C0F00279
:1027300026EC5016E9F8D083D082D0E0F9D0E0FA48
:10274000D0E0FBC082C083022867BBFE16E9F8D048
:1027500083D082D0E0F9D0E0FAD0E0FBC082C08321
:1027600002287922BB010DE58229F582E5833AF53D
:10277000830226CC5007E92582F802285EBBFE07BB
:10278000E92582F8022870E58229F582E5833AF589
:1027900083022882BB0120E58229F582E5833AF590
:1027A00083D0F0D0E0F8D0E0F9D0E0FAD0E0FBE858
:1027B000C0E0C0F00226EC5018E92582F8D083D0A2
:1027C00082D0E0F9D0E0FAD0E0FBC082C0830228DA
:1027D00067BBFE18E92582F8D083D082D0E0F9D01B
:1027E000E0FAD0E0FBC082C08302287922D083D0F7
:1027F00082F8E4937012740193700DA3A393F8749C
:102800000193F5828883E4737402936860EFA3A355
:10281000A380DF8A838982E473EC8EF0A4CCC5F0B8
:10282000CCCDF8EFA4CEC5F02DFDE43CFCE8A42E01
:10283000C8C5F03DFDE43CFCEFA4FFE5F028FEE454
:102840003DFDE43CFC22ECF608EDF608EEF608EF60
:10285000F622ECF208EDF208EEF208EFF222E6FBC7
:1028600008E6FA08E6F922EBF608EAF608E9F622A5
:10287000E2FB08E2FA08E2F922EBF208EAF208E9E0
:10288000F222E493FB740193FA740293F922901BF1
:10289000A7E47E0193700122A3FF543F30E5095461
:1028A0001FFEE493A360010ECF54E0B4E03AEFFAC8
:1028B000EEF9E493FBA3E493FEA3E493FFA3E49374
:1028C000FDC083C082C001C002C006C00712197BD0
:1028D000D007D006D002D001D082D083A30FEF70F2
:1028E000010EDADAD9D880A954C025E0601050056D
:1028F000A3DFFD809CA3A3A3DFFDDEFB8093A3A346
:10290000DFFD808D75818C75FF03759E0212192085
:102910000238EA0218C8901BA7E47E019360F4A372
:10292000FF543F30E509541FFEE493A360010ECF2E
:1029300054E0B4E00EEFFAEEF9A3A3A3A3DAFDD9B5
:10294000FB80D654C025E0604B5026E493A3F85496
:1029500007240CC8C333C4540F4420C8834004F474
:1029600056800146F6DFE480B001020408102040E2
:1029700080E493A3FAE493A3F8E493A3C8C582C8C0
:10298000CAC583CAF0A3C8C582C8CAC583CADFE95D
:10299000DEE78085E493A3F8E493A34003F6800187
:1029A000F208DFF40229195E5926205E59715E7221
:1029B0005A7326272B2C708671608E85597A5600A3
:1029C0005E725A7326272B2C708671608E85597A19
:1029D00056005E725A7326272B2C708671608E8586
:1029E000597A561ACF1AD41AD91ADE1AE31AE81AE3
:1029F000ED1AF21AFC1B241B29000DFA20000DDC35
:102A00007000000000020C00013F3F3F0404041965
:102A1000F819FD1A021A071A0C1A111A1B1A2AA2FF
:102A200071637D65264F0A65701B421B471B4C1B5B
:102A3000561B5B1B601B381B3D1B651B6F1B9C1BC8
:102A4000A11A4D1A571B33902CDFECF0A3EDF09038
:102A50002F17EFF0902F157403F0A374EEF0902C65
:102A6000E9E0FDC374EE9D902F16F074039400907E
:102A70002F15F0126A93435A40855AB0EF600261F5
:102A80004BEB75F004A4FF902CDF126A0C95F0401C
:102A9000037F0122EB75F004A42DFFEC35F0FED38B
:102AA000EF94F4EE940140037F0322EBD394FA40B9
:102AB0000E75FF0275AAFA902F1A74FAF0800A7543
:102AC000FF028BAA902F1AEBF0D117D3902CE0E0E5
:102AD0009D902CDFE09C402075FF02902F1571E93E
:102AE000EF7806CEC313CE13D8F9540C42A7902F1B
:102AF00018ECF0A3EDF0802575FF02902CDF71E952
:102B0000EF7806CEC313CE13D8F9540C42A7902CFD
:102B1000DFE0FFA3E0902F18CFF0A3EFF0902CE6BA
:102B2000E07002A3E0700F902CE2E0B40108902C5A
:102B3000E6E4F0A304F0902F1AE0FF7E007C007D15
:102B40001C122352F1C250377F0222902F17E0B49B
:102B50000115B1F585A7A7F1EDE07802CEC313CE3C
:102B600013D8F9F5AB8018F1EDE0B1F9F1D2E471C9
:102B7000EE85A7A775FF02F5AB75FF0275AA017573
:102B8000FF02902CE5E05401C43333335480FF90AE
:102B90002CE2E05403C43354E04FFFA3E05401C4DB
:102BA00054F04FF5A575FF02902CE8E05401C45491
:102BB000F0FF902CE4E054014F4420F5A675FF028D
:102BC000902CE6E0FEA3E0FFF5A975FF0253A7CF26
:102BD00075FF02126766543042A775FF0243A501D4
:102BE0007F002275FF02902E7BE0FEA3E0FFF5AC94
:102BF00075FF0253A7F375FF0222F1E4E5A530E06B
:102C0000037F0122902F17E06002A158902E7B12C3
:102C10006A8C7008902E7FF0A3F0800F902F18E040
:102C2000FFA3E0902E7FCFF0A3EFF01269E57802CA
:102C3000CEC313CE13D8F97802C333CE33CED8F92E
:102C4000FFC3ED9FEC9E5002F1E4D10FC39FEC9EB9
:102C5000400EED9FFFEC9E902E7DF0A3EFF08007DD
:102C6000E4902E7DF0A3F01269E57802CEC313CE76
:102C700013D8F97802C333CE33CED8F9FFF1B6506A
:102C800046902F1AE075F004A4FBAAF0FDAC029068
:102C90002E7DD10874F89FFF74019EFE122364A953
:102CA00007902E81E9F0AD03AC027E00122352F1B1
:102CB000B65006902E81E004F0902E81E0D3940768
:102CC000400A7407F08005E4902E81F0902E7DD1AB
:102CD00008902F16E09FFF902F15E09EFEEF7802E0
:102CE000CEC313CE13D8F9FF902E81E0FD902F1A9A
:102CF000E08DF0A4FEC3EF9EFC75F004A4FF902FBE
:102D000018E0FAA3E0FBD39FEA95F04012EB24030E
:102D1000FFE43AFEEF7802CEC313CE13D8F9FC7568
:102D2000FF02ED25E0540EFFE5A654F14FF5A67520
:102D3000FF02902E7DE0FEA3E0B1F9F1D2D1337114
:102D4000EEEF7806CEC313CE13D8F9540C42A77514
:102D5000FF02AF048FABA1F3902E7BD10894E8EE75
:102D600094035009D117C3EF9DEE9C401775FF02E5
:102D700075ACE871F043A70C75FF0275AAFBE4FF80
:102D8000F1F7806F75FF02E5A520E1047F01F1F7FF
:102D9000902F17E06401701A71E3EF7806CEC31329
:102DA000CE13D8F9F1A8E07802CEC313CE13D8F928
:102DB000803ED10FC39FEC9E4014F1ACE0FFFBEDD1
:102DC0009BB1F9C3ED9FEC9E540342A78005B1F57A
:102DD00085A7A771E3EF7806CEC313CE13D8F9F118
:102DE000A8E07802CEC313CE13D8F9F5AB75FF0275
:102DF00004F5AA61DA75FF02E4F5AD75FF0253A789
:102E0000FC75FF0222902E27E0FEA3E0FFC3229074
:102E10002E7BE0FEA3E0FF902F15E0FCA3E0FD2257
:102E2000E025E025E02401F582E43412F583E0FC9E
:102E3000A3E0FDA3E0FEA3E0FF22902A8E122672FB
:102E400075FF0243E18012472E1247A0902AA31279
:102E5000267E002DC6C0E4F5FFF5A490120EF0A367
:102E6000F0902A9E7402F0F1CAFFF595EF146013FA
:102E700014601C24027027902A8ED12EF1A2902A71
:102E80009A8016902A92D12EF1A2902A9B800A90C5
:102E90002A96D12EF1A2902A9CE0902AA7F0125DEA
:102EA00056902AA7E0700FF5FFF59675FF0175D7CC
:102EB0000975F418805790120EE004F0902A9EE0F5
:102EC000126AD6902AA3D12E902A9F125745C31278
:102ED00025F95009902A9FD12EA3122672902AA775
:102EE000E0FF125BD7902A9DE0FFA3E0FDA23A929B
:102EF00038125D04A3D12E902FAA122672902A9E1A
:102F0000E0FF125D63902A9ED120125B9BF1DB6093
:102F100002C1677402F0F1CAF595E5F45407701A1E
:102F2000902AA31247C8780112260A902A9E1247B7
:102F300090122672EBD121125B9BF1DB70D875FFEA
:102F400003759580126A4E400343F420A23A9239E9
:102F5000125C36902AA3126A622420FFEE344E12CD
:102F600047EAE4FB7A04F9F81247D8780112260AF6
:102F7000C23712431BE4F5FFE5BD54F84404F5BD28
:102F80009012137401F07E127F01E4FDEF2DF582A3
:102F9000E43EF583E0FC901213E02CF00DEDB4124A
:102FA000EB22902A9F022672540C42A775FF0290D2
:102FB0002E7BE0FEA322902E7EE02FFF902E7DE060
:102FC0003EFEC3EF94F8EE94012275FF03902A9E13
:102FD000E022EE540342A775FF0222902A9EE0FFF2
:102FE00014F0EF22902E7BEEF0A3EFF02275FF029B
:102FF000902F15E0FEA322EFB4010A75FF0243A54E
:103000000243A5012275FF0253A5FD22EF60097559
:10301000FF0243A508D2E82275FF0253A5F7C2E8D4
:103020002275FF0243A5042275FF02E5A54404139F
:1030300013543F24FF22E4F97D0CAC0109EC9018F5
:103040000E93FC0FEFAA0670010E14F5828A83EC32
:10305000F0DDE77F03228F828E83E4F0A3740411F6
:103060006974221169A3E4F022F08F828E83A3A3F6
:103070002211D0121A841219E412195D9002B3E0E1
:1030800064017F0060027F01121A39121A3E121980
:10309000B71269817A0279B612196CF1EDFE4FFD13
:1030A000A3E0FC4DFDA3E0FB4D600BEE5FFFEC5F8A
:1030B000FFEB5FF47003123E9D90121CE0FF54037F
:1030C00024B6F582E43402F583E06F9002B1F02279
:1030D0007A2B79E47F0312698D7A2B79ED7F0812C0
:1030E0006AB07A2B79EA7D027F09121AA27B017AF3
:1030F0002B79E87D027F0B121AA2902BE8E0FEA349
:10310000E0FF4E6006BEFF1BBFFF18902BEDE024D2
:10311000FD6003047004F1AC8009902BE8E4F0A397
:103120007440F0902BEDE024FD6003047008902BB8
:10313000E57403F08006902BE57402F0902BE4E038
:103140001227ED315F04316A14317215317A17316B
:10315000903031983431A03631A837000031857570
:10316000FF015353EF8553FD804775FF015354EF23
:10317000800E75FF015354DF800675FF0153547FA5
:103180008554C9802C75FF015355DF8555CA8021B0
:1031900075FF015356FE801675FF015356EF800EE2
:1031A00075FF015356BF800675FF0153567F855644
:1031B000CB71497F11D12FE4FFB1DB51AE902BE2EF
:1031C0007402F0902BE6E0247F6009047015D14171
:1031D000740A8006B1B0D1417458F0902BE57403A5
:1031E000F0F1AC902BE7E0F460024185902BEAE02F
:1031F000FEA3E0FF64104E7006902BE7740EF0EF14
:1032000064204E7006902BE7740FF0EF64404E7010
:1032100006902BE77410F0EF64804E7006902BE759
:103220007411F0E4B5070AEEB40106902BE77412AE
:10323000F0E4B5070AEEB40206902BE77413F0E44D
:10324000B5070AEEB40406902BE77414F0E4B50752
:103250000AEEB40806902BE77415F0E4B5070AEE01
:10326000B41006902BE77416F0E4B5070AEEB4200C
:1032700006902BE77417F0E4B5070AEEB440069009
:103280002BE77418F0D12071C4EF6004D10B80F7E4
:10329000713D91A27F0151A67F0351A67149E4FFC0
:1032A000811012264AE4E5C820E2FB8FEB227F0161
:1032B00091109030F57401F09030F5E06035D13B1D
:1032C00071319030F5EFF07149D1357131902BDFCC
:1032D000712F902BE0EFF071499030F5E05401F13F
:1032E0009060D5A3E0F460D0EF30E7CCE49030F507
:1032F000F080C591A27F9F51A67131902BE1712F73
:10330000902BE6712F902BE7EFF0910C902BDFE0E4
:10331000F4601BA3E0F46016902BE6E0FD541F243C
:103320000FA3F0EDC41354074480902BE6F022EF76
:10333000F07FFF51A6E5C820E2FBAFEB227F0191B1
:1033400010D23591A27F0651A6F1E0EF70FB902BD1
:10335000E6E0F4600A9030F47406F0F17370FC90CB
:103360002BE4E01227ED338204338A14338F1533B4
:10337000941733A43033A93433AE3633B337000057
:10338000339C435710855780802F43581080084343
:1033900058208003435880855890801D43592085CC
:1033A00059A08015435A01800D435A108008435A92
:1033B000408003435A80855AB09030F4740CF0F189
:1033C0007370FC227F019110303514D13B71319024
:1033D00030F7EFF071499030F7E020E002C235306D
:1033E000351ED1357131902BDF712F902BE0EFF12D
:1033F00090600BA3E0F46006EF30E702C23571493C
:10340000E4FF9110A235E433FF2251A67149E4FF95
:10341000EFB4010443FE202253FEDF22902FA412BA
:103420002672902FA412264A9167902FA8E06F6011
:1034300034D12071C4EF6004D10B80F7713D91A2AB
:10344000902BE2E0FFB1D26007902FA4D15351A698
:10345000902FA4D14951A6902FA451A2902FA8E05B
:10346000FF910AD322C322902F9F122672D120717E
:10347000C4EF6004D10B80F7B1CA6007902F9FD1D1
:103480005351A6902F9FD14951A6902F9F51A271C1
:1034900031902FA3EFF0910C902FA3E0FF227F013A
:1034A0009110902BE4E01227ED34C50434CD143490
:1034B000D21534D71734E73034EC3434F13634F6DF
:1034C00037000034DF5357EF855780802F5358EF74
:1034D00080085358DF800353587F855890801D53D0
:1034E00059DF8559A08015535AFE800D535AEF803D
:1034F00008535ABF8003535A7F855AB07F0CDFFEB2
:1035000022902DA4122672902DA81226ECD12071A3
:10351000C4EF6004D10B80F7713D91A2902BE2E0E3
:10352000FFB1D26007902DA4D15351A6902DA4D104
:103530004951A6902DA412264AE4801B902DABF190
:10354000A26018902DA81226CCEA494B6007902D56
:10355000A8F1988001E4FF51A680E17149E4FF8160
:1035600010902DAD122672902DB11226ECD1207143
:10357000C4EF6004D10B80F7B1CA6007902DADD1C4
:103580005351A6902DADD14951A6902DAD51A29089
:103590002DB4F1A260147131902DB11226CCEF122E
:1035A000231E902DB21250B380E57149E4FF8110C3
:1035B000902BDFE020E012919E7F3D51A67F2A51A3
:1035C000A67F8051A67FA6910A227F01911091A229
:1035D0007F0351A6902BE5E06402229030F6EFF0D5
:1035E000902BEDE064027022919E9030F6E07FAB6C
:1035F00060027FB951A671499030F6E0902BECF053
:1036000070047F1EDFFEE4FF911022E51530E20F0B
:10361000E51520E50AE51530E0057F01123BEE22B5
:1036200075FF02E5E430E10675E40675E40322EF78
:103630004420F5FE2291A27FD741A691A27F0541A9
:10364000A67F10D12F902BE22212264A780812264C
:103650000AE42212264A781012260AE422902D2625
:10366000122672902D2A1226ECF16D902D2D125BF0
:103670002B902D2612264A125A915002E127902BA8
:10368000E9E024FFFF902BE8E034FFFEE4FCFD902E
:103690002D261226661225DE902D2FEEF0A3EFF0D8
:1036A0004E6038902D2F122E08902BE9E09FFF904E
:1036B0002BE8E09EFE902D2FF0A3EFF0902D2D1221
:1036C0006A0C9E5006A3ECF0A3EDF0F129E94A60E4
:1036D00004F17B80457E007F00803F902D2DE0FE31
:1036E000A3E0FF4E603F902BE8E0FCA3E0FDD3EFAA
:1036F0009DEE9C400A902D2FECF0A3EDF0800D90F4
:103700002D2DE0FFA3E0A3CFF0A3EFF0F129E94ACC
:103710006004F17B80047E007F00902D2BEE8FF003
:103720001223B980B6D322C322902D2A1226CC9020
:103730002D2FE0FFA3E0902DABCFF0A3EFF0902D65
:103740002612264AB101902D2FE0FEA3E0FFC39080
:103750002D2EE09FF0902D2DE09EF0902D2612262C
:1037600066E4FCFD1224B4902D26122672902D2AB8
:103770000226CC9030F4E014F0E022902D2FE0FEF1
:10378000A3E0FF22D12071C4EF6004D10B80F722A7
:10379000F0902BDFE0FFF422E475F0011226D50251
:1037A000228374FFF5F01223CF45F022902BE874AA
:1037B00001F0A3E4F022FEAF017B007A0079829051
:1037C0002F207404F0902F1DF1E6C007902F1D12DA
:1037D00026CC902F201269A5D007A161E4FF8110AB
:1037E000E5C85404FF221226ECE4FCFD229002B648
:1037F000E0FFA3E02275FF0275E40475E40175E4BF
:10380000022275FF0275E404E4F5E4229004331209
:10381000572790121DE054306006F1EE5002C3228B
:10382000900433E0B4040BA311749004337403F0D8
:103830008025900433E06405701890121DE0900418
:103840003430E50611747F1F8004117CE4FFF1DE43
:103850008005900434117C900433E09002B2F09023
:103860000435E0901222F01219A89002BDEEF0A3E8
:10387000EFF0D322E0FB7D017F018006E0FB7D01BC
:10388000E4FFEB600875FF0153CDFD800675FF0175
:1038900043CD02ED600553FBDF800343FB20EF6067
:1038A0000775FF0243E1402275FF0253E1BF2290FA
:1038B000121DE07B027D0130E5087F0111827F1F30
:1038C0008006E4FF1182E4FFF1DE7F0143FB107507
:1038D000FF0243E640EF600D75FF02E5E120E7FBE4
:1038E00043FB0D800343FB0E80FE75FF0275E4046D
:1038F000E4F5E4C22275FF02901215E0603BE5E6B4
:10390000540364017033121A6B124093401F9012DB
:1039100022E0600DE014F07008121892E490121585
:10392000F0901215E0700221AD11AF21AD12189286
:10393000D222E4901215F0807412189212595D9000
:1039400002B3EFF0901200E0B47A14901214E0B4D5
:103950009C0D9002B3E0FF64056004EFB4032EE415
:103960009002BCF09002BCE0FFC394405013E42FDF
:10397000F582E43412F583E4F09002BCE004F080B8
:10398000E3901200747AF0901214749CF0121AA74B
:103990007A1279107F0112698D7A1279117F2112C2
:1039A0006AB07A1279127D017F22121AA2121A705D
:1039B00012595D121A669002B3EFF01219EE121A44
:1039C000619002B3E0FFB40602800C3022047F0253
:1039D00080059002B3E0FF121B06EF24FFB3924074
:1039E00075FF0253E6BF9002B3E064016005E49006
:1039F0001215F012502E121A75123071901215E035
:103A0000700F20400C121B0B7B017A2779B0121A21
:103A10002090121DE030E00280033022047F01710B
:103A2000EED2AF304078121958121994121B1A12A4
:103A30001A9D40F29002B2E06041121A8EEF7005BA
:103A40001269B94036E51470FCE51520E5029105D0
:103A5000121967EF70FA125922500512590E5005CB
:103A60007F011235DB9002B2E0B40204E4FF80096A
:103A70009002B2E0B403047F0111CC121A89E5155B
:103A800030E1A31258114002E4F0E51520E506717B
:103A90005D7D01716F9002BC7160F1E48088124815
:103AA0007D12484B5002D19D9002B2E0605D90279C
:103AB00046E07057121A8EEF70051269B9404CE556
:103AC0001470FCE51520E50990121DE020E002913C
:103AD00005121967EF70FA125922500512590E504B
:103AE000057F011235DB9002B2E0B40203E48018D6
:103AF0009002B2E0B403047F01800E9002B2E0B401
:103B000005099012157401F0FF11CC121958121901
:103B100094121B109002B0E07005121A89801512E1
:103B200048B9FF9002B0E0FEC3EF9EC39406400286
:103B3000E4F0D2AD121807E51530E1191258114022
:103B400002E4F0E51520E506715D7D01716F9002DC
:103B5000BC7160F1E4121A52125019419E9002B4E5
:103B6000E075F0AA9002BF1226C0AF82AE83229009
:103B70000439EEF0A3EFF0E514706EF1F15004C2D9
:103B80003C912D900439E0FEA3E08E11F512AE11A8
:103B9000AF127DAA125B38E4F5FF75D901F510E587
:103BA000155421602CE51530E505E4FF124530E49D
:103BB00090043BF090043BE004F01241EDEF60090B
:103BC00090043BE0C3941040EB7F02121B1F53157F
:103BD000DE900413E07F00B403027F01124A37D263
:103BE0003C912DD2EBA22192ED22EFF07F01EF600C
:103BF00008715DE4FD716F8009121A939105E43339
:103C0000FF227F0122E5147022F1F15004C23C91A1
:103C10002D124770124A7CE5D120E0FB431520535A
:103C200015FEE4F510A22192EDD322C3229030F8C4
:103C3000E5F4F0E0547FF5F47F827E00F10DF1446D
:103C40005005E5FC20E6F7303C089030F8E0448071
:103C5000F5F4F109F1445005E5FC20E6F775FF01A4
:103C6000E5D520E702C322E5F4D330E601C3229074
:103C700004271269D41226ECC2EBE5146002C123BA
:103C8000E51530E202C322F1F95004C23C912D1235
:103C90004A7CE5D120E0FBE4F510C222900428E044
:103CA0005407C39403E494005022900430E0FF9042
:103CB000042CE02FFFE433FED3EF9440EE648094B5
:103CC000804009431504A22192EDD32290042D12C5
:103CD00026CCCFE9CF8A118F12900430E0F516AED2
:103CE00011125B629004291226CC8B1C8A1D891E3E
:103CF00090042CE0F51F900427E0FCA3E0FD546045
:103D0000602E900431E0FF124CF3D12E122283FB7F
:103D10007A00900425126A467D17122352EF2BFF7A
:103D2000EA3EFEEF2414FBE43EFA7D027F01C10A65
:103D3000900427A3E05407900414F075140890042D
:103D4000291226CC124A6A90042CE0FFAD16124DBF
:103D500045900414E0640370297B01FDD12BD183CD
:103D6000D1785007D12E74011222C9E4F5FF126AEE
:103D7000A7D12E1222832428FBE433FA7D03E4FF2B
:103D8000C10A900414E064027026FB7D01D12BD19E
:103D900083D1784007D12E74FF1222C9126A56D1FE
:103DA0002E1222832414FBE433FA7D027F01805A11
:103DB000E4FB7D01D12BD183D1784007D12E74FF54
:103DC0001222C9E4F5FFD17044104E7F0560027FD6
:103DD0000AEF547FFFE5D254804FF5D2E4F5FF435C
:103DE000D280D12E122283FD7C00D17044104E7EF1
:103DF0000060047F0A80027F05EF25E0FFEE33FEBE
:103E0000EF2DFBEE3CFA7D017F01125853D170FF7C
:103E1000124A884006A22192EDC322A22192EDD23D
:103E2000EBD322A22192EDD2EBC322FFD13C90042E
:103E3000291226CCE92407F9E43AFA22E4F5FF75C1
:103E4000D102E5D120E0FBE4F5FFF5D1EF6008E415
:103E5000F5FF43D2808006E4F5FF53D27FEB600686
:103E6000E4F5FF43D104ED6006E4F5FF43D10822F9
:103E7000900427E0FEA3E022D3EF9DEC6480F87469
:103E8000809822122283FF900430E0FD90042CE001
:103E90002DFDE433FCED2401FDE43CFC22E4FF7144
:103EA000EEEF60437B017A0279B6D1E89002B6E08A
:103EB000C394C040EF7B017A0279B8D1E81237EDA4
:103EC0005FFFA3E05FFFA3E05FF460E990121DE0F5
:103ED00030E0047F0171EEE490121CF07B017A0265
:103EE00079B6E0FD1219712290043F1226ECC2341B
:103EF000E4FF71EEBF010B90043F1226CC1245780F
:103F000092347F0171EEA234227FE87E03F11180AA
:103F100043903008EEF0A3EFF07B017A30790A127B
:103F20004719501490300AE0FEA3E0FF903009E0FA
:103F30009F903008E09E400B903008E0FEA3E0FF29
:103F40001241D02275FF03E591C330E701D3227EF1
:103F5000001241D075FF0343918022903018EFF09A
:103F6000A312477F75FF0112454CEF64016002C345
:103F700022E5F430E602C3227FE87E031241D0F14D
:103F800054125E9C400122C23C912D903018E0FFFB
:103F900012453053F4DFD23C912D7F787E001242DF
:103FA000D975FF0153E4BFE5E430E7FB126A9D7F5A
:103FB0008A12478830E6061246D3E4800875FF016E
:103FC0001246D3E5D912231E75FF0143E440126A5D
:103FD0004E400343F420125E9C400122D32275FF21
:103FE000028FE3229002B5E0FD0219DF80F0A222E9
:103FF00022C2EBA2ED9221C2EDE5F4C330E701D37A
:1040000022900445EFF0C23D1241AFD22D900445FD
:10401000E090305FF0D22EA3E4F0A3740DF011FA1B
:10402000E4900446F0123FF95038900446E07032B4
:10403000E5F754C060EF1178118BBF5511118B90CB
:10404000121CE06F90044670147402F080D7900444
:1040500046E0B454057433F080CB9004467401F00C
:1040600080C3900446E0B40207C23C123C2D80009D
:1040700011ED900446E0FF22E5F720E008E5F75453
:10408000C070F5FF2243F701AFF922117890044682
:10409000EFF0225315FEE51530E5047F01B1303114
:1040A000EDEF70FB7F02121B1F7F01110190044C8A
:1040B000EFF0BF0202801390044CE0B43311E4F03F
:1040C0007F011101BF020D90044C7401F08005E4E2
:1040D00090044CF090044CE0700C123FF95005C273
:1040E0003C123C2DF17090044CE024FF22C22DE4E0
:1040F00090305FF0C22EA3F0A3F075FF01E5D5204C
:10410000E702C322C23D31AF202D0221A053F4DFCC
:1041100090305FE0FFB13075FF0143D810302E05BD
:1041200043F440800353F4BFE4F5FF53F5F09030BF
:1041300060E0FAA3E0FBEA42F5EBF5F6D23D31AFE1
:104140007FC8123F4FE4F5FFE59320E605123F4498
:1041500040F3302E58E5F430E3047D288010E5F478
:1041600030E2047D288007E5F430E1027D2851C16A
:104170007F28123F4F123F4440FB7F78123F4F127F
:104180003F445029D1BD50F7F16AEFC39D50F0D1A3
:10419000BD50ECE5F720E5E7C23D31AF51C180DF0E
:1041A00053F4BF126A4E400543F420D1C4D322AF6A
:1041B000F4EF547FF5F4303D05EF4480F5F475FFDE
:1041C00001E5D520E702C322E5F4D330E601C3229E
:1041D00075FF03D3EF9402EE9400400874FE2FFFA6
:1041E00074FF3EFEEFF592EE540FF59122E490300D
:1041F00010F0A304F0E4903013F0E5FA30E1FB7521
:10420000FF01E5D530E7037F0022E4F5FF75E508FF
:10421000D1C4E5D530E61A75FF01903012E5DAF029
:10422000E4F5DA75FF01E5D630E3FB903013740155
:10423000F075FF03759B0475FC4175FF03E59B302A
:10424000E7FBE4FB75FF038B95EB122E21125B9BC2
:104250000BEBB403EF75FF03759580E4F5FF758EE6
:10426000C8910675FF0153D5FB51C17F14123F4F12
:1042700051D075FF0143D504903013E0700951C14E
:104280007FC8123F4F51D07B017A307911F1F29003
:104290003011E09030107006E04404FF8002E0FF2F
:1042A000903010EFF090120EE0B4010675FF01435C
:1042B000D81075FF01903012E0F5DA903010E0FF71
:1042C0002275FF03E4F591227F3FFE31D0123F5467
:1042D00075FF03E59120E7FB22CDEFCDCCEECCF1CD
:1042E0000DAB94EF4BF177CBEFCBFAE59130E71DB7
:1042F000F110A994E9F582EF4582FFEB2DF582EAF2
:104300003CF583C3EF9582E5F0958340DEE591208F
:10431000E708CEECCECFEDCF51CB22902AC21226A9
:1043200072E4F5FF75BB0575BB8575FF0175D50298
:1043300020370451C8910675FF0143D5203037025C
:1043400061E1E4F5FF538EF7438E077D04E4F5FF4A
:104350008DBCF5FF43B102E5B130E2FBE4F5FFAF00
:10436000DFEFFEACDEECFBEBFFED25E024C0F582D9
:10437000E4342AD1CBE4F5FFF5FF53B1FD0DEDB4E4
:104380000CCB902AC2122E2E780912260AA3EEF028
:10439000A3EFF0E4FDED25E024CAF582E4342AF52C
:1043A00083E0C313FAA3E013FB71FBF583E0C313AF
:1043B000FEA3E0132BFFEE3AFE71FBD1CBED2404FC
:1043C00090120DF0EDC394075017CFEDCF0DEF71A4
:1043D000FC126475C3902AC7E09F902AC6E09E50E5
:1043E000B4E4F5FF758EC8F5FF90120DE0F5BCE45E
:1043F000F5FF75BB8075FF01F5D522ED25E024C8DA
:10440000F582E4342A22E4F5FF75C2E17F1EF188CB
:1044100030E707E4F5FF75C2A122E4F5FF75C2811C
:1044200022902E97125727902E9D7401F0C23B12B6
:104430003F09123F445005E5FC20E6F6B14CBF01B0
:1044400008E4F5FC75FC408007B14CBF0202D322A2
:10445000D1C4902E98E0FF125DF875FF0153D5DFAF
:1044600053FAFB902E97E0FFB130902E98E0902EFB
:1044700097B4080CE0F192126A622452F1E78003CB
:10448000122E20125B9B902E99E0FF125E5175FF59
:104490000175FF03759B04123F0975FC42E5FC2082
:1044A000E105123F4440F3902E9AE0F075FF03E5DA
:1044B0009B20E705123F4440F3E59B20E70C75FF86
:1044C00003759B1FF12ED23B804CB129D1DF902E7A
:1044D00098E0FD90120FE05D701D902E97E0FFB107
:1044E00029124B1C90120FE0FF902E98E0FEEF4E29
:1044F00090120FF0122F8091067B017A2E799BF19A
:1045000019500FC3902E9CE09420902E9BE09403B2
:1045100040E7B129F1F251D0303B028127902E9D26
:10452000E0B40103D38001C3227B017A2E799D225E
:1045300075FF01E5D530E602C322E4F5FF439A801A
:10454000EF126AD6E4F5FF539A7FD3227FFA123F27
:104550004FE5FC30E605123F4440F6E5FC30E6034B
:104560007F032275FF01E5D530E6037F0222E5D502
:104570007F0030E7027F0122902D31F17F902D37AF
:1045800012267E00000001902D3B7401F0F5FFE53E
:10459000D554C07005123FF95002C322E4F5FF5311
:1045A000967F75FF0175D50451C875FF0143D50885
:1045B000E4F5FF5394FBF5FF53847FF5FF7598FFF7
:1045C000902D35E5F4F075F49C75FF01A3E5E4F05A
:1045D00075E4257B017A2D793BD1DF902D3BE0649A
:1045E000016002C19BF5FF902D347414F0902D37BB
:1045F000122E2E780112261D902D37122672E5A755
:1046000030E1FB43A702902D37122E2EE5A730E0B4
:1046100005E47B018002E4FBFAF9F8EF4BFFEE4A78
:10462000FEED49FDEC48FC902D37122672902D349A
:10463000E014F070B8902D37122E2E781012260A42
:104640007B6D7A4E79C678411224C1EF2439FFEE92
:104650003430F1EAE4FBFA7901F812254CEE547F8C
:10466000FEE4FDFC126A31902D37122E2EEB6FFF07
:10467000EA6EFEE8CDEFCDCCEECCECFF902D31D143
:10468000D6EF12231E902D31D1D6ED125A31901251
:104690000FE030E606E4F5FF75968075FF01E4F55E
:1046A000D5902D35E0F5F475FF01A3E0F5E4125C3B
:1046B00025902D3BE0B40103D38001C32275FF0197
:1046C000E5E4332275FF0153D8EF22F583EEF0A322
:1046D000EFF022903019E0FBA3E0FAA3E0F922907A
:1046E000305CF17F7F017C127D01E4FEED2EF582CE
:1046F000E43CF583E02FFF0EEEB412F0901213E0CD
:104700006F600990305CD1D6E412231E2275FF033E
:10471000AF93EF75F010A4FF22F10DAD94EF4DF1C2
:10472000778FF0122495E591C330E701D322E5FAA3
:1047300030E1FB75FC8075FF0153D5EFE4F5FC75A6
:10474000FC4051C1E5FC20E6FB22E4FFE5F754C044
:104750006002801675FF01E5D530E30DD1BD50F440
:10476000F16AEF60EFD1BD50EB22126A9DAFD92202
:10477000F12E7F08021B1F24FBFFE5F034FF22EB24
:10478000F0A3EAF0A3E9F022FE51D990120FE02243
:10479000E0FB25E025E02401F582E43412F58322D4
:1047A000F1BE53DB7F75FF0175D5027F14123F4FB9
:1047B00051D0F1BE43DB8075FF01E4F5D52275FFD2
:1047C00001438E1075FF0122FF7E04FDFCE0F8A37B
:1047D000E0F9A3E0FAA3E0FB1224C1E47B7DFAF93F
:1047E000F812254CEF2401FFE43EFEE43DFDE43CDD
:1047F000FC22C23675FF03759B1F75FF0390120FD5
:10480000E0FF20E71BE59A540FC394024012EF44E7
:1048100080F0E4F5FF75C2A143FC0475FF03D236B6
:10482000E5FC30E609E59A540FC3940540CCE5FC5D
:1048300030E611E412231E75FC80F5FC75FC40E5A2
:10484000FC20E6FB303603122F802290121CE07011
:10485000111237ED4FFFA3E04FFFA3E04F7003D3DA
:104860008001C3229002B1E064AA2411FFF022AEBD
:10487000071164EE04FEEF8EF084AFF02230330CAB
:10488000902746E07006FF1219F3C2331191021906
:10489000E930222411BBFF900424E0FEEFC39E40C8
:1048A0000AEF9ED394024010C22222900424E0F426
:1048B0002FD394014002C22222C2AD9029B4E0A3BA
:1048C000E022C0E0C0F0C083C082C0D075D008C074
:1048D000FF12454C8F18E51864027051E51424F856
:1048E00060412407600241159004251269DB70299C
:1048F000AB1CAA1DA91E516AAD16AF1FB145E4FB42
:104900007D01FF123E3C75FF00126AA743FA047551
:10491000FF005140751408411543FA0475FF00511A
:10492000404115C2EB7514004315044115E51864A8
:104930000160024115F1EA40024115E510702A8537
:104940001282851183E090044BF0E0FF645560040F
:10495000EFB4540AD22211BB900424F021E6751062
:104960000275FF0075D9084115E5106402705651B3
:104970002BE090044BF0125E2D125826900413EF9A
:10498000F090044BE0FFD394094025900413E0D34A
:104990009402400CEFD394AA7F0040027F01800D67
:1049A00090044BE0D394407F0040027F01EF60040D
:1049B0005122803290044BE0FFF51675FF008FD92D
:1049C0007510038050E5106403704A512275FF0092
:1049D000900413E0C39403E5D350055402FF800311
:1049E0005401FFEF60045147802BC23C123C2D75EF
:1049F000FF00517FE5D120E0FBC2EB4315027510AB
:104A000000900413E0B403071516512BE516F0903F
:104A100002B5E516F0D0FFD0D0D082D083D0F0D050
:104A2000E032302205C2221240ED22E5122407F5C1
:104A300082E43511F5832212453043FA04E4F5FF90
:104A400053D1FD43D101225177E5D120E0FBE4F5BC
:104A5000FF75D901900413E07F00B403027F015178
:104A600037D23C123C2DE4F51022E4F5FFE9125B4D
:104A700059EA540F42D622C23C123C2DE4F5FFE520
:104A8000D154FE4402F5D1224315015315DF519F45
:104A900091A24004E4F514225315FB513AD322EFBE
:104AA00030E303AF1322AD1B202304EE30E00BE50F
:104AB00017C394F0502051EB8018E51A6006FDE40E
:104AC000F51A8012E517C394F0500BE517540FFF49
:104AD000600451D9AD07AF05221257B9FFC3940E38
:104AE00040027F0DEF9018CA93FF22900415E0FD5D
:104AF000FFC3740E7115EFC4F8540FC868FFEEC4FD
:104B000054F048FEE51754F0C39FEE123E7C7F0040
:104B10005002AF05229FFFE49400FE22903014ED76
:104B2000F0901211E0FEF46006A3E0FDB4FF0C90DB
:104B300030167418F0A37413F08008903016EEF05D
:104B4000A3EDF012228364016002817C903014E0B6
:104B5000FE64086004EEB404089030157428F080F8
:104B600006903015743AF0EF122E211225EBE491E5
:104B70007DEF24D8FFEE343FFEED3493FDEC341688
:104B8000FC7B007A807903780012184E126A31900B
:104B90003017E0FF903016E0C37115E4FCFD1224DD
:104BA000C1ECC0E0EDC0E0EEC0E0EFC0E090301737
:104BB000E0FFE4FCFDFE917DD0E0FBD0E0FAD0E028
:104BC000F9D0E0F8EB2FFBEA3EFAE93DF9E83CF8D2
:104BD000903015E0FFE4FCFDFE1224C1EF2454FFE9
:104BE000EE340B1247EAE47BA87A16F9F812184E55
:104BF000CBEFCB903014E014605D14601B24FE609A
:104C00000C24FC7077E4F5FF75CE318006E4F5FFE7
:104C100075CE21F5FF8BCF22E4FAE4F5FFEA2440BC
:104C2000F5CEE4F5FFEAFFC37407711574432FF561
:104C30008274183EF583E49185C39DF5CFE4F5FFBA
:104C4000EA2448F5CEE4F5FFEA90184391852DF566
:104C5000CF0AEAB408C422E4F5FF75CE01F5FF8B54
:104C6000CFF5FF75CE0EF5FFEB25E0F5CFE4F5FFB0
:104C700075CE0FF5FFEB75F003A4F5CF227B64FA38
:104C8000F9F80224C19325E0FDE433FCEB75F01044
:104C9000A4FFAEF0122364CDEFCDEBFFE4C313EF1E
:104CA0001322900437EFF0900414E024FD60110407
:104CB000700791E97404F0801291E97408F0800B98
:104CC000E4900438F09004367402F07F01121B1F48
:104CD000900438E0FF900436E0FDA3E0FBE4902E62
:104CE0009AF012442150E9D3229004387401F090D4
:104CF00004362290043CEFF0A3ECF0A3EDF0751421
:104D000001E4FBFDFF123E3C7B017A047916516AF7
:104D1000E4FD7F02B145126A569004167455F09076
:104D2000043CE0900417F09004147402F090043EE8
:104D3000E090042530E507E4F0A3743CF022E4F0B1
:104D4000A374F0F022E4F5FF8FD4F5FFCFEDCF8F01
:104D5000D522903054125727E4A3F0EBD3947F90E0
:104D60003056E0400B2481B1B9E47B3C917F800553
:104D7000FFE4FCFDFE9024C0122672B1C49024C44E
:104D8000122672903055E0FD30E604F1D88005E43B
:104D90009024D2F0ED30E50D9024CAE020E30DA37D
:104DA0007401F08007903054F1F1F104F1B47E65A4
:104DB0007F70F1BE7F01022FF7FFE4FCFDFE90241F
:104DC000C01226729024C002264A9030BAEDF090AC
:104DD00030B9EFF0E49030BBF0BFFF089030B97409
:104DE00063F0800B9030B9E0D394644002C1B4907A
:104DF00030B9E09024CCF07F01121B019030BAE072
:104E0000FFD3947F400CEF2481B1B9E47B707A1713
:104E1000800A9030BAE0B1B9E47B64FAF9F8122460
:104E2000C19024C01226729024CAE020E31AE4F153
:104E3000E09030BBF0700122D1FBEFF0E49024D27F
:104E4000F09024CB04F080429024CBE0F1E0902459
:104E5000BFE0FED39F400AEE9F9030BBF0F1D880B8
:104E6000149024BFE0FF9030B9E0C39F9030BBF0B6
:104E7000E49024D2F09030B9E0FF700A12642DE47F
:104E800090259DF08004D1FBEFF0B1C4C0079030B5
:104E9000BBE0FBE4FAF9F8D00712254CB1BE902430
:104EA000C4122672F1B47E4F7F0AF1BE7F01122F29
:104EB000F712640622126335600312631C229030DD
:104EC000F012650930E506D1FBF0FFF19C9024D289
:104ED000E054BFFFF09030F1E054404F9024D2F006
:104EE0004420F09030F0F1F1D1B57E657F267BFF54
:104EF0007D03F1C2F1047F01022FF7E49024C9F091
:104F000090259D22126463022BFA9024CBE0FB12C1
:104F100065FE6006126609022672B1C4125FDC905B
:104F200024D2E030E57530E6111265ECEBD39E40FB
:104F300005EB9FFB80297B0180251265F4FEEBC306
:104F40009E501A90259DE0FE600B2FFFEBC39F4003
:104F500004E0FB800A9024CFE02BFB80027B63AF50
:104F600003EB1264366008126425500312633C9010
:104F7000259DE0FF601C9024D2E030E60D9024CB0C
:104F8000E0D39F500D12641D80061264894003EF28
:104F9000F1CB9024D2E030E502F10422903127EFEA
:104FA000F012632612651312643F903127E060030C
:104FB00012636222D1B59024D2E04420F0227BFF1C
:104FC0007D011219999024C8EFF022F0F104E4FF5A
:104FD000F19CE490259DF0229024D2E04440F02200
:104FE0009024BFF09030B9E0FF22E5F754C024FFD1
:104FF00022E09024CBF09024CBE0D3946340037460
:1050000001F0229002BAE0FCA3E04C700A9002BAD0
:10501000EEF0A3EFF0D322C3229002BAE0FEA3E0A9
:10502000FF4E6009CAEECAC9EFC91228132275FFE4
:1050300002D2ADD2BD75FF02758E71755D0975FF27
:1050400002E58E546F4480F58E22C0E0C0F0C0832C
:10505000C082C0D075D008C0FF75FF02E58E30E475
:105060002875FF02E58E54EF4410F58E900000E0A5
:1050700004F0E55D30E0020531E55D700A755D091B
:105080009029B411B48002155D75FF02E58530E406
:105090000875FF02438510055ED0FFD0D0D082D0C6
:1050A00083D0F0D0E032902685E475F0031223B966
:1050B000902E27E475F0010223B9902E25EDF09093
:1050C0002E221226ECD1D4FA122283902E26F090B2
:1050D0002E2271E412228324FC60772403600241B3
:1050E00091902E26E0FF71B360024191902E27F03F
:1050F000902E27E0FFC39405504F902E26E0FE75BA
:10510000F005A42F51A3F583E0FF902684519DB5AF
:10511000070A702B902E27B1F32F801F122283FFD6
:10512000902E27E0FE902E26E0FD75F005A42E516E
:10513000A3F583EFF075F005EDA42E719FE4F0B1B7
:10514000FB902E27E004F080A7902E26E0FD7F0341
:10515000C11D902E25E0C394035006E4F0A3F08017
:1051600007902E25E024FDF0902E26E060024115E8
:10517000902E25E0700C9028FFE070026101D25063
:105180008126902E25E070024191902E29E4F0A313
:1051900004F0902E29122E089404EE64809480402E
:1051A00002418F71B370675193122E0571CA502757
:1051B000902684519D700651B5E4F08016902684A7
:1051C000519D71EFEDF0902E29A351D3E024B351FE
:1051D000CBEFF011A680D25192122E0571CA502E3B
:1051E00074B32FB159FF51D7E0FDF14AF582B16296
:1051F00071A4EFF074402DF58274273CF583E0FF35
:105200008B82B16251A8F583EFF011B080CB902E64
:105210002911B32192902E26E0FFE4C39F5072EF34
:10522000C39404506C71B370685193122E0571CA07
:105230005024902684519D700651B5E4F0801312DD
:10524000228371EFEDF0902E2651D3E024B351CBA1
:10525000EFF011A680D55192B15024B3B159FD9011
:105260002E26E0F975F005B14871A4EDF0B1502497
:105270004071F3E0FD75F005E9B14851A8F583ED03
:10528000F011B0902E27E07004A3E0640570C9719E
:105290007922E4902E27F0A3F022902F901226CCB2
:1052A000022283F582E435F0F583E58224FFF5825E
:1052B000E583342622902E27E0FCA3E0FD2440F570
:1052C0008274273CF583E4F074B32DF58274263C98
:1052D000F58322E0FF51DE902E27E0FCA322E4FEBE
:1052E00075F005EFA42E51A3F583E0B5050B75F01D
:1052F00005EFA42E719FE0FF220EEEB405E27F00C1
:10530000229031257401F0903125E0FFC3940450C0
:105310006871B3705CFC902684519D700E71D2F55B
:1053200083E4F071DBF583E4F08017122283FD71D2
:10533000D2F583EDF0903125E0FF51DE71DBF5838E
:10534000EFF0B1FB0CECB405CDE4FC71DBF583E0D0
:10535000FF903125E0FE75F005A42C719FEFF071F0
:10536000D2F583B1F32C51A3F583EFF00CECB40527
:10537000DA903125E004F0808E7E607F7E7B017ABA
:10538000277922910112198FD1059101B1E37B0197
:105390007A267995910102198F75F005EFA42DF504
:1053A00082E435F0F583E582241DF582E583342718
:1053B000F583227B017A26798C902E681226EC7A6E
:1053C000267984E4FD121B51EF229405EE6480944B
:1053D000802274402CF582E434272274B32CF582A9
:1053E000E43426221226CCE92401F9E43AFA22FD1B
:1053F00074402FF58274273EF583227B007A007972
:1054000000902D6DE4F0A3741EF0E4A3F0A3F0224D
:105410007E607F7E71FB12198F7E607F9C71FBB175
:10542000E371FB02198F30500291107E607F7E7A0B
:10543000277922914C121980D105914E1219807E44
:10544000607FBA7A267995914C0219807B01902F62
:105450002C741EF022902F8D1226EC90268FE06483
:1054600002705C9026BCB1EB519A902F8DB13E7BBF
:10547000017A2679BE12198A519A7A2679BCB172BC
:1054800090268AEEF0A3EFF090268AE0FF519AFE74
:1054900024BEF582E43426F583EFF090268AA3E05B
:1054A000FF74BF2EF582E43426D1107A2679BCB180
:1054B00042902F8D1226CC12198A902F90B1DBE4E6
:1054C00090268FF022902F931226EC902690E06485
:1054D0000270659026EFB1EB902F96519D902F931F
:1054E000B13E7B017A2679F112198A902F96519D4F
:1054F0007A2679EFB17290268DEEF0A3EFF0902628
:105500008DE0FF902F96519DFE24F1F582E4342624
:10551000F583EFF090268DA3E0FF74F22EF582E480
:105520003426D1107A2679EFB142902F931226CCEF
:1055300012198A902F96B1DBE4902690F022FF1288
:1055400026CC902EA90226ECA42FF582E5F03E226F
:10555000902E27E0FEA3E0FF22F58274263EF5831D
:10556000E0228A8374051226AFE5822DF582E58359
:105570003C222402FD7B01902F071226EC902F0A7B
:10558000EDF0902F0C741DF0A3740FF0902F0AE033
:10559000FF14F0EF603C902F07123798902F0BF01C
:1055A0007C80EC60E7B1D2EE7D0030E7027D0190B7
:1055B0002F0BE05C7B0060027B01EB6DFD902F0CFC
:1055C000F13AAF05EF6005902F0CF130ECC313FCFE
:1055D00080D0902F0CE0FEA3E0FF221226CC7404B2
:1055E0000222C912198F7E607FBA227456F0A3740A
:1055F00001F022E0FF75F005EEA422902685E47507
:10560000F0030223B97E607F9C7B017A2779042214
:10561000F583EFF01222832404FF7B0122D1EDD227
:10562000519026EEEFF0902689EDF0E4902688F078
:105630009026BB04F0E4902687F022E4902CE2F060
:10564000A3049109D1E5746EF0E4FBFDFC7F021226
:105650002A47E4FF122FF7E4FFFE022BFA902F0EE9
:10566000F127121B6A902F111226ECE94A605CE4C4
:10567000902F14F09024CAE030E308A3E0902F1498
:10568000F08005E4902F14F0902F0FD1CCEF12236F
:105690001E902F1171E4740312231E902F14D1CC8D
:1056A000D1D4FAEF12231E902F0ED1CC902E777406
:1056B00003F0902F10E0902E78F0A3741BF0A374E9
:1056C0006FF0121B97EF7003121B7422E0FF902FF4
:1056D000110226CCE92402F9E43A227199EBF02276
:1056E0007199E0FF22A3F0A3F0A3F0A322C251908E
:1056F00026BB74FFF0229026BBE064017020902648
:1057000087F11F4019E4F09026EEE0B40303740122
:10571000F09026EEE0B40406E4F0C251D1ED22E0B0
:1057200004F0E0D3940422EFF0A3EDF0A3EBF02219
:10573000E06410F0A3E06421F022EF25E0FFEE33F7
:10574000F0A3EFF022E0F8A3E0F9A3E0FAA3E0FB76
:105750002275F005EFA42D51A3F583E0FF22123F3F
:10576000F95004F16F4003302203D38001C322E5D6
:10577000F754E024FF22AF14EFC36001D322EFC33C
:10578000940E5005900415EFF022E517540FFF22F8
:10579000E517C394F0501F5317F0F1B9FE740FC30F
:1057A0009F4005EE940E400543170D8003EF42170E
:1057B000E517540FFF227F0022E517C4540FFEEFB8
:1057C0009018E8932E22E51754F0C4540F2FFFC30E
:1057D000941040027F0FEF9018D893FF227E10EEB6
:1057E00060091EEE9018D893B507F4EEC3940E40EE
:1057F000027E0DEE9018CA93FF22E4F514023C05D8
:10580000C2AFEF4215D2AF22C2AFEFF45215D2AF02
:10581000227F0211089002B4E09002BCF09002B422
:1058200004F0C3940222EF24FE600C24FE60058085
:10583000007F01227F02227F0322E51520E5081266
:105840004A77E5D120E0FBE4F51022900425E0A39F
:10585000E0FF22900442EFF0ED24FE601914602670
:105860002402703BEB2402FFE43AFE7C007D5012E0
:1058700023527D60801E11C7C333CE33CED8F9FFCB
:105880007C007D28800E11C7C333CE33CED8F9FFFC
:105890007C007D64122364900443EEF0A3EFF0904B
:1058A0000442E011D2C083C082122666900444E014
:1058B0002401FF900443E03400FEE4FCFD1224B414
:1058C000D082D083022672EB2401FFE43AFEEF7807
:1058D000032225E025E02418F582E43404F5832230
:1058E000EF11D212264A022630E49004183100E467
:1058F00090041C3107E4FFFEFDFC90042002267298
:10590000FFFEFDFC022672FFFEFDFC0226727F01F7
:105910007E009017FCE4935EFE7401935F4E24FFBB
:10592000B322900001740193B40007E493B4180209
:10593000C322D322EF7011ED600775FF0143AE0162
:105940002275FF0153AEFE22EFB40110ED60077522
:10595000FF0143AE022275FF0153AEFD2275FF0227
:10596000E5E630E2037F0322E5E630E3037F002231
:10597000E5E630E1037F0422E5E67F0530E0027FC3
:105980000122EF600775FF0253E6BF2275FF024355
:10599000E64022EF14600F146014240270188B800C
:1059A00075FF018DFD228B9075FF018DC9228BA0A3
:1059B00075FF018DCA22AF038FB075FF01AF058F50
:1059C000CB22902E831226ECEF1460111460182461
:1059D00002701E31FCE5805102E5FD801C31FCE5C2
:1059E000905102E5C9801231FCE5A05102E5CA8060
:1059F0000831FCE5B05102E5CB02231E902E860251
:105A000026CC12231E75FF01902E830226CCE4F5CE
:105A1000FFAF9122E4F5FFAF9222902BE1E0122339
:105A20001E902BE6E05131902BE7E090000202231C
:105A30003090000102233075F002A42480F9740F25
:105A400035F07B02FEAF01E4FCFD02346775F00225
:105A5000A42480F9740F35F07B02FEAF01AD52AB88
:105A600005E4FCFD902FA8EBF002341C902E8B1265
:105A700037E6C007902E8B1226CC902E8E5184D004
:105A80000702365DE0FFA3E0902D2DCFF0A3EFF0ED
:105A900022902A05122672902A091226ECE4902AF6
:105AA0002CF0D3902A0DE0941E902A0CE094004034
:105AB00001227B017A2A790E902A0CE0FFA3E09064
:105AC0002DB4CFF0A3EFF0902A0512264A123561CB
:105AD000902A091226CCE94A600F902A2CE0F58220
:105AE00075830012229CFF80027F00902A2CE02404
:105AF0000EF582E4342AF583E06F6002C322902A17
:105B00002CE004FFF0D3902A0DE09F902A0CE09443
:105B10000050BD22902E921237E6C007902E9212AE
:105B200026CC902E95712BD0074191E0FFA3E090F9
:105B30002A0CCFF0A3EFF022E4F5FF75D102E5D1F6
:105B400020E0FBE4F5D1F5FFEF7159EE540F42D69A
:105B5000E4F5FFCFEDCF8FD422F5D7E4F5FF53D690
:105B6000F022E4F5FFEFF5D8E4F5FF53D60FEE543D
:105B70000FC4F854F0C8E4C4540F4842D622E4F5E8
:105B8000FF8FD422E4F5FFE5D1540133333354F8C9
:105B9000FFE4F5FFE5D354074FFF2290300C1226A7
:105BA0007275FF0190300CA3E0FDA3A3E4FFFEE4B7
:105BB000FC781012260A8FE190300CA3A3E0FEA31C
:105BC000E4FFE4FDFC780812260A8FE290300CA373
:105BD000A3A3E0FF8FE322EF30E00E43F401E4F5EE
:105BE000FF43A404F5FF759624EF30E10E43F40162
:105BF000E4F5FF43A408F5FF759624EF30E209436E
:105C0000F402E4F5FF75961EEF30E30943F404E473
:105C1000F5FF75961075FF01EF5403600475D712F8
:105C20002275D72D22E4F5FF7584E6F5FF43940431
:105C3000F5FF75981422E4F5FF75933F75FF037522
:105C40009A409125E4F5FF759C93F5FF75A1A3F5A6
:105C5000FF758531F5FF758628E5FA54304480F5E7
:105C6000FA75FF0175E74A75FF0275DF4975FF0197
:105C700043D30475FF0153D367E4F5FF53E6BF75C3
:105C8000FF0175D825F5FF75B503F5FF75B215F55C
:105C9000FF75BA02F5FF75AFB3F5FF75CD0AF5FFD5
:105CA00075CB08F5FF75CA12F5FF75BF0EF5FF75C8
:105CB000CC96F5FFF5BDF5FF75C281F5FF75AEE138
:105CC000F5FF75DA55F5FF75F580F5FF75E903F514
:105CD000FF75E933F5FF75972A75FF01759B4275CE
:105CE0009CA4759D29759E48759F2475A11275A366
:105CF00012759AF820390CF5FF43968090120FE048
:105D00004440F022CCEFCCCFEDCF74017E00C8EF41
:105D1000C8088005C333CE33CED8F9FFCDECCDEF24
:105D20005D601B30381875FF0175DCAD75FF0175BE
:105D3000DDCDE4F5FF759A74F5FF7594842275FF47
:105D40000175DC5375FF0175DD33E4F5FF759A14B9
:105D5000F5FF7594042275FF0175E46575FF017503
:105D6000D64722902FA9EFF0E4A31247C87801127A
:105D7000260A902FA9124790122672901210E0FF67
:105D800064806073EFC3947F5039EB124792C083F5
:105D9000C082122E2EEEC0E0EFC0E0901210E0752F
:105DA000F004A4AEF0FBCAEECAEA3395E0F9F8D0ED
:105DB000E0FFD0E0FEC3EF9BFFEE9AFEED99FDEC15
:105DC00098802C902FA9E0124792C083C08212576E
:105DD00045901210E0F40475F004A4FFAEF0EE3329
:105DE00095E0FDFCEB2FFFEA3EFEE93DFDE83CFCC3
:105DF000D082D0831226722275FF01E5D530E602EB
:105E0000C32253FACFEFB4080543FA308012EFB43F
:105E1000040543FA208009EFB4020543FA1080001C
:105E2000D322E5F45418131313541FFF22E5F7543B
:105E300006FFBF06037F0822E5F75406FFBF0403F1
:105E40007F0422E5F75406FFBF02037F02227F0191
:105E50002275FF018FDA2275FF01E5D520E602C326
:105E600022E5FA540360FA75FF018FC3D322CEEF07
:105E7000CE75FF01E5D520E602C32243FA04E4FD16
:105E8000EDC39E50077F55D1570D80F4E5FA54308D
:105E900070047F0F80027FF0D157D322E5F730E501
:105EA00010E5F754C07005123F4440F01242C1C3E0
:105EB00022D322E5F71322EFB40109D2AD75FF0119
:105EC00043AE4022C2AD75FF0153AEBF2275C8017B
:105ED00022E5C85402FF75C80222E5C85401FF221A
:105EE000D1E5EBF02275F005EFA42DF582E435F055
:105EF000F583E5822490F582E5833426F58322D16B
:105F0000E5E0FF22A25122902690E0FF227402F0E9
:105F10007F01902690EFF02290268FE0FF229026BE
:105F20008FEFF0227F0122EF605A9024CD7401F0B0
:105F30009024CFF1D07D0112197B7E607F767D01A8
:105F400012197B7E607F777D0112197B9024D074BB
:105F500001F09024BCF090259FF07E607F787D0357
:105F600012197B7E607F797D0312197B7E607F7AB8
:105F70007D0312197B90259E7403F09024D1F0903C
:105F800024CEF022F1E29024CDF1D01219769024A3
:105F9000D0EFF07E607F7812197690259EEFF07E2C
:105FA000607F761219769024BCEFF07E607F7912C4
:105FB00019769024D1EFF07E607F771219769025C4
:105FC0009FEFF07E607F7A1219769024CEEFF02258
:105FD000F090259C7403F07E607F75229024C4129B
:105FE00026729024CF7401F022903126EDF0EF1448
:105FF000601F14602B14603714604314604F240535
:10600000705B903126E0FD9024D0F07E607F75803B
:1060100049903126E0FD90259FF07E607F77803AA1
:10602000903126E0FD9024BCF07E607F76802B903E
:106030003126E0FD90259EF07E607F78801C9031B7
:1060400026E0FD9024CEF07E607F7A800D90312690
:10605000E0FD9024D1F07E607F7912197B22EF144D
:10606000601614601914601C14601F14602224054B
:1060700070249024D0E0FF2290259FE0FF229024FE
:10608000BCE0FF2290259EE0FF229024CEE0FF227C
:106090009024D1E0FF227F002251C2F0E4FFFE02F3
:1060A0002BFAE0FD7F09903050EFF0A3ED12540978
:1060B0009024D2E030E51D9030537401F0903050C0
:1060C000E0FD700551C2F08006EDB40402710BE4EE
:1060D000FF124F9C903050E024FC70022176147027
:1060E0000221A724FC604B2409600221D59024CA18
:1060F000E030E302219F903053E0602090259DE046
:10610000700E9024C9E0600890259DF09024CCF09A
:1061100031E5124EBEE49024C9F0219F9024CBE0DB
:1061200090259D910DE49024C9F00431ED124EBEEE
:10613000806DE49024C9F09030527408F090305192
:10614000E0FF9024CCF09024CAE020E30B90259D42
:10615000EFF0E4FD7F0180199024CBE0FF903051F7
:10616000E0FED39F4005EE31E18006903051E031F2
:10617000F6124EBE805F9024CAE020E30C90259D6D
:106180007463F0740131ED800D9024CBE0C394630F
:106190005007746331E1124EBE9024CC7463F090CA
:1061A00030527408F0802E9024CAE030E320903002
:1061B00053E060129024C9E0700E90259DE06006C7
:1061C0009024C9F08002912DE431F6024EBE11995F
:1061D000E49024CCF07E607F74903052E0FD021990
:1061E0007B90259DF09024CBE0FFE4FD229024CB12
:1061F000F0E4FD7F012290259DF09024CBE0FF7D0F
:106200004022903129EFF070139024C9E0600241E0
:10621000C17D019115121ACA7F028049903129E08F
:10622000F4704590259DE0600241C17E627FDD12E1
:106230001976E4C39F50257E627FDD12197674645F
:10624000D39F401891069024CAE020E3167E627F17
:10625000DD121976AD077F0911A680077D01E4FFE5
:10626000121AF77F01021B01903129E0FFC39464E9
:10627000504F9024CCEFF07F01121B01E4FF124F2E
:106280009C9024CAE020E3057F01122FF7710B9048
:10629000249DE0B401177D017F06121AF7917DE07D
:1062A00090259CF0903129E0FD7F0901A6903129CD
:1062B000712D6002711C7E647F52E4FB7D03124FDE
:1062C000C2229024CAE054F72290312AEFF09024A1
:1062D000CCF0E4FF124F9C710B90312A712D6002BB
:1062E000711C90312AE07009FFFE122BFA51C28016
:1062F0000E9024CB916B122BFA9024CAE04408F044
:106300007E607F737D63717002197BE490259DF040
:106310009024C9F0229148121AF780EF1219A39025
:1063200024C874FFF02271356002711C22E09024B1
:10633000CBF0124FF69024C8E0FFF4221199E4FF4D
:10634000124F9C9024C9E060099024CBF0E4902483
:10635000C9F090259DE0FF60099024CBF0E49025E2
:106360009DF07E607F739024CBE0FD717002197BFD
:1063700012197B7E607F749024CAE0FD229024CBAA
:10638000E0FF913F9024D2E030E57A30E61590248A
:10639000CFE0FE04FDEFD39D4005EF9EFF802F7FF1
:1063A00001802B9024CFE0FEC374639EFDEFC39D5C
:1063B000501A90259DE0FD600B2EFEEFC39E400419
:1063C000E0FF800A9024CFE02FFF80027F63EF91EF
:1063D00036600691255002713C90259DE0FF601BC0
:1063E0009024D2E030E60C9024CBE0D39F500C9167
:1063F0001D800591894004EF124FCB9024D2E030EC
:10640000E503124F04227D017F09021AF7F0902460
:10641000CBE0A3F0227F05121AF77F1E2290259D64
:10642000E09024CB229024CBE0D39401229024CB83
:10643000E09024C9F0229024CBF09024C9E022906F
:1064400024CDE09024CFF0227F01124F9C7D017F6C
:1064500006229024C8E0FF711C9163122BFA914828
:10646000021AF79024CAE04408F0A3E025E024D300
:10647000F582E43424F583E0FEA3E0FF229024D0EB
:10648000E09024CDF090259E2290259DE0FF902461
:10649000CBE0C39F2291639024CBE060028003E4B1
:1064A000FFFE022BFAEFB40104917D801DEF700B0B
:1064B00090259FE09024CDF0A3800FEFB4021090C0
:1064C00024BCE09024CDF09024D1E090259CF022D3
:1064D0009030F2B10930E506B113124EFBF0902571
:1064E0009BE09024CBF07F0191A59030F2E0FE304C
:1064F000E5089024CBE0FFEE80099030F3E0FF90B8
:1065000030F2E05440FD024EBEEFF0A3EDF09024D7
:10651000D2E022124EB59024D2E054DFF09024CB8A
:10652000E090259BF022124EB57E637F7D90259CE6
:10653000E0FD7BFF024FC23052149024CB7463F015
:106540007E607F73E0FD12197B124EFBF0227E60AD
:106550007F731219769024CBEFF0124FF67E607F96
:10656000741219769024CAEFF02290259DE0FF2244
:106570009024CBE0903128F0B1FE6005D1090226CD
:1065800072124DC4125FDC9024D2E030E55D30E63B
:1065900018B1EC903128E0FDD39E4005ED9FF080CE
:1065A0001E9031287401F08016B1F4FF903128E07C
:1065B000C39F5005E004F080069031287463F0908A
:1065C0003128E09024CBF09024D2E030E503124F44
:1065D000049024D2E030E609903128E0B4010C8028
:1065E00007903128E0B46303124EB5229024CFE027
:1065F000FF04FE229024CFE0FFC374639F22902407
:10660000C412264AEC4D4E4F229024C412264AEF63
:1066100024FFFFEE34FFFEED34FFFDEC34FFFC9071
:1066200024C422C0E0C0F0C083C082C0D075D000B6
:10663000C000C001C002C003C004C005C006C0073E
:10664000C0FF758CDF758A6FC28DD28C121B2ED065
:10665000FFD007D006D005D004D003D002D001D09F
:1066600000D0D0D082D083D0F0D0E032C0E0C0F0F3
:10667000C083C082C0D075D000C007C0FF758D63D5
:10668000758BBFC28FD28E902ED4E004F0E05403FD
:106690007024F0D22B902ED0E004F0E0FF75F00AC9
:1066A00084E5F07002D22CEF75F06484E5F070069A
:1066B000902ED0F0D22AD0FFD007D0D0D082D08375
:1066C000D0F0D0E032EF600A75F28075F24043F10D
:1066D0004022E5F130E70653F17F43F180E5F130E8
:1066E000E308E5F230E7FB75F2C022E5F130E7069A
:1066F00053F17F43F18022EF600443F1802275FF64
:1067000001E4F58E53F17F22EFB40807F13444031E
:10671000F58422EFB40407F1344402F58422EFB487
:106720000207F1344401F58422EFB4010675FF013C
:106730005384FC2275FF01E58454FC22E5F130E42A
:106740000F75FF0175FF015385F075FF018F8622DC
:1067500075FF01EF540FFDE58554F04DF58575FF8C
:1067600001F166F58622EEC4F854F0C8EFC4540F68
:106770004822EF6003D2EA22C2EA2275F24022E503
:10678000F2C330E601D322E4F55BF55CE5F230E7D5
:106790002675F280E5F1AFF330E407755B008F5C9E
:1067A0008010EF75F010A4F55C85F05BE5F2540FF6
:1067B000425CAE5BAF5C227EFF7FFF22EF6007751D
:1067C000FF014384042275FF015384FB2275FF01FE
:1067D00053853FEF428522EFB4010443F110225369
:1067E000F1EF22EFB4010443F1042253F1FB22EF55
:1067F000600443F1012253F1FE22EFB4020343F19E
:1068000008EFB4010353F1F7EFB4030543F101803E
:106810003FEDB4040875FF014385208014EDB401F9
:106820000711545384F78009EDB4020511544384D1
:1068300008EBB4100875FF015385EF800AEBB42014
:106840000675FF0143851075FF0190305BE0F58E02
:1068500043F1802275FF015385DF75FF0122EF545C
:1068600003FFE58954FC4FF58922EF600443890456
:10687000225389FB22AF8CAD8AEFB58C04FEEDFF6D
:1068800022AF8CEFFEAD8AEDFF22EFC45430FFE55E
:106890008954CF4FF58922EF24FF92AB22EF24FFDA
:1068A000928E22EF6004438940225389BF22AF8D2C
:1068B000AD8BEFB58D04FEEDFF22AF8DEFFEAD8BFE
:1068C000EDFF2275FF01EF4420F5A42275FF01437F
:1068D000A4102275FF01E5A45410FF22EF24FF92BB
:1068E000E92275FF01EF600443A4112243A410754F
:1068F000FF0243F60222EF600775FF0243F6012212
:1069000075FF0253F6FE22AD07AC0675FF01ECF5EC
:10691000A9EDF5A72275FF01AFA9EFFEE5A7FDEDF3
:10692000FF2275FF01AFA6E5A570011FEFFEADA523
:10693000ED24FFFDE434FF4EFEEDFF2275FF01EF75
:1069400054C4442AF5A42275FF018FA9AF058FA76F
:106950002275FF01E5A912231E902F9C1226CCE57B
:10696000A702231E1226CCE92409F9E43AFA22EF01
:10697000F0A3EDF0A30226EC8F828E837F01022824
:10698000177B017A12791C902F240226EC7B017D63
:1069900001121AA27B0122AA06A9070228131223B8
:1069A000E5FFAEF022E0FF902DB4E4F0A3EFF0227B
:1069B000E0FFA3E0FDA3E0FB229002BDE0FEA3E028
:1069C000FF1219ADD3EF94C8EE940022F9E43AFA1D
:1069D000EE02231EEEF0A3EFF0A32274FFF5F012F7
:1069E00023B945F022902F19E02403FF902F18E0DF
:1069F0003400FEEF221226CC740502231E1226CC90
:106A0000740102231EE0900004022330E0FCA3E0A6
:106A1000FDD39FEC2290000402229C1223309000B0
:106A20000222FAE924FFF9EA34FF221226EC0222BC
:106A300083C8ECC8C9EDC9CAEECACBEFCB22AF03FD
:106A4000EAF0A3EFF022E0FEA3E0FF7C0022901228
:106A50000EE0D3940122E4F5FFE5D25480440AF518
:106A6000D222E0FCA3E0FDA3E0FEA3E0221226CCAC
:106A70007D05E4FF0219627C00FFEC35F0FE22E0A8
:106A8000FFA30226CCE0FEA3E0F58222E0FCA3E017
:106A9000FD4C2275FF015356BF8556CB2275FF0171
:106AA000E4F5EA75EAFF22E5D254804414F5D222D7
:106AB0007D01121AA27B01228B828A83022817FF92
:106AC000EE5CFEEF5D4E22758300EF022330740111
:0E6AD0007E00A805082233333354F8F5F42273
:026ADE00FFFFB8
:106AE000FFFFFFFFFFFFFFFFFFFFFFFFFFFFFFFFB6
:106AF000FFFFFFFFFFFFFFFFFFFFFFFFFFFFFFFFA6
:106B0000FFFFFFFFFFFFFFFFFFFFFFFFFFFFFFFF95
:106B1000FFFFFFFFFFFFFFFFFFFFFFFFFFFFFFFF85
:107FB000FFFF3F3F3F0404047FC6548D79F9089CBE
:067FC00000637D3445085A
:0A7FC600FFFFFFFFFFFFFFFFFFFFBB
:107FD000FFFFFFFFFFFFFFFFFFFFFFFFFFFFFFFFB1
:107FE000FFFFFFFFFFFFFFFFFFFFFFFFFFFFFFFFA1
:107FF000FFFFFFFFFFFFFFFFFFFFFFFFFFFFFFFF91
:10800000EF547024F0602624F0603C24F060522489
:10801000307067303E0B117E8002C333D8FC428043
:1080200022117E8002C333D8FCF4528022303E0BF2
:10803000117E8002C333D8FC429022117E8002C39D
:1080400033D8FCF4529022303E0B117E8002C333B1
:10805000D8FC42A022117E8002C333D8FCF452A087
:1080600022303E0B117E8002C333D8FC42B0221175
:108070007E8002C333D8FCF452B02275FF01EF5466
:1080800007FF7401A8070822F9E43AAD01903072A5
:10809000F0A3EDF012CC16903028EFF0C39402401C
:1080A000024187903028F1D7E0FF90302BF09027E5
:1080B000AEE0FEEFB50605E4F54C800690302BE00F
:1080C000F54CE54C75F011A42407F9740035F090D7
:1080D000302B12D444E54C12BC99125A408F52E511
:1080E000525403FF602F903028E0FE518CE0548FF3
:1080F000F0741E2E518EE04420F0903028E0FE9166
:1081000051E0549FF074172E9153E0FEEFC43354A6
:10811000E0FFEE4FF0E490302AF0E4903029F0E5F3
:108120004C12BD61FA90302A916CFA903029E0F13E
:10813000CCFEAF01125A478F52903028E0FF518C8D
:10814000E0540FFE903029E0FDC39E500CEFF1A1EA
:108150002DF199E0FD7C00800F903029E07005FC46
:108160007DFE80047C007D00AF05EF6552600280DB
:108170001FEF64FE70024187903029E0FD6009EF37
:108180007006EE6D7002418790302912D47C408FCA
:10819000903029E064047002418790302A12D47C28
:1081A0005002211AE54C12BD61AF01F54A8F4B51C7
:1081B00088E0540FF552E4903029F0903029E0FF28
:1081C000C39404501BAD4C12BEAAA4FDACF0E54C08
:1081D00012BD6112BEC36008903029E004F080DB5C
:1081E000903029E0C3940440037403F0903029E0F8
:1081F000FFAD4C12BD6D903029EFF05188E0540F67
:10820000F552E490302AF0E5527009915BFEAF011F
:108210007DFE802090302AE0C395525022915BFA77
:10822000A3E0F1CCFEAF01E0FD903028E0F1A12DFC
:10823000F199E0FD125A5F90302AE004F080D59069
:10824000302AE0C39404500A915BFAA3E0F1CC1207
:10825000B76FE54C125A378F525188E054F0C394EF
:10826000025011903029E011818002C333D8FCF410
:108270005252800E903029E011818002C333D8FC25
:108280004252E54C125A4D22903028E0241EF582CD
:10829000E43412F58322902FC2EEF0A3EFF02025F4
:1082A0000F902206E0B4010B902FC2913520E70316
:1082B0007FFF2291457B012404913DF1E260028021
:1082C0000991457B012408913DFFAD0712CBF79042
:1082D0002FC6EFF0F4705012CCF45036E004F0E406
:1082E000902FC6F0902FC6E0FFC39402501074196F
:1082F0002FF1DAE06008902FC6E004F080E6902FBE
:10830000C6E0B402037401F0902FC6E024FF92246B
:10831000801520260CB224A224E433902FC6F080CE
:1083200006902FC67401F0902FC6F1D7ED9144FF4F
:10833000913920E70261D0EF2409913D30E31D908F
:108340002FC2A3E0240A913D12D3AFEC3AFAE924FC
:1083500001D1AC5418FF914DEFF08004914DE4F041
:1083600091457B01240A913DC4540FFF902FC651C3
:108370008BEFF0902FC2E0FCA3E0240BF9E43CADBE
:1083800001A3F0A3EDF0902FC2A3E02409F9E43C8F
:10839000FA12228320E01AAE071FEE604712D41FA4
:1083A00012CCE5FE902FC6E0F1A12FF199EEF080FE
:1083B000E6E4FEAD071FED602B12D41F12CCE5FDE5
:1083C000AC060E902FC6E0F1A12CF199EDF080E300
:1083D000902FC6E0FF518CE4F074172F9153E4F016
:1083E000EF12CCFC902FC6518BC083C082E0FF906F
:1083F0002206E012BEF8D082D0839144FF9139303A
:10840000E708EF2409913D20E408902FC291353010
:10841000E40C12CB748002C333D8FC4F800B12CB18
:10842000748002C333D8FCF45F90121BF0D2259005
:108430002FC6E0FF22E0FEA3E07B012405F9E43E25
:10844000FA022283F0902FC2E0FEA3E022902FC612
:10845000E02417F582E43412F58322E54C75F0111F
:10846000A42408F9740035F0FA903029E075F0047E
:10847000A429F9EA35F022B15E24B7D1ACFF30E788
:1084800077540F64017071B15E24B6D1ACF1E27023
:1084900067200D64902F4304B15D24BBD1AC30E361
:1084A0003DB15E24BCD1AC902F4012D37C24BD12D0
:1084B000C1B0122283540F7025B15E2FF9EE3AFA43
:1084C000E924BED1AC54606015B15E24BCD1ACC40B
:1084D000540F240412D4647D6E7C0002C825E490FD
:1084E000220CB15D24BCD1ACC4540F75F03EA4FD88
:1084F000ACF07E197FC1A1EDB15E24B7D1AC20E70D
:1085000016902308E0F4600312959CB15E24B2F942
:10851000E43AFEAF01F1D31290B27F01903107B17E
:108520005C4AC36001D35033F1F1E4902F43B15D55
:10853000F1B845F0601C903107E0902F406007F1E2
:10854000B412D3748009F1B4F58285F0837F0112EF
:10855000281712C3AF902F401226EC22EFF0902F75
:10856000401226CCE922902F401226ECE92401D1BA
:10857000ACD39401403D12C87B902F44EFF07E1A9B
:108580007F7AB15E24B7D1AC30E71EB15E24BBD197
:10859000AC20E015B15E24BCD1ACFDC4540FFCEDA1
:1085A000540FB504047D078042B15E24B1D1ACF113
:1085B000E98038E4902F44F07E1A7F7AB15E24B7C8
:1085C000D1AC30E71EB15E24BBD1AC20E015B15E6A
:1085D00024BCD1ACFDC4540FFCED540FB504047D94
:1085E000078008B15E24B1D1ACF1E97C009030C4C1
:1085F000EEF0A3EFF0902F3F7401F0AE04AF051240
:10860000C7C8AC06AD079030C4E0FEA3E0FFAB07DF
:10861000AA0612981A438510ED4C70050DBD000195
:108620000CD3ED94FFEC9403500AEDF586EC443046
:10863000F5858052D3ED94FCEC940F5017EDAE0409
:108640007802CEC313CE13D8F9AC06F586EC4434C9
:10865000F5858032D3ED94F0EC943F5016ECC4F8DD
:1086600054F0C868FCEDC4540F48F586EC4438F566
:10867000858013EDAE047806CEC313CE13D8F9F57A
:1086800086EE443CF5859030BC126A3ED230E4F56B
:108690005E75FF0243854075FF02438580D22F221D
:1086A00012231E902FB81226CCE92402F9E43AFADC
:1086B000022283B15E4AC36001D35074B15E12538B
:1086C000E874FF1222C9122283D394014002804F22
:1086D000B15E2401D1AC6401704E128B6B12699EA5
:1086E000540764037039B15E24B6D1ACFD90121CFE
:1086F000E06D702BB15E24B7D1AC20E722B15E24CF
:10870000B9D1ACD394405017201614128B6BEF5490
:10871000F8128F57B15E24B7D1AC441012231E90CB
:108720002F401226CC02B990E4902F43F0128B799F
:1087300022902FBE1226EC902FBDB15C24BCD1AC90
:10874000C4540FB50712B15E24BAD1ACFF902FBE4E
