:020000040000FA
:10180000022A8019F319F8227FB818125BB95BD14C
:101810005DD82202738DEF90181F93901900730A00
:1018200020364CE560FF22EFF5602202497E1BA6C0
:101830001BB01BB51BBA1BBF1BC41BCE1BD81BDDAB
:0A1840001BFB1C001CDC1CE11CE675
:01184A00FF9E
:10184B00026892C2D5E830E70FB2D5E4C39BFBE444
:10185B009AFAE499F9E498F8EC30E717B2D5121834
:10186B00841223C6E4C39BFBE49AFAE499F9E49847
:10187B00F880031223C630D50DE4C39FFFE49EFE10
:10188B00E49DFDE49CFC227895E4F6D8FD900000E5
:10189B007F007E10E4F0A3DFFCDEFA904FFFA3E5A0
:1018AB0083C394204011FEAF829020000E0FE48082
:1018BB0002F0A3DFFCDEFA121920022A9222325E1A
:1018CB00868559725A7380847A21EF26001C2D1C51
:1018DB00321C371C3C1C411C461C4B1C501C551C01
:1018EB005A1C5F1C641C731C781C7D1C821C871C7F
:1018FB00FA1CFF1D04C0607419C0E0C082C0837560
:10190B00600AE5FF54CF4490F5FF22C0607419C004
:10191B00E0C082C083756020E5FF54CF4490F5FF93
:10192B0022C0607419C0E0C082C083756036E5FFC9
:10193B0054CF44A0F5FF22C0607419C0E0C082C030
:10194B008375604CE5FF54CF44B0F5FF2290889B24
:10195B00211690893D2116908947211690900421DC
:10196B001690A001211690A007211690A8492116C8
:10197B0090A75B211690A84C211690B1F6211690DA
:10198B00B4CF211690B4D6211690B82A2116909F69
:10199B007A211690B854211690B627211690B0656F
:1019AB00211690B1A3211690B163211690B0F921A5
:1019BB001690B8C2211690B8DD211690A9162116E3
:1019CB0090A9C62116908D5E211690B917211690FD
:1019DB00BFEC211690C0122116908E1C211690B9C7
:1019EB009B211690AB3E211690B3FF211690B3B6F8
:1019FB00211690C1E4211690AADF211690B29121F5
:101A0B001690C439211690C4D9211690A6B321166D
:101A1B0090C596211690B65C211690B19421169024
:101A2B00BCAB211690BCE5211690B9A2211690C52E
:101A3B0099211690A428211690814B211690B97CE0
:101A4B00211690C5DE211690A6B8211690BC4A210E
:101A5B001690BB38211690BC48211690C65F2116F4
:101A6B0090BB5A211690B10D21169090B321169070
:101A7B009022211690A67B211690A501211690A9E4
:101A8B0021211690C301211690BDCD21169087F808
:101A9B00211690BEBE211690A9282116909169217E
:101AAB001690AAC7211690AF1A2116908D342116C5
:101ABB00908D00211690BFBF211690C68E211690D7
:101ACB008172211690865E21169086D4211690AADB
:101ADB00142116908588211690BA42211690C72C96
:101AEB00211690A635211690C891211690C8CA21AF
:101AFB001690A9FF211690B5BC211690B79E211602
:101B0B0090C906211690AF32211690AED9211690AE
:101B1B008AD1211690C6CC211690CA04211690A208
:101B2B001C211690C9BD211690A131211690AA5ED9
:101B3B002116909B3F211690C2B4211690CB1821F1
:101B4B001690CB5D211690CB7B211690CBCF211617
:101B5B0090CC1F211690A358211690A3AC21169060
:101B6B00CC2E211690CE0C211690CC47211690CE60
:101B7B0096211690A3E8211690CEBE211690CE8CFE
:101B8B0021169084C6214290868321429087D621CC
:101B9B004290882A21429088942142908A8921423E
:101BAB0090843B2142908AA32142908750214290FE
:101BBB008AD72142908AFD21429081572142908AF7
:101BCB00BD2142908B0A21429080FF2142908B3F96
:101BDB002142908B7A21429086BE214290844C21E7
:101BEB004290857021429086EE2142908C102142CA
:101BFB00908D0321429081D121429080002142900F
:101C0B0084AA2142908FC42142908FF5214290905B
:101C1B007B2142908D512142908EB221429090E3D4
:101C2B00214290A0A0212C90B7BB212C90B7CD21A5
:101C3B002C90B86E212C90B875212C9097B5212C37
:101C4B0090B241212C90A2A3212C90A1EF212C909A
:101C5B00A15A212C90A358212C90B891212C908023
:101C6B0044212C90B93C212C90ABEB212C90B94208
:101C7B00212C90A206212C90B0C3212C90B783214C
:101C8B002C90B309212C908EB8212C908086212C7E
:101C9B00909F18212C909E3D212C90B9A1212C9026
:101CAB00BA31212C90BCAE212C90B676212C90A26F
:101CBB0076212C90A041212C909B06212C90A05496
:101CCB00212C90929A212C90A0BA212C908A302111
:101CDB002C90B14C212C90BCC9212C909D9C212C7B
:101CEB0090AEEB212C90BF7A212C90B8FB212C903D
:101CFB009132212C90C1A1212C909D4B212C90C174
:101D0B00B1212C90B75B212C90C1D2212C90C1D743
:101D1B00212C90C218212C90C22C212C90C267210F
:101D2B002C90C281212C0002207AE86480F8E933E0
:101D3B00E83360110460F0ED33EC337009E8FCE933
:101D4B00FDEAFEEBFF220460DED3EB9FEA9EE99DEA
:101D5B00E8C2E78CF0C2F795F0400CE8CCF8E9CD7F
:101D6B00F9EACEFAEBCFFB12204585D0F058047080
:101D7B000320D5B3E80470075002B2D50220849239
:101D8B00D5EC0460F7E4CCC0E0C398F8603B941842
:101D9B006008400DD0E0FB02205CE4FBFAC9FC803C
:101DAB0028E830E406E4C9FBE4CAFCE830E305E4C8
:101DBB00C9CACBFCE854076010F8C3E913F9EA135E
:101DCB00FAEB13FBEC13FCD8F130F52FC3E49CFCBE
:101DDB00EF9BFFEE9AFEED99FDD0E0FBEF4E4D4CE5
:101DEB00701222DB03022081EC2CFCEF33FFEE336D
:101DFB00FEED33FDED30E7EB02205CEF2BFFEE3A0F
:101E0B00FEED39FDD0E0FB50130BBB000302208429
:101E1B00ED13FDEE13FEEF13FFEC13FC02205CEC55
:101E2B004D6011E8497017ED33EC3304600DE4FCA1
:101E3B00FFFEFD22E933E8330470F802207A12200A
:101E4B004558046009E4CC2481500628500902202F
:101E5B0084284003022081C0E0EB4A7044B980061D
:101E6B00D0E0FB022070EF4E701CBD8008EBFFEA48
:101E7B00FEE9FD80EBE98DF0A4FEE5F0021F13E90E
:101E8B00CDF9EAFEEBFFEF89F0A4FCE5F0CE89F08B
:101E9B00A42EFFE435F0CD89F0A42DFEE435F080BF
:101EAB0067EF4E7005BD80D780C3EF8BF0A4ACF00D
:101EBB00EE8BF0A42CFCE435F0F8EF8AF0A42CE5C3
:101ECB00F038FCE433CB8DF0A42CFCE5F03BF8EEC2
:101EDB008AF0A42CFCE5F038F8E433CF89F0A42C7D
:101EEB00FCE5F038CF3400CE89F0A42FFFE5F03EAF
:101EFB00FEE433C98DF0A42EFEE5F039CD8AF0A4B3
:101F0B002FFFE5F03EFEE43DFD33D0E0FB50070B29
:101F1B00BB000F022084EC2CFCEF33FFEE33FEED05
:101F2B0033FD02205C022084EC5D046005E859045B
:101F3B00700302207A122045580460F6EC4860F2D8
:101F4B00EC7004FDFEFF22C860DB2481C85009C37E
:101F5B0098600250060220819850CAF582E9294BFD
:101F6B004A7005AB8202207075F0007C1A7880C332
:101F7B00EF9BEE9AED99400DC3EF9BFFEE9AFEEDB2
:101F8B0099FDE842F0DC23ACF0D0E0FFD0E0FED0CE
:101F9B00E0FDAB8220E7101BEB60BAEC2CFCEF33BF
:101FAB00FFEE33FEED33FD02205CE803F830E7056E
:101FBB00C0F075F000EF2FFFEE33FEED33FD40B8B0
:101FCB0030E7C280AA75F020800E75F01080057581
:101FDB00F0087D007E007F003392D530D5031224AC
:101FEB0065EC334010EF33FFEE33FEED33FDEC3396
:101FFB00FCD5F0ED22E5F0247EA2D513CC92E7CDF3
:10200B00CEFF22EDD2E7CD33EC3392D524814006BF
:10201B00E4FFFEFDFC22FCE4CFCECDCC24E050113E
:10202B0074FF80EDC3CC13CCCD13CDCE13CECF1319
:10203B00CF0470F030D5DE022465E9D2E7C933E86E
:10204B0033F892D5EDD2E7CD33EC33FC5002B2D559
:10205B0022EC30E7100FBF000C0EBE00080DBD00C8
:10206B00040BEB6014A2D5EB13FCED92E7FD22748D
:10207B00FFFCFDFEFF22E480F8A2D574FF13FC7D6C
:10208B0080E480EFBB010689828A83E0225002E75D
:10209B0022BBFE02E32289828A83E49322BB010CDA
:1020AB00E58229F582E5833AF583E0225006E9259E
:1020BB0082F8E622BBFE06E92582F8E222E58229B8
:1020CB00F582E5833AF583E49322BB010989828A81
:1020DB0083F8E028F022500327F722BBFE05F8E334
:1020EB0028F3228A838982F8E4932822BB010FF814
:1020FB00E58229F582E5833AF583E028F022500941
:10210B00C58229F8E58226F622BBFE09C58229F88D
:10211B00E22582F222F8EA2583F583E9932822BB94
:10212B00010689828A83F0225002F722BBFE01F35B
:10213B0022F8BB010DE58229F582E5833AF583E8A8
:10214B00F0225006E92582C8F622BBFE05E925825E
:10215B00C8F222EF8DF0A4A8F0CF8CF0A428CE8D7E
:10216B00F0A42EFE22BC000BBE0029EF8DF084FFE5
:10217B00ADF022E4CCF875F008EF2FFFEE33FEEC58
:10218B0033FCEE9DEC984005FCEE9DFE0FD5F0E97F
:10219B00E4CEFD22EDF8F5F0EE8420D21CFEADF07E
:1021AB0075F008EF2FFFED33FD4007985006D5F083
:1021BB00F222C398FD0FD5F0EA22C2D5EC30E70925
:1021CB00B2D5E4C39DFDE49CFCEE30E715B2D5E43B
:1021DB00C39FFFE49EFE122170C3E49DFDE49CFCB3
:1021EB00800312217030D507C3E49FFFE49EFE22CB
:1021FB00C5F0F8A3E028F0C5F0F8E582158270026F
:10220B001583E038F022A3F8E0C5F025F0F0E58265
:10221B00158270021583E0C838F0E822BB010A89E9
:10222B00828A83E0F5F0A3E022500687F009E719D4
:10223B0022BBFE07E3F5F009E3192289828A83E4C6
:10224B0093F5F074019322BB0110E58229F582E529
:10225B00833AF583E0F5F0A3E0225009E92582F8F3
:10226B0086F008E622BBFE0AE92582F8E2F5F008C3
:10227B00E222E5832AF583E993F5F0A3E99322BBE8
:10228B00010789828A830221FB500B09C5F027F7CE
:10229B00C5F01937F722BBFE0D09F8E325F0F3C59E
:1022AB00F019E338F322F889828A8374019325F0BD
:1022BB00C5F0F8E4933822BB010DC58229C582C550
:1022CB00833AC5830221FB5011C58229F808E5F03A
:1022DB0026F618F5F0E58236F622BBFE11C58229EB
:1022EB00F808E225F0F5F0F218E23582F222F8E573
:1022FB008229F582E5832AF58374019325F0F5F0A5
:10230B00E4933822BB010A89828A83F0E5F0A3F0BB
:10231B00225006F709A7F01922BBFE06F3E5F009D8
:10232B00F31922EF2BFFEE3AFEED39FDEC38FC22D0
:10233B00E88FF0A4CC8BF0A42CFCE98EF0A42CFC41
:10234B008AF0EDA42CFCEA8EF0A4CDA8F08BF0A4BF
:10235B002DCC3825F0FDE98FF0A42CCD35F0FCEB1E
:10236B008EF0A4FEA9F0EB8FF0A4CFC5F02ECD39E3
:10237B00FEE43CFCEAA42DCE35F0FDE43CFC2275DA
:10238B00F008758200EF2FFFEE33FECD33CDCC334B
:10239B00CCC58233C5829BED9AEC99E58298400CB3
:1023AB00F582EE9BFEED9AFDEC99FC0FD5F0D6E491
:1023BB00CEFBE4CDFAE4CCF9A88222B800C1B90077
:1023CB0059BA002DEC8BF084CFCECDFCE5F0CBF9D8
:1023DB007818EF2FFFEE33FEED33FDEC33FCEB33D0
:1023EB00FB10D703994004EB99FB0FD8E5E4F9FAFE
:1023FB00227818EF2FFFEE33FEED33FDEC33FCC9E3
:10240B0033C910D7059BE99A4007EC9BFCE99AF975
:10241B000FD8E0E4C9FAE4CCFB2275F010EF2FFFE4
:10242B00EE33FEED33FDCC33CCC833C810D7079B4E
:10243B00EC9AE899400AED9BFDEC9AFCE899F80FB1
:10244B00D5F0DAE4CDFBE4CCFAE4C8F922EF5BFF7C
:10245B00EE5AFEED59FDEC58FC22C3E49FFFE49EBF
:10246B00FEE49DFDE49CFC22EB9FF5F0EA9E42F01E
:10247B00E99D42F0E89C45F022E8600FECC313FCA9
:10248B00ED13FDEE13FEEF13FFD8F122E8600FEF13
:10249B00C333FFEE33FEED33FDEC33FCD8F122BB3F
:1024AB00010789828A830224EC5005E9F80226C1D0
:1024BB00BBFE05E9F80226CD22E0FCA3E0FDA3E07C
:1024CB00FEA3E0FF22E493FC740193FD740293FEE0
:1024DB00740393FF22E0F8A3E0F9A3E0FAA3E0FB77
:1024EB0022ECF0A3EDF0A3EEF0A3EFF022A882858F
:1024FB0083F0D083D08212250F12250F12250F12D5
:10250B00250FE473E493A3C583C5F0C583C8C582C7
:10251B00C8F0A3C583C5F0C583C8C582C822A4254E
:10252B0082F582E5F03583F58322E6FB08E6FA08AF
:10253B00E6F922EBF608EAF608E9F622E0FBA3E05F
:10254B00FAA3E0F922F8E0FBA3A3E0F925F0F0E50C
:10255B0082158270021583E0FA38F022EBF0A3EAC1
:10256B00F0A3E9F022BB010789828A830225475039
:10257B0005E9F8022535BBFE05E9F80226D9898263
:10258B008A830226EBBB011A89828A83D0F0D0E0C2
:10259B00F8D0E0F9D0E0FAD0E0FBE8C0E0C0F00200
:1025AB0025675016E9F8D083D082D0E0F9D0E0FA55
:1025BB00D0E0FBC082C08302253EBBFE16E9F8D0FB
:1025CB0083D082D0E0F9D0E0FAD0E0FBC082C083A8
:1025DB000226E222BB010DE58229F582E5833AF55D
:1025EB00830225475007E92582F8022535BBFE07F4
:1025FB00E92582F80226D9E58229F582E5833AF5A9
:10260B00830226EBBB0120E58229F582E5833AF5AF
:10261B0083D0F0D0E0F8D0E0F9D0E0FAD0E0FBE8DE
:10262B00C0E0C0F00225675018E92582F8D083D0AE
:10263B0082D0E0F9D0E0FAD0E0FBC082C083022563
:10264B003EBBFE18E92582F8D083D082D0E0F9D0CA
:10265B00E0FAD0E0FBC082C0830226E222D083D016
:10266B0082F8E4937012740193700DA3A393F87422
:10267B000193F5828883E4737402936860EFA3A3DC
:10268B00A380DF8A838982E473EC8EF0A4CCC5F03F
:10269B00CCCDF8EFA4CEC5F02DFDE43CFCE8A42E88
:1026AB00C8C5F03DFDE43CFCEFA4FFE5F028FEE4DB
:1026BB003DFDE43CFC22ECF608EDF608EEF608EFE7
:1026CB00F622ECF208EDF208EEF208EFF222E2FB52
:1026DB0008E2FA08E2F922EBF208EAF208E9F22240
:1026EB00E493FB740193FA740293F92241270200DD
:1026FB004102B200C139C13BE0080200005A654EED
:10270B007359730000E00102001554E0010200163A
:10271B00A5410415060114004104140141041301E1
:10272B00C142011A00011700C14541216A05C14C84
:10273B0043230100000041231200C138013000C1C6
:10274B0035C136412BEE00C164432A1F0000004106
:10275B002A1E00412A2200C13CC13E4126950001A0
:10276B005E00C13341268700412694004424368005
:10277B00035A01602E240700000000000000000037
:10278B00000000000000000000000000000000003E
:10279B00000000000000000000000000000000002E
:1027AB00000000000041243F00C122C1A14124715F
:1027BB00004123F50041244100C11AC11FC119C1B9
:1027CB001EC11DC11BC120C11C41243A00412466FE
:1027DB00004123FA014124720141246FFF41246A15
:1027EB00FF41246D0041246E004124050041246803
:1027FB00004124350041246B004123FB004124069A
:10280B00004124020041244000412443004224455E
:10281B0000004124440041243E0041246400412433
:10282B003B0041246C004124700041243D004124B5
:10283B0067004124030041246500412442014124E7
:10284B00040041243C0041246900E00C0260BA0002
:10285B0063733548433035050B0426412672FF411F
:10286B002671004126850041266F00C125C12441F8
:10287B00266E0041268400C129C127C128C123C16E
:10288B0026412683004426760000000041267EFF69
:10289B0044267A0000000044267F000000004126F9
:1028AB007050412675004126730041266D0041266C
:1028BB007400412872004128740041286F004128A0
:1028CB006E004128730041286D0041286C0041289F
:1028DB00700041287500C165412AE400412AE300DC
:1028EB00412AE600412AE500412944FF41293EFFE8
:1028FB0041294100C1664925614C6966656C696E69
:10290B00650041256B0041256A01C1EA6096235F92
:10291B0000000000000000000000000000000000AC
:10292B00000000000000000000000000000000009C
:10293B00000000000000000000000000000000008C
:10294B00000000000000000000000000000000007C
:10295B00000000000000000000000000000000006C
:10296B00000000000000000000000000000000005C
:10297B00000000000000000000000000000000004C
:10298B00000000000000000000000000000000003C
:10299B00000000000000000000000000000000002C
:1029AB000000000000004126B4004126BD00412676
:1029BB00C1004126C0004126BC004126B70042267B
:1029CB00B500004226C30000432B07000000412B3B
:1029DB000A004329C20000004129C70041263528BF
:1029EB005126140000000000000000000000000051
:1029FB0000000000422A420000422A4400000090DE
:102A0B0026F7E47E0193700122A3FF543F30E509C2
:102A1B00541FFEE493A360010ECF54E0B4E03AEFF1
:102A2B00FAEEF9E493FBA3E493FEA3E493FFA3E490
:102A3B0093FDC083C082C001C002C006C00712193B
:102A4B008AD007D006D002D001D082D083A30FEF5B
:102A5B0070010EDADAD9D880A954C025E060105085
:102A6B0005A3DFFD809CA3A3A3DFFDDEFB8093A367
:102A7B00A3DFFD808D75819575FF03759E0212197D
:102A8B0020023A580218C89026F7E47E019360F4AE
:102A9B00A3FF543F30E509541FFEE493A360010EDE
:102AAB00CF54E0B4E00EEFFAEEF9A3A3A3A3DAFD43
:102ABB00D9FB80D654C025E0604B5026E493A3F895
:102ACB005407240CC8C333C4540F4420C883400498
:102ADB00F456800146F6DFE480B0010204081020B2
:102AEB004080E493A3FAE493A3F8E493A3C8C582CC
:102AFB00C8CAC583CAF0A3C8C582C8CAC583CADF02
:102B0B00E9DEE78085E493A3F8E493A34003F68022
:102B1B0001F208DFF4022A953F241E16110E0B0951
:102B2B00070504030201F0C8A791776760463835A3
:102B3B003230242220140001010202030304040595
:102B4B000506060707B1901A2A1A2F1A341A391AD2
:102B5B00481A4D1A571A611A931A981A9D1AAC1AD9
:102B6B00B61AC51ACA1AD91ADE1B011B061B0B0093
:102B7B000DFA20000DDC7000000000020C00013F7C
:102B8B003F3F0404041CB41CB91CBE1CC31CC81C52
:102B9B00CD1CD21CD75A2D5761766520342E333875
:102BAB0000822D1C16131110101D131D181D1D1D39
:102BBB00221B5B1B651CEB1CF01D091D0E1D271D2D
:102BCB002C1B2E1CAA1CAF1CF57F01D14E9026FA94
:102BDB00E01226682BFB042C03142C08152C0D1764
:102BEB002C1D302C22342C27362C2C3700002C1586
:102BFB00534EEF854E80802F534FEF8008534FDF9E
:102C0B008003534F7F854F90801D5350DF8550A01D
:102C1B0080155351FE800D5351EF80085351BF80E7
:102C2B000353517F8551B07F0CDFFE227F01D14EC4
:102C3B00902BD57401F0902BD5E0602EF17C91CECA
:102C4B00902BD5EFF0B17091BD9026F6EFF0B170EF
:102C5B00902BD5E05401F1B160DCA3E0F460D7EF29
:102C6B0030E7D3E4902BD5F080CC71D87F9F91B512
:102C7B0091CE9026F791CC9026FC91CC9026FDEF2F
:102C8B00F0D14A9026F5E0F4601BA3E0F4601690B7
:102C9B0026FCE0FD541F240FA3F0EDC4135407448E
:102CAB00809026FCF0221224C4E4E5C820E2FB8FBE
:102CBB00EB2271D87FD791B57FFF91B591D290263A
:102CCB00F5EFF07FFF91B5E5C820E2FBAFEB227F7C
:102CDB0001D14E304D14F17C91CE902BD7EFF0B14A
:102CEB0070902BD7E020E002C24D304D1791BD9074
:102CFB0026F6EFF1B1600BA3E0F46006EF30E702CC
:102D0B00C24DB170E4FFD14EA24DE433FF22902AA5
:102D1B004D1224EC902A4D1224C4D15A902A51E022
:102D2B006F6034F13D91DAEF6004F12880F7B16404
:102D3B0071D89026F8E0FFF11F6007902A4DF18CB7
:102D4B0091B5902A4DF18291B5902A4D91B1902A6F
:102D5B0051E0FFD148D322C3227F01D14ED24D7116
:102D6B00D87F0691B5F1D1EF70FB9026FCE0F460B3
:102D7B000A902BD47406F0F19670FC9026FAE012B0
:102D8B0026682DA9042DB1142DB6152DBB172DCBEF
:102D9B00302DD0342DD5362DDA3700002DC3434ED0
:102DAB0010854E80802F434F108008434F208003A7
:102DBB00434F80854F90801D4350208550A0801538
:102DCB00435101800D435110800843514080034310
:102DDB0051808551B0902BD4740CF0F19670FC227D
:102DEB009028801224EC902884122567F13D91DA0B
:102DFB00EF6004F12880F7B16471D89026F8E0FFFA
:102E0B00F11F6007902880F18C91B5902880F1829A
:102E1B0091B59028801224C4E48018902887F1C3C0
:102E2B006015902884F1AA6008902884E4F1BA8098
:102E3B0001E4FF91B580E4B170E4FF800691B5B178
:102E4B0070E4FFEFB4010443FE202253FEDF229017
:102E5B002A481224ECF13D91DAEF6004F12880F757
:102E6B00F1176007902A48F18C91B5902A48F182AE
:102E7B0091B5902A4891B191CE902A4CEFF0D14A5E
:102E8B00902A4CE0FF229028891224EC90288D1276
:102E9B002567F13D91DAEF6004F12880F7F11760B7
:102EAB0007902889F18C91B5902889F18291B59082
:102EBB00288991B1902890F1C3601491CE90288D00
:102ECB00122547EF12212A90288EE4F1D880E5B124
:102EDB0070E4FFC14EF13D91DAEF6004F12880F709
:102EEB00B16471D87F0191B57F0391B5B170E4FFE7
:102EFB00C14E9026F5E020E01271D47F3D91B57F55
:102F0B002A91B57F8091B57FA6D148227F01D14E02
:102F1B0071D87F0391B59026FBE0640222E5153052
:102F2B00E20FE51520E50AE51530E0057F011242B9
:102F3B00752275FF02E5E430E10675E40675E403DE
:102F4B0022902BD6EFF0902703E06402702271D40D
:102F5B00902BD6E07FAB60027FB991B5B170902B0F
:102F6B00D6E0902702F070047F1EDFFEE4FFD14E07
:102F7B002271D87F0581B51224C47808122484E409
:102F8B00221224C47810122484E422902BD4E0144F
:102F9B00F0E022F13D91DAEF6004F12880F7221284
:102FAB002547EA494B22F09026F5E0FFF422E47521
:102FBB00F00112255002208F74FFF5F012221145FB
:102FCB00F022E4FFC14EE5C85404FF22E475F00182
:102FDB000221FB35F0FEAF01E4FCFDC15A7E1F7FE1
:102FEB00C8AB05E4FCFD902A51EBF0A1199026F734
:102FFB00E012212A9026FCE01230109026FDE09082
:10300B00000202213C90000102213C9027C4F1F701
:10301B009027CA1224F8000000019027CE7401F00B
:10302B00F5FFE5D554C070051266CB5002C322E400
:10303B00F5FF53967F75FF0175D504D19475FF018C
:10304B0043D508E4F5FF5394FBF5FF53847FF5FF5D
:10305B007598FF9027C8E5F4F075F49C75FF01A3F4
:10306B00E5E4F075E4257B017A2779CE126DBD90EE
:10307B0027CEE0640160022136F5FF9027C7741458
:10308B00F09027CA316578011224979027CA122431
:10309B00ECE5A730E1FB43A7029027CA3165E5A712
:1030AB0030E005E47B018002E4FBFAF9F8EF4BFF1B
:1030BB00EE4AFEED49FDEC48FC9027CA1224EC9039
:1030CB0027C7E014F070BA9027CA31657810122424
:1030DB00847B6D7A4E79C6784112233BEF2439FFFE
:1030EB00EE343051EEFCE4FBFA7901F81223C6EE14
:1030FB00547FFEE4FDFC1272759027CA3165EB6FAD
:10310B00FFEA6EFEE8CDEFCDCCEECCECFF9027C402
:10311B00F1CAEF12212A9027C4F1CAED11109012B7
:10312B000FE030E606E4F5FF75968075FF01E4F5D8
:10313B00D59027C8E0F5F475FF01A3E0F5E4126F15
:10314B00AD9027CEE0B40103D38001C32225E02547
:10315B00E02401F582E43412F583E0FCA3E0FDA347
:10316B00E0FEA3E0FF229026531224EC75FF0243EE
:10317B00E180127282D1AB9026681224F8002DC622
:10318B00C0E4F5FFF5A490120EF0A3F09026637443
:10319B0002F01276F1FFF595EF14601314601C2406
:1031AB000270279026533165919D90265F80169073
:1031BB0026573165919D902660800A90265B31657C
:1031CB00919D902661E090266CF01270DF90266C3A
:1031DB00E0700FF5FFF59675FF0175D70975F418BB
:1031EB00805690120EE004F0902663E01267E19097
:1031FB002668316590266412760EC312247350092B
:10320B009026643165A31224EC90266CE0FF126FBC
:10321B005F902662E0FFA3E0FDA2559253126FBEB2
:10322B00A33165902A621224EC902663E0FF51F5DE
:10323B00902663E03158D1CA1276BF6002219D748B
:10324B0002F01276F1F595E5F454077014902668A8
:10325B0051CC91A390266371821224ECEB3158D19F
:10326B00CA1276BF70DC75FF03759580F1EF4003D2
:10327B0043F420A2559254127010902668127635A2
:10328B002420FFEE344E51EEFCE4FB7A04F9F851A6
:10329B00DC91A3C252126E08E4F5FFE5BD54F8446D
:1032AB0004F5BD9012137401F07E127F01E4FDEF63
:1032BB002D1276E1FC901213E02CF00DEDB412EF11
:1032CB0022FF7E04FDFCE0F8A3E0F9A3E0FAA3E003
:1032DB00FB12233BE47B7DFAF9F81223C6EF2401A2
:1032EB00FFE43EFEE43DFDE43C22902A61EFF0E476
:1032FB00A351CC91A3902A6171821224EC901210ED
:10330B00E0FF64806070EFC3947F5037EB7184C033
:10331B0083C0823165EEC0E0EFC0E0901210E07523
:10332B00F004A4AEF0FBCAEECAEA3395E0F9F8D08C
:10333B00E0FFD0E0FEC3EF9BFFEE9AFEED99FDECB4
:10334B0098802B902A61E07184C083C08212760E24
:10335B00901210E0F40475F004A4FFAEF0EE339578
:10336B00E0FDFCEB2FFFEA3EFEE93DFDE83CFCD027
:10337B0082D0831224EC22E0FB25E025E02401F52A
:10338B0082E43412F5832290298212759BF09029E6
:10339B00887401F0C256126D8B91B05005E5FC207C
:1033AB00E6F791BBBF0108E4F5FC75FC4080079183
:1033BB00BBBF0202D322F1E8902983E0FF12729F78
:1033CB0075FF0153D5DF53FAFB902982E0FF12679B
:1033DB00C6902983E0902982B4080DE0718412769F
:1033EB0035245251EBFC8003E03158D1CA9029842B
:1033FB00E0FF1272F575FF0175FF03759B04126DEB
:10340B008B75FC42E5FC20E10491B040F4902985DA
:10341B00E0F075FF03E59B20E70491B040F4E59BDA
:10342B0020E70D75FF03759B1F127282D256804FDA
:10343B0091A9126DBD902983E0FD90120FE05D7094
:10344B001C902982E0FF91A91270EC90120FE0FF03
:10345B00902983E0FEEF4E90120FF051AE126DEDFE
:10346B007B017A297986126D94500FC3902987E0DE
:10347B009420902986E0940340E691A9126F06D11F
:10348B009B3056026199902988E0B40103D38001E7
:10349B00C3229026640224ECFC78010224847B0175
:1034AB007A2979882275FF03E591C330E701D3228E
:1034BB007FFA91E5E5FC30E60491B040F7E5FC308E
:1034CB00E6037F032275FF01E5D530E6037F022279
:1034DB00E5D57F0030E7027F01227E00B1A575FFA5
:1034EB00034391802275FF01E5D520E702C322C279
:1034FB00581272D4204302A19753F4DF902B1FE094
:10350B00FF1267C675FF0143D81030440543F440E2
:10351B00800353F4BFE4F5FF53F5F0902B20E0FA52
:10352B00A3E0FBEA42F5EBF5F6D2581272D47FC852
:10353B0091E5E4F5FFE59320E60491B040F43044C7
:10354B0057E5F430E3047D288010E5F430E2047D88
:10355B00288007E5F430E1027D28D1A47F2891E58E
:10356B0091B040FC7F7891E591B0502C12732050B4
:10357B00F71272FBEFC39D50EF12732050EAE5F781
:10358B0020E5E5C2581272D4D1A480DC53F4BFF10C
:10359B00EF400543F420F1E8D32275FF03D3EF94FA
:1035AB0002EE9400400874FE2FFF74FF3EFEEFF511
:1035BB0092EE540FF59122E4902AB3F0A304F0E4B9
:1035CB00902AB6F0E5FA30E1FB75FF01E5D530E75F
:1035DB00037F0022E4F5FF75E508F1E8E5D530E659
:1035EB001A75FF01902AB5E5DAF0E4F5DA75FF01FB
:1035FB00E5D630E3FB902AB67401F075FF03759B9B
:10360B000475FC4175FF03E59B30E7FBE4FB75FF9D
:10361B00038B95EB3158D1CA0BEBB403F175FF0358
:10362B00759580E4F5FF758EC8126DED75FF01532E
:10363B00D5FBD1A47F1491E5D19B75FF0143D50434
:10364B00902AB6E07008D1A47FC891E5D19B7B018D
:10365B007A2A79B4126F06902AB4E0902AB37006D6
:10366B00E04404FF8002E0FF902AB3EFF090120ECB
:10367B00E0B4010675FF0143D81075FF01902AB520
:10368B00E0F5DA902AB3E0FF227F3FFEB1A591E986
:10369B0075FF03E59120E7FB2275FF03E4F591220B
:1036AB0012768153DB7F75FF0175D5027F1491E58F
:1036BB00D19B12768143DB8075FF01E4F5D5229017
:1036CB002AAF1224EC75FF01902AAFA3E0FDA3A350
:1036DB00E4FFFEE4FC78101224848FE1902AAFA360
:1036EB00A3E0FEA3E4FFE4FDFC78081224848FE240
:1036FB00902AAFA3A3A3E0FF8FE322CDEFCDCCEEB7
:10370B00CC126DA9AB94EF4B126DB5CBEFCBFAE5A9
:10371B009130E71E126DACA994E9F582EF4582FF5B
:10372B00EB2DF582EA3CF583C3EF9582E5F09583AB
:10373B0040DDE59120E708CEECCECFEDCFD197223F
:10374B00902ABBEFF0A3F1F775FF0191BBEF64017A
:10375B006002C322E5F430E602C3227FE87E03B1A8
:10376B00A591E9F1D3400122C257123CDD902ABB4F
:10377B00E0FF1267C653F4DFD257123CDD7F787E31
:10378B0000F10675FF0153E4BFE5E430E7FB12736C
:10379B00277F8A126EFD30E605F1C7E4800775FFBF
:1037AB0001F1C7E5D912212A75FF0143E440F1EF7E
:1037BB00400343F420F1D3400122D322902ABCE0F2
:1037CB00FBA3E0FAA3E0F922E5F730E50EE5F754A9
:1037DB00C0700491B040F1D1A4C322D32275FF0174
:1037EB0053D8EF2290120EE0D3940122EBF0A3EA10
:1037FB00F0A3E9F0227A2679FA7F031275727A2701
:10380B0079037D017F08121B977A2779007F093195
:10381B00C47A2679FE7F0B31C49026FEE0FEA3E02E
:10382B00FF4E6006BEFF1BBFFF18902703E024FD71
:10383B00600304700431CB80099026FEE4F0A3747E
:10384B0040F0902703E024FD60030470089026FBF2
:10385B007403F080069026FB7402F09026FAE012B7
:10386B002668388904389414389C1538A41738BA4C
:10387B003038C23438CA3638D237000038AF75FF0B
:10388B0001534AEF854AFD804775FF01534BEF808B
:10389B000E75FF01534BDF800675FF01534B7F8580
:1038AB004BC9802C75FF01534CDF854CCA802175A9
:1038BB00FF01534DFE801675FF01534DEF800E75C2
:1038CB00FF01534DBF800675FF01534D7F854DCBD7
:1038DB00122D707F1131B6E4FF122F4C122C379042
:1038EB0026F87402F09026FCE0247F600904701621
:1038FB0031BC740A8007122EFD31BC7458F090262F
:10390B00FB7403F031CB9026FDE0F4600221B39001
:10391B002700E0FEA3E0FF64104E70069026FD74B6
:10392B000EF0EF64204E70069026FD740FF0EF64DE
:10393B00404E70069026FD7410F0EF64804E7006BA
:10394B009026FD7411F0E4B5070AEEB4010690263B
:10395B00FD7412F0E4B5070AEEB402069026FD746E
:10396B0013F0E4B5070AEEB404069026FD7414F0C8
:10397B00E4B5070AEEB408069026FD7415F0E4B51D
:10398B00070AEEB410069026FD7416F0E4B5070A8C
:10399B00EEB420069026FD7417F0E4B5070AEEB4DA
:1039AB0040069026FD7418F0022EE0EF4420F5FE41
:1039BB00227F1031B69026F8227B017D02021B97E5
:1039CB009026FE7401F0A3E4F0221100121B6A1280
:1039DB00669A12196C7E007F15122FE3BF540C7E72
:1039EB00007F16122FE3EF64A560147E007F10C0DA
:1039FB00061275C9127559D006124043122A0A12C3
:103A0B001AC0121A52121A0230640475570122128C
:103A1B00753612197B9002B6E0FFA3E0FE4FFDA3B3
:103A2B00E0FC4DFDA3E0FB4D600BEE5FFFEC5FFF99
:103A3B00EB5FF47003124214E557540324B6F5827E
:103A4B00E43402F583E065579002B1F02275FF0272
:103A5B0075E404E4F5E4121892126C429002B3EF91
:103A6B00F0901200E0B47A14901214E0B49C0D9014
:103A7B0002B3E0FF64056004EFB4032EE49002BCD4
:103A8B00F09002BCE0FFC394405013E42FF582E4A6
:103A9B003412F583E4F09002BCE004F080E3901262
:103AAB0000747AF0901214749CF0121B9C7B017AB8
:103ABB001279107D017F01121B977A1279117F21E8
:103ACB001275727A1279127D017F22121B97121BCB
:103ADB0051126C42121B4C9002B3EFF01266A01203
:103AEB001B479002B3E0FF121C8CEF24FFB39264D0
:103AFB0075FF0253E6BF124962121B5631D5206483
:103B0B000C121C917B017A237924121A66D2AF30E6
:103B1B00647B1219671219A8121CA5121B9240F292
:103B2B009002B2E06043121B79EF70051275AB4047
:103B3B0038E51470FCE51520E50312429E12197648
:103B4B00EF70FA126BEE5005126BDA50057F011213
:103B5B002F4C9002B2E0B40204E4FF80099002B251
:103B6B00E0B403057F01126CFF121B74E51530E105
:103B7B00A11275854002E4F0E51520E5099002B429
:103B8B0091527D019161914F124A5C80851248FDE3
:103B9B009002B2E06049201603200643121B79EF16
:103BAB0070051275AB4038E51470FCE51520E50384
:103BBB0012429E121976EF70FA126BEE5005126BD1
:103BCB00DA50057F01122F4C9002B2E0B40204E4EC
:103BDB00FF80099002B2E0B403057F01126CFF90E5
:103BEB0002B2E0600C201609300606200103121AFF
:103BFB003E1219671219A8121C969002B0E07005BC
:103C0B00121B748015126691FF9002B0E0FEC3EF99
:103C1B009EC394064002E4F0D2AD121807E51530AE
:103C2B00E11A1275854002E4F0E51520E5099002D2
:103C3B00B491527D019161914F124A5C121B331268
:103C4B00492461989002BCE075F0AA9002BF12253E
:103C5B0029AF82AE8322900435EEF0A3EFF0E5148A
:103C6B00706F1266C35004C25791DD900435E0FEAD
:103C7B00A3E08E11F512AE11AF127DAA126ACAE43F
:103C8B00F5FF75D908F510E5155421602CE51530B5
:103C9B00E505E4FF1267C6E4900437F0900437E0C3
:103CAB0004F01235C2EF6009900437E0C394104062
:103CBB00EB7F02121C6E5315DE900413E07F00B4F1
:103CCB0003027F011267B7D25791DDD2EBA241926B
:103CDB00ED22902BD8E5F4F0E0547FF5F47F827E53
:103CEB0000126D8F1234B05005E5FC20E6F630570C
:103CFB0008902BD8E04480F5F4126D8B1234B05041
:103D0B0005E5FC20E6F675FF01E5D520E702C322A9
:103D1B00E5F4D330E601C322900426EEF0A312663D
:103D2B005AC2EBE5146002C1E0E51530E202C32292
:103D3B001266CB5004C25791DD1269D7E5D120E052
:103D4B00FBE4F510900427E05407C39403E49400BC
:103D5B00502290042FE0FF90042BE02FFFE433FE62
:103D6B00D3EF9440EE648094804009431504A24144
:103D7B0092EDD32290042C122547CFE9CF8A118FD5
:103D8B001290042FE0F516AE11126D1D900428123F
:103D9B0025478B1C8A1D891E90042BE0F51F900470
:103DAB0026E0FCA3E0FD54606032900430E0FF128B
:103DBB006A17900428D1EBFB7A00900424E0FEA351
:103DCB00E0FF7C007D1712215EEF2BFFEA3EFEEF3A
:103DDB002414FBE43EFA7D027F01C1C7900426A3A5
:103DEB00E05407900414F07514089004281225472A
:103DFB001269C690042BE0FFAD16126A6190041491
:103E0B00E06403702D7B01FDF1DAD1EB1257B0505A
:103E1B000A900428F1E574011220D5E4F5FF126A2B
:103E2B0087900428D1EB2428FBE433FA7D03E4FFCD
:103E3B00C1C7900414E064027027F1D7D1EB12577D
:103E4B00B0400A900428F1E574FF1220D5126A9A4B
:103E5B00900428D1EB2414FBE433FA7D027F01801C
:103E6B005BE4F1D7D1EB1257B0400A900428F1E58F
:103E7B0074FF1220D5E4F5FFF1CF44104E7F05609F
:103E8B00027F0AEF547FFFE5D254804FF5D2E4F561
:103E9B00FF43D280900428D1EBFD7C00F1CF44107E
:103EAB004E7E0060047F0A80027F05EF25E0FFEE67
:103EBB0033FEEF2DFBEE3CFA7D017F01126B1FF100
:103ECB00CFFF12679F4006A24192EDC322A24192FF
:103EDB00EDD2EBD322A24192EDD2EBC32290281C60
:103EEB00122547E92407F9E43AFA02208F12471A00
:103EFB0024B7D1F1FF20E702E185540F6401707AFA
:103F0B0012471A24B6D1F16557706F202A6C902A8C
:103F1B002204F012471A24BBD1F130E34012471AA6
:103F2B0024BCD1F112575B12471A24BD12574A1207
:103F3B00208F540F702712471A2FF9EE3AFAE92403
:103F4B00BED1F15460601612471A24BCD1F1C4548F
:103F5B000F24041276C87D6E7C00024FFAE4902188
:103F6B00D5F012471A24BCD1F1C4540F75F03EA4FE
:103F7B00FDACF07E5B7FB9024A3912471A24B7D1E8
:103F8B00F120E73812471A24BAD1F11266721247A0
:103F9B001A24B7D1F1FF20E42330E70A12471A2481
:103FAB00BBD1F120E41612471A24BAD1F1FF124704
:103FBB001A24B2F9E43AFCAD01121A07124FF27F40
:103FCB0001021B60900426E0FEA3E022FB7D01FFB3
:103FDB001269E39004282290281C122547E9240734
:103FEB00F9E43AFA22C2AFEFF45215D2AF2290297C
:103FFB00DB7405F09029D812401FC0079029D81206
:10400B0025479029DBE0FF902890E4F0A3EFF0D058
:10401B0007022E91122567E4FCFD2275F005A424FE
:10402B0003F9742035F0FEAF017B017A28794E90AD
:10403B00296BE4F0A37405F0902968111FC0079059
:10404B00296812254790296B127601D0079027B962
:10405B001224EC9027BD12256731669027C05102C0
:10406B009027B91224C4316C500221169026FFE020
:10407B0024FFFF9026FEE034FFFEE4FCFD9027B901
:10408B001224E01224589027C2127667603131183F
:10409B00C39026FFE09FFF9026FEE09EFE9027C276
:1040AB00F0A3EFF09027C01276775003126A7731A6
:1040BB0021E94A6004311880457E007F00803F90E3
:1040CB0027C0E0FEA3E0FF4E603F9026FEE0FCA37E
:1040DB00E0FDD3EF9DEE9C400A9027C2ECF0A3EDE0
:1040EB00F0800D9027C0E0FFA3E0A3CFF0A3EFF08B
:1040FB003121E94A6004311880047E007F0090274B
:10410B00BEEE8FF01221FB80B6D322C3229027C2C2
:10411B00E0FEA3E0FF229027BD1225479027C2E0C7
:10412B00FFA3E0902887CFF0A3EFF09027B91224DC
:10413B00C4122DEB9027C2E0FEA3E0FFC39027C172
:10414B00E09FF09027C0E09EF09027B91224E0E4A6
:10415B00FCFD12232E9027B91224EC9027BD0225CB
:10416B00479025A01224EC9025A4122567E49025F6
:10417B00C7F0D39025A8E0941E9025A7E0940040AB
:10418B0001227B017A2579A99025A7E0FFA3E09076
:10419B002890CFF0A3EFF09025A01224C4122E91FB
:1041AB009025A4122547E94A600C9025C7E0F582BB
:1041BB001275E8FF80027F009025C7E024A9F582E5
:1041CB00E43425F583E06F6002C3229025C7E00439
:1041DB00FFF0D39025A8E09F9025A7E0940050C056
:1041EB002290296F111FC00790296F122547902924
:1041FB00725102D007216CE0FFA3E09025A7CFF00E
:10420B00A3EFF0227404F00143E4FF5175EF60312A
:10421B005197516EC394C040F77B017A0279B85124
:10422B006EFFA3E05FFFA3E05FFFA3E05FF460E935
:10423B007557017E007F08519790296BE4F0A351CD
:10424B000F2290043B122567C250E4FF5175BF014A
:10425B000B90043B12254712301692507F0151757B
:10426B00A25022514D9002B6E022EF600D9002B4A5
:10427B00123C52E4FD123C61800F3039037F002267
:10428B00121B88519EE433FF227F01227B017A02AD
:10429B0079B622E51470291266C35005C257123C39
:1042AB00DD1272827F08121C6E1269D7E5D120E0F5
:1042BB00FB4315205315FEE4F510A24192EDD322DA
:1042CB00C322902B131225677F01517551FF1222C8
:1042DB002745F0601E902B13122547C003C002C068
:1042EB000151FF710DF58285F083D001D002D0030F
:1042FB0012269222902B13122547E924DAF9E43A7D
:10430B00FA22122227FFAEF022F11A4AC36001D320
:10431B004002C1DDE924B7123EF1FF7B017A2B7914
:10432B0019125B8E302B15F11A2402123EF130E577
:10433B000BE490216CF090216BF0A16BF11A24DF50
:10434B00123EF16401706AF11A2402123EF120E46C
:10435B0046F11A24BA123EF1F139121A0C5038F107
:10436B001A24BC123EF154F0902B1AF0F11AF132D0
:10437B00F1C47001D3923F902B1AE024FF9240F1CD
:10438B0044E07E0160027E04EF4EF139125084F15D
:10439B001AF1BD7402A166F11A2403123EF130E446
:1043AB0010D1DEF132F1C47001D3F140EF4401C101
:1043BB00CEF11A24DF123EF164027030F11A24039D
:1043CB00123EF120E40DF11A24BA123EF1FF121A3B
:1043DB00118019F11A2403123EF1D1DEF132F1C42E
:1043EB007001D3F140902B19E04FC1CEF11A24028A
:1043FB00123EF120E202A16BF11A24DF123EF1FF13
:10440B00C394035005E49021C9F0EFD39403400209
:10441B00A11D902B19E0B40108C25CF11A24BA80DB
:10442B0006C25CF11A24BD123EF1902BA0F01219BA
:10443B00EEF11A2403123EF154EFF11724B6123E9B
:10444B00F165577042F11A24B7123EF130E738F19B
:10445B001AF132710D54076403702CF11A24B9123E
:10446B003EF1D394405020F11AF132EF54F844024C
:10447B00FFF1B0F19D4404F139125084F11A24BBC1
:10448B00123EF14410A166F11A24BA123EF17A2BB6
:10449B00791A9027821275FB7A2B099027851225A2
:1044AB00671B7A0079907D011219FDEF6064902BE8
:1044BB001AE0FFC454F0FEF11A24BCF9E43AFAEE08
:1044CB00F117125B87C003C002C0017B007A007931
:1044DB0090F1D3D001D002D003121999F11AF13215
:1044EB00122227FF902B1BE0FDF1EFF11AF132E4C2
:1044FB008FF012230FF11A24DF12573212212A9058
:10450B002168E0B40203D38001C3923FF19F4404BE
:10451B00C1CEF11A24DF123EF1C394045042F11ABA
:10452B0024BA123EF1F1399029787401F01259AD89
:10453B00F11AF13212222754F8FDE5F0FEED4FFF90
:10454B00F1B0EF54076402C37001D3F140EF4401A3
:10455B00F139125084F11AF1BD740412212AC1D31E
:10456B00F11A24BA123EF1FFE4FD121AD4302B02D9
:10457B00C1D8F11A24DF123EF1C394054002C1D811
:10458B00F11A2403123EF120E002C1D8F11A24B62D
:10459B00123EF1FFC007F11A24BA123EF1FDF11AD7
:1045AB00F1E8C003C002C001F11A24B1123EF19030
:1045BB0028BBF0F11A2402123EF154034401902857
:1045CB00BCF0F11AF1DD122227FFE5F01276D9D0FB
:1045DB0001D002D003D007121B29EF7002C1D8F112
:1045EB00232405123EF14420F1222414124EFAF139
:1045FB002312768B12212AF1231276221219719033
:10460B0020C8127694F123123FE912769CF11A120C
:10461B005783F11AF1DD741B75F02E12230FF11A6B
:10462B00F132122227AEF054F8FFF1B0EF4402FF43
:10463B00F1B0F1232404123EF1FFF11A2402124EC1
:10464B00FAF1232406123EF1FF7440C39F5008F188
:10465B001AF1B6742F80167411D39F500BEF24EF01
:10466B00FFF11AF1B6EF8005F11AF1B6E412212A27
:10467B00F11A24B1123EF1FFF11AF1E8C003C002A6
:10468B00C001F123241CF9E43AFAF1D3D001D00292
:10469B00D003121999F11A12563E7B01C003C002C6
:1046AB00C001F123124F517B01F1D3D001D002D0C5
:1046BB00037F11121999F11AF1BD740512212AF118
:1046CB009D4406F139125084F13A021B83E4FF1228
:1046DB001B602254EF12212A902A1F122547E9242E
:1046EB0006F9E43AFA122227FF902A1F122547E90E
:1046FB002404F9E43AFAE5F08FF012230F902A1F05
:10470B00122547E924DFF9E43AFA740112212A90C1
:10471B002A1F122547E922FF9020C8122547E922BC
:10472B00902738122547E92404F9E43AFA22FF903E
:10473B002A1F022547923FC240203F2A304013E5F3
:10474B005454F0FFBFF00353540F74102554F55419
:10475B00803CE554540FFFBF0F035354F00554E551
:10476B0054540FC48028304013E55354F0FFBFF06E
:10477B000353530F74102553F5538012E553540F05
:10478B00FFBF0F035353F00553E553540FC454F0BD
:10479B00FF22D23FD240F144EF22FF122547E924FA
:1047AB00DCF9E43AFAEE8FF002230F24B1F9E43A84
:1047BB00FA2224DFF9E43AFA221222275407640280
:1047CB00C3227B017A0279B6902994022567F131D5
:1047DB00610D24DCF9E43AFA22122547E92408F9A1
:1047EB00E43AFA22EF54F84DFF22E4F514419EE42B
:1047FB00F97D0CAC0109EC902BA093FC0FEFAA06F2
:10480B0070010E14F5828A83ECF0DDE77F02228FB4
:10481B00828E83E4F0A37404112D7426112DA3E46E
:10482B00F022F08F828E83A3A32275FF0275E4041E
:10483B0075E40175E4022275FF0275E404E4F5E406
:10484B0022A24E923922900442EDF0900441EFF0F7
:10485B00BF0411A3E0FB7D017F0111919004417412
:10486B0003F0800B900442E0FB7D01E4FF1191907B
:10487B000441E09002B2F0D2061219BC9002BDEED8
:10488B00F0A3EFF0D322EB600875FF0153CDFD8051
:10489B000675FF0143CD02ED600553FBDF8003433B
:1048AB00FB20EF600775FF0243E1402275FF0253C7
:1048BB00E1BF2275FF028FE322A24F923B229002AF
:1048CB00B1E064AA2411FFF022AE0711C9EE04FE79
:1048DB00EF8EF084AFF02211C9EFC4540F6FFEEFCF
:1048EB00C41354076EFEEFC413131354016E540319
:1048FB00FF22303A0D121A20EF6007C25E121A1611
:10490B00C23A229002BAE0FCA3E04C700A9002BAC1
:10491B00EEF0A3EFF0D322C3229002BAE0FEA3E0A5
:10492B00FF4E6009CAEECAC9EFC912268E22EFB438
:10493B000109D2AD75FF0143AE4022C2AD75FF0137
:10494B0053AEBF2275C80122E5C85402FF75C802D9
:10495B0022E5C85401FF2275FF02D2ADD2BD75FF0F
:10496B0002758E7175580975FF02E58E546F448080
:10497B00F58E22C0E0C0F0C083C082C0D075D008D5
:10498B00C0FF75FF02E58E30E42975FF02E58E54FA
:10499B00EF4410F58E900000E004F0E55830E00293
:1049AB000531E558700B7558099024C7122FD88024
:1049BB0002155875FF02E58530E40875FF02438543
:1049CB00100559D0FFD0D0D082D083D0F0D0E032B8
:1049DB00902B94EEF0A3EFF012471A1247321222EB
:1049EB00275407FF64026005EF64037016513025EE
:1049FB00E0FBEC33FAEDAE047803C333CE33CED801
:104A0B00F9801C5130AE047803C333CE33CED8F9C2
:104A1B00FBAA06EDAE047805C333CE33CED8F92B03
:104A2B00FFEE3AFE22902B94E0FCA3E0FD22902BAC
:104A3B0096EEF0A3EFF0902A1E7401F0AE04AF05D2
:104A4B0031DBAC06AD07902B96E0FEA3E0FF02191D
:104A5B00589002B5E0FD90283012764878871225E1
:104A6B003EEDD394085002C191123EEEFFEDC39F71
:104A7B005002C191E4788EF6900413E09021CFF0B0
:104A8B00121A1B902830E0FEA3E07B012405F9E409
:104A9B003EFA12208FFF540F64017061EF902830A3
:104AAB0030E71CA3E0FF240AF9E43E125797FD7C84
:104ABB0000EF240BF9E43EFAE92DF9EC3A800BE018
:104ACB00FEA3E07B012409F9E43EFAE92401F9E4B1
:104ADB003AFA902837122567902837F1E5FF6018CE
:104AEB0064186014EF6407600FEFB403109028375D
:104AFB0012756012649870057FFE121B387B007A6A
:104B0B00007987125E8DD1932404123EF19021E33C
:104B1B00F0788EE620E20261F07F01121B6F902885
:104B2B0032122567EA494B700261F0D19A7F03126A
:104B3B005084D1932405123EF130E40DD19AE9242F
:104B4B00B7123EF1441012212AD19AE9F1DB9028D9
:104B5B003212577FD19AE91247DD741875F0121291
:104B6B00230F788FE6FFD19AE924BAD1FA90283235
:104B7B0012472E12222754F8FF9021CFE012562F06
:104B8B00D1932405123EF130E50FD19AE924B712E7
:104B9B003EF1442012212A803E788A1225351220BC
:104BAB008F64017032E92401123EF1641870287889
:104BBB008DE6788AB40411122535E92403123EF1EF
:104BCB00FF1267238F1A800F122535E92402123E3C
:104BDB00F1FF1268008F1AD19A121B839002B0E07A
:104BEB007003121B74303B37202D34788EE654E261
:104BFB00702DD1EB4440F0F158902835E0FF30E3B5
:104C0B00047D008009D1932408123EF1FEFDD1935F
:104C1B002404123EF1FBC003F165D003121AA72046
:104C2B002D02C175E490216BF0A3F0788EE630E68F
:104C3B006AD1932409123EF1D192240A123EF1FE5D
:104C4B00EFC4540FFDEE54F0FEEF54F07887B50629
:104C5B000A122535E92404F9E4800B122535F150AD
:104C6B00ED7E0029F9EE3AFA12208FFF90216CEFBE
:104C7B00F01DD193F1517E00E92DF14690216BF09F
:104C8B00902A22E07002C191E41276C812471A24CE
:104C9B00BC123EF154F0FD7C004139788EE620E1E8
:104CAB0002A15DE4F55212471A24B7123EF1FF54EC
:104CBB000F6401705AEF30E74C12471A24D8123E9A
:104CCB00F1FFD3940A400A12471A24BC123EF1801A
:104CDB00049021F0E0902836F0902836E0540FFE37
:104CEB00EFD3940A400D12471A125B87EEF143F58E
:104CFB0052800D74F12EF582E43421F583E0F552E8
:104D0B00126678800A12471A24BA123EF1F5521233
:104D1B00471A4A7002C191D1932404123EF1655295
:104D2B0060089021E2E07002C191D25C902BA0E56B
:104D3B0052F01219EED1932405123EF130E70DD14A
:104D4B00932409123EF1540624FF922A123EF8C214
:104D5B002A22788EE630E559902A22E07002C19122
:104D6B00D1932404123EF1FF6003B4EF2012471AD3
:104D7B004A601AE92409123EF1B40311902356E05C
:104D8B00FF7887122535124731EF12212AD1932450
:104D9B0005123EF130E70AD1932409123EF120E4CB
:104DAB000DD1932404123EF1FFF13A121A07026659
:104DBB0060D1932408123EF1F46036F13A240512C7
:104DCB00766E540FFFBF0203D38001C34023D193F0
:104DDB002405123EF1FF20E41830E70AD193240991
:104DEB00123EF120E40BD1932404123EF1FF121A70
:104DFB0007788EE630E30B9028301276E97B0112B0
:104E0B005C46306402C191D1EBE49022A5F0788727
:104E1B0012253512208F701AE92401123EF17012FF
:104E2B00D1932402123EF17009D1932403123EF167
:104E3B0060067E007F0180047E007F00EF4E7007CE
:104E4B009022A5E04401F0F158902835E0FF30E3C3
:104E5B00047D008004AE57AD06D1932404123EF1BD
:104E6B00FBC003F165D003021AA712473AEA494B7C
:104E7B006014902A1EE0600E9021DBE0600812198E
:104E8B0062E49021DBF022FF7887122535E922902E
:104E9B002832022547E4D1922405123EF1FD30E57C
:104EAB00037402FF788EE630E704EF4480FFED5485
:104EBB000FFDBD0506EF4410FF8024BD0110D193FB
:104ECB002408123EF1B4FF17EF4404FF8011D19375
:104EDB002405123EF1540FFDBD0204EF4408FF22DE
:104EEB00D1A0902835EFF022FF122547E92406F9CF
:104EFB00E43AFAEF02212A9029DC122567D193F1CB
:104F0B00EBC003C002C0019029DC1225471225908B
:104F1B00D1932408123EF1541FFF9029DF1225472D
:104F2B00EF12212AD1932408123EF154E0FF229074
:104F3B002830E0FCA3E0FD227E0029F9EE3AFA02CC
:104F4B00208F122547E9240BF9E43AFA227B017AE8
:104F5B002179DC7D06E4FF021971788A12253590E0
:104F6B00274C122567788DE690274FF07B017A212D
:104F7B0079DCA30225679029E21225679029E512B7
:104F8B0025477D05E4FF1219719029E2F1D4123EF9
:104F9B00F1FF9029E5122547EF12212A9029E5F11F
:104FAB00D4F1DD9029E2127549123EF19029E512F8
:104FBB005ABAD1FA9029E2125C3F123EF1FF9029C6
:104FCB00E512472EEF02212AA3122547E9240122DD
:104FDB0024B1F9E43AFAE402212A12254702208F80
:104FEB002409F9E43AFA22E4902A1EF002195D90A2
:104FFB002A1E7401F0C006C007EDAE047803C3335C
:10500B00CE33CED8F9FBAA06AE04ED7805C333CE6A
:10501B0033CED8F92BFDEE3AFCD007D00602195847
:10502B007B017A2179EE0219C6124731EE8FF0021D
:10503B00230F902A57122547902B16122567902B7A
:10504B0016302E1FD13AC003C002C0017B017A2259
:10505B0079921247D3D001D002D0037F0412199951
:10506B00C22E22D13AC003C002C0011247CDD001DB
:10507B00D002D0037F04021999902A57122567EFAB
:10508B00540FFE91B124B8123EF154F0FDEF54F0E1
:10509B00FFC4540F4D12212AEE146062147002618A
:1050AB009E24FE700221EC24FE7002810824036012
:1050BB0002819A91B1D13EC003C002C0011247CD0B
:1050CB00D001D002D0037F0412199991B124B6F903
:1050DB00E43AFAE55791AE24B7F13291AE24B81207
:1050EB003EF154F0FF902291E0540F4F91AEF13905
:1050FB00740A91AE24D8F9E43AFA74098197113DF8
:10510B0091B124B791BF91AE2402123EF130E04E23
:10511B0020E702800A9021F0E0540FFFBF0F0C91A3
:10512B00B124B7123EF1444012212A91B124DF126F
:10513B003EF16401702091B12402123EF154907043
:10514B001591B124BA123EF1FF902A57122547123E
:10515B001A0C5002800891B12401F132800491B1F4
:10516B0091BD12212A91B12402123EF130E10C9132
:10517B00B124B7123EF1442012212A91B12402121C
:10518B003EF130E70C91B124B7123EF1448012216D
:10519B002A91B12402123EF130E70C91B124BA12DC
:1051AB003EF1F155EF700C91B124BB123EF154F767
:1051BB0012212AF16291B124B8123EF1549FFEEFF5
:1051CB0054604E91AE24BA123EF1FF91B124D91224
:1051DB004EFA7F0991B124B1123EF1919BF14081BE
:1051EB009791B12402123EF120E602418991B1243C
:1051FB0009123EF1F19F902A5BF07404C39E500B91
:10520B007404F0EF540F444012212A902A5BE024DF
:10521B0002FF91B191C6C003C002C00191B1124708
:10522B00E81247D3D001D002D00312199991B124BF
:10523B00B1123EF1FF902A5BE02403FDE433F1C58C
:10524B00403712208FFF902A5BE0FE2403FDC3EF53
:10525B009DFF91AE1247E8C003C002C001EE240AC5
:10526B00FDE433FC91B12DF9EA3CFA1247D3D0019E
:10527B00D002D003121999800591B1124FDB113D69
:10528B0091B124B791BF12212A448091AE2402120E
:10529B003EF1902A5730E007124FD4F13280029141
:1052AB00B912212A91B191C6E491AE24BA123EF102
:1052BB00FFD262121ABBEF7002615691B124B61283
:1052CB003EF165576002615691B124BB123EF1FF6E
:1052DB0020E07891B12403123EF120E46E91B1915C
:1052EB00C6EF440891AE24BC123EF1F15B91B124A0
:1052FB00BDF14AE491AE24BC123EF1C4540FFF91B0
:10530B00B124BDF14A12208F441091AE24BA123E43
:10531B00F1F155C007F162EF1313543FFED0E04E8D
:10532B00FF91B124BC123EF1C4540FFD7C0091B12E
:10533B002DF9EC3AFAE924BEF9E43AFAEF91AE1200
:10534B004732122227549FD132800C91B124BB12C9
:10535B003EF154F712212A91B124BB123EF130E3F6
:10536B001591B124BC123EF1F15B91B124BDF14A10
:10537B00F19804FF80027F0091B124BC123EF1C46E
:10538B00540F240B2FFF91B124B1123EF1919BF1DD
:10539B00408197113D91B124B7F9E43AFA74029127
:1053AB00AE2402123EF130E10C91B124B7123EF162
:1053BB00442012212A91B124BAF9E43AFA741D91CE
:1053CB00AE91C6C003C002C0019021D7122547126F
:1053DB0047D3D001D002D0037F1D12199991B191FF
:1053EB00BD12212A7F2691B1F14091AE24B1123E1C
:1053FB00F1FEEF042EFF91B1F139EF819791B124BA
:10540B00B8123EF1540F902A5AF091B12402123E79
:10541B00F120E649113D91B124B7F9E43AFA74054C
:10542B0091AE2402123EF130E10C91B124B7123E41
:10543B00F1442012212A91B124B8123EF154F0FF0D
:10544B00902A5AE04F91AE2402123EF130E01891AF
:10545B00B124B7123EF1444012212A800A91B112B5
:10546B0047B674FF1220D591B191BD91AE24D8F9F6
:10547B00E43AFA741191AE24B1123EF1FF91B124CA
:10548B00D8123EF12F04FF91B1F139EF12212A22EC
:10549B00FEEF042EFE902A57122547E924B9F9E4B2
:1054AB003AFAEE12212A902A57122547E9221225A1
:1054BB0047E92401F9E43AFA74012224BBF9E43AEE
:1054CB00FA2290272FF1A7902735D120E924021239
:1054DB004EFA902734E0FF74A9C39F500374A9F0D0
:1054EB00902734D1201247E7C003C002C001902798
:1054FB00311225471247D3D001D002D0031219998C
:10550B0012472BE4F5F012230F902734D120E92416
:10551B00B1124EFA902736E0FEA3E0A31247A590F6
:10552B002738F17F90272FE0FC90273BF0D128FE06
:10553B006402603CD122E924BA123EF1F552B4FF69
:10554B000B90273BE054F84401F08024EE64046098
:10555B0006D128FFBF0119EC54077014D1229027F4
:10556B0030E0902978F0AF521259AD90273BEFF015
:10557B0012472B12222754EFD132D128FFBF021032
:10558B0012472B1222274410FDE5F08DF012230F4A
:10559B00302C2EEF64046006D1286406700FF17274
:1055AB00BF0203D38001C3923FD240800DF172BF83
:1055BB000203D38001C3923FC240124744EE4F8097
:1055CB000B902730E0FF902291E0F169902730F0AB
:1055DB00D22CD11DE924B7124EFA540F12212A12E4
:1055EB001B79EF6005E49021C9F090273BE0FF1297
:1055FB00472BE48FF012230FD11D118412472B126E
:10560B002227D121E92406F9E43AFAD133D1220237
:10561B001B83902730E0FF902738022547902730D7
:10562B00E0540F22FDEF4DFFE5F08FF002230F1238
:10563B002547E924B2F9E43AFA2290273E1225676E
:10564B009027457406F0902741E0FE7411D39E40DD
:10565B0002E12074409E5002E1207F02121B6F90EA
:10566B002746122567EA494B7002E120902745E057
:10567B00302C0DFED23FD240124744EE4FF0800F3C
:10568B00FFF125E92406123EF1F169902745F090D0
:10569B002742E0F12BE92402124EFA9027461247DB
:1056AB002EE475F00212230F902746D13AC003C0A7
:1056BB0002C001F1251247D3D001D002D0037F11D4
:1056CB00121999902741E024EFF12BE924B1124EE6
:1056DB00FA9027461247E4C003C002C001F125E946
:1056EB002411F9E43AFA1247D3D001D002D00312B5
:1056FB001999902746F17F902743E0FEA3E090276E
:10570B00461247A5D22C902745F1911184F12C120A
:10571B001B837F0122D22C7F002290273E0225473C
:10572B00FF902746022547F9E43AFA74032224B97D
:10573B00F9E43AFA2224D8F9E43AFAEF22240BF9E5
:10574B00E43AFAE92FF9EE3AFA22FFC262021ABBE7
:10575B00C4540FFF7E0022C262AF57021ABB540F14
:10576B00C454F0FEEF4E22902730E0FE90273BE032
:10577B005407FF22122547E924DAF9E43AFA741B9D
:10578B0075F06502230FE0FFA3022547FA12208F65
:10579B00C4540F22FF54F0C4540FFE22EFF0A3EDBC
:1057AB00F0A3022567FF90042FE0FD90042BE02D62
:1057BB00FDE433FCED2401FDE43CFCD3EF9DEC64F4
:1057CB0080F874809822C22FD22C22E0FBAD579028
:1057DB00271312759BF07F02121B6F90271D12254A
:1057EB0067EA494B604C902713E0FFA3E0FD90273D
:1057FB0016125B7A902719E09026CBF090271AE0CF
:10580B009026CCF090271BE0FBA3E09026CDCBF0AD
:10581B00A3EBF090271D7171902715E0FB114390BE
:10582B002720EFF060037F012290271D12254712DE
:10583B001B7E1257D17F00229026C7EBF09026D308
:10584B007401F0A3EFF09026CCE0FE54C0703C90B6
:10585B0026CBE0FCD3949F40037F00229026C7E029
:10586B00B4FF09ECD3943640037F0022302F0C9009
:10587B0026CBE0D3942E40037F0022EE20E40C9045
:10588B0026CBE0D3949740037F002231A7E924B6BF
:10589B00F9E43AFAED12212A9026C7E0FF31A7E985
:1058AB0024BA124EFA3192124FDD302F2FC22FEF46
:1058BB00F46020121AACEF601A9026C7E0FF121AA0
:1058CB00B1EF5407C39403402A9026C7E0125755F3
:1058DB00EF70209026CF319C740180149026CCE081
:1058EB0030E6109026D374043191F9E43AFA74053A
:1058FB0012212A9026CCE0FE5490700F9026D3E014
:10590B00B4010831921254BF12212A9026C7E0FD30
:10591B00B4FF07EE54FA9026CCF0902168E0902665
:10592B00D2F09021687401F0AF051219F340079083
:10593B0026CCE054FBF09026D2E0902168319112F6
:10594B003EF17005740412212A9026D4E0FF9026B4
:10595B00D3E0FD9026CBE0902734F09026CCE0905E
:10596B002735F09026CDE0FBA3E0902736CBF0A3B4
:10597B00EBF031A79027381225679026C8122547E0
:10598B001254CD7F0122F09026CF122547E924DF58
:10599B0022122547E92403F9E43AFA229026CF0292
:1059AB002547902975122567902974EFF06557608C
:1059BB007DE55764EF6077E0FF64EF6071121AAC1E
:1059CB00EF606B902974E0FFAD57121B1A90297989
:1059DB00EFF0902974E0FFD262121ABB902978E0A5
:1059EB00540F6401706AEF60679029753195123E10
:1059FB00F1FE64026004EEB4010D90297551BB12E7
:105A0B003EF1441012212AEF5460FFBF20047F2087
:105A1B0080027F40EF4402902979F051B4E924BA17
:105A2B00123EF1FF51B4E924D9124EFA802290298B
:105A3B0074E0FF655760139021E3E0FEEFB5060AB3
:105A4B009021CFE0902979F080069029797401F0AC
:105A5B00902979E0540764016049902978E0540F4C
:105A6B006404703F90297AF051B4E924BC123EF1E2
:105A7B00C4540FFF90297AE0FEC39F5026902975DE
:105A8B007183EE124F43FF902979E05407FD121BEF
:105A9B001540089029797401F0800890297AE00468
:105AAB00F080C5902979E0FF22902975022547FFE8
:105ABB00122547E92403229026D51225679026D874
:105ACB00EDF0124FD3123EF130E502D22F7F0212CE
:105ADB001B6F9026E1122567EA494B607B9026E10C
:105AEB0051BB123EF1440812212A9026DCE0FEA3A2
:105AFB00E0FF716924E01247AC9026DE122547C007
:105B0B0003C002C001716924E2F9E43AFA1225904C
:105B1B009026D9124FE5FBC0039026D5717A9026BB
:105B2B00D8E09026CBF09026D9124FD4123EF190AC
:105B3B0026CCF0E4A3F0A3F09026E17171D003AD75
:105B4B0057E4FF11439026E4EFF060037F012290AE
:105B5B0026E1122547121B7E1257D17F0022902679
:105B6B00E1122547E9221225479026CF022567121D
:105B7B0025479026C8022567122547E924BDF9E47D
:105B8B003AFA22EF540F24FE6016146017146018B3
:105B9B0024037019EF30E7047404800E7401800A3B
:105BAB007402800674038002740512212A2290214C
:105BBB00D5E0D394004008E014F0D39400500612C3
:105BCB004FF212431422E49021D0F022902A5D125E
:105BDB002567902A5CEFF012471A24BC123EF1C4E1
:105BEB00540FB5071312471A24BA123EF1902A5DCF
:105BFB00913E123EF16F6002C322E4902A60F09056
:105C0B002A5CE0FF902A60E0FEC39F5024902A5D3F
:105C1B00124F4DEEFF124F43FD12471A24BD125780
:105C2B004A12208F6D6002C322902A60E004F0803C
:105C3B00CED322FF122547E9240422902AA712254E
:105C4B00679021D0E06002A10AB10B2409123EF14A
:105C5B00440112212A440212212AB10B240A123EBA
:105C6B00F1FF540FFE902AAAF0EF54F012212A54A0
:105C7B00F0FFEE14540F4F12212A125798FF902A5F
:105C8B00A7123EEBFEC39FFFC3EE9F2402902AAAEE
:105C9B00F0D394A2400374A2F0902AAAE0FFB10BB8
:105CAB00124FEB1247D37B017A2179EF121999909E
:105CBB0021F0E054F7F0C22C9021CFE0FF902AA7FF
:105CCB00913F123EF1FBC0037B017A2179EFB116B4
:105CDB00902AAAE0902719F0A37481F0A3745BF0CB
:105CEB00A374D1F0D003AD571257DA9021D0EFF057
:105CFB009002B0E070099021D0E06003121B742277
:105D0B00902AA7122547E92212254790271602252C
:105D1B00679028FF122567902903E05437F030E590
:105D2B0002D22F902903E04420FEF0C22BAB07C018
:105D3B00039028FFB113902902E0902719F0A3EEEE
:105D4B00F0902904B15AD003AD57E4FF0257DAE0C3
:105D5B00FFA3E090271BCFF0A3EFF02290290712AF
:105D6B002567902906EFF0121B1050037F0022903D
:105D7B00290612579190290AE0902902F090290BDD
:105D8B00E0902903F090290CB1978085E0FDA3E00A
:105D9B00902904CDF0A3EDF0229028921225679064
:105DAB002896124FE5FF902902EDF0902896124F9E
:105DBB00D4123EF1902903F0902899B19790289234
:105DCB00122547B11CEF7F0060027F0122EF6004B8
:105DDB00902296F09021E7E0FF9021D712254712F1
:105DEB0019DA9021E7EFF06043202B409021E4E09B
:105DFB00C330E501D3922F902297B1139021E5E0A8
:105E0B00902719F09021DAD144745DF0A374D8F087
:105E1B009021E7D1521257DAEF701D90229674023F
:105E2B00F09021CDD14B8E837F028009902296E09A
:105E3B009021CDD15912269222E090271AF0A3225D
:105E4B00E0FEA3E0F58222E0FBAD57E4FF22FFE08A
:105E5B00FCA3E0FDF5828C8322D18560189021D6BE
:105E6B00E0FEEF6E600F9021D0E0600C902291E08D
:105E7B0054BFB50603D38001C322902291E0FF5497
:105E8B000F2290281C1225671225709028231225AB
:105E9B0067123FE2E412212AC22D9021E2F0126434
:105EAB00871247D31264B47F0412199920641A1213
:105EBB00429790299B1225677A2179D11264A460AD
:105ECB0008123EE8448012212A123EE830E7743073
:105EDB00043420156E12647F2405123EF120E76313
:105EEB0012647F124FEBE92401123EF164037053ED
:105EFB0012647F124FEB319F90299B12256712641E
:105F0B00871264A4703DE54264036037E542B40137
:105F1B0009902355E0C39402402912647F24051293
:105F2B003EF120E70302637512647F240A123EF1EF
:105F3B0012575B12647F125748319F1264986003AB
:105F4B0002637512647F2406123EF1540FFF9021F9
:105F5B00CFE07E00B402027E80EF4E902291F012D1
:105F6B00471A24B7123EF1FF7B017A28791F718EF5
:105F7B0012471A1247321222275407FF12471A24CC
:105F8B00B8123EF1540FFE90281FE0540FFDBD04D4
:105F9B00047D4080027D00EE4DFEEF7F00B40202D7
:105FAB007F80EE4F9021D6F012647F2405123EF1D4
:105FBB00FF540F24FE70030262AD147003026340A2
:105FCB0024FE700302636A24046003026375902845
:105FDB0023123EEBFE740AD39E4006123FE2E4808E
:105FEB0030EF20E70302625E902291E04440F01212
:105FFB00647F240A123EF1C4540FFF902820F060F6
:10600B000BE0D394045005740B9E4008123FE274CE
:10601B008002212A917F2409123EF130E3537E0046
:10602B00917F12574812208FFFC4540F29F9EE3A73
:10603B00FAE92401F9E43AFAC003C002C00190283E
:10604B001C12599C122590917F240A123EF1C454C4
:10605B000FFFFD7C00917F124F51E92DF9EC3A12A5
:10606B005797FE902823123EEBC39FC39E24F380C9
:10607B0033917F240A123EF112575B917F125748DE
:10608B00C003C002C00190281C12599C122590918C
:10609B007F240A123EF1C4540FFF902823123EEBCB
:1060AB0024F4C39F90281C124EF3917F2409123EB7
:1060BB00F1FF30E107123EE844208009EF30E2089F
:1060CB00123EE8444012212A917F2408123EF165CA
:1060DB0057600221D1917F240A123EF1540FFF9099
:1060EB002820E06F600221879021D0E0600221D14F
:1060FB00917F2405123EF190281C30E607123EEBEF
:10610B00440D8005123EEB440912212A917F124F58
:10611B00517E0012574E91BFFA12208F918D124E65
:10612B00FA123EE830E70221D1917F2405123EF1AD
:10613B0020E70221D1917F240A123EF1C4540FFFB4
:10614B00917F12574812208FD394015079E9240183
:10615B00123EF16403706F917F240A123EF1C45416
:10616B000FFF917F12574812599F1247D37B017A29
:10617B002279927F04121999D22E804A917F240A98
:10618B00123EF1540F640F703D917F2405123EF1C6
:10619B0030E608123EE8440412212A125E64501ABB
:1061AB00917F240A123EF1C4540FFF9187125BD7E3
:1061BB005008123EE8440112212A917F240B123E13
:1061CB00F1918D124EFA917F2404123EF1655760C6
:1061DB002912471A12563E90299B122567918791D7
:1061EB00A46002617512471A24B6123EF1FF917F2B
:1061FB002404123EF16F60026175125E644002610D
:10620B0075917F240A123EF1FF540FFE12471A2498
:10621B00BA123EF1FD917F2408123EF16D600261CE
:10622B0075917F2409123EF130E017EFC4540F240F
:10623B00FE540F6E60026175123EE891AB7403F071
:10624B006175EE640160026175123EE891AB7401F9
:10625B00F06175917F124FEBC003C002C001902813
:10626B001C12599C122590902823123EEB24F69178
:10627B006D2408123EF1FF65576006EFF460026172
:10628B0075123EE84401917C2404123EF1918D91EC
:10629B00772405123EF120E6026175123EE84404B4
:1062AB006165917F2408123EF1541FFF7E00917FA0
:1062BB00240912574AC003C002C00190281C12596E
:1062CB009C122590917F2408123EF1541FFF9028B9
:1062DB0023123EEB24F6C39F916D2408123EF1541A
:1062EB00E0FDE557D39D5002617512208F541F7549
:1062FB00F008A42D91C7D3E5579FEE1257CA506AE9
:10630B00917F2408123EF154E0FFC3E5579F14FF21
:10631B00917F124FEBEF131313541F91CF5407FFC1
:10632B007401A807088002C333D8FC5E603C123EA0
:10633B00E844018025123EE8440212212A125E85B0
:10634B0060099021D6E054BF6F701F917F24081213
:10635B003EF1B55715123EE8440112212A800B90ED
:10636B00281C122547121B3D922D917F2405123EAE
:10637B00F1FF540F640160028164EF90282330E732
:10638B001A122547E9240A123EF112575B917F122C
:10639B00574812208F902822F08015122547E924A8
:1063AB0009123EF1902822F0A3122547E9124FEB78
:1063BB00E92401123EF1902821F0123EE8FFAE4293
:1063CB0020040CEE64036007EE640160028164EF4D
:1063DB005463640160028164902822E0D3940150DD
:1063EB0070300475902821E0FE6408606CEE64093F
:1063FB006004EEB40404EF30E75F902821E06403FF
:10640B00704FEF30E753301514917F124FEB125949
:10641B009F90299B12256791B491A4603C917F12A8
:10642B004FEBE92404123EF1FF917F124FEBE9246D
:10643B0003123EF14FFF917F124FEBE92405123E01
:10644B00F14FFF917F124FEBE92406123EF14F60A3
:10645B0008123EE854FA12212A123EE830E002D22A
:10646B002D22FF90281C122547E92406F9E43AFA5D
:10647B00EF12212A902823122547E9229028230284
:10648B002547FF90281C122547E924082290299BB9
:10649B001225677B017A0279B67F0412199EEF22CF
:1064AB00440312212A9021E2227B017A2179D12205
:1064BB00F9EC3AFAE924FFF9EA34FF227C00FFEC0D
:1064CB0035F0FE2229F9EC3AFA12208FFEEF22E981
:1064DB004A600789828A831226922212473AEA4936
:1064EB004B600D12471A2402123EF130E502D22BFB
:1064FB0022C003C002C0019028291225479027080B
:10650B0012256790282CE090270BF090282DE09017
:10651B00270CF090282EE0FFA3E090270DCFF0A3DF
:10652B00EFF0D001D002D003AF57902704D15A908F
:10653B00270F7403F090270CE05437F0E0FE542043
:10654B009021E4F090270DE0FDA3E09021CDCDF05C
:10655B00A3EDF0D14B90229712256790270BE0907B
:10656B0021E5F09027051225479021D7122567EEDC
:10657B0044209021DAF0E4902296F0C22BF5529051
:10658B002705122547AF521219DA8F52EF602A7D79
:10659B0003121B1540E990270BE0D3941940037F9E
:1065AB000022AF52121B10500890270F7401F0807D
:1065BB000890270F7402F080C690270BE0D39482CB
:1065CB0040037F00227F02121B6F9027101225675A
:1065DB00EA494B605A902704E0FF90271012254799
:1065EB00E924B6124EFA90270CE0FE30E01BE49043
:1065FB0021E7F0D151EE6401A3F0A3745DF074D8E0
:10660B00D13D90270FE0FF801E90270FE0FFD15167
:10661B0090270CE0902735F09021CDE0FDA3E09082
:10662B002736CDF0EDD13D7D021254CD7F01227F77
:10663B000022A3F0902710122547902738122567C8
:10664B0090270802254790270BE0902734F022EF84
:10665B00F0A302256712471A24BA123EF1D1721227
:10666B004FF27F01021B60FF7D01021AD49021E2E1
:10667B00E030E111D1919002B0F0E0D394F94003F6
:10668B0074F9F0D2AD22C2AD9024C7E0A3E022E4AE
:10669B009002B0F022E49021E6F0C22BC22E9021A2
:1066AB00D0F0D22C22D1CB5006D1BC50028001C3EA
:1066BB0022E5F754E024FF22C2EBA2ED9241C2ED9A
:1066CB00E5F4C330E701D322AF14EFC36001D3224B
:1066DB00EFC3940E5005900415EFF022E517540FFD
:1066EB00FF22E517C394F0501F5317F0F116FE74F9
:1066FB000FC39F4005EE940E400543170D8003EF2B
:10670B004217E517540FFF227F0022E517C4540FE1
:10671B00FEEF902B41932E22F116FFC3940E4002F5
:10672B007F0DEF902B2393FF22EF30E303AF132268
:10673B00AD1B204204EE30E00BE517C394F0502064
:10674B00F16E8018E51A6006FDE4F51A8012E51764
:10675B00C394F0500BE517540FFF6004F123AD0702
:10676B00AF0522900415E0FDFFC3740EF198EFC442
:10677B00F8540FC868FFEEC454F048FEE51754F008
:10678B00C39FEE1257CA7F005002AF05229FFFE452
:10679B009400FE224315015315DFF13412681D409E
:1067AB0004E4F514225315FBF1B9D322F1C643FAD5
:1067BB0004E4F5FF53D1FD43D1012275FF01E5D56B
:1067CB0030E602C322E4F5FF439A80EFF1E1E4F5F2
:1067DB00FF539A7FD32233333354F8F5F422E51762
:1067EB0054F0C4540F2FFFC3941040027F0FEF904F
:1067FB002B3193FF227E10EE60091EEE902B31930E
:10680B00B507F4EEC3940E40027E0DEE902B23934E
:10681B00FF22900433EFF0900414E024FD60110488
:10682B00700711647404F0801211647408F0800B0B
:10683B00E4900434F09004327402F07F01121C6E69
:10684B00900434E0FF900432E0FDA3E0FBE49029D8
:10685B0085F012339250E9D3229004347401F090F6
:10686B0004322231D2E5D120E0FBE4F5FF75D908E3
:10687B00900413E07F00B403027F011267B7D25775
:10688B00123CDDE4F51022C0E0C0F0C083C082C032
:10689B00D075D008C0FF1234BB8F18E51864027096
:1068AB0050E51424F860402407600221AD900424C5
:1068BB0051907028AB1CAA1DA91E31C6AD16AF1F77
:1068CB005161E4FB7D01FF31E375FF00518743FA12
:1068DB000475FF001267BF75140821AD43FA0475E8
:1068EB00FF001267BF21ADC2EB75140043150421E5
:1068FB00ADE5186401600221AD516E400221ADE59A
:10690B0010705231BAE0900447F051EB51B690043D
:10691B0013EFF0900447E0FFD39409405690041313
:10692B00E0D39402400CEFD394AA7F0040027F0186
:10693B00800D900447E0D394407F0040027F01EF2D
:10694B006002802F900447E0FFF51675FF008FD98A
:10695B00751003804DE51064037047F5FF90041329
:10696B00E0C39403E5D350055402FF80035401FFA9
:10697B00EF6004116E802BC257123CDD75FF0031A6
:10698B00DAE5D120E0FBC2EB431502751000900451
:10699B0013E0B40307151631BAE516F09002B5E50E
:1069AB0016F0D0FFD0D0D082D083D0F0D0E032E53B
:1069BB00122407F582E43511F58322E4F5FFE95142
:1069CB007EEA540F42D622C257123CDDE4F5FFE5B6
:1069DB00D154FE4402F5D122E4F5FF75D102E5D185
:1069EB0020E0FBE4F5FFF5D1EF6008E4F5FF43D2BF
:1069FB00808006E4F5FF53D27FEB6006E4F5FF439E
:106A0B00D104ED6006E4F5FF43D108229004385120
:106A1B0075751401E4FBFDFF31E37B017A047916F4
:106A2B0031C6E4FD7F025161519A9004167455F002
:106A3B00900438E0900417F09004147402F0900462
:106A4B003AE090042430E507E4F0A3743CF022E430
:106A5B00F0A374F0F022E4F5FF8FD4F5FFCFEDCF68
:106A6B008FD522E5F754C024FF22EFF0A3ECF0A35F
:106A7B00EDF022F5D7E4F5FF53D6F022E5D25480A2
:106A8B004414F5D22274FFF5F01221FB45F022E4F9
:106A9B00F5FFE5D25480440AF5D222E51520E5072F
:106AAB0031D2E5D120E0FBE4F51022EF24FE600C9F
:106ABB0024FE600580007F01227F02227F0322E4F7
:106ACB00F5FF75D102E5D120E0FBE4F5D1F5FFEF41
:106ADB00517EEE540F42D6E4F5FFCFEDCF8FD4228B
:106AEB00E5F75406FFBF06037F0822E5F75406FFC0
:106AFB00BF04037F0422E5F75406FFBF02037F02A6
:106B0B00227F0122C2AFEF4215D2AF22900424E0C4
:106B1B00A3E0FF2290043EEFF0ED24FE6019146019
:106B2B00262402703BEB2402FFE43AFE7C007D50EE
:106B3B0012215E7D60801E7193C333CE33CED8F9A4
:106B4B00FF7C007D28800E7193C333CE33CED8F9F2
:106B5B00FF7C007D6412217090043FEEF0A3EFF0F8
:106B6B0090043EE0719EC083C0821224E0900440EA
:106B7B00E02401FF90043FE03400FEE4FCFD12230F
:106B8B002ED082D0830224ECEB2401FFE43AFEEFFB
:106B9B0078032225E025E02418F582E43404F583FC
:106BAB0022EF719E1224C40224AAE490041871CC23
:106BBB00E490041C71D3E4FFFEFDFC90042002243E
:106BCB00ECFFFEFDFC0224ECFFFEFDFC0224EC7F3F
:106BDB00017E009017FCE4935EFE7401935F4E24DC
:106BEB00FFB322900001740193B40007E493B4182F
:106BFB0002C322D322EF7011ED600775FF0143AE84
:106C0B00012275FF0153AEFE22EFB40110ED6007B8
:106C1B0075FF0143AE022275FF0153AEFD2275FFD6
:106C2B0001434B02434F02854F90854BC9D28AC219
:106C3B00AAE4FD7F0180BE75FF02E5E630E2037F2B
:106C4B000322E5E630E3037F0022E5E630E1037F34
:106C5B000422E5E67F0530E0027F0122EF60077535
:106C6B00FF0253E6BF2275FF0243E64022EF14609A
:106C7B000F146014240270188B8075FF018DFD2298
:106C8B008B9075FF018DC9228BA075FF018DCA22D8
:106C9B00AF038FB075FF01AF058FCB2290297C120C
:106CAB002567EF1460111460182402701E91E1E542
:106CBB008091E7E5FD801C91E1E59091E7E5C980C6
:106CCB001291E1E5A091E7E5CA800891E1E5B09169
:106CDB00E7E5CB02212A90297F02254712212A754D
:106CEB00FF0190297C022547E4F5FFAF9122E4F5E3
:106CFB00FFAF922243FB1075FF0243E640EF600D9E
:106D0B0075FF02E5E120E7FB43FB0D800343FB0E20
:106D1B0080FEE4F5FFEFF5D8E4F5FF53D60FEE5404
:106D2B000FC4F854F0C8E4C4540F4842D622E4F51B
:106D3B00FF8FD422E4F5FFE5D1540133333354F8FC
:106D4B00FFE4F5FFE5D354074FFF22902AABB18345
:106D5B007A2A79ADB1945014902AADE0FEA3E0FFEE
:106D6B00902AACE09F902AABE09E400B902AABE0C0
:106D7B00FEA3E0FF1235A522EEF0A3EFF07B01227C
:106D8B007FE87E03B1560234E9B1A9AD94EF4DB162
:106D9B00B58FF012230FE591C330E701D32275FFB6
:106DAB0003AF93EF75F010A4FF2224FBFFE5F03443
:106DBB00FF22902B1C1237F77F017C127D01E4FE22
:106DCB00ED2EF582E43CF583E02FFF0EEEB412F0CE
:106DDB00901213E06F600A902B1C1237CAE4122139
:106DEB002A22E4F5FF75C2E17F1ED1FD30E707E4EF
:106DFB00F5FF75C2A122E4F5FF75C2812290269E94
:106E0B001224ECE4F5FF75BB0575BB8575FF0175A9
:106E1B00D502205205123694B1ED75FF0143D520F2
:106E2B00305202C1CFE4F5FF538EF7438E077D043A
:106E3B00E4F5FF8DBCF5FF43B102E5B130E2FBE4B5
:106E4B00F5FFAFDFEFFEACDEECFBEBFFED25E02457
:106E5B009CF582E43426F583D1F6F5FFF5FF53B1AB
:106E6B00FD0DEDB40CCA90269E12316578091224E3
:106E7B0084A3D1F6FDED25E024A6F582E43426F5B6
:106E8B0083E0C313FAA3E013FBD1E9E0C313FEA322
:106E9B00E0132BFFEE3AFED1E9EEF0A3EFF0ED2479
:106EAB000490120DF0EDC394075019CFEDCF0DEFF9
:106EBB00D1EAE0FEA3E0FFC39026A3E09F9026A2B9
:106ECB00E09E50B1E4F5FF758EC8F5FF90120DE012
:106EDB00F5BCE4F5FF75BB8075FF01F5D522ED25FB
:106EEB00E024A4F582E43426F58322EEF0A3EFF040
:106EFB00E422FE12370690120FE022C25175FF03F7
:106F0B00759B1F75FF0390120FE0FF20E71BE59A9F
:106F1B00540FC394024012EF4480F0E4F5FF75C2A6
:106F2B00A143FC0475FF03D251E5FC30E609E59A59
:106F3B00540FC3940540CCE5FC30E611E412212A32
:106F4B0075FC80F5FC75FC40E5FC20E6FB3051033D
:106F5B001232AE22EF30E00E43F401E4F5FF43A40E
:106F6B0004F5FF759624EF30E10E43F401E4F5FFD1
:106F7B0043A408F5FF759624EF30E20943F402E4CD
:106F8B00F5FF75961EEF30E30943F404E4F5FF7546
:106F9B00961075FF01EF5403600475D7122275D755
:106FAB002D22E4F5FF7584E6F5FF439404F5FF7598
:106FBB00981422CCEFCCCFEDCF74017E00C8EFC874
:106FCB00088005C333CE33CED8F9FFCDECCDEF5DC2
:106FDB00601B30531875FF0175DCAD75FF0175DD56
:106FEB00CDE4F5FF759A74F5FF7594842275FF0156
:106FFB0075DC5375FF0175DD33E4F5FF759A14F5F8
:10700B00FF75940422E4F5FF75933F75FF03759AA2
:10701B0040126FADE4F5FF759C93F5FF75A1A3F5D9
:10702B00FF758531F5FF758628E5FA54304480F5F8
:10703B00FA75FF0175E74A75FF0275DF4975FF01A8
:10704B0043D30475FF0153D367E4F5FF53E6BF75D4
:10705B00FF0175D825F5FF75B503F5FF75B215F56D
:10706B00FF75BA02F5FF75AFB3F5FF75CD0AF5FFE6
:10707B0075CB08F5FF75CA12F5FF75BF0EF5FF75D9
:10708B00CC96F5FFF5BDF5FF75C281F5FF75AEE149
:10709B00F5FF75DA55F5FF75F580F5FF75E903F525
:1070AB00FF75E933F5FF75972A75FF01759B4275DF
:1070BB009CA4759D29759E48759F2475A11275A377
:1070CB0012759AF820540CF5FF43968090120FE03E
:1070DB004440F02275FF0175E46575FF0175D647D5
:1070EB0022902AB7EDF0901211E0FEF46006A3E0B7
:1070FB00FDB4FF0C902AB97418F0A37413F0800838
:10710B00902AB9EEF0A3EDF012208F6401600241DA
:10711B0050902AB7E0FE64086004EEB40408902A8D
:10712B00B87428F08006902AB8743AF0EF123158F0
:10713B00122465E45151EF24D8FFEE343FFEED34B9
:10714B0093FDEC3416FC7B007A80790378001218DF
:10715B004E5175902ABAE0FF902AB9E0C312679896
:10716B00E4FCFD12233BECC0E0EDC0E0EEC0E0EF31
:10717B00C0E0902ABAE0FFE4FCFDFE5151D0E0FBE9
:10718B00D0E0FAD0E0F9D0E0F8EB2FFBEA3EFAE9D9
:10719B003DF9E83CF8902AB8E0FFE4FCFDFE122331
:1071AB003BEF2454FFEE340B1232EEFCE47BA87A57
:1071BB0016F9F812184ECBEFCB902AB7E01460609B
:1071CB0014601B24FE600C24FC707AE4F5FF75CE72
:1071DB00318006E4F5FF75CE21F5FF8BCF22E4FA63
:1071EB00E4F5FFEA2440F5CEE4F5FFEAFFC37407AC
:1071FB0012679874AC2FF582742B3EF583E45159CA
:10720B0013C39DF5CFE4F5FFEA2448F5CEE4F5FF73
:10721B00EA902BAC5159132DF5CF0AEAB408C122D1
:10722B00E4F5FF75CE01F5FF8BCFF5FF75CE0EF5AF
:10723B00FFEB25E0F5CFE4F5FF75CE0FF5FFEB7512
:10724B00F003A4F5CF227B64FAF9F802233B9325D4
:10725B00E0FDE433FCEB75F010A4FFAEF0122170EF
:10726B00CDEFCDEBFFE4C313EF22C8ECC8C9EDC9DA
:10727B00CAEECACBEFCB22E5FA30E1FB75FC807589
:10728B00FF0153D5EFE4F5FC75FC401236A4E5FC89
:10729B0020E6FB2275FF01E5D530E602C32253FA47
:1072AB00CFEFB4080543FA308012EFB4040543FA6C
:1072BB00208009EFB4020543FA108000D322E5F4D5
:1072CB005418131313541FFF22AFF4EF547FF5F42C
