:020000040800F2
:10600000080400203DED0008D3E30008D3E30008B6
:10601000A53C0108D3E30008D3E30008D3E300085C
:10602000D3E30008D3E30008D3E30008E912030830
:10603000D3E30008E83103088D120308A1290308FF
:10604000AD160108D3E30008D3E30008D3E300084A
:10605000D3E30008D3E30008D3E30008D3E3000848
:10606000D3E30008D3E30008D3E30008D3E3000838
:10607000D3E30008D3E30008D3E30008D3E3000828
:10608000D3E30008D3E30008E9870108D3E300085D
:10609000D3E30008D3E3000879E40008D3E3000861
:1060A000D3E30008D3E3000855E4000831E4000816
:1060B000D3E30008D3E30008B5DC020871E7020867
:1060C000090003080500030825DF02081F00030874
:1060D0000D00030841E7020811000308D5E7020894
:1060E0000DE80208D3E30008D3E30008D3E3000877
:1060F000D3E3000889510108D3E30008D3E3000883
:10610000D3E30008D3E30008D3E30008D3E3000897
:10611000D3E30008D3E30008AD5C0208D3E3000832
:10612000D3E30008D3E30008D3E30008D3E3000877
:10613000D3E30008D3E30008D3E30008D3E3000867
:10614000D3E30008D3E30008D3E30008E5EE00083A
:10615000D3E30008D3E30008D3E30008F9C402083E
:10616000D3E30008D3E30008F9FF0208FFFF0208A9
:10617000F0B5114A114C124E00F00105E3695F07BA
:1061800013D40DB9334213D103EA00078F4207D16C
:106190000B4A1A40002A0CBF00206FF00100F0BD2E
:1061A000013AEBD16FF00200F9E74FF0FF30F6E76C
:1061B0006FF00100F3E700BF8096980000000350E5
:1061C000020001004FF4803238B50E4B0E4C9A6637
:1061D000E56941F6713315400122E3630B4B002161
:1061E000DA600223606121202361FFF7C1FF10B94B
:1061F0002120FFF7BDFF0122054BDA600DB100231E
:10620000E36338BD009000500000035000100350BD
:10621000002003502DE9F84F16464FF48032274BEB
:10622000274D9A66EB69074603EA020841F6713387
:106230000122EB63234BDFF89490DA600EB930460D
:1062400029E007F5005404EA09046F61E41BEB69D7
:10625000B44228BF34465B072DD48B465BF8043B21
:1062600001EB040AAB61D3450ED1042300212120A8
:106270002B61FFF77DFF70B92120FFF779FF50B93F
:1062800059462744361BD9E708210846FFF770FF17
:1062900068B104232B6101220B4BDA60B8F1000FC7
:1062A00003D00022A3F50053DA63BDE8F88F5BF852
:1062B000043BAB61D7E74FF0FF30ECE700900050B4
:1062C00000000350001003500020035000E0FFFFC7
:1062D000094C01086C00010000000000FF000100F3
:1062E00025000000389B0020FF0000000000000097
:1062F00018000000099B010822000000019A010813
:1063000001000000F39A0108050000005D990108F2
:1063100004000000C5A401080B0000009DA60108B0
:106320002500000061AC010824000000FDAB01085D
:106330001400000099B801080C00000059AD0108D4
:1063400016000000719701080300000091E90108A0
:1063500002000000019B010808000000B1BD010817
:106360002A000000DDE701082900000021E90108FA
:1063700002000000F99A010801000000ED9A0108EE
:106380000300000051AF010800000000319A01082D
:1063900002005E00020000001D4201080000000033
:1063A00000000000000000000000000000000000ED
:1063B0000000000000000000020086000300000052
:1063C000BD490108000000000000000000000000BE
:1063D00000000000000000000000000000000000BD
:1063E00002006C0001000000998501080000000017
:1063F000000000000000000000000000ED4B01085C
:10640000ED4B0108000000000200730001000000D5
:10641000B952010800000000000000000000000068
:10642000000000000D4201087D4701080000000047
:10643000020072000200000091410108000000000B
:10644000000000000000000000000000000000004C
:1064500000000000000000000200870003000000B0
:10646000656D010800000000000000008541010882
:10647000000000000000000000000000000000001C
:1064800002007A0005000000697D0108000000009C
:106490000000000000000000000000006182010810
:1064A000618201080000000002005A0001000000A3
:1064B0000000000000000000000000004D41010845
:1064C00000000000000000000000000000000000CC
:1064D0000200700004000000D575010800000000F3
:1064E000000000000000000000000000F966010844
:1064F000F96601080000000002005B0003000000D4
:106500008744010800000000000000000B41010862
:106510000000000011560108554401080000000069
:10652000030025000200000017650108F54001087E
:10653000F9640108FF400108000000005D890108BE
:106540005D89010800000000030020000200000037
:10655000C548010800000000000000000000000025
:10656000000000000000000000000000000000002B
:1065700002008E0003000000155E0108000000000C
:10658000000000000000000000000000000000000B
:10659000000000000000000002005900030000009D
:1065A0004B74010800000000000000000000000023
:1065B00000000000873E010800000000000000000D
:1065C0000200850002000000655D01080000000077
:1065D000000000000000000000000000FD55010860
:1065E0000D560108000000000100FF00FF00000040
:1065F000000000000000000000000000000000009B
:10660000000000000000000000000000000000008A
:106610000B7813B10B6901330B6170470123064AF4
:10662000C2F8183702F56042116B106718B1A2F575
:106630007042C2F81837704700E003500223074A3F
:10664000C2F8183702F56042116BC2F8900018B119
:10665000A2F57042C2F81837704700BF00E003503F
:106660000423074AC2F8183702F56042116BC2F8DA
:10667000B00018B1A2F57042C2F81837704700BFD9
:1066800000E0035070478A4230B5044600F0ED80C8
:10669000774822F4FF7323F0010383420ED0754B39
:1066A00022F0FF00984209D0734D22F47F7323F04B
:1066B0000303AB4202D0714B984227D1704B21F0BB
:1066C000FF0098420ED111F0FF000AD06D4B40F050
:1066D0000070984247D182EA0100FF288CBF002059
:1066E000012030BD634B9842EDD0A3F5885398420A
:1066F000E9D021F4FF7323F00103B3F1062FE2D0B8
:106700005E4DA842DFD05C488342DCD001F0FE43FE
:10671000B3F1A06F12D102F0FE43B3F1A06F22D10A
:1067200082EA010333F47E131DD111F40040D8D066
:10673000C1F30540C2F305429042CFE7B3F1407F79
:106740007ED102F0FE43B3F1407F0CD182EA010317
:1067500033F47E1307D14C480840B0F1607F04D178
:10676000B4F5885F0ED00020BBE7B0F1707FFAD19E
:1067700004F4E040B0F5005FF5D114F4E06FC4F329
:106780000220AED0404812F47C1500EA02001BD073
:10679000B0F1607FC2F305453FD13C4CD0B240F030
:1067A0000070A0423FD000F17E4004380F2801D88D
:1067B000374B1B5C11F47C1FC1F3054435D1AB4250
:1067C00014BF002001208CE7B0F1607F0DD12F4C69
:1067D000D0B240F00070A0421DD000F17E400438DD
:1067E0000F28DAD82B4C255CD7E7B0F1707F18D191
:1067F00004F4E040B0F5005F03D10125C4F30220AA
:10680000854004F4E040B0F5005FD3D10123C4F328
:106810000224A340CEE71025BFE7B0F1707FC9D1B5
:10682000EFE72B46C6E71023C4E712F47C1F01D123
:106830009C421AD011F400403FF453AFAC424DE7F4
:10684000B3F1106F8FD121F01F6020F47020002869
:1068500089D102F0FE43B3F1106F7FF442AF0E48CE
:10686000104040F010608842AAE7012039E700BFDD
:1068700000020006001300060004000600090006DE
:1068800000030006FF0000020000C07F03000002BA
:10689000583A0308583A03080000FFF6037E022B1B
:1068A00006D1C3695A1C03D00133C361002070476D
:1068B0006FF09600704738B5064C074B20461B68B2
:1068C0009847064B204693F8F050054B1B689847B5
:1068D000284638BD00120020989B0020D8120020C6
:1068E0009C9B00206FF01B0070477047064B1B6895
:1068F0004BB11B78032B01BF044AD2F8243143F07B
:106900000043C2F824317047D41300200000035024
:1069100070477047014BA3F86E047047485D002034
:1069200000230448202280F87C34802100F27D403E
:1069300028F06EBE485D0020F2E7074BB3F89E34A6
:1069400043B9064B5B681B78023B012B8CBF0320CD
:106950000420704703207047485D0020A49C00205D
:10696000064AB2F872342BB192F87034002B0CBF87
:106970000123022382F86C34704700BF485D002079
:10698000024BC3F87404A3F87214E9E7485D0020D1
:1069900004289DBF024B1B18187C0520704700BFC0
:1069A000583A0308022070471E286FF00503A8BF5D
:1069B0001E209842B8BF18460023064A12F9011B50
:1069C000814204DA0133102BF8D10F207047D8B27E
:1069D000704700BF6D3A0308D0F80230827AC0F8E1
:1069E0001930C388C2F3C001437702F001031B01D1
:1069F00043EA8113C2F3001143EAC11343F00103D8
:106A00008377C37AC2F3800243EAC213C377038950
:106A100080F821307047D0F80230C0F81930C388B0
:106A20004377837A13F0100F0CBF01220822C3F3BF
:106A3000C001C3F380035B0143EAC11313438377AF
:106A4000C37A027B80F821300389C2F3800180F889
:106A5000223002F001031B0143EAC113C2F34002DA
:106A600043EA4213C3777047D0F80230C0F81930B8
:106A7000C3884377837AC3F3C00203F001031B0189
:106A800043EA821343F005038377037BC27A5B01F9
:106A900003F060031343C377038980F82130704704
:106AA000D0F80230C0F81930C3884377837AC3F333
:106AB000C003DB0143F005038377C37A80F82130FC
:106AC000038980F82230037B1B0103F03003C37776
:106AD0007047D0F80230827AC0F81930C388C2F308
:106AE000C0014377C2F340035B0143EA811302F024
:106AF000010243EA021343F003038377C37AC377A7
:106B0000038980F821307047D0F80230C0F819307E
:106B1000C3884377837AC3F3C002C3F340039B0166
:106B200043EAC21343F003038377C37A80F821302A
:106B3000038980F82230037BC3F38003DB01C37732
:106B40007047D0F80230C0F81930C3884377837A91
:106B5000C3F3C00203F001031B0143EA821343F0B5
:106B600002038377C37AC3777047D0F80230027B81
:106B7000C0F81930C388C2F38001437702238377BA
:106B8000C37A80F8213002F001031B0143EAC113EC
:106B9000C2F3400243EA4213C37770477047C369A8
:106BA000817A1A68C0F802201A79C2805A79D2090B
:106BB00062F3041181725A79C9B2921162F3C3016E
:106BC00081725A79C9B2121162F3000181729A7905
:106BD000C9B2D20962F3820181729A79017B921162
:106BE00062F3410101739A79C9B2521162F3000153
:106BF00001739A7902F00F02C2721B7A0381704707
:106C0000C369817A1A68C0F802201A79C2805A7959
:106C1000D20962F3C30181725A79C9B2521162F387
:106C2000820181729A79017B521162F341010173F1
:106C30009A79C9B2121162F3000101739A79C9B24B
:106C4000D20962F3820101731A7AC2725B7A0381FC
:106C5000704710B5C3691A68C0F802205A791C79C8
:106C6000110941EA0411C1801202997902F470629B
:106C70000A4302811A7A817AD20962F3C301027B44
:106C800081726FF3820202735A7AC2729A7A4273E5
:106C9000DB7A837310BD437900F1090203F00F031F
:106CA000082B04D1837A1B0705D4012307E090F950
:106CB0000630002BF9DA837A03F007030233D01889
:106CC00070474279034602F00F02082A04D1807A05
:106CD00010F0080004D1704790F90620002A06DA67
:106CE000DA7A03EB1213187B00F0070070470020DC
:106CF00070474379C27A03F00F03082B00F11001AB
:106D00004FEA121207D1837A13F0080307D1033A2E
:106D10001344C818704790F90630002B04DA837AC0
:106D200003F007030133F2E70023F0E74379427AE7
:106D300003F00F03082B00F10A0102F01F0206D135
:106D4000837A13F0080306D11A448818704790F923
:106D50000630002B04DA801A837A03F00703F3E786
:106D60000023F1E74379C27A03F00F03082B00F107
:106D70000C014FEA121206D1837A13F0080306D1F0
:106D80001A448818704790F90630002B05DA104431
:106D9000037B03F007030133F2E70023F0E74379B5
:106DA000C17A03F00F03082BC2794FEA111109D100
:106DB000837A13F0080309D1A2F10D00401AC01A1A
:106DC000C0B2704790F90630002B05DA0844037B07
:106DD00003F007030133EFE70023EDE70322F0B5EB
:106DE000134902FA00F591F8A0C4002601EB0C0348
:106DF00093F8A134EF4303EA050444FA00F00124B8
:106E0000C0B202EA03053541EDB2A84288BF1B19A2
:106E100006F1010688BFDBB29200A400042E03EA4B
:106E20000703D2B2E4B2ECD1614481F8A134F0BDE1
:106E3000485D0020064B93F88A252AB193F88B050C
:106E4000421C83F88B25704793F88C05704700BF70
:106E5000485D0020234B20BB93F88D2581B102F0C3
:106E6000F001F02904BF02F00F0283F88D2593F89A
:106E70008D051030C0B283F88D0500F0F00070472A
:106E800002F00F010F2904BF22F00F0283F88D25B5
:106E900093F88D050130C0B283F88D050001C0B2B2
:106EA000704793F88E2571B102F0F001F02904BF0C
:106EB00002F00F0283F88E2593F88E051030C0B2D1
:106EC00083F88E05D9E702F00F010F2904BF22F0E5
:106ED0000F0283F88E2593F88E050130C0B283F837
:106EE0008E05DBE7485D0020F0B506460027254DFE
:106EF000042E9DF814409DF8180085F88F7504D174
:106F0000942C94BF00200120F0BD0927F740FF0713
:106F10000BD4012817D19F2CF6D895F8900500289E
:106F2000F2D0962C25D80020EEE79F2C13D801280C
:106F3000F3D0FF2901D1362C0DD895F89005002803
:106F4000E2D02E2CEEE7022E05D89F2C03D8FF2985
:106F500003D1362C05D90120D6E7D10601D5362C30
:106F600007D895F890050028EBD15207CCD5302CE6
:106F7000CAD913F040001CBF012085F88F0580F0AE
:106F80000100C1E7485D00207047F7B504460126BF
:106F9000A778617EC06A7B1AD3F1000C4CEB030C1E
:106FA00094F803E003784D4D9E40E64595F8913501
:106FB000F2B241D0134385F891356368E2690A3330
:106FC0009342636051D3002384F803C06360C378A5
:106FD0009BB1237E012B10D10DF1070101301EF072
:106FE000ABFE9DF807306178994206D1E06A81F0E6
:106FF0000101617001301CF0B5F8A36A4BB1237E2A
:10700000012B03D02BB9E378012B02D1E3680133C4
:10701000E360E36ADB6843B3E278012A06D100202B
:1070200004F10C0103B0BDE8F04018476269E2B911
:10703000012004F10C01F5E713421EBF62680A3219
:107040006260227E012A12D1E268002A39D0636888
:10705000A26A0A336360934207D3C3681BB102205C
:1070600004F10C0198470023E36003B0F0BD8F42A8
:107070001AD1236A002BF8D062689342F5D861696F
:1070800039B9C3686261002BEFD0032004F10C0111
:10709000C8E7616A0029E8D0D31AB3FBF1F501FB18
:1070A0001533002BE1D1ECE763697BB1C3681BB1F9
:1070B000042004F10C0198470023E360636195F814
:1070C000913523EA060385F89135CEE7E368002B76
:1070D000F5D06368226A0A336360BCE7485D00202C
:1070E000F8B5204CB4F892355BB1013B9BB2A4F8E3
:1070F000923533B901221C4BC3F840240222C3F855
:10710000402400260127194D2B7813B12B7E022B2A
:107110001CD194F8913507FA06F223EA020384F8A9
:1071200091350136092E05F13005EDD194F89135F0
:107130005BB9B4F8925545B90D481DF075FD94F84A
:10714000D43565F3410384F8D435F8BDE86A037992
:10715000012B03D0A91C01301EF0EEFD2846FFF7DD
:1071600014FFDEE7485D002000E003501C0900200A
:10717000DC6200202DE9F843A54E73789BB1012B0A
:1071800066D00122002110461FF061F9A1481DF0D0
:107190004BFD0023A04A70201370A04A1370BDE875
:1071A000F8431EF0A3BC9E4B1B78002BE9D00620B1
:1071B0009C4F9D4BD7F8DC55F278013516F8351009
:1071C00000FB0133D88CB3F8288010FB02F05C8DF3
:1071D000964B18FB02F814FB02F41A8880B2824224
:1071E0001FFA88F8A4B202D01880FFF717FA904B64
:1071F0001A88424504D04046A3F80080FFF71EFAE3
:107200008C4B1A88A24203D020461C80FFF728FA34
:10721000D7F8D83506EBC50252680A339342C7F84F
:10722000D835C0F0BC8000233279C7F8D8359542F4
:10723000C7F8DC55C0F0B380C7F8DC35B36D002B60
:1072400000F0AD80013BB365002B40F0A88098E7CB
:10725000734B1D78002D94D0724C94F8EE35002BB2
:107260004CD000200627714B84F8EE051880704B37
:107270001880704B1880FFF7D1F9FFF7DFF9FFF79F
:10728000EFF9317A684BF27807FB0133DF8C198D07
:107290005B8D17FB02F711FB02F113FB02F3642273
:1072A00089B2BFB29BB240F2F13EB1FBF2FCA4F84E
:1072B000E075A4F8E435B7FBF2F7B3FBF2F3A4F8FA
:1072C000E215F168A4F8E6757145A4F8E8C5A4F8DC
:1072D000EA3566D84FF00A0EB1FBFEF1B2FBF1F2CF
:1072E00017FB02F71CFB02F113FB02F3A4F8E6758F
:1072F000A4F8E815A4F8EA35A4F8EC05D4F8D835D4
:10730000B4F8EC2501339342C4F8D83547D30020B4
:10731000464AD4F8DC151388454FDFF81881C4F8C5
:10732000D805002944D1B4F8E065B4F8E2059E42DE
:1073300082BFB4F8E6155B1813803B88984282BF81
:10734000B4F8E8155B183B80B4F8E415B8F80030E1
:10735000994282BFB4F8EAC56344A8F800301388A4
:10736000B3423B882CBF168000258342B8F800301A
:107370002CBF388000258B4238BF0025108828BFDD
:10738000A8F80010FFF74AF93888FFF757F9B8F85E
:107390000000FFF765F915B10123C4F8DC35BDE83D
:1073A000F8834FF47A73B1FBF3F1A4F8EC15A5E779
:1073B000B4F8E6153D8899423CBF5B1A1FFA83F981
:1073C000B4F8E83528BF8146AB422EBF0025ED1A40
:1073D000ADB2B4F8EA353D80B8F800704846BB421B
:1073E0002EBF0027FF1ABFB2A2F80090A8F80070C5
:1073F000FFF714F92846FFF721F945EA0905384651
:10740000FFF72EF93D43CAD1C4F8DC5516E700BF9B
:1074100070080020D80D0020180E0020B451002064
:10742000D40D0020485D0020583A03081A0E0020B1
:107430001C0E00201E0E0020074B93F8F02512F0C2
:10744000300207D1B0F57A6F04D801230221184623
:107450001FF034BD704700BF485D0020034B4FF460
:107460008071D3F8F4052BF033B800BF485D0020DD
:10747000002307B50193104B104A5B68FE28C3F345
:1074800008030CBF4FF480414FF40051D2F8F405CB
:1074900023B903B05DF804EB2BF01AB801AA2BF066
:1074A00019F9019B2BB14FF0E0234FF08052C3F844
:1074B000042D03B05DF804FB00ED00E0485D002002
:1074C000002307B50138019307280CD8DFE800F046
:1074D000190B040B160B0B1C012101AA0C4BD3F842
:1074E000F4052BF0F7F8019B2BB14FF0E0234FF0A0
:1074F0008052C3F8042D03B05DF804FB402101AABB
:10750000ECE7042101AAE9E74FF4004101AAE5E70D
:10751000485D0020002307B502380193052818D8DC
:10752000DFE800F01C171E17031520210D4B01AAE0
:10753000D3F8F4052BF0CEF8019B2BB14FF0E023EC
:107540004FF08052C3F8042D03B05DF804FB102106
:10755000ECE7054B054A5A621AF054FB0221E5E7B5
:107560000821E3E7485D00200000085001001D03EA
:1075700008B5024A024B5A621AF044FB02001D038E
:107580000000085010B50F4C01201AF050FDE068C3
:1075900028F066FD0C4B93F8F8254AB1002083F8DB
:1075A000F8051EF041FCBDE81040022018F0BCBBFD
:1075B00001201AF03CFD0122E068114628F0B5FFD9
:1075C000F1E700BFA49C0020485D002008B5002022
:1075D00018F0AAFB044B4FF40071D3F8F405BDE892
:1075E00008402AF075BF00BF485D0020012018F058
:1075F0009BBB022018F098BB37B5294CE06828F0F7
:107600008BFEC307054602D5E06828F0A4FE15F4FA
:10761000881F42D04FF0FF33CDE90033214B93F860
:10762000F93503F0FF0543B100201AF000FD0022F8
:10763000E068114628F079FF0125D4E9021028F00E
:107640007AFF23780A3B012B08D80022E068114614
:1076500028F01AFD6946E06827F0A6FB0022012108
:10766000E06828F011FD01A9E06827F09DFB009873
:107670000D4B1860019959601AF06CFE00201AF049
:10768000D6FC55B1636818781CF07AF90122E068DD
:10769000114628F04AFF1EF063FD03B030BD00BF65
:1076A000A49C0020485D0020000008502DE9F04F08
:1076B000664E8FB01422002103A827F0A9FF0221F3
:1076C000F06803AA28F063FE0446002846D0604D07
:1076D00005F22967D5F8183613B19A6801329A6015
:1076E0001822002108A8BDF80EA027F091FF21461E
:1076F000F06808AA28F04DFEF8B995F828269DF8FC
:107700003310B36802EB4200C2EB801007F800A010
:107710000B44197E9146032907EB000821D801315B
:10772000C9B203291FD004290CBFBE2140215FFA32
:107730008AF38B4219D900233B544FF000082146AD
:10774000F06828F02AFE0221F06803AA28F01FFE44
:107750000446B8F1000F72D10028BBD10FB0BDE8CC
:10776000F08F4021E3E7AA21E1E70132D2B2032AF8
:1077700028BF002285F8282600220092214608F121
:107780000102F06828F01BFE9DF83330FE2B04BF89
:10779000337C8DF833301AF09CFC9DF833B058459B
:1077A000CBD9B3682B4A5B441B7E5846032B8EBF54
:1077B00000230133DBB202F8393002EBC90A1AF0B8
:1077C0001DFD73688AF801001B7863B1012B0AD094
:1077D000022B32D1BBF1020F94BF4FF0000B4FF0E0
:1077E000010B4FEA4B038AF802309DF82E30D5F892
:1077F00084288AF80330089BCAF80430D8F801308E
:107800001BBA934211D0D5F8183613B15A69013218
:107810005A610338C3B2012B07D8182303FB005069
:10782000D0F894380133C0F8943841465046D5F822
:10783000203698474FF0010881E70223D3E700285C
:107840008CD00120D5F80836984787E7A49C002003
:10785000485D0020AE65002070B578B1042830D1B5
:10786000194D95F9B838002B25DA05F6BC0013F050
:10787000DEFC20B90220003818BF012070BD0026B0
:10788000032405F64810C5F8446985F8BE4813F08E
:10789000CEFC0028EED0B5F8D439C5F8D06985F80B
:1078A0004A4953B905F64C25AA7842B901330F2B42
:1078B00005F11C05F8D10020DDE72046DBE70120BB
:1078C000D9E713F081FDD6E7485D002010B5A2B0DE
:1078D000044688220021684627F09AFEC3236846A2
:1078E0008DF800308DF804401DF096F922B010BDDF
:1078F00010B4D0F80220C4880189C0F819202209E8
:107900004277C1F3032242EA04128277027BC177F5
:10791000817AC2F38002C1F3C001920142EAC1122E
:1079200042F0010280F82120C27A5DF8044B80F811
:10793000222014F06DB810B4D0F80220C488018958
:10794000C0F8192022094277C1F3032242EA041247
:107950008277C177027E90F848105DF8044B0A44A4
:1079600080F82020027BC2F38002920142F00302E1
:1079700080F82120C27A80F82220427C80F82520DD
:1079800014F046B8F0B5067E90F848700446F31936
:10799000013380F82030012387B003700D4B02AD16
:1079A0000FCB85E80F00A37C31468DF80F30E37CC8
:1079B00028468DF81030636904F11902059304F12B
:1079C000490300933B461EF06DFA07B0BDE8F04056
:1079D000FEF7DEBFC03A0308F0B5067E90F84870A7
:1079E0000446F319013380F82030022387B0037076
:1079F0000D4B02AD0FCB85E80F00A37C31468DF80F
:107A00000F30E37C28468DF81030636904F11902C9
:107A1000059304F1490300933B461EF043FA07B077
:107A2000BDE8F040FEF7B4BFD03A0308F0B5067EDB
:107A300090F848700446F319023380F8203005238B
:107A400087B003700D4B02AD0FCB85E80F00A37C10
:107A500031468DF80F30E37C28468DF8103063698D
:107A600004F11902059304F1490300933B461EF00B
:107A700019FA07B0BDE8F040FEF78ABFE03A030804
:107A8000F0B5067E90F848700446F319023380F88A
:107A90002030062387B003700D4B02AD0FCB85E875
:107AA0000F00A37C31468DF80F30E37C28468DF81B
:107AB0001030636904F11902059304F1490300933E
:107AC0003B461EF0EFF907B0BDE8F040FEF760BF9F
:107AD000F03A0308F0B5067E90F848700446F319B2
:107AE000023380F82030072387B003700D4B02ADBE
:107AF0000FCB85E80F00A37C31468DF80F30E37C77
:107B000028468DF81030636904F11902059304F1D9
:107B1000490300933B461EF0C5F907B0BDE8F040AD
:107B2000FEF736BF003B030870B5174C86B0B4F8BB
:107B3000B8300189ADF8043000238DF80630134BBE
:107B40008DF805105B6806461A78D0F8020013F02D
:107B500027FF40F213120E4B02ADA3F8F02B04F1F5
:107B6000BC038DF806000FCB85E80F00F37C0321E2
:107B7000284601AA8DF810301EF04CFA06B0BDE878
:107B80007040FEF705BF00BF583A0308A49C0020D0
:107B9000485D002070B5174C86B0B4F8B830018944
:107BA000ADF8043000238DF80630134B8DF8051026
:107BB0005B6806461A78D0F8020013F0F1FE40F236
:107BC0004C420E4B02ADA3F8F02B04F1CC038DF820
:107BD00006000FCB85E80F00F37C0321284601AA9D
:107BE0008DF810301EF016FA06B0BDE87040FEF7B2
:107BF000CFBE00BF583A0308A49C0020485D002077
:107C0000552370B5044686B0D0F80260C57C90F963
:107C100013000193FEF7C8FE218902ACC1F30323D0
:107C200043EA00138DF805300E4B8DF806105B68A3
:107C300030461A7813F0B4FE72220B4B8DF8070011
:107C4000A3F8F02B094B0FCB84E80F00042120464A
:107C500001AA8DF810501EF0DDF906B0BDE87040A5
:107C6000FEF796BEA49C0020485D0020343B03082C
:107C7000552370B5044686B0D0F80260C57C90F9F3
:107C800013000193FEF790FE218902ACC1F3032398
:107C900043EA00138DF805300E4B8DF806105B6833
:107CA00030461A7813F07CFE72220B4B8DF80700D9
:107CB000A3F8F02B094B0FCB84E80F0004212046DA
:107CC00001AA8DF810501EF0A5F906B0BDE870406D
:107CD000FEF75EBEA49C0020485D0020443B0308E4
:107CE00008B5CB69084609334B61FEF758FF0523F9
:107CF000C373BDE808401DF079B908B5CB690846E3
:107D00000A334B61FEF77CFF0523C373BDE80840CF
:107D10001DF06CB910B5074C0A46D4F8F43B3BB1E2
:107D2000014604F6F43012F0DDF90023C4F8F43B08
:107D300010BD00BF485D002008280BD830235843F1
:107D4000054A1318105C30B198785B7EC31A58420C
:107D500058417047002070471C090020EFF305834D
:107D60000F2B84BF034A9B5C4FF0E023D3F80C3DFC
:107D7000704700BFF0E300E0002307B50193054B17
:107D80001B682AF0FBFD019B002BFCD003B05DF8C3
:107D900004FB00BF9C9C0020F0B50B780D4687B01B
:107DA000002B65D0C86A023101301DF0C5FF0023E9
:107DB000304E6B6096F8D44514F0020455D1D6F8D5
:107DC000C0350194002B4AD02B4F3868002846D08C
:107DD00008220493CDE90224234601AA02A929F02E
:107DE00045FD012833D13868D6F8C03578B309216C
:107DF0000A220493CDE90212234601AA02A929F01E
:107E000035FD012823D196F8C425D6F8CC3590400D
:107E10006FF001021B6A0292184A0590CDE9032314
:107E200002A923462246386829F020FDD6F8C0155D
:107E3000FFF794FF124B38681B6840B1062204918B
:107E4000CDE9022302A9234601AA29F00FFD019BD7
:107E50002BB14FF0E0234FF08052C3F8042D96F879
:107E6000D43543F0020386F8D4352B6901332B61F6
:107E700007B0F0BD485D00204C5A0020CF29030810
:107E8000345D00202DE9F74F0121866B90F83030EA
:107E9000346A994029F006FB236822690B4323606A
:107EA0000023DFF804A13D4D04F10C090193914535
:107EB00023680FD1019A23EA0203236029F084FD8D
:107EC000012196F82C30306B994003B0BDE8F04F9B
:107ED0002AF0FEBAD2E9000820F07F41470101EA0A
:107EE000030C04D4BCF1000F03D14246DFE7614527
:107EF000FBD1C00148BF019843F0024344BF08438F
:107F00000190DAF80010D2E903014F68136093681A
:107F1000BA42C8F80830C3F8048008BF4B60002399
:107F200013610B68013B0B6029F0A8FBD0E9023C10
:107F30004269C3F808C0CCF804305368011D8B4275
:107F4000136808BFC2F804C0013B1360C26A2B6803
:107F50009A424FF0140302FB03F305EB030CDCF829
:107F600008E088BF2A60DEF808B0C0F808E0C0F872
:107F70000CB0CBF80410CEF8081009490B4443614B
:107F8000DCF804300133CCF80430064B1B68DB6AA4
:107F90009A4284BF0123C5F84C3CA6E7485D002007
:107FA0004C5D00205C0C0020744F002007B5074B8F
:107FB00007480193C0F85C3C002301A91A46D0F899
:107FC000600C29F0D1FD03B05DF804FB819A010833
:107FD000485D002038B5284CD4F8843D002B49D1A9
:107FE00040B194F8F935012B02D001201EF0CEF8F3
:107FF000012038BD01201AF01AF8204BD86828F06B
:108000002FF8D4F8F4550DB91D4B1D6829F020FC4C
:1080100095F85C30022B04BF002385F85C3029F012
:108020008DFCD4F8F40501212AF09AFAD4F8F4056D
:1080300004212AF095FAD4F8F40540212AF090FAA8
:10804000D4F8F40502212AF08BFAD4F8F4050821BB
:108050002AF086FAD4F8F40510212AF081FAD4F82F
:10806000F40520212AF07CFA12F0C6F800201CF05A
:1080700071FFBDE70020BCE7485D0020A49C002004
:108080005C0C002038B50B4CD4F8883D1B691D688A
:1080900029F0DEFBAD6B29F051FC4DB10121064BFF
:1080A000186894F88C3D9940BDE838402AF010BA21
:1080B00038BD00BF485D00205C0C0020E2E7054AA7
:1080C00092F88D3D13B1013B82F88D3D002382F87B
:1080D0008E3DD7E7485D002070B51446134A06462A
:1080E00092F88D3D0D46A2B013B1013B82F88D3D53
:1080F00088220021684627F08BFAC0238DF80030D3
:10810000012301968DF808308DF8095034B10FCC59
:1081100003AD0FC594E8070085E8070068461CF02A
:108120007BFDFFF7AFFF22B070BD00BF485D0020B0
:10813000EFF3148010F0010F14BF002001207047EE
:10814000EFF3148040F0010080F31488704710B5FD
:108150000A46044620B119B1044B00211B68984718
:108160002046BDE810400CF07BBD00BFA09B002066
:10817000F8B50D4E0D4C0E4D33680E489847677894
:108180002B680C48984733680B489847022F08D152
:108190002478E31F5C425C412B68074898472046DF
:1081A000F8BD0024F8E700BF989B0020CC12002007
:1081B0009C9B0020641200200012002041F2052345
:1081C00098421AD8B0F5905F09D241F20103984263
:1081D0000CD0B0F5885F09D06FF085007047292377
:1081E000A0F5905080B2C340DB07F5D511F0070F22
:1081F0000CBF00206FF086007047B0F5105FEBD128
:1082000021F04003802B06D0B1F5807F0CBF002009
:108210006FF0860070470020704770B5046A05460D
:108220000E463CB901200CF00DFE286228B1204614
:108230006E6270BD6FF08A00FBE76FF08C00F8E7AC
:1082400038B50446006A10B1616AFFF780FF237EEB
:10825000012B0FD0023B012B0FD8E369012B0CBF80
:1082600000256FF0960528220021204627F0D0F93E
:10827000284638BDE369002BF1E76FF09605F2E779
:10828000034660B1017E8A1E012A0AD80329C26909
:1082900002D1012A00D1D3E71AB1013ADA610020F4
:1082A00070476FF0960070472DE9F0418EB004469C
:1082B0000E46FFF75DFF00285FD00AF059FD20B1A0
:1082C0006FF092000EB0BDE8F08104A82AF07CFAAD
:1082D00005460028F4D10090002E4CD0002CEFD0A1
:1082E00036F0030706F003081DD04FF0E063CDE938
:1082F000043001230194069002930C9047F0005340
:1083000001A904A803932AF06FFA04A839462AF0B9
:1083100062FA04A828F09AFA28B13A46294620467B
:1083200027F076F9CCE7B8F1000F24D000254FF004
:10833000E063CDE904350123CDF804D00293104B5E
:1083400001A904A8039306950C952AF04DFA04A8F8
:1083500004212AF040FA04A828F078FA08B132463D
:10836000DCE7009A3C44C300013022FA03F3804565
:1083700004F8013BF7D10020A4E76FF08800A1E7E3
:108380000400002000F0FE43B3F1A06F3FD1214B69
:1083900020F0FF029A4203D110F0FF0027D170476E
:1083A0001D4B9A4220D0A3F588539A4218D020F44E
:1083B000FF7323F00103B3F1062F0DD017498A4252
:1083C00006D0174A93421BD110F0FF000FD170471F
:1083D00010F0FF000BD1704710F0FF0007D170477D
:1083E00010F0FF0003D1704710F0FF0011D00D4BCB
:1083F00040F00070984214BF00206FF08600704774
:1084000010F4004F0CBF00206FF0860070476FF033
:1084100086007047000300060013000600090006EE
:1084200000040006FF000002F8B506460F46FEF7FE
:1084300042FA88B300241B4B22461D46197ED1B157
:108440003CB9022905D1D96919B91979002918BF90
:108450001C460132062A03F12803EFD114B96FF04C
:108460008C0006E02046FEF719FA2046FFF7E8FEEA
:1084700010B100240EE01C46237E83B9012323762D
:108480003EB1651BED1003F1CC335D4305F1804532
:10849000356000203C60F8BD6FF08800E9E76FF0C0
:1084A0009600E6E7D812002000232DE9F04F0B607C
:1084B0008BB006468846FEF7FEF9002800F065817D
:1084C000B34BB4481B68984700283AD106F14043A3
:1084D000052B16D82822B04902FB03110B7E022B74
:1084E00002D14B699E421FD041460020FFF79CFFFE
:1084F000DFF8A8A2044688B3DAF80030A548984708
:1085000021E0002E27DDA44B19461A7E022A02D153
:108510005A69964205D00130062803F12803F4D1A8
:10852000E2E7282303FB00110846FEF7B7F90446EB
:1085300068B9C8F80010994B1B689648984710B165
:108540000CB96FF08F0420460BB0BDE8F08F10F12E
:108550008C0FF0D1C8E76FF08704ECE70125D8F85D
:10856000009021468346C9F814603046C9F804508B
:1085700006AA0AF033FF0446A8BB069F28463946E0
:108580000CF060FC0546002800F0F18030465946AA
:1085900004AA0AF023FF044608BB47B1B5F1005F07
:1085A0005ED3C7F1005303F580339D4258D81022A3
:1085B000002106A827F02CF80023CDE902330AF0A9
:1085C000B9FD304659460AF073FE754B0446984291
:1085D0000CD90AF0DFFD002F42D16FF08B04394631
:1085E0002846FFF7B4FD00210846B4E002AB03AA19
:1085F00006A90AF0F1FD6B4B9842EAD040B1013B6D
:10860000984205D00AF0C6FD57BB6FF09104E6E72B
:10861000DDF808B02A462146039B63485F4594BFB6
:108620000097CDF800B008F06FF90646A0B90AF03F
:10863000B1FD5F4514D8232F15D86FF09804394643
:108640002846FFF784FD31460020FFF780FDD8F86B
:108650000000FFF7F5FD49E00AF09CFD5F45D4D925
:108660006FF09804BBE708222846504927F00BFF1B
:108670000028E2D1AB68002BDFD12E6AA7F12403DA
:108680009E42DAD8B6F5005FD7D29EB331460120BC
:108690000CF0D8FB8346002858D0324605F124015F
:1086A00027F0E4FEEB683946C9F804302B8A2846E7
:1086B000A9F800306B8AA9F802306B69C9F8083054
:1086C000AB69C9F80C30EB69C9F81030BBF1000F89
:1086D00000D08EB9FFF73BFD31465846FFF737FD16
:1086E000D8F80000FFF7ACFD6FF091040023C8F844
:1086F000003028E0B346D5E7FFF729FD314648466C
:10870000FFF78BFD044620BB32465946D9F82000BE
:1087100027F0ACFE31465846FFF719FDD8F80000A7
:108720008368D9042DD483689A0444BF43F400635A
:108730008360037E012B04BF02230376FEF7AEF8AD
:1087400004460028D2D1DAF80030F6E66FF08C0447
:1087500075E731465846FFF7FAFCD8F80000FFF7F6
:108760006FFD14F18C0F08BF6FF08704BEE7214640
:10877000FFF7EDFCD8F80000FFF762FD6FF08C0406
:10878000B4E743F480638360CDE76FF08804DAE6F2
:10879000989B00209C110020D81200209C9B002058
:1087A00081310800FFDF00F0A80B0020543B0308D4
:1087B000F0B5044685B0D0B101A9FFF775FE0446B7
:1087C000A8B9274B27481B689847274F0546019EA5
:1087D000A0BB337E032B12D13046FFF751FD3B681F
:1087E00004462048984728B10CB96FF08F04204602
:1087F00005B0F0BD002C08BF6FF08704F7E7022B2F
:1088000028D1032333763379FF2B26D0B3B1746993
:108810002946204602AA0AF0E1FD8C300DD0204600
:1088200029460AF011FE30B92046294602AA0AF06C
:10883000D5FD8C3001D06FF098052C463046FFF7FF
:108840001FFD3B68002818BF0446064898470028CB
:10885000CDD0C9E76FF09604F0E76FF08404EDE740
:10886000989B00209C1100209C9B00200B4B10B576
:108870001B6804460A48984718B16FF08F042046D9
:1088800010BD2046FFF7FCFC064B04461B6804485D
:1088900098470028F3D0002CF1D1EEE7989B0020F8
:1088A0009C1100209C9B00202DE9F8438846174628
:1088B0001C46FFF7F9FD054648BBD8F80060B368D1
:1088C000B6F800909F431AD10CB3254B24F0FF0259
:1088D0009A421FD114F0FF0304D0224A43F00073E0
:1088E000934232D022464846F168FDF7CCFE074657
:1088F00068B9224648463169FDF7C5FE70BB6FF086
:10890000840500233046C8F80030FFF7AFFF284643
:10891000BDE8F883144B9A42DCD0A3F588539A4201
:10892000D8D024F4FF7323F00103B3F1062FD1D084
:108930000E498A42CED00E4A9342CBD004F0FE4379
:10894000B3F1407F04D12304CCD56FF08605D8E77E
:10895000B3F1A06FF7D0034B9C42C2E73D46D6E788
:1089600000030006FF0000020013000600090006D5
:108970000004000673B50C46054618220021204667
:1089800026F046FE002328461A4601A9FFF78CFF71
:1089900060B9019E35460FCD0FC495E8030084E809
:1089A0000300304602B0BDE870405FE702B070BD22
:1089B000F0B541F221050A44914200D1F0BD0823EF
:1089C000802411F8016B264214BF4FF0010C4FF0C8
:1089D000000CC70B4000BC4580B218BF6840013B8B
:1089E0004FEA5404EFD1E7E7E82909D80123013918
:1089F000C1F3CC0201F007018B40815C0B4383542F
:108A0000704710B5044680B1006870B1002329F0AA
:108A1000ABF8012801460AD1A06808B9002010BDB2
:108A20002379994029F054FDF8E70220F7E7012067
:108A3000F5E770B5C46A0546ACB128F009FF94F8B3
:108A4000286028F07BFFAB6B95F830401D6A28F05A
:108A5000FFFE2D6828F072FF012000FA04F42C427A
:108A600000D1304070BD2046FCE7F8B5046A0546E9
:108A700028F0EEFE2668012706F07F43236028F0E9
:108A80005DFF002495F82430A34200D8F8BD07FA12
:108A900004F3334205D0AB6A53F82400C36B03B12F
:108AA00098470134EEE738B5056A0C4628F0D0FE49
:108AB000012303FA04F12B6823EA01032B60BDE8CC
:108AC000384028F03BBFC36A70B505460E461BB35D
:108AD00028F0E8FC03210022C06A29F0E3FC012809
:108AE000044613D132460421E86A29F0DBFC012850
:108AF00004460BD195F83010A86BFFF7D4FF074B55
:108B000021461A68E86A29F0CDFC044628F05CFF8B
:108B1000601E18BF012070BD0120FCE7345D0020FD
:108B200070B5044698B001465C2201A827F09EFC6F
:108B30002379002483BB049A002A43D0002B41D020
:108B40000124214D5C2201A920488DF8083027F02E
:108B50008DFC05F5BB601822002126F059FD85F833
:108B6000EE451B4D2B7803F0FF065BBB0A2119482D
:108B7000FFF7A9FF23463246314620462C7018B035
:108B8000BDE870401EF09AB9621C18A901EBC20141
:108B900051F8581C99B1D4B29C42F5D3CBE7561C7E
:108BA00018A901EBC60501EBC2025C3D52E91301B5
:108BB00085E80300F2B29A42F1DBDBB2BAE7224663
:108BC000013BF8E718B070BD485D00207008002038
:108BD000180E0020D80D0020174810B5B0F89E34AC
:108BE00013B390F8F04514F0300F23D0134A04F07B
:108BF0001003526852895AB133B140F2823100F603
:108C00009450BDE810405EE7A20613D5E021F6E7D8
:108C10002BB14FF47A7100F69450FFF754FFA3067E
:108C200008D5FA210648ECE700F69450BDE810405C
:108C30001BF0FABF10BD00BF485D0020A49C0020BF
:108C4000DC6A00202DE9FF41374D0DF10E01B5F82A
:108C50009E3405F6D450ADF80E3012F0E1F9BDF8AF
:108C60000E30D5F8D44DA5F89E3403B97CB3631CFF
:108C70002DD024BABDF80E302C4FA5F89E34A5F89F
:108C80007234C5F87444FDF76BFE7B68BDF80E6066
:108C900093F8008095F82436F868012BA5F88068D1
:108CA000C5F884481ED1FF2127F05EFC4FF48002F6
:108CB0000023CDE90023F86827F0BFFA55222146AA
:108CC000F86827F05FFC04B0BDE8F04184E718487D
:108CD0001AF0DEFF002104461548ADF80E1012F020
:108CE000F5F8C7E7314627F03FFC66B195F8FD354A
:108CF000023B012B07D84FF480020023CDE900236B
:108D0000F86827F09AFA7B68FD681B78012B03D17D
:108D1000552221462846D4E742463146204612F0E5
:108D20003FFE0246F5E700BF485D0020A49C0020FE
:108D30001C6B002038B52F4C94F8F03513F0300F31
:108D400052D02D4D6B685B89002B40D0D4F8D83DB4
:108D50000133C4F8D83D94F8F935042B02D1012031
:108D60001DF062F86B6894F800261B7840F6B83165
:108D7000012B40F6FF7308BFFF23032A94F8DC2D74
:108D800008BF4FF4FA6132B11C4AD4F8E00D126802
:108D9000121A91420FD2B4F8E42D9A4215D118F06C
:108DA00026FF0B23B0FBF3F202FB1301C9B21448F8
:108DB0000631FFF788FE05234FF4FA6202210020F6
:108DC0001EF07CF8BDE8384006E70021EFE7D4F854
:108DD000283E0133C4F8283E94F8F935042BEAD133
:108DE00001201DF021F8E6E7D4F82C3E0133C4F849
:108DF0002C3E38BD485D0020A49C0020345D00203E
:108E0000306B002037B51F4DD5F8840D58B103786D
:108E1000DA060AD500217F2381731A460190009358
:108E2000084617F049FB03B030BD448963051CD5E3
:108E3000837BD3B1013B837319F082FA98B14FF46D
:108E40007A72114B5B689B88B3FBF2F303339BB2DE
:108E5000B5F8F01B0D48C1F1C801C91A89B203B0B9
:108E6000BDE830402FE60323F2E724F48C6343810E
:108E7000002117F04DF8D5F8843D24F480645C811E
:108E8000D1E700BF485D0020A49C0020786B002043
:108E90002DE9F347D1F8388005460C4616461F46A3
:108EA000B8F1000F40D190F8243090F825209A4274
:108EB0003CD9172B3AD82C230193019B019B022309
:108EC000DFF86CA0DFF86C9081F828300EB329F041
:108ED00085F80123C4E9063894F82830C4F800A0C6
:108EE00043F00403C4F82090C4F8148084F82830B8
:108EF0000020C4E90E57E46295F8243084F830303D
:108F0000AA6A42F82340013385F8243002B0BDE854
:108F1000F08729F063F80123C4F800A0C4E90636FD
:108F2000C4F820906661E3E70220EFE70120EDE757
:108F3000532C0308857E000828B9084B93F8F025C8
:108F400012F0300205D0002302211A4601201DF044
:108F5000B5BF022101201DF07ABA00BF485D002094
:108F6000034B4FF48051D3F8F40529F0B1BA00BF98
:108F7000485D0020F8B5144B024693F80036032BE9
:108F800007D0FDF7DAFC1346104C1044834202D19F
:108F9000F8BD0220F7E700210A46651EE71D15F916
:108FA000016F16F1800F1FBF9219013112B2C9B2C1
:108FB000BD42F4D129B192FBF1F203F8012B083440
:108FC000E4E76FF07F02F8E7485D0020C56100200C
:108FD0002DE9F047234D95F80036032B14D0FDF70B
:108FE000ACFC06464FF000088027DFF87C905FFA63
:108FF00088FA56450AD895F87C34013303F0070304
:1090000085F87C34BDE8F0870226EBE719F07EF99D
:109010004FEAC804F0B9B8F1010F09D1D9F804300A
:109020001B7813F0FD0F14BF4FF0010A4FF0020A36
:109030005146D9F80C0027F07AFA95F87C342C4484
:109040001C44031EB8BF03339B1084F87D3408F121
:109050000108CCE795F87C342C441C4484F87D74DA
:10906000F5E700BF485D0020A49C0020B0E7831F07
:10907000012B04D9092894BF002001207047022049
:109080007047F8B51E4D0328044695F8FC7501D9C4
:109090000020F8BD95F8003683422FD019F036F93C
:1090A00006460028F4D1012018F0C1FF214685F8BA
:1090B0000046144C384685F8FC7519F0B7F8D4E929
:1090C000021027F038FA19F0DBF863689A88628397
:1090D0005A88E27518781AF053FC0122E0681146AC
:1090E00027F023FA012332463146E06885F8F93546
:1090F00026F0CAFF8020D5F8103698470120C8E72F
:10910000485D0020A49C0020F0B5D3B0A822002127
:1091100028A826F07DFA8822002106A826F078FAF1
:10912000C14CD4F8883D28A99B69186829F0E9FC4E
:10913000012801D053B0F0BD9DF8A0307D2B74D82C
:10914000622B07D8472B5BD83F2B41D8C6228DF81E
:1091500018208AE1A3F163021A2AF7D801A151F875
:1091600022F000BF759400084D9100088D9400080E
:109170004D9100084D910008819200080F9600085B
:109180004D9100084D9100084D9100084D91000847
:1091900041940008379600081D9400084196000885
:1091A0004D9100084D9100084D9100084D91000827
:1091B0004D9100084D9100084D9100084D91000817
:1091C0004D9100084D9100084D9100085B960008F4
:1091D000A3F14002072AB9D801A151F822F000BF3B
:1091E0003F9200084D9100085F920008919200089C
:1091F000AD920008BB9300084D9100080994000847
:109200005C2BA3D1FFF7E4FE4FF07F330793D82305
:1092100007A88DF81830FFF7ADFED4F8883D28A9CF
:109220009B69186829F08CFCC3E0852B8ED1F22352
:109230008DF818307D4BDB8CADF81C30EDE7C12389
:109240009DF8A4108DF81830202901D900230CE1D5
:109250000DF11D008DF81C101AF00EFDDDE7002247
:10926000D4F81836C3E90422C3E90222C3E9002274
:10927000D4F8883D28A99B69186829F061FC50E75B
:10928000D4F8180614220021183026F0C1F9EFE7AF
:109290009DF8A5309DF8A400002B654908BF00216A
:1092A000042828BF002015F0BDFAE1E70025614E33
:1092B000D4F8700E11F07AF9304635601AF0E8FCF7
:1092C0002946304611F026FE1022294606F1A1005B
:1092D00084F8745E26F09CF92946D4F8880E84F848
:1092E000855E1AF0F5FB1021D4F8880E1AF0F0FB19
:1092F0001121D4F8880E1AF0EBFB0321D4F8880E64
:109300001AF0E6FB0421D4F8880E1AF0E1FB0221E2
:10931000D4F8880E1AF0DCFB4FF4A06511F0D4FCF1
:1093200040F20A5611F0B2FD2946D4F8880E0135F4
:109330001AF0CEFBB542F7D14FF4806540F20A46F1
:109340002946D4F8880E01351AF0C2FBB542F7D190
:1093500012F018FB94F88E3D0BB984F88D3DD4F8CB
:10936000883D00211B69186829F009FCD4F8883D64
:109370000021D86929F003FCD4F8883D0021586900
:1093800029F0FDFBD4F8883D00219B69186829F07D
:10939000F6FB264B93F8200012F03EFA10F070FB1B
:1093A00010F02AFF13F0F0F8FDF7BAFAC4238DF895
:1093B000183006A81BF030FCB3E6D4F88C3ECBB1D5
:1093C0005A68910616D593F85A2002F00F02022A25
:1093D00004D11A7842F010021A7049E7987F01937D
:1093E000B0FA80F07F2300211A460093400917F05D
:1093F00063F83DE7D4F8843D002B3FF439AF5A6859
:1094000092067FF535AFE4E7C7239DF8A4008DF8F9
:109410001830FEF7DFFD8DF81C00FEE6064B074A0C
:109420005A6218F0EFFB00BF485D0020A49C0020AA
:10943000CD7800081C6B00200000085000001D03C0
:10944000DF238DF81830D4F8903E43B1D4F8943E21
:1094500073B1D4F8983E002B7FF4F8AE0223299A1A
:1094600004EB8303C3F8902E01238DF81C30D4E65F
:109470000123F4E79DF8A420032A3FF6F9AE824BBE
:1094800013449DF8A52083F82120F1E6DC238DF814
:1094900018300023D4F8A01E9DF8A45084F89C3EF8
:1094A00031B97A4E7A4A30461BF00AFBC4F8A06EF6
:1094B000B4F89E34BBB100260A230321D4F8880EE9
:1094C00003AACDE90366ADF8146018F06DFC9DF8B1
:1094D0001230012B07D131460820FEF7F7F900239F
:1094E0008DF8203099E6002011F062FDB4F89E342A
:1094F000C3B994F80066032E14D1664F0120FFF71C
:10950000C0FD014670B9012027F0CCFF3B6828F070
:1095100057F828F059FA08B929F00FFA013E16F069
:10952000FF06EBD1002D6ED0002384F8E43E94F8C2
:10953000E53E23B1012384F8E53E1DF0E3FB012D58
:109540000AD184F8E45E18F029FB0423C4F8E83E4D
:10955000022384F8E53E0BE0032D11D1022584F8A7
:10956000E45E18F01BFB0423C4F8E83E84F8E55ED3
:109570001DF0C8FB94F8E53E003B18BF0123AFE7A0
:10958000042D38D1B4F89E3433BB434A1278012AF3
:1095900003D0042A1CBF414AD36001250120FFF7F4
:1095A000CBFC84F89C5E1AF0A9FA034690B9364ABF
:1095B000022152681278023AAA428CBF2A4603223C
:1095C00062F30F23354AD36003221CF040FF284684
:1095D00011F0EEFC0423BCE794F8EC3E43B9012300
:1095E00084F8EC3E2C4B1B78052B01D118F05CFC69
:1095F00018F0D4FA73E7022DBAD10023C4F8E83E7C
:1096000018F0CCFAB2E7012384F8E45EA1E7DD2389
:109610008DF81830299B5A1F5E2A02D8C4F8F03EF4
:1096200001E0002BFAD0D4F8F02ED31A5A425A4156
:109630008DF82020F1E59DF8A40012F0C1FE17E698
:10964000D4F8F43E23B1002011F024FE11F000FE06
:10965000134B144A1A6006F0E5F9E9238DF8183027
:1096600094F8FD35012B3FF4F1AD9DF8A430092BA2
:109670003FF6ECAD03EB8303B4F8FA2E5B00DBB2EC
:10968000D31AA4F8F83EEFE6A49C0020EC6B00206F
:10969000E96B0208744F0020C49B002000000850B2
:1096A0000000002002020FF070B50646FFF7DFFC55
:1096B0000C46074D05EB8000D0F8043105EB86051C
:1096C000084698472046D5F81431BDE87040184741
:1096D000583A03080278112A03D8044B1341DB07D8
:1096E00003D5037C43F0010303747047E77CFCFF60
:1096F000431E032B024612D9A0F10C03D8B2022854
:1097000010D9A2F10F03D8B202280BD9931F022B54
:1097100007D9A2F109035A425A419000704701202B
:10972000704703207047F0B50446067E90F84870F5
:1097300087B0F319023380F82030114B02AD0FCB04
:1097400085E80F002146A37C11F8190B8DF80F3026
:10975000E37C49348DF8103054F8353C0593FFF71D
:10976000C7FF0A468DF809003B463146284600945B
:109770001CF098FB07B0BDE8F040FDF709B900BF49
:109780009C3B030830B5144B87B0B3F8B8200546AE
:10979000ADF80420028902AC8DF80520552203F5AE
:1097A000AA738DF806200FCB84E80F002878FFF706
:1097B0009FFF6422094B8DF80900A3F8F02BEB7C86
:1097C0000321204601AA8DF810301CF023FC07B0BD
:1097D000BDE83040FDF7DCB8583A0308485D00208A
:1097E000034B5B681878431E58425841704700BFCE
:1097F000A49C002010B5114A92F8701492F8743E9F
:1098000001F0070433B1002C0CBF00238823A2F819
:10981000783410BDFFF7E4FF00280CBF2E239623F9
:1098200014B10C3B9BB2F2E70906F0D5143B9BB296
:109830005B009BB2802B28BF8023E8E7485D0020B7
:109840002DE98048BE4BBF4C1B68C1B0C4F8F4354D
:1098500083461AF03BFA0023C4F8903EC4F8943EC5
:10986000C4F8983E94F8FC3E0BB91AF02FFA002386
:10987000B54AB64952F8040B884204D0C0BB04EB89
:109880008303C3F8001F0021D4F8180F04231BAA78
:10989000C4F8880E1B9118F087FAAD4D38B1D4F892
:1098A000180F18F093FB08B912F06CF81B951B9B6E
:1098B000AB4251D824D0B3F1A06F4FEA13621BD250
:1098C0001CF0C8FC002525AA08230321D4F8880E23
:1098D000CDE92555ADF89C5018F066FA0A2303210E
:1098E000D4F8880E25AA8DF89C5018F01BFB05E0D3
:1098F0000133062BBED1C6E7052AE3D01AF054F88F
:109900000025944F944EB846B2462B46D4F8889E14
:109910002593B9F1000F00F010814846316825AA5F
:1099200019F07EFA0023002840F044817168259ADE
:1099300091421CBF03200125884A0836964208F848
:10994000010BE5D1002D40F038811E230421844A0B
:10995000D4F8880E18F028FA9BF80C20814903925D
:10996000814ADBF808A00A630C324A664FF40051C2
:10997000A4F8681F7D49D4F8F42501F13400C4F837
:109980006C0FC4F8742F072020220023012584F8CF
:10999000700F0A92081D84F8403F84F8413F84F814
:1099A000423FC4F8F43BC4F8F83BC4F8443F0A9A79
:1099B00084F88A5528F050FF84F8605FC4F8641F6B
:1099C00010F01AFCDAF808301B7813EA050706D104
:1099D000990600F1178113F0100718BF032700251F
:1099E000DAF80C30624893F80880B4F89E34B8F185
:1099F000FF0F16A908BF4FF00008ADF8583011F05E
:109A00000FFBBDF858305B4EA4F89E345A4B2A2207
:109A1000C4F8F83F594B294646F8F83C584B0DF12D
:109A2000960046F8F03CC4F8FC5F46F8F45C46F853
:109A3000EC5C25F0EDFD04238DF894808DF8957095
:109A40008DF89830DAF80C3003211A78D4F8880EA3
:109A50008DF899205A88ADF89A209A88ADF89C2004
:109A6000DA88ADF89E20474A2892474A2992474A09
:109A70002A92474A2B92A6F1E8022C925A7A8DF844
:109A8000B4209B7A1BAA8DF8BC300A23CDE91B5564
:109A9000ADF8745018F088F99DF8733008F0FD02A5
:109AA000092A8DF8963007D1013B012B04D90120FA
:109AB0008DF8960011F098FA25A810F09DFE00226E
:109AC0008DF89800334846F8BC2C114642600830A7
:109AD0001AF0F6FFB4F89E3423B96FF065010E203A
:109AE00011F08CFF2C4B2D482E9326F0E8FA14220F
:109AF00000211CA825F08CFD294B2A4F1B932A4BD3
:109B000000221B881BA9ADF87C304FF48063ADF8B0
:109B10007E304FF48073ADF88030244B07F10C0099
:109B20001B682193224B229303F58063239324F037
:109B3000EFFE0290002867D0FEE701252846FBE6ED
:109B40005C0C0020485D0020486C00200C3C0308A1
:109B500001180706646C0020143C0308443C030809
:109B60006A6C0020600C0020CC9C00208C6C0020D3
:109B70001C6B0020406E00201569000881690008F8
:109B8000EDA30008C17400081575000839690008C4
:109B900071740008846D002059A50008690345EC24
:109BA000E9640208A49C002038A003083CA0030834
:109BB000CC6D002002200125BEE64FF000080125F3
:109BC000464617F8013B5AF83890022B0DD125B1C3
:109BD0000021484611F0B6FA054605F0010508F1E6
:109BE0000108B8F1060FECD1AFE6032BF7D14946D7
:109BF000D4F8880E25AA259619F012F9002DECD07C
:109C00002599E6E70227EAE6D14D0DF1940CBCE870
:109C10000F000FC5BCE80F000FC59CE80700DFF878
:109C20008C9385E807000121F8681DF0FDFAB9F86A
:109C3000EC3113A9F868ADF84C3026F0E4FA13A91A
:109C4000F86826F0F6FA0122F868114626F018FBAB
:109C5000BDA3D3E90023CDE90023F8684FF0FF321C
:109C60004FF0FF3326F0E9FA94F81C06003818BFCD
:109C7000012018F019FB94F8FC3594F8FD250493A5
:109C8000B4F9023609F5C6700793B4F90436023AFE
:109C9000059309F5B27194F80036012A98BF014680
:109CA000F868069325F074FC002851D1A94BD22105
:109CB00003F17409059BF868A9F88C34079BA5F893
:109CC000DE38A5F8DC3825F02FFDF8681DF096FA8F
:109CD000C728D4BF8C22C82235F9163C029993427A
:109CE000A8BF13460846FA8425F8163C18F030FA47
:109CF0000699049818F09AFAD7E9021026F01BFC8E
:109D000018F0BEFA7B689A887A835A88FA751878B0
:109D100019F036FE904B914A5B6823F0404323F4E0
:109D200040031B0C1B04934212D0322513A88DF85C
:109D30004C501CF059FA9DF84C30B3FBF5F205FB82
:109D40001233B9F88C242A4452FA83F3A9F88C34DC
:109D5000834D844F6B6807F10409187819F010FEE1
:109D60000122E868114626F0E0FB002518F0B1F961
:109D7000A8424FF0000300F2C78101257A4B7B4FC8
:109D80001B6807F59460C7F89C341CF02DFADAF8CC
:109D9000080087F8A15410F009FC404611F03CFD82
:109DA000E922E421724825F033FC2946714A7248C1
:109DB0001AF086FE0021714A71481AF081FEFEF702
:109DC00041FF039B6F4D042B01D0012B25D10027B0
:109DD00001201BA91B9719F088FE1B9B02201A0A61
:109DE000694985F8753E85F87D2E1A0C1B0E85F89D
:109DF0007E3E85F8762E19F078FE0320634919F02F
:109E000074FE04201BA919F070FE1B9B85F87B7E55
:109E100085F8853E1B0C85F8833EFCF781FD95F89F
:109E2000F035DA0702D50120FEF7D4F800274FF00D
:109E3000090A574B574DCBF82030574BDFF870814C
:109E4000CBF82830AB1CCBF82C50CBF83030CBF80B
:109E5000248084F88CAD84F88D7D84F88E7DFFF7A6
:109E6000C9FCAB1D05F15602F8210520009728F02A
:109E7000FEFC4A4BC6F8D009D3F8009005F23253E5
:109E8000C6F8D40905F28E52A821C6F8DC9986F8E6
:109E9000D8A9CBF81030022005F23E53009728F0E5
:109EA000E6FC0A2386F8843B05F2DE63C6F8800BE5
:109EB00005F23A728821C6F8889BCBF81830042046
:109EC00005F2EA63009728F0D2FCDBF800209BF84B
:109ED0000530C6F8FC0DC6F8000EC6F8082E86F848
:109EE000043E05F6BA1205F66A13E021CBF81C0011
:109EF0000097022028F0BBFC294DDBF800209BF8DE
:109F00000430394645F8DC0C45F8D80C45F8D02C1F
:109F1000CBF81400234AA5F1CC0005F8D43C1AF084
:109F2000CFFD1122C4F888BD0024DBF8283021467B
:109F300045F88C3C15F8883C1B48112B88BF05F868
:109F4000882C08F10A0335E0088D01552202000033
:109F500044630020CC6D00200080E00F0000170358
:109F6000A49C0020CE720020345D0020406E0020B2
:109F7000E961002011690008DC6A002099E100080D
:109F8000306B0020485D0020BF6B0020C76B0020B5
:109F9000586D0020E2720020B46100205C0C0020AB
:109FA000387F0020BD800008BC7E0020583A03089E
:109FB000463C030898BF05F8882C584A8CBF45F8E2
:109FC000843C45F8843C45F8804C1AF079FD2146E4
:109FD000534A54481AF074FD2146534A53481AF024
:109FE0006FFD534BC5E9114493F8F035DB070FD5EE
:109FF00005232246022120461CF060FF01214D4826
:10A000004D4A1AF05DFD4FF47A714A48FEF75BFD48
:10A0100000240020FEF790FF484B21466B64484B1C
:10A02000484A1B684848C5F89030AC64C5F88C4075
:10A030001AF046FD182221461BA825F0E9FA214610
:10A04000182225A8169425F0E3FA4FF4E02025A95C
:10A05000FEF790FC10B33D4B44F201011BA81B938B
:10A0600011F07CFA4FF4E022394B20921E931C9B96
:10A07000DAB222B923F0FF0343F001031C9317F077
:10A0800007FE022846D140F201131C9325A91BA804
:10A0900018F056FC10B110F18B0F06D14FF4E020F0
:10A0A0002C4916AA18F054FD18B111F05DFA11F000
:10A0B00019FBDBF8083000255B68274E187812F092
:10A0C0007FF9264B04215B6830681F78FF230DF170
:10A0D00023028DF8233001230B9517F065FE9DF8C0
:10A0E0002330FF2B40D0FCF701FC1D4B5B689BF835
:10A0F0000C30032B00D013B9012011F0CBF8194C10
:10A10000204619F0B3FBFBE707F8013B29F8023BB7
:10A1100001352BE6012808BF1C90B7E7055502085A
:10A120006D0C0208FC7E0020D90C02083C7F002048
:10A13000485D0020847F00206D9000085D74000859
:10A14000345D00205DA00108CC7F00204171FF003C
:10A15000000002090C800020D4130020A49C0020E1
:10A160000080E00FB07E00201022294617A8169527
:10A1700025F04EFA6622294626A80C95ADF83450F3
:10A180000E95ADF83C5025F043FA43F23903ADF893
:10A19000943043F23013DFF84482ADF896300EACC1
:10A1A00098F8013009A98DF8243018F8023B0CA862
:10A1B0008DF8253017F0FAFC20460CA918F01AFB90
:10A1C000206828AB5A19585123790535282D137169
:10A1D000E6D1032309A90CA8ADF8243017F0E6FC5A
:10A1E00006210CA826F079F97B4B0DF19D05ADF801
:10A1F0009D30421EAB709DF808300299984201F1E3
:10A200000101029100F2BB8043F2310343F23008B6
:10A21000ADF8CA304FF4805309A90CA8ADF824302A
:10A22000ADF8C88017F0C2FC20460CA918F0E2FA7D
:10A2300094E8030040F2047333908DF8D0100CA81A
:10A2400009A9ADF8243017F0B1FC20460CA918F08C
:10A25000D1FA23790E988DF8D53043F23023ADF83A
:10A26000D63043F23203ADF8D8306323CDF8D100B5
:10A2700009A90CA8ADF8243017F098FC20460CA9C9
:10A2800018F0B8FA23790E988DF8DE3044F65213A0
:10A29000CDF8DA0009A90CA8ADF8243017F086FC37
:10A2A00020460CA918F0A6FA23790E988DF8E33011
:10A2B00043F23543CDF8DF0009A90CA8ADF82430EE
:10A2C00017F074FC20460CA918F094FA94E80300E7
:10A2D00040F6140339908DF8E8100CA809A9ADF8E0
:10A2E000243017F063FC20460CA918F083FA237978
:10A2F000023F8DF8ED3043F63003ADF8EE3043F217
:10A300003033012FADF8F03094BF032301230E98B2
:10A310003033CDF8E9001BA8ADF8F2808DF8F430A9
:10A3200028F052FA002835D06FF0920011F01CF995
:10A3300011F0D8F9BDF8583009A95BBA0CA8ADF8EE
:10A34000243017F033FC20460CA918F053FA94E897
:10A350000300202326908DF89C10204A03213068AA
:10A3600017F0E0FD25AA6A230521306817F0DAFD11
:10A370000123042130680BAA17F0D4FDB3E640A9ED
:10A38000C91AD31A03F580736B4413F8D03C01F853
:10A39000613C30E7124B5821CDE91B301D902390D2
:10A3A0001BA828F018FA01230E4A10951193129257
:10A3B00016AA139214930C4B10A91BA8159308F01E
:10A3C000AFFE1BA813A928F00FFA1BA826F03EFA2F
:10A3D0000028AFD0A8E700BF303030000C8000204C
:10A3E00000020003580000201400002008B5044BB0
:10A3F00083F87004FCF7B4FABDE80840FFF7FAB937
:10A40000485D002008B5430756BFC0F34002402214
:10A4100052010146FFF7E4F910B142F0030008BD14
:10A4200001F03801102904D020290CBF032001209D
:10A43000F5E742F00200F2E7012803D9022808D02C
:10A4400000207047487900F00F00431E58425841E1
:10A450007047087A00F00700F7E7012806D8487926
:10A4600000F00F00831E584258417047002070478B
:10A47000012806D8487900F00F00431F5842584180
:10A48000704700207047012803D9022808D0002017
:10A490007047487900F00F00C31E5842584170477A
:10A4A000087A00F00700F7E7012802D14879C009CF
:10A4B000704718B94879C0F380107047022801D15D
:10A4C000087AF4E700207047FFF7EEBF012803D1B8
:10A4D0004879C0F38010704718B94879C0F340102C
:10A4E00070470020704702280DD0012807D1487915
:10A4F00000F00F00A0F1080358425841704710B90E
:10A500004879C009704700207047012803D1887A34
:10A51000C0F38000704708B9487AF9E70020704717
:10A52000012806D18B7A13F0060F14BF01200020FA
:10A53000704708B94B7AF6E700207047012803D925
:10A54000022805D000207047487900F00F007047BE
:10A55000087A00F00700704770B504468AB01C22E4
:10A560000D4601A8002125F053F82378E178013B3E
:10A57000DBB2032B8CBF00233A4A8DF8171098BF2B
:10A580009B18294698BF93F83C32A2788DF8043086
:10A590006378032A8DF81430134628BF032311F87B
:10A5A000010B8DF815308DF81C006068089109903A
:10A5B0001846FFF7C3FF2C4E012896F8741E1AD1D7
:10A5C000A2B995F90620002A09DB91B9254A02EBC8
:10A5D0008303D3F84032204601A9984709E041B9E6
:10A5E000204A02EB8303D3F85032F4E7D1B1022AB8
:10A5F000ECD00AB070BDE1B1022AFAD102380628C7
:10A60000F7D801A252F820F059A600084DA600087C
:10A61000F3A5000841A60008F3A50008F3A500086B
:10A62000E1A50008B6F89E140029CFD0022AE0D098
:10A63000CCE7B6F89E140029E0D0022ADED1D8E794
:10A64000084A02EB8303D3F86032C4E7054A02EB01
:10A650008303D3F87032BEE7024A02EB8303D3F8D8
:10A660008032B8E7583A0308485D0020012802D933
:10A67000022806D070474B7923F00F031A434A7122
:10A6800070470B7A23F007031A430A7270470128B8
:10A6900004D14B7963F07F034B71704718B94B7944
:10A6A00043F04003F8E7022802BF0B7A63F07F0310
:10A6B0000B727047012804D18B7A43F001038B722F
:10A6C000704718B94B7A43F001034B727047012869
:10A6D00004D18B7A23F001038B72704718B94B7A3F
:10A6E00023F001034B727047012804D18B7A43F0A9
:10A6F00002038B72704718B94B7A43F002034B7216
:10A700007047012804D18B7A43F004038B727047A1
:10A7100018B94B7A43F004034B727047012802D1F9
:10A72000C87A0009704708B9887AFAE700207047AC
:10A73000012803D1C87A00F00F00704708B9887A61
:10A74000F9E700207047012804D1887AC04300F05F
:10A750000100704708B9487AF8E7002070470128DF
:10A7600003D1887A00F00100704708B9487AF9E708
:10A7700000207047012802D11201CA72704708B93F
:10A7800012018A727047012807D1CB7A02F00F02BA
:10A7900023F00F031343CB72704730B98B7A02F06A
:10A7A0000F0223F00F0313438B727047012803D16C
:10A7B000887AC0F34000704708B9487AF9E700206A
:10A7C0007047012804D1487900F00F00012808E003
:10A7D00058B991F905204B79002A0DDB03F00F03DE
:10A7E000012B14BF002001207047022803D1087AF2
:10A7F00000F00700EAE700207047022813D0012884
:10A8000007D1487900F00F00082814BF002001206C
:10A81000704740B991F905204B79002A04DA03F01A
:10A820000F03012BF1E700207047FFF73DBE022820
:10A8300001D1487A7047012801D1087A704718B9C8
:10A84000887900F00F00704700207047012806D17A
:10A850004B7923F00F0343F008034B717047002836
:10A86000FCD14B7963F07F03F7E701289EBF4B795A
:10A8700003F07F034B717047012802D11144087B1C
:10A88000704710B91144C87A7047002070470128FA
:10A8900002D111440B73704708B91144CB72704751
:10A8A0000346022B08460BD10B7A01F10C0213F080
:10A8B00040031EBF0B7B03F007030133D018704722
:10A8C000012B01D1FCF7E7B90BB909307047002023
:10A8D0007047012803D1487A00F0E000704708B9BA
:10A8E000087AF9E700207047012803D1487A00F080
:10A8F0001F00704708B9087AF9E70020704701285F
:10A9000002D101F10A00704710B901F10900704746
:10A9100000207047012808D010F0FD0F0CD18B7972
:10A9200002F0600223F0600304E08B7902F0700211
:10A9300023F0700313438B717047012806D010F089
:10A94000FD0F07D18B7923F0600302E08B7923F0B0
:10A9500070038B717047012804D010F0FD0F05D0F3
:10A9600000207047887900F070007047887900F007
:10A9700060007047012807D010F0FD0F03D14B7A1B
:10A9800043F008034B7270478B7963F07F038B7140
:10A990008B7A43F008038B727047012807D010F0C0
:10A9A000FD0F03D14B7A23F008034B7270478B796C
:10A9B00003F07F038B718B7A23F008038B7270474F
:10A9C00010F0FD0F02BF8B7A01EB1311CA727047B2
:10A9D00010F0FD0F01BF8B7A01EB1311C87A00F064
:10A9E0000F0018BF0020704710F0FD0F07D18B7AC1
:10A9F00001F10B001B09C15C41EA0212C25470470D
:10AA000010F0FD0F01BF8B7A01EB1311C87A00091A
:10AA100018BF0020704720B9887A114401EB10114B
:10AA20000B73704728B98B7A114401EB1311087B23
:10AA3000704700207047C37A00EB13100C3070474A
:10AA400008B50346012B084607D013F0FD0F08D1C7
:10AA50008B7A01EB1310C27203E0FFF7ECFF1201D7
:10AA6000027008BD08B50346012B084604D013F058
:10AA7000FD0F06D0002008BDFFF7DDFF00780009BC
:10AA8000F9E78B7A01EB1310C07A00F00F00F2E7C0
:10AA9000012804D010F0FD0F07D000207047CB7ABA
:10AAA00001EB1311087B000970478B7A01EB13113E
:10AAB000C87A00F00F0070470346012B084610B516
:10AAC0000BD013F0FD0F11D18B7A01F10B041B0990
:10AAD000E15C41EA0212E25408E0FFF7ACFF0378C0
:10AAE00002F0070223F007031343037010BD10B5F3
:10AAF0000446012C0846194608D014F0FD0F09D170
:10AB0000837A104400EB1310017303E0FFF793FF07
:10AB10001044417010BD10F0FD0F01BF8B7A8918F1
:10AB200001EB1311087B18BF00207047012804D0E7
:10AB300010F0FD0F16D0002070474B7903F00F0383
:10AB4000082B04D1887A10F0080004D1704791F9DD
:10AB50000630002BEFDACB7A01EB1311487B00F0C3
:10AB6000070070478B7A01EB1311C87A0009704710
:10AB70000346012B084604D013F0FD0F03D000203C
:10AB80007047FCF79EB88B7A01EB1310C07A00096E
:10AB9000704708B50346012B084604D013F0FD0F9B
:10ABA00006D0002008BDFFF746FF01321044F9E748
:10ABB00001F10B03897A013202EB11129818F1E7C7
:10ABC0000346012B084601D1FCF793B86BB9827A92
:10ABD000437A0B3113F008034FEA12121EBF8B5C4D
:10ABE0001B0901331A44881870470020704710B5BC
:10ABF0000A460446FFF794FC002835D1012C1CD1ED
:10AC00005479D379C97A04F00F040E3B082C4FEA2B
:10AC10001111DBB207D1907A10F0080007D15B1A4E
:10AC20001B1AD8B210BD92F90640002CF7DA0A447C
:10AC3000507B00F007000130F1E7002CF2D1537A8D
:10AC4000897A13F008034FEA1111D0791CBF52180A
:10AC5000D37AA0F10C0018BF1B09C0B218BF013392
:10AC6000401AC01AC0B2DDE70020DBE7012802D19C
:10AC700001F11200704710B901F111007047002076
:10AC80007047012803D1C8791438C0B2704710B991
:10AC9000C8791238F9E7002070470346012B0846AF
:10ACA00001D1FCF743B833B90A7A01F1090302F084
:10ACB0001F02981870470020704701281DD14B795A
:10ACC000C87903F00F03082B4A7A04D18B7A1B074B
:10ACD00005D40A230AE091F90630002BF9DA02F0D4
:10ACE0001F03C91A8B7A03F007030A33013802F0F5
:10ACF0001F02801AC01AC0B2704728B9C8790B7AEF
:10AD00000A3803F01F03F5E700207047012802D13D
:10AD10000846FCF727B800207047012802D10846F2
:10AD2000FCF73DB800207047022805D148790B791F
:10AD3000000940EA03107047012801D108797047E3
:10AD40000028FBD000207047022808D113090B719E
:10AD50004B7903F00F0343EA02134B71704701284C
:10AD600001D10A7101E00028FBD07047022806D10A
:10AD70004B7988791B0203F47063184370470128EC
:10AD800001D1487A704708B9087A704700207047A7
:10AD9000022808D14B79C2F3032023F00F030343A9
:10ADA0004B718A717047012801D14A72704700B90E
:10ADB0000A727047437903F00F03082B07BF807AAC
:10ADC00000F00800807900F0800070470346012BF6
:10ADD000084600D1EEE71BB9487A00F0080070473A
:10ADE000022B0ABF087A002000F04000704708B527
:10ADF0000246FEF7F5FC60B9094BD3F88C3E4BB127
:10AE00005B8903F00601022903D003F00703042B3A
:10AE100000D19208012A38BF0122104608BD00BFA8
:10AE2000485D0020F8B505460C46074FA7F1B4066B
:10AE3000304619F0F9FE2146304647F8785CBDE807
:10AE4000F840FDF740BE00BF406E002073B50E46CF
:10AE5000054601A930460FF0F3FD9DF8053013F0CB
:10AE60001C0FC3F3820409D1144A164496F8A13486
:10AE700003F003018D4213D100240AE0002DF3D129
:10AE8000013CE4B22046FBF7A9FF204602B070BDAA
:10AE9000012482F8414FF8E70224FAE70324F8E797
:10AEA000C3F38101A942F3D0C3F301118D42F3D062
:10AEB000B5EB931FF2D00024E7E700BF485D002008
:10AEC000F0B50446344F87B097F8A00401A90FF0FD
:10AED00093FD694697F8A0040FF0B2FD032C03D947
:10AEE000FF24204607B0F0BD9DF804302B4D85F8B7
:10AEF000F430002BF4D0204697F8A014FFF7A6FFFB
:10AF000006AB00B203EB800050F8132C2301C5F808
:10AF1000F620D2B2DBB2FE2A85F8F5300DD0002241
:10AF2000114605F1F50010F8016F3EBB09B185F837
:10AF3000F53014B1D2B2002AD2D0204697F8A0142E
:10AF40009DF80060FFF782FF400046FA00F303F02F
:10AF50000303022B1CD0032B1CD0002B0CBF20237F
:10AF6000082385F8FA309DF8013013F003031EBF63
:10AF70005B0043F0100385F8FA30B2E70132013389
:10AF8000042A4FF00101DBB2CDD185F8F530D4E7CA
:10AF90001023E6E71823E4E7485D0020387F00200F
:10AFA00070B586B0044601A900200FF025FD9DF87C
:10AFB000040010F028FCFF23154E164D86F8FC30D7
:10AFC00085F8A03496F8FE30A3420DD1002085F814
:10AFD000A004FFF775FF86F8FC0095F8A004FF3881
:10AFE00018BF012006B070BD204601A90FF004FD76
:10AFF00021460020FFF72AFF06AB03EB800010F884
:10B00000133C002BE9D0002085F8A044E1E700BF05
:10B01000387F0020485D002038B5134D044695F870
:10B02000402F124B3AB1D3F8FF30C0F83E30002326
:10B0300085F8403F38BD93F80321042A0BD193F8DB
:10B04000042142B1D3F80D21D3F81131C0F83E20CC
:10B05000C5F8D43DEEE7002105480FF0E1FFD5F833
:10B06000D43DC4F83E30E5E7485D0020387F00203D
:10B070001C6B00202DE9F74F0546DDE90C9494F890
:10B080002C00984692460F4617F0F4FB022808BFA2
:10B09000636804F1550102BF23F0040343F0100379
:10B0A00063600646FFF7A9FB02463046FFF7FCF94E
:10B0B00003463046FFF70AFA400040EAC30343EA7A
:10B0C000021394F8462003F01A0322F01A021343E5
:10B0D00084F846306368B4F844B09B0003F008037A
:10B0E0006381237A13F02003009304F1140342D107
:10B0F000B8F1010F37D19AF80020002A33D1022E7F
:10B1000031D1042284F88460A4F8852099E80300F2
:10B1100083E8030025F010056581FBF78BFE012114
:10B1200002463C4B83F88A15237A990613D42346AA
:10B130003946304614F06EFB022E0CD16368DB07F3
:10B1400009D5344B93F80036032B01BF63785A1CA2
:10B1500062F30303637020466389A38103B0BDE8F3
:10B16000F04F15F03DBA4246514604F18500019377
:10B1700025F07CF9019B84F8848099E8030083E83A
:10B180000300731EDBB2012BC4D9022F09D0042D9A
:10B1900007D05FFA8BF3FF2B28D125F0070545F088
:10B1A0000105002EB9D1009BDBB9DFF8688098F863
:10B1B0008A3543B3A7F1080C05F00700DCF1000164
:10B1C000A0F1020E41EB0C01DEF1000040EB0E009D
:10B1D000FBF740FE3843C7B2012384F84B7088F870
:10B1E0008A350FF047F8002265819DE76B07D8D1BB
:10B1F000094BB3F816215A45CFD193F8183105F011
:10B20000F8051D43CDE798F88C3547EA0313DFB204
:10B21000E2E700BF485D0020387F00202DE9F04FB5
:10B220008DB0189C054667680693F80444BF012357
:10B2300084F82C3094F82C008B46164617F01AFB35
:10B24000022880469DF858906DD100220425BC4B01
:10B2500027F0040747F01007676083F8902504F192
:10B260005F0362680393110542BF237A63F07F0393
:10B27000237212F0C00F40F09C80CDE90098314657
:10B28000237A05F00700FBF72FFE0746002840F061
:10B29000AE81DFF8ACA29AF88F35002B00F08980E0
:10B2A000237A5A0640F1A38165689AF8903525F013
:10B2B000200565600A90ADF82C00EDB20BB145F0A9
:10B2C0002005A04B179A92E8030083E8030020466C
:10B2D00015F0C1F800238AF8903510F085F848B9C8
:10B2E000B9F1AA0F28BF4FF0AA0906994A46964815
:10B2F00025F0BCF8954C002341F28831944A04F5BE
:10B30000F67010F08BFD10F06FF888B1002102206C
:10B31000FCF700FD0023CAF8F43BCAF8F83B3846B6
:10B320000DB0BDE8F08F012899D104F1600398E7D2
:10B3300094F840C2BCF1080F05D8864B634493F8DB
:10B340009032012BE2D0804BADF824B0C4F8E0314C
:10B35000ADF826608DF82A50B3330CAA12E9070025
:10B3600003C31A807C4B1122C4F8D8310023A4F8FF
:10B37000E491A4F8E63184F8E82184F82B3284F8CB
:10B380002C32A4F8383284F83A32A4F8CA31A4F83E
:10B390003C62BCF1000F06D0BCF1060F07D011F0E3
:10B3A000D3FC0127BBE7172010F03CF8F7E7182083
:10B3B000FAE70023624FD4F804A097F89025A4F888
:10B3C00042B0A4F844606377002A51D087F89035E2
:10B3D000237A43F0010323721AF0900F5AD116F02A
:10B3E000FF0359D140F6FF739E424FF001074AD048
:10B3F000637F73BB636803F00503052B40F0E980AE
:10B40000F0B2FFF7CDFD002800F0DB80DFF83CA1B3
:10B410009AF8FA00FEF7F6FF9AF8F520054602F0D2
:10B420000F02531E032B0ED8B8F1010F4FEA02177B
:10B430000AF1F60100F0BE8004F1600025F016F874
:10B4400084F85F700827052363779AF8F430A4F82E
:10B450004430626812F0C00F00F0BE80179B39467E
:10B46000009328464B46069A0194FFF703FE98E79F
:10B470001AF0400FB0D007230827637740F6FF7318
:10B480009E4240F08F80B8F1020FB1D12AF005033F
:10B490006360ADE70127F1E797F8852E002AF9D020
:10B4A00097F87D2E9A4248D097F8752E9A42F1D19E
:10B4B000002307EBC307D90097F8763E029303F009
:10B4C0000F026389029823F0070343EA101397F8E9
:10B4D0007B0E23F0600300F0600003431FFA83FB40
:10B4E000A4F80AB0FEF77CF91C4B1944130104932D
:10B4F00002F10D03059398B304F1610024F0B6FF47
:10B50000049B84F86030059B84F854301BF0600F76
:10B5100018BF237A05F098051CBF43F0100323726F
:10B52000039B1B780F2B4FF0030363770BF067032C
:10B530008CBF082701271D43A0E70123B9E700BFFF
:10B54000485D00203C69002051800020387F0020A9
:10B5500091BF0108583A0308157D0008BF6B002011
:10B56000079004F1600024F081FF049B84F85F30B1
:10B57000059B84F8543097F87C2ED307C6D5227AE1
:10B58000029B42F00402227223F0700242F0300269
:10B59000079B87F8762E97F87C2E63F3000287F8D6
:10B5A0007C2EB3E7FF2E7FF423AFB8F1020F3FF4F8
:10B5B0001FAF6BE704F1610024F058FF84F860705E
:10B5C00040E7636823F004036360637F002B7FF42C
:10B5D00040AF062363773CE7CDE900983146237AF4
:10B5E00005F00700FBF780FC00283FF437AF20464A
:10B5F00014F031FF002792E62DE9F04F684B89B037
:10B60000D3F88C4E002900F09A80002C00F097802F
:10B61000FEF7E6F804F155010646FFF794F8002816
:10B6200000F08D8094F84790B4F844B0002E00F0FC
:10B63000898094F8607004F161014FEA171842465E
:10B6400005A824F013FF0220B4F842A00EF048FE33
:10B6500008F102050446002871D0032243785FFAFE
:10B660008BFB62F303034370BB1E03F00F0327F051
:10B670000F02A0F842B01A43002E6AD008210F2B07
:10B6800008BF90F8463080F8479008BF0B4380F819
:10B690004B1080F8602008BF80F8463000F15F0949
:10B6A00000F1610B304604F1550194F84B20FEF790
:10B6B000DDFFFEF7FFFFFFF724F894F846301B0785
:10B6C00001D5FEF7E4FF42465FFA8AFAA4F844A0E7
:10B6D00099F80030042A43EA071389F8003028BF9C
:10B6E0000422584605A924F0C1FE002384F88430C2
:10B6F000002E52D10935237A204643F020032372CD
:10B7000084F8545084F85C50FFF786FC254BB4F85D
:10B7100044200693002307936368B4F8421043F073
:10B720008103636006AB0294019394F884301E4851
:10B73000009390F8180104F18503FFF76FFD09B03D
:10B74000BDE8F08F94F85F7004F160014FEA1718BC
:10B7500075E7012180F84B1090F846100F2B41F04F
:10B76000100180F8461008BF90F8463090F85A1043
:10B7700009F00F0961F07F0108BF43F0080380F86A
:10B78000479080F85A1080F85F2008BF80F8463054
:10B7900000F15E0900F1600B84E70A35ABE700BFFA
:10B7A000485D0020896F0008387F00202DE9F04FA8
:10B7B000C36993B00793037EA44E099390F91330A5
:10B7C000C6F844020C93037806905A1F022A01D946
:10B7D0000A2B08D1079B079ADB79013BD371099BA0
:10B7E000013BDBB209939A4BD3F88C7E079BC6F8DA
:10B7F0004832099B86F85532069B1B7C86F85832E6
:10B80000069B93F811B0099B082B68D9079B099AEE
:10B81000DB79934263D80023BBF1010F86F85132E4
:10B8200022D0069B18780EF02BFC002386F8180116
:10B830000799584686F85932FEF780FE0246012ADB
:10B84000584613D0FEF74FFE0546A0B9052A40F032
:10B85000C580BBF1010F079B40F0AC809B7AD806F6
:10B8600000F0B680A9467DE00320DEE7FEF73BFE50
:10B87000002800F09A800023079958460F93FEF79E
:10B880004DFF04465846FEF753FF0246601EC0B205
:10B89000032824D85846FEF762FF18B394421ED0FE
:10B8A00001D20F2A1BD10FADDAB258460799FEF725
:10B8B000E3FFE8540133DAB29442F5D8042C15D1F1
:10B8C0009DF83F305BB19DF83E209A4207D09DF82D
:10B8D0003D209A4203D09DF83C209A4208D113B0F3
:10B8E000BDE8F08F9442FAD30346DCE7032C14D171
:10B8F0009DF83E30002BF2D09DF83D209A42EED0CC
:10B900009DF83C209A42EAD09DF83D30002BE6D0CD
:10B910009DF83C209A4202D1E1E7012CF4D19DF838
:10B920003C30002BDBD058460799FEF7DCFD0028A1
:10B930003BD05846FFF744F9437800F10109182B32
:10B9400005460FD8434A1A41D40708D5032B09D11D
:10B950000422414809F1020124F095FD10B9FE20AE
:10B9600019F0F8FAD6F8484258462146FEF7BBFDD2
:10B9700002465846FEF7E2FD354BBBF1010FB3F826
:10B980009E348246DFF8C480059335D1237905992A
:10B990008B4251D112B1637A8B425FD1002D6CD1B1
:10B9A00098F80331002B9AD032E058460799FEF7F9
:10B9B00077FFC1E75B7A13F01F037FF453AFBBF14E
:10B9C000000F15D1079B03F1110503F11209C9E717
:10B9D000079B03F1120503F11309C3E7022A7FF461
:10B9E00041AF5846FFF759F9054600F10109B9E79B
:10B9F0001D464FF00109B5E75846FFF795F9059B3D
:10BA000098420DD0002D5CD196F80331002B79D0EF
:10BA1000013B012B76D8BBF1020F7FF460AF71E0E0
:10BA2000BAF1010FBAD1002AB8D05846FFF79EF9F3
:10BA3000059B9842E6D1B1E765BB96F80331002B30
:10BA400060D0013B012B7FF64AAF5BE0387F0020DE
:10BA5000485D00207EFFFFFE1C6B0020002DECD017
:10BA60002B789F2B48D0982B19D096F80331002BB8
:10BA700048D0013B012B32D944E02B789F2B3FF477
:10BA80002EAF982B3FF42BAF98F80331002B3FF4E7
:10BA900026AF1EE02B789F2B2ED0982B2CD1214641
:10BAA0005846FFF763F9FF283FF419AF98F80331C0
:10BAB00043B3013B012B25D8BBF1020F22D075B94E
:10BAC0000DE72B789F2BF1D0982BE8D096F8033117
:10BAD000C3B1013B012B15D8BBF1020F12D0B9F154
