:020000040800F2
:1060000008040020F73E01083D3601083D3601082E
:10601000893E01083D3601083D3601083D3601083C
:106020003D3601083D3601083D360108891F030849
:106030003D360108743E03082D1F0308413603084E
:10604000796501083D3601083D3601083D360108F5
:106050003D3601083D3601083D3601083D36010850
:106060003D3601083D3601083D3601083D36010840
:106070003D3601083D3601083D3601083D36010830
:106080003D3601083D36010899B200083D36010849
:106090003D3601083D360108E53601083D36010868
:1060A0003D3601083D360108C13601089D3601081C
:1060B0003D3601083D3601082DE10208E9EB0208F2
:1060C0005D0C0308590C03089DE30208730C0308D8
:1060D000610C0308B9EB0208650C03084DEC0208DB
:1060E00085EC02083D3601083D3601083D360108C1
:1060F0003D360108B18601083D3601083D360108EC
:106100003D3601083D3601083D3601083D3601089F
:106110003D3601083D360108A15E02083D36010802
:106120003D3601083D3601083D3601083D3601087F
:106130003D3601083D3601083D3601083D3601086F
:106140003D3601083D3601083D3601086F40010823
:106150003D3601083D3601083D36010871C9020887
:106160003D3601083D3601084D0C0308530C030869
:10617000F0B5114A114C124E00F00105E3695F07BA
:1061800013D40DB9334213D103EA00078F4207D16C
:106190000B4A1A40002A0CBF00206FF00100F0BD2E
:1061A000013AEBD16FF00200F9E74FF0FF30F6E76C
:1061B0006FF00100F3E700BF8096980000000350E5
:1061C000020001004FF4803238B50E4B0E4C9A6637
:1061D000E56941F6713315400122E3630B4B002161
:1061E000DA600223606121202361FFF7C1FF10B94B
:1061F0002120FFF7BDFF0122054BDA600DB100231E
:10620000E36338BD009000500000035000100350BD
:10621000002003502DE9F84F16464FF48032274BEB
:10622000274D9A66EB69074603EA020841F6713387
:106230000122EB63234BDFF89490DA600EB930460D
:1062400029E007F5005404EA09046F61E41BEB69D7
:10625000B44228BF34465B072DD48B465BF8043B21
:1062600001EB040AAB61D3450ED1042300212120A8
:106270002B61FFF77DFF70B92120FFF779FF50B93F
:1062800059462744361BD9E708210846FFF770FF17
:1062900068B104232B6101220B4BDA60B8F1000FC7
:1062A00003D00022A3F50053DA63BDE8F88F5BF852
:1062B000043BAB61D7E74FF0FF30ECE700900050B4
:1062C00000000350001003500020035000E0FFFFC7
:1062D000897900086C00010000000000FF00010047
:1062E00071000000189C0020FF000000000000006A
:1062F00018000000799D010822000000719C01082F
:1063000001000000639D010805000000CD9B01080D
:106310000400000079A701080B00000051A9010842
:1063200025000000DDAE01082400000079AE010860
:10633000140000006DBA01080C000000D5AF010880
:1063400016000000E19901080300000035EC010887
:1063500002000000719D01080800000055C00108FE
:106360002A00000081EA010829000000C5EB0108AD
:1063700002000000699D0108010000005D9D010808
:1063800003000000CDB1010800000000A19C01083D
:1063900002005E00020000002D6B000800000000FB
:1063A00000000000000000000000000000000000ED
:1063B0000000000000000000020084000200000055
:1063C000D181000800000000000000000000000073
:1063D000000000004D810008C58100080000000099
:1063E0000200860003000000D974000800000000CD
:1063F000000000000000000000000000000000009D
:10640000000000000000000002006C00010000001D
:10641000BDAF000800000000000000000000000008
:1064200000000000FB800008FB8000080000000066
:1064300002007300010000004D7C00080000000015
:106440000000000000000000000000000D6B0008CC
:106450004D730008000000000200710008000000F9
:10646000297700080000000000000000016B000810
:1064700000000000957E00080D7700080000000075
:106480000200720002000000856A0008000000009F
:1064900000000000000000000000000000000000FC
:1064A0000000000000000000020087000300000060
:1064B000B99700080000000000000000796A000899
:1064C00000000000000000000000000000000000CC
:1064D00002007A000500000099A7000800000000F3
:1064E00000000000000000000000000091AC000867
:1064F00091AC00080000000002005A0001000000FA
:10650000000000000000000000000000416A0008D8
:10651000000000000000000000000000000000007B
:10652000020070000400000015A000080000000038
:10653000000000000000000000000000A991000819
:10654000A991000800000000020080000100000086
:10655000257000080000000000000000076A000825
:1065600000000000D5BC00087570000800000000A5
:1065700002008E0003000000798A0008000000007D
:10658000000000000000000000000000000000000B
:10659000000000000000000002005900030000009D
:1065A0008B9E0008000000000000000000000000BA
:1065B00000000000C76700080000000000000000A5
:1065C0000200850002000000C989000800000000E8
:1065D000000000000000000000000000B180000882
:1065E000C1800008000000000100FF00FF00000063
:1065F000000000000000000000000000000000009B
:10660000000000000000000000000000000000008A
:106610000A4673B5164B174CA34201D304201AE067
:1066200041685E880D78AE421DD19C68ECB11B7844
:10663000022B0AD0032B10D0012BEFD12346027A74
:10664000006802B0BDE870401847131D009313683E
:10665000027A0068A04702B070BD1146234602B01E
:10666000BDE8704018472833D6E72046F3E700BF5F
:106670009063000810660008037813F00C0F074BB6
:106680000AD190F90820002A06DB1878421E5042F1
:10669000504100221A7070470120FAE7980D00203F
:1066A000C378012B02BF0022034B1A70034B1B68F7
:1066B00003B11847704700BF920E00208454002099
:1066C000164B30B5586885B08268416814790B7AEA
:1066D000012C03F07F0318BF002314880D78ADF858
:1066E0000040947815F0020FC4F306048DF80940B9
:1066F0009478C4F3C0148DF80C4052798DF80830AA
:106700000CBF252327238DF80B208DF80A30036852
:106710000BB16846984705B030BD00BF84540020D7
:1067200008B5C36903B19847002008BD08B5036ADE
:1067300003B19847002008BD024B1B6803B11847FE
:10674000704700BFDC0D0020024B1B689B69187965
:10675000704700BFF8090020094B1B689B69D88867
:1067600060B1831EE62B08D9A0F58070B0F5806F6C
:106770002CBF00200120400070470120704700BF5F
:10678000F8090020438870B5FF2B04460D4607D05A
:1067900043692BB100262A68F3B21178994201D8D7
:1067A000002070BD5268D25C63889A4209D16A6841
:1067B0006369106898476A6800B2136803EB400386
:1067C00013600136E7E7024B024A9A60704700BF48
:1067D00084540020CC43030830B50624431CDBB2AC
:1067E000C3EB03135B0014FB02333C2414FB0134A2
:1067F000104B2344D4B2042C0CD11E23584306233F
:1068000003FB04003C23FF2203FB01010A4B0B4462
:106810009A8130BD33F8185C0132FF2D03F1060375
:10682000EBD053F81E4C43F8244C33F81A4C23F8A1
:10683000204CDFE7905400208454002001280246B9
:1068400008B501D841B90122FFF786FF022805D11A
:10685000531E5842584108BD0020FCE70520FAE7C6
:106860002DE9F04F1C461B7987B0012B019338BFEF
:1068700001239A461E2393464FF00009C1EB0115F0
:10688000AD0013FB0253494F0390FB18501E0293B7
:10689000C0B24FF00408FF23029E36F806CCBCF1CC
:1068A000FF0F17D016F8022C012A13D0019A0AB94B
:1068B000227B22B1226812F8092062450AD126F80B
:1068C000063C5FFA88F2CDE90401FFF785FFDDE9B8
:1068D0000401FF2308F1FF38B8F1FF3FA6F10606D7
:1068E000DBD109F101095FFA89F39A45D1D8039BFD
:1068F000852B55D094F80CA00BF1FF395346012B92
:1069000038BF012302931E2303FB09F94D4407EB13
:1069100005080027264B45460426B5F818C0BCF1EB
:10692000FF0F33D02A7F012A30D1019A5ABBBAF126
:10693000000F38D0A26802EB470012F8172062451A
:1069400000D01ABB06224FF03C0C02FB06920CFB57
:1069500001221A4492F80EC042780CF07F0E02F029
:106960007F00864512D1D209B2EBDC1F0ED1FF2287
:106970000BF1FF302A83C0B2F2B20391FFF72CFF74
:1069800003990B4B02E0BAF1000FD3D1013E721C08
:10699000A5F10605C1D102980137FAB29042BAD8E2
:1069A00007B0BDE8F08FFF222A83EFE79054002064
:1069B0008454002070B500240331032A016004715F
:1069C0008460047301D8046070BDD51E043AEDB232
:1069D000D2B28E2B0ED114460A7852B96608012C19
:1069E000067301F1010102D8002CF4D1ECE78160BB
:1069F000EAE72246AC1A013AD2B2FF2A047101F149
:106A00000101E6D1E0E780230370032343700120F6
:106A100070470A4B70B51A684FF6FF70002328259F
:106A2000148899B28C4200D870BD05FB03F15668FA
:106A30000133715A884228BF0846F2E7900A0020C5
:106A40005A22034602700120587070470120704797
:106A500008B5436A03B19847002008BD054B93F879
:106A6000480030B193F84900003818BF0120404277
:106A7000C0B27047845400208723037003234370FF
:106A80000120704710B51C46FFF7F6FDA0BB4B7800
:106A9000042B02D0062B14D010BD722323700523C3
:106AA00063706323E3704923237153236371342399
:106AB000A3713323E3710823A070029AFF2013709F
:106AC000EAE77223237007230C4A6370936CD26C3D
:106AD000E372110E2171110C6171E271110A1A0E2B
:106AE00022721A0C62721A0A0123A3702823A17160
:106AF000E370A2720C23E0E70220CDE70080E00FF4
:106B00007123037005234370012070470022024B5C
:106B100083F84A20704700BF84540020024BDB6C8E
:106B200003B11847704700BF8454002010B51C46BD
:106B30004B78012B19D1FFF79FFD034602209BB92B
:106B40005E22227006222371094BE2701A885B884C
:106B5000110AA2711A0AE27109226070A070FF2066
:106B60002372029B61711A7010BD0020FCE700BF08
:106B7000C49C00200B7813B10B6901330B61704783
:106B8000F0B5764B93F85020032A02D0042A4FD058
:106B9000F0BD734C00EB40000444207A627A484315
:106BA000A47A4A43614393F86640844210D093F834
:106BB00054406CB101246B4D83F86600C5F818474A
:106BC00005F560452E6B286710B16748C0F8184777
:106BD00093F86700904211D093F8580070B10220EA
:106BE000604C83F86720C4F8180704F56044256BEF
:106BF000C4F8902012B15C4AC2F8180793F86820D4
:106C00008A42C5D093F85C20002AC1D083F868106E
:106C10000423544AC2F8183702F56042106BC2F8D8
:106C2000B0100029B4D0A2F57042C2F81837AFE70F
:106C300093F865208A420DD001224A4C83F86510F2
:106C4000C4F8182704F56044256B216711B1464943
:106C5000C1F8182704287BD0414900EB40000144CB
:106C60000A7A4C7A887A003A18BF0122003C18BF91
:106C70000124003818BF0120002193F86650954286
:106C800015D0012593F8527093F85160BD4093F8E8
:106C9000537083F8662097424FF03007334A07FB62
:106CA00006220CBF02F5825202F50152156093F8DC
:106CB0006720A24215D0012593F8562083F867403B
:106CC000954093F8572093F85560A2424FF0300456
:106CD000264A04FB06220CBF02F5825202F501523D
:106CE000156093F86820824215D0012493F85A2049
:106CF00083F86800944093F85B2093F859508242DF
:106D00004FF03000194A00FB05220CBF02F58252F9
:106D100002F50152146093F869208A423FF438AFBB
:106D200093F85D0093F85E4083F8691093F85F3044
:106D300001228B424FF030010C4B02FA04F201FBAE
:106D400000330CBF03F5825303F501531A601FE7AC
:106D500000200121044602468FE700BF8454002032
:106D6000CC43030800E0035000D0035000C00350A0
:106D70002DE9F04712F0E2F93B4B1C682CF002FCC5
:106D800000284AD1002C48D0384F394D3B689C42EE
:106D90001AD02BF0ADFBD4F828A0D5F86C9066691A
:106DA000D5F870802BF01AFC05F174039A450BD0CE
:106DB0004E4509D0464507D005F188039E4226D1AD
:106DC000A36A0BB994F85C3004F104082BF090FB33
:106DD00040462CF057FDA36A1BB104F118002CF0BB
:106DE00051FDD5F8B030234E0133C5F8B0303B68C3
:106DF0009C42336813D0204A1368013B13602BF088
:106E00008DFA2BF0EBFB20462CF0BBFC20E005F1CB
:106E10009C039E4201D0002ED6D1BDE8F087002B06
:106E2000E9D0D5F8A0309A68A360E260C2F8048087
:106E3000C3F80880114B6361D5F89C300133C5F865
:106E40009C30D5F8B4300133C5F8B4302BF0C6FB14
:106E50003368002BE1D03B689C42DED1D5F8B830D6
:106E6000BDE8F0472CF0B9BB981D0020140C0020A1
:106E70008454002064230020D026002020550020C8
:106E8000014806F071BF00BFEC0C0020442300B5A0
:106E9000ABB08DF80030054B4FF4FA721B686946B1
:106EA000986806F010FF2BB05DF804FBF80900208D
:106EB000C378012B00D1E9E77047712300B5ABB06F
:106EC0008DF80030044B00221B686946986806F074
:106ED000FAFE2BB05DF804FBF8090020EDE730B5B1
:106EE0000A4BABB00446A822002168461D6829F071
:106EF000B9F97D234FF4FA726946A8688DF800301D
:106F00008DF8044006F0DFFE2BB030BDF8090020FC
:106F1000024B0A46014618681BF0F3BA940D002094
:106F2000418808B5982908D009D8552905D05E2987
:106F300003D00020C9B21EF0D3FE002008BD9F2957
:106F4000F6E72DE9F041B8B0E0220021684629F0CB
:106F500089F9FF238DF800301D4BDFF878801F681A
:106F6000694678682CF03CFC012802D038B0BDE8B6
:106F7000F0819DF80030822B26D0842B24D0802BEA
:106F8000EED1D8F800600025344633789D42E7DA28
:106F90002379012B07D0022B0DD04BB96946236909
:106FA000E068984704E09DF80420E3889A42F5D011
:106FB00001351034E9E79DF80420E3889A42F7D1BF
:106FC0009DF80520237AF1E7FFF7B6FBC8E700BF7D
:106FD000F8090020D80D0020002373B5CDE9003357
:106FE0000D4D0E4E694628682CF0FAFB012810D092
:106FF00002B070BDA288BDF804309A4205D1236862
:107000001BB100999DF8060098470834B442F1D3AB
:10701000E8E7034CFAE700BF540F0020E0620008E5
:10702000D0620008497810B502291C461CD1FFF730
:1070300023FBB8B98023032123700C480C4B6170EB
:1070400080781A78652818BF0246642A28BF64220F
:107050000298A27001701978914202D01A701CF047
:1070600067FEFF21084610BD0021FBE70A0A002049
:107070004C09002046F26552054B1A804FF6FF720C
:107080005A6000221A810022DA601CF051BE00BF53
:107090004C090020002105234FF4FA6208461FF036
:1070A000DFBC10B50E4CE3680BB1607C9847637C85
:1070B0002BB994F8AA30812B01D0FFF7FEFE94F88B
:1070C000AC30012B04D1074B074A5A621AF038FF43
:1070D0000021BDE810400323642208461FF0C0BC15
:1070E000C49C002000000850FFFF1D0310B5094A92
:1070F000044692F84A30013BD8B282F84A0040B9BF
:1071000082F8BC00FFF7EBFE2046BDE810401DF002
:107110007FBF10BD845400202DE9F0413A4D3B4C17
:107120006F789FB1012F39D00021082208461FF047
:1071300088FA37481DF06CFF0023702084F818315E
:1071400084F81931BDE8F0411EF0BCBD94F8BD30A3
:10715000002BE9D0D4F8C460E97805EBC60898F8AC
:107160000800FFF70DFDD4F8C030D8F80C200A3322
:107170009342C4F8C0300FD32B7901369E42C4F835
:10718000C070C4F8C46007D3AB6DC4F8C4701BB141
:10719000013BAB65002BC7D0BDE8F08194F8BD3052
:1071A000002BC1D094F8D6302BB10021287A84F876
:1071B000D610FFF7E5FCD4F8C03001334FF00003E0
:1071C000C4F8C030E8D0D4F8C42094F86530287AE8
:1071D0005AB9632B02D8591CC9B203E00122C4F882
:1071E000C4201946BDE8F041CAE40BB1591EF3E7CB
:1071F000A96DC4F8C4300029F4D00139A96500296B
:10720000EFD1FFF7BDFC8FE79C09002084540020DC
:107210005C5500202D49F8B54B68002B54D0002553
:10722000032601F58E7401F5967701F59E7C4A6878
:10723000137B013BDBB213737BBBA242C2E9003379
:10724000936021D0BA4221D0624521D10222134657
:107250004D600133B3FBF6F000EB40001B1A01EB6D
:10726000031EDEF81CE11801BEF1000F12D020440D
:1072700048604A68AAB9164806F03DFD20B3BDE84B
:10728000F84013481DF0C4BE1A46E0E70122DEE7CD
:107290000322DDE79A42DCD1EBE793680633936083
:1072A000E7E7506892680379B2F800E0408803F09D
:1072B0007F03864504D1927802F07F029A42B6D0CD
:1072C000BDE8F840FFF7FCB9F8BD00BF84540020CA
:1072D000D05500200C4B03F5A672824213D15A6898
:1072E0008AB1516892680B791088498803F07F034E
:1072F000884204D1927802F07F029A4201D0FFF7CF
:10730000DFB9002086E770478454002010B5064C92
:10731000204606F0F0FC10B120461DF079FE002258
:10732000024B1A7510BD00BFDC9C0020C49C0020DD
:10733000044B93F8AB20FF2A03D1034AC3F89820EB
:10734000E4E77047C49C002000000F1D38B50025FD
:107350000E4C2846A4F88C5184F88E51A4F8905114
:10736000A4F8925184F8945184F8BC50FFF7B7FD0B
:1073700004F5CC7084F84A5006F0BDFC28B104F541
:10738000CC70BDE838401DF043BE38BD84540020A9
:10739000F0B406880D888A78AE420CD002F07F03E4
:1073A000072B13D8AE4221D8520624D083785B062F
:1073B00021D1012024E08478544014F07F0301D1CE
:1073C00027061CD502F07F03072B14D9847804F01C
:1073D0007F079F4207D3ECD8AE420BD914F07F0F42
:1073E00009D054060ED14FF0FF3009E0837813F036
:1073F0007F0FF5E7D8D30422F0BC29F06EBE184603
:10740000F0BC7047AE42F6D2D0E707B50A4B019008
:1074100093F8D8218A420CD1042203F5ED710DEBCB
:10742000020029F05AFE003818BF012003B05DF8B1
:1074300004FB0120FAE700BF845400200222174B0E
:1074400013B5DA608123164C8DF80330206810B331
:1074500000230DF1030101AA01932BF057F8019BC2
:1074600001462BB14FF0E0234FF08052C3F8042DBA
:10747000012910D1A06870B100230193237901AADA
:1074800099402BF077FF019B2BB14FF0E0234FF099
:107490008052C3F8042D002002B010BD00400059F6
:1074A000580F0020074A084892F8DE311830012BA7
:1074B0004FF0010380F8913088BF82F8DF311EF071
:1074C0004DBA00BF84540020C49C0020002845F21F
:1074D000333018BF0020704770B51C46FFF7CCF85A
:1074E000002840F08F804B78113B062B00F28C80F7
:1074F000DFE803F0048A1E8A548A5C008623237026
:1075000012236370414B1B685B69DA79A270DA78E9
:10751000E2701B792371082363711423A371012383
:10752000E371002323720923FF20049A137070BDB6
:107530008623237014236370344B8D781E68344B7C
:1075400029461A785868A57029F0FDFD58B9FF231F
:10755000E370304B304A934218D3E378FF2B04BFDB
:107560000023E3700AE0982D0AD09F2D0BD0552DF3
:10757000EDD173699B78FF2BE370EAD00423D3E746
:1075800073691B78F7E773695B78F4E759882833E8
:10759000A94204BF13F8241CE170DCE786232370A2
:1075A000162363700723A3700323BDE786230722F6
:1075B000237018230A216370A270E3700122A37163
:1075C000AB250023CD206171104922710968E27159
:1075D0004969A372E37223736373A37325726072A4
:1075E000CE78E6730E7926744979A2743122E2745A
:1075F000082222751422A375617419236275E5753A
:10760000207691E7022092E7002090E7F809002019
:10761000840C0020906300081066000838B500252F
:107620000B4CC82229460B4884F8AD5028F01AFEAE
:10763000B4F898002575013080B21BF02BFE28B1FC
:1076400004F11800BDE838401EF088B938BD00BF0D
:10765000C49C002064560020002370B51A4E1B4ABB
:10766000347C5178814228D11178A14225D10C2255
:10767000174D02FB03552B6B984795F83430B4FA3D
:1076800084F23374B3FA83F352095B099A420AD045
:10769000104D4CB995F8A8322BB120461BF086F856
:1076A000012385F8A93270BD95F8A932002BFAD0D4
:1076B000BDE8704001201BF079B801330D2B02F1B9
:1076C0000C02CED1EFE700BFC49C0020F8430308B2
:1076D000CC43030884540020034B1B7C032B0CBFBA
:1076E0000B200820B8E700BFC49C0020064B93F88D
:1076F000AB30FF2B07D183780BB1052B01D10220D2
:10770000AAE70320FCE77047C49C0020044B054A0D
:10771000136000225A75FF229A751EF00FB900BF40
:10772000189C0020040A00202DE9F04788461C46DA
:1077300098F801300746013B1146089E062B00F2DF
:107740001D81DFE813F0C7001B011B0136001B0180
:1077500007009A008A4A017A98F80230507B98F81C
:107760000340984201F07F0103D1631EDBB2FD2B81
:1077700002D80220BDE8F08759B9824B1B685A7BBA
:10778000824203D19A7DA24218BF9C751EF0D6F8A2
:107790000DE00DF009F80028EBDB7A4B00EB400020
:1077A0001B6803EBC0039A7DA24200D09C75FF20AA
:1077B000E0E7FEF761FF0028DBD10229D9D9712368
:1077C0002370052303296370A070E070207120727C
:1077D0006072E0714ED0042918BF98F80430684DEB
:1077E00018BFE37198F803806B7B984506D0B8F119
:1077F000FF0FBED1397A01F07F0105E0397AB8F187
:10780000FF0F01F07F0112D1E0790028B1D15D4A6C
:107810001268127B8A42ACD16A7DE271182202FBA7
:107820000055AA7DA371092362713370BFE74046FA
:107830000CF0BAFF00289CDBE77997B118230022EF
:1078400003FB005393F814C0D1B2614507D2196904
:1078500002F1010E895CB94205D1120605D5FE235D
:10786000E3714346DAE77246EEE75B7DBB42F8D050
:107870000023F5E7FF231A46D4E7FEF7FDFE054691
:1078800000287FF476AF04F1030820220146404629
:1078900028F0E8FC71232370082363703B7A394A8F
:1078A00013F07F03106802D0027B9A420ED1457B11
:1078B00065B10123EA0805F007018B4018F80210B2
:1078C0000B4308F80230417BC9084D1CE91CA57028
:1078D00031706CE7FEF7D0FE054600287FF449AF13
:1078E00020220146E01C28F0BDFC712323700223F6
:1078F00098F80200397A6370A07001F07F010CF0F3
:1079000053FF021E38DB18211D4B284601FB0233B2
:107910004FF0010893F814C02B4602EB4202DFF847
:1079200064E0271DD200C1B28C4504D8E37003F097
:107930001F03043379E7DEF8001011440D692D5C54
:1079400005F1FF395FFA89F9B9F1FC0F12D84FEA56
:10795000D50917F809A005F0070508FA05F545EA65
:107960000A0507F809500969095CCD08B3EBD10F86
:1079700098BF6B1C0130D6E72B46D7E70020F9E60D
:10798000189C0020040A002002460846097C022AAE
:1079900001F03F0107D0032A07D0012A4FF0FF3240
:1079A00018BF0022D2B2002305E0427C12B10122AE
:1079B00041F08001837C1DF0A3BF0748D0F8B032AE
:1079C00033B14FF47A7100F52D7059431EF003BAAC
:1079D00000F52D701EF0F8B98454002010B50A4C43
:1079E00094F8F43213B994F8F53263B1002101230D
:1079F00042F2747208461FF033F894F8F43213B16F
:107A0000BDE81040D9E710BD84540020F7B5044606
:107A10000126A778617EC06A7B1AD3F1000C4CEB7B
:107A2000030C94F803E003784B4D9E40E6452B7819
:107A3000F2B240D013432B706368E2690A33934279
:107A4000636051D3002384F803C06360C3789BB1A3
:107A5000237E012B10D10DF1070101301EF066FAD3
:107A60009DF807306178994206D1E06A81F0010102
:107A7000617001301BF09AFFA36A4BB1237E012B8A
:107A800003D02BB9E378012B02D1E3680133E36023
:107A9000E36ADB6843B3E278012A06D1002004F1EF
:107AA0000C0103B0BDE8F04018476269E2B901205B
:107AB00004F10C01F5E713421EBF62680A326260EE
:107AC000227E012A12D1E268002A38D06368A26AB5
:107AD0000A336360934207D3C3681BB1022004F1E9
:107AE0000C0198470023E36003B0F0BD8F421AD128
:107AF000236A002BF8D062689342F5D8616939B9DE
:107B0000C3686261002BEFD0032004F10C01C8E7C9
:107B1000616A0029E8D0D31AB3FBF1F501FB1533F4
:107B2000002BE1D1ECE763696BB1C3681BB10420A2
:107B300004F10C0198470023E36063612B7823EA8A
:107B400006032B70D0E7E368002BF7D06368226A46
:107B50000A336360BEE700BF7C0F00202DE9F341CC
:107B6000284DB5F8F6325BB1013B9BB2A5F8F63271
:107B700033B90122244BC3F840240222C3F8402425
:107B800000264FF00108214C214F237813B1237EAA
:107B9000022B2AD13B7808FA06F223EA02033B7053
:107BA0000136092E04F13004EFD1194B1B78CBB903
:107BB000B5F8F642B4B917481DF02AFA95F83833EB
:107BC00064F3410385F838335B070BD50721204662
:107BD0000DF107021BF04AFF20B107222146204683
:107BE0001EF02FFD02B0BDE8F081E06A0379012BA1
:107BF00003D0A11C01301EF099F92046FFF706FFC3
:107C0000CEE700BF8454002000E0035008040020A9
:107C10007C0F00207C57002038B50B4D13460446DE
:107C20000A460146284606F0B1FA022808D048B9AB
:107C300094F83030EA181C3382F8640045F82300C9
:107C4000012038BD0020FCE7EC0C002038B50D46C3
:107C50001C466B780499013B042B79D8DFE803F0CC
:107C6000032B783D6200AB78092B01D9022038BD87
:107C7000EB78002BFAD0374C0121374A04F5CC7051
:107C8000FFF7CAFF04F5CC701DF0C2F9AB7843B919
:107C900084F84A30A87884F8BC00FFF720F9FF2068
:107CA000E5E7EB784FF47A7104F5CC7084F84A304C
:107CB00006F088F8EEE7FEF7DFFC0028D6D1732344
:107CC000237003236370234B93F8BC2093F84A304E
:107CD000A270E37004230B70E1E71E4C94F894311A
:107CE000022BC3D0AB885ABAA4F89021002BBDD088
:107CF00043880021A4F89231AB78184AA4F88C315B
:107D0000EB7804F54F7084F88E310223A4F83A130F
:107D100084F89431FFF780FF282104F54F7006F0B6
:107D200051F8BCE7FEF7A8FC00289FD17323062278
:107D30002370084B6270B3F88C01A07093F8940123
:107D4000B3F83A33E070180A207163710A70A6E73D
:107D500000208CE784540020ED700008B19B0008DF
:107D6000154B2DE9F3471B781BB312264FF0FF3A52
:107D7000124B134D1F68DFF84C80A5F16304C8F85F
:107D80005070A5F1330915F8013F7BB101AA3946BE
:107D9000606BCDF804A005F0CAFFF31C1F2B98BF41
:107DA000019A06F1010698BF48F8232004344C4597
:107DB000E9D102B0BDE8F0878C0D002068230020D7
:107DC0004F0D00200000085010B50446FFF7C8FF13
:107DD00094F83030044A1C3352F823301BB120464B
:107DE000BDE81040184710BDEC0C0020F8B5054662
:107DF0000E46064C064FBC4200D3F8BD3146204625
:107E0000A8470028F9D12834F5E700BF906300089F
:107E10001066000830B50A4BABB00446A82200211A
:107E200068461D6828F01EFA652300226946A86886
:107E30008DF800308DF8044005F045FF2BB030BDC3
:107E4000F809002008B50420FFF7E4FF0022094BE1
:107E50001A70094B93F8192152B983F8482083F816
:107E6000492083F87C230548BDE808401BF068BF23
:107E700008BD00BF930E002084540020749D002094
:107E800013460A460146024800681AF0F7B900BFD7
:107E9000940D002013B5042001A9FFF739F80B4C0D
:107EA00028B11DF04BFD0A4B1C6002B010BD019AB9
:107EB000012AF6D18DF8000069460420FFF7E0FFA3
:107EC0000028EED19DF80030A375ECE7189C002047
:107ED000040A002013460A460146024800681AF0C8
:107EE0008BBA00BF940D0020F0B40B460A46002464
:107EF000FF2601F10F05012802D117780FB102E02A
:107F000008B9012416700332AA42F4D1FF220128D5
:107F100002D1DE7B0EB102E008B90124DA7303332B
:107F2000AB42F4D11CB1F0BC1E220120D2E7F0BC60
:107F30007047F0B5002604468BB01E22314602A8D9
:107F4000019628F08FF9022C574D10D0032C52D0F7
:107F5000012C08D1204601A9FEF7DAFF18B9019AD1
:107F60001E2A00F09C80204602A9FFF7BDFF1E22BA
:107F700002A90120FFF784FF4C4A0023114606277F
:107F800003EB430002AC245C28300C8007FB035455
:107F9000684410F81F6C0133A67310F81E0C052BF3
:107FA000C0F34014C0F303000C71487101F10601E5
:107FB000E6D10023062702A8C17B07FB0354D18327
:107FC00003EB43012831694411F8106C013384F844
:107FD0002C6011F80F1C052BC1F34014C1F30301F1
:107FE00082F8224082F8231000F1030002F1060219
:107FF000E2D10BB0F0BD05F10C0004463146062776
:10800000238801EB410202AEB35407FB015602F193
:108010002803B67B6B4403F81F6C02AB1A44237928
:1080200066795B0106F00F0603F020033343967870
:10803000013126F02F0633430529937004F106041D
:10804000DED10022062702AC07FB0256C38B02EBEF
:108050004201E37396F82C6001F128036B4403F8A6
:10806000106C02AB194490F8223090F823605B0149
:1080700006F00F0603F0200333434E7C013226F056
:108080002F063343052A4B7400F1060004F1030464
:10809000DAD11E2202A90120FFF71CFFA9E7204622
:1080A00002A9FFF7EDFE5EE7845400209054002003
:1080B0000120024B83F8BE003BE700BFC49C0020B8
:1080C000002036E707B501224FF436700DF10701A5
:1080D000FFF7D6FE60B119F029FF00F03F008DF8E0
:1080E000070001224FF436700DF10701FFF7F2FE91
:1080F0009DF8070003B05DF804FB002310B5044CA5
:1081000084F87D33FFF7DEFF84F87E0310BD00BFE7
:1081100084540020002310B50A4C84F8F432D4F8BB
:10812000EC321BB104F52D701DF04EFE00224AF614
:10813000C003C4E9AB230520BDE810400822024972
:10814000C8E600BF8454002030570020002313B538
:10815000164C174904F52D7084F8F4321BF0C0FD5D
:10816000052001A9FEF7D4FE10B9019B082B01D010
:10817000FFF7D0FF082205200E49FFF781FE0E4BC6
:108180000E4A1A6094F87F3353B90D4B1A78092AB6
:1081900006D840F2A923D340DB0701D51BF05CFCD5
:1081A000012384F87F3302B010BD00BF8454002047
:1081B00049BD000830570020DC0D0020DD790008A3
:1081C000689C002008B5FFF7A5FFBDE80840BDE7A3
:1081D00038B51C464B78049D043B052B78D8DFE866
:1081E00003F0033077774659CB788A780D791B02F4
:1081F00043EA02431D431FD0B5F5967F1ED3354C8D
:10820000A54207D83C23A5F59674B4FBF3F45C4370
:1082100004F59674304B4A79052083F8AC2203F5B7
:108220002B710822C3F8B042FFF754FEFFF7C5FBDD
:10823000AC421AD0022038BD2C46EBE74FF49674BE
:10824000E8E7FEF719FA0028F4D106220B78224954
:108250002370D1F8B0326270180CA0702371180A24
:1082600091F8AC32E07063712A70FF20E3E70021DF
:10827000012208461EF0E5F90020174B83F8F402AE
:1082800083F8F502154B1B780A2BEED101210BF078
:10829000D0FFEAE7FEF7F0F90028CBD10B782C22CB
:1082A00023700A2363700123E37063715123A37168
:1082B0008023E371A8236372C023A3723C236373FA
:1082C0000E23A07022712072E07220732B70CCE715
:1082D0000020B0E780510100845400209C09002058
:1082E0002DE9F0439846294B0446D3F800900D46FB
:1082F000D9F8183016461878BFB0002841D0576812
:108300003B7903B99370AA2D3ED8ACB1B378BA7853
:108310000BB9510610D0602104F8041C0D2104F89B
:10832000023C02F08003C2F30602134304F8031C6C
:1083300004F8013C0435043CF8220021684627F08B
:1083400091FF01238DF8003033788DF809508DF8B6
:1083500008303B882A46ADF8B430737821468DF852
:10836000B8307B790DF10A008DF8BA30CDF8048071
:1083700028F0A6FE4FF47A626946D9F8000005F0AD
:10838000A2FC3FB0BDE8F0830220FAE7F809002024
:108390004107034607D4820707D410F0010005D136
:1083A000DB09980070470320704702207047F8B53A
:1083B000064607980D4617461C4620B19DF820201A
:1083C00028F0C1FEE8B9FEF7BFF9FFF7E1FF48B1B9
:1083D000B0420CD1BCB1294620469DF8182028F0A7
:1083E000B2FE70B9A5F1200358425841F8BD0428E7
:1083F00009D1722D07D1042F05D1B6FA86F04009B4
:10840000F4E70120F2E70020F0E7002070472DE9B3
:10841000FF41114B05465F6893F800800F4B0E46F5
:108420001B6814469B69DB889BB1FEF78DF9FFF74B
:10843000AFFF70B10A4B1A78294602925B68324648
:10844000CDE9008320463B46FFF7B1FF04B0BDE80D
:10845000F081044BEFE700BF940C0020F8090020E6
:108460008C0C0020840C002038B50D465E2104469B
:108470001DF036FC2A0603D5982120461DF030FC5D
:108480006B0703D09F2120461DF02AFC8CB185216B
:1084900020461DF025FC8E2120461DF021FC59218F
:1084A00020461DF01DFC6C212046BDE838401DF023
:1084B00017BC5521F8E708B50246FEF74DF902282A
:1084C0001BBFB2FA82F040090120013008BD10B58F
:1084D000104C94F88033022B17D194F8811394F840
:1084E00082034B1C84F88133FFF7E5FF81420CD2F5
:1084F000002104F56170084AFFF78EFB04F56170F6
:108500000A21BDE8104005F05DBC002384F88033EB
:1085100010BD00BF84540020899E00082DE9F0435F
:108520000D4685B0044616460021102268461F46B7
:1085300027F098FE012D61D8012C37D1002D5DD197
:108540002846FFF7B8FFA04258D3032F04D0042FCA
:1085500047D1F378002B44D11E23C5EB05129200BE
:1085600013FB0423264A4FF0FF0902EB0308042201
:10857000013CE4B23378D7B2852B03D118F8023C22
:10858000012B06D03A462946204628F8069CFEF7DD
:1085900023F97A1E52B2531CA8F10608EAD103202F
:1085A000FFF7C7FC012005B0BDE8F0832846FFF7C0
:1085B00082FF002CC7D18E233A4668463146FEF72B
:1085C000F9F92046FFF777FF01240546AC42E6D8CB
:1085D00022466B46002130780134FEF741F9E4B2BF
:1085E000F4E768463A4631468E23FEF7E3F9034640
:1085F000224629463078FEF733F9D0E70020D2E74B
:10860000905400202DE9F74F074614469946FFF78E
:1086100052FF88468978814200D811B9012388F831
:10862000023098F8026039463046FEF707F998F8AC
:1086300000300022237098F80230C7EB0711A370B6
:108640001E23890013FB0613374DE0701D44AC4612
:1086500013462271D1B2884208D898F80020852AA2
:1086600017D08E2A18D00533DBB232E03CF81E1C3E
:10867000FF29F2D01CF81AEC0132BEF1010F1FBF26
:1086800004EB030E01338EF80510DBB20CF1060C7F
:10869000E0E703226270E6E74FF01E0C03220021A0
:1086A000013E0CFB06F64FF03C0C62704FF0060AE0
:1086B0000A460CFB07FC03F106080196CFB287427D
:1086C0000CD3002ACFD000211C4406331A44617118
:1086D000D3B289F8003003B0BDE8F08F35F81E7CC6
:1086E000FF2FEED015F81AECBEF1010F18D1019E44
:1086F00004EB020B0BF808700AFB01670B4E674492
:108700003744BF7B02F1010E07F0800BC7F3060769
:10871000023254FA8EFE4BEA070BD2B20EF808B0C2
:1087200001310635CAE700BF905400208454002070
:108730000129F8B5054617461E4626D838B308461F
:10874000FFF7B9FEA84222D31E22C1EB01146B1E13
:10875000A40002FB03440F4B284623443B60FEF772
:108760006DF8002306213070DAB2904207D901FB80
:1087700003F43D6801332C5BFF2CF5D13270307867
:10878000B0FA80F040094000F8BD0620FCE7072061
:10879000FAE700BF905400202DE9F04FB2F800A096
:1087A0000546BAF1E80F0F461646994687B018D825
:1087B000FDF7D2FF022818D1012D12D1002328463F
:1087C00004938DF80F3004AA0DF10F03FFF7B0FFEB
:1087D0009DF80F304BB1012B03D1049B1B88012B5B
:1087E00003D0002007B0BDE8F08F39462846FEF7D9
:1087F00025F84FF00008B3781E26ADF81280ADF8CA
:1088000010A08DF812308DF814900446FDF79CFFEF
:10881000FFF7BEFD013D6E43C7EB0713DFF8D0A0A5
:1088200006EB83068DF815004FEA8309564444454C
:1088300040DC1E21062001FB05F3621ED2B200FBC4
:1088400002333C2202FB0733284A13449B89FF2B47
:10885000C7D13C23012C98BF00244FF0060B01FB2D
:1088600005F503FB07F7DFF8848088BF023CA944C5
:10887000E6B20BFB06F606EB09002E443E444644E6
:10888000B38906F10C02FF2B504401920FD004A9CA
:10889000FEF77EFD002819DD631CDBB20BFB0353E2
:1088A000F1683B444344019AD96092881A82013CA2
:1088B000DED50CE03388FF2BBBD0304604A9FEF791
:1088C00067FD063680B108F10108B0E7EFD0062356
:1088D0000134E4B203FB04880498BDF81430C844A2
:1088E000C8F80C00A8F8103001207BE78454002061
:1088F000905400202DE9F047054686B00E461746F5
:108900000021102202A8984627F0ACFC2846FFF769
:10891000D2FD012D03D9002006B0BDE8F087B47860
:10892000012C48D1002DF6D18442F4D843463A4672
:10893000314602A8FEF73EF829462046FDF77EFFA5
:108940009DF80C909DF8148009EB08078742E2DC43
:10895000002FE0D000270124BA46FBB299450ED97A
:10896000029B8DF806A0DB5DADF8043033B3002325
:108970002946B07801AAFFF70FFF00BB0446002785
:10898000FBB2984512D9049B03EB4702527813F8C7
:1089900017308DF80620ADF8043093B10123294635
:1089A000B07801AAFFF7F8FE60B904460320FFF78C
:1089B000C0FA2046B0E7002CADD0B5E71C46013721
:1089C000CBE71C460137DBE770B51C464B78054604
:1089D000013B049E0A2B4AD8DFE803F01506491E26
:1089E0002949494949493B002846FDF745FE08B158
:1089F000022070BD287A3346224600F07F00FFF740
:108A000001FEFF20F5E7287A852300F07F00FFF7BD
:108A100071FF0028F5D1EBE7022AE9D913460A468F
:108A2000287A00F07F019078FFF778FDF1E728467B
:108A3000FDF722FE0028DBD1852323700623287A48
:108A4000637000F07F00FFF736FDA07003233370E2
:108A5000D7E72846FDF710FE0028C9D185232370EB
:108A60000C236370034B93F8BE30A370EEE7002035
:108A7000BFE700BFC49C002070B51D464B7804467C
:108A8000013B049E042B3DD8DFE803F012033C1B9E
:108A90002A002046FDF7F0FD08B1022070BD207AC3
:108AA00033462A4600F07F00FFF7ACFDFF20F5E7D4
:108AB000207A8E2300F07F00FFF71CFF0128ECD105
:108AC000F4E7022A04BF00238B7013460A46207A7B
:108AD00000F07F019078FFF721FD0028E6D1DCE768
:108AE0002046FDF7C9FD0028D7D18E232B70062321
:108AF000207A6B7000F07F00FFF7DDFC0323A87085
:108B00003370D3E70020C9E7094930B5D1E9F13422
:108B10005D1DB3FBF4F204FB123201EB8202D2F8CA
:108B2000CC03013308B9AB42F3D1C1F8C43330BD33
:108B300084540020084B0022D3F8C81310B508460F
:108B400003F573738A4200D110BD53F8044B04B986
:108B500001380132F6E700BF84540020002373B5CA
:108B6000454C94F8E12384F8E0331AB184F8E133FA
:108B700002B070BD94F8E2238AB1D4F8E8339A1AAF
:108B80005342534184F8E733B4F8EC33A4F8E433A8
:108B900000B1807884F8E6033848FDF781FD94F849
:108BA000E263D4F8E8339E42E2D2D4F8F03394F88A
:108BB000F4535A789B788DF8002045F001028DF827
:108BC00001208DF80230FFF79FFF01902EB9AB070F
:108BD00044BF45F005058DF801500388284DA4F8E1
:108BE000EC33A4F8E43394F8F53313F0070F31D0E5
:108BF00094F8F63373B390F90230002B2ADB1AF0A5
:108C000081FDEB7904350433C4F8F853C4F8FC3320
:108C10001C4B6A46D4E9FE01FFF762FB94F8F63379
:108C2000054633B1002104234FF47A7208461EF042
:108C300077FAC5B1022384F8E633FFF77BFFB0FA79
:108C400080F0400984F8E7030C4802B0BDE87040AA
:108C5000FDF726BD1AF056FDEB79C4F8FC330A4B3C
:108C6000C4F8F833D4E7012384F8E03394F8E2330E
:108C7000013384F8E2337BE78454002068580020F5
:108C8000E00D00205D8B0008E80D002038B51F4D79
:108C90000446B5F8EC330380837843B1FFF74AFF0D
:108CA000B0FA80F04009E0702046FDF7F9FC95F835
:108CB00000348BB9FFF73EFFC5F8E803F8B11AF0AE
:108CC00099FCB5F8EC33012823800CD0022815D18B
:108CD0002046BDE8384041E71AF0DAFBB5F8EC333E
:108CE0000128238008D10223A370FFF723FFB0FAE5
:108CF00080F04009E07004E00228DBD038BD012399
:108D0000E3702046BDE83840FDF7CABC845400201B
:108D100007B5084B8DF80600B3F8EC3301A8ADF8A1
:108D2000043001238DF80730FFF718FF03B05DF81A
:108D300004FB00BF845400202DE9F0430025B7B0A8
:108D40009A4CC422002105A827F08CFAD4F8040418
:108D500005A9CDE903550195ADF808502AF040FD6D
:108D6000012801AE40F01E81059BBDF8C420C4F867
:108D70000C3484F808049DF8CC30B2B39DF8D110BF
:108D800009B18DF80D008DF80E30003B18BF01239E
:108D90009DF8CE10ADF804209DF8CD208DF80C1074
:108DA0009DF8D01002F07F028DF808309DF8CF308A
:108DB00042EAC1128DF806208DF809309DF8D410D2
:108DC0007B4B03AA06A80496FFF78AFA002800F056
:108DD0009280BDF8C4306846ADF800304FF481731E
:108DE000ADF8023000F032F985E02521329A84F89E
:108DF000111484F81234002BEBD12AB11678002E0E
:108E00007CD15378012B79D16A4B002101201A1FA4
:108E1000FFF78EFC0028DCD10125674B9DF8D4704C
:108E200083F8BE5094F818349DF8D19084F810540B
:108E3000002BCED0002FCCD0604E3578002DC8D17D
:108E4000DFF88C813A4606A9404628F039F9584B9C
:108E5000C4E9FE8723605A4B84F81C54C4F8F033ED
:108E60001AF050FC94F87E33013303F03F0384F88A
:108E70007E338DF80030FFF725F99DF800308342EE
:108E800005D0012269464FF43670FFF723F84D4BA9
:108E90004D4D1B68EF71C4F820349B6984F81C7435
:108EA0001B7984F8F69384F8F5335B0702D0B9F1A7
:108EB000000F57D11AF026FCEB79C4E9FE83052197
:108EC0000023D4F8F023C4F8C81352683F4984F84B
:108ED000E03384F8E133C4F824341088FF284BD100
:108EE000C4F8C8330025A4F8EC531AF0D1FA0028CE
:108EF0004AD10123337037B0BDE8F0830023D4F8A2
:108F000008C09CF804E0DDB27545BFF462AFDCF840
:108F100000701901795C07EB0310B1420BD157784F
:108F200041788F4207D1002190F802809DF8189077
:108F3000CFB2B84501D80133E5E7476817F811709B
:108F40000131B945F4D10235EDB2FF2D3FF441AF07
:108F5000184B002128461A1FFFF7EAFB00283FF4B0
:108F60005CAF36E71AF0CEFBEB7904350433C4F876
:108F7000F853C4F8FC33A2E70133052B41F8042B66
:108F800002F10602A9D1ADE701283FF422AF1AF0A1
:108F900031FB0028ADD001283FF41BAF2846FFF776
:108FA000DDFDA6E784F80854A5E700BF845400203F
:108FB000719000089C580020C49C0020920E002054
:108FC00094580020F8090020E00D0020505800209F
:108FD000E80D00200022044B83F8DF2193F80834C9
:108FE00003B9A9E6704700BF8454002038B5154B7B
:108FF000054693F8DE31012B01D9FFF7EBFF124C48
:10900000237D0133DBB2092B23750ED8B4F8980009
:10901000013080B21AF03EF910B984F8A90038BDC9
:109020002846BDE838401CF099BC94F8AC300420C8
:10903000FF2B04BF012384F8AC30BDE83840FEF7B5
:109040000BBB00BF84540020C49C002010B5074C0B
:10905000D4F80C3403B1984794F8DF3113B9BDE864
:10906000104069E6002384F8083410BD84540020C1
:10907000C37803B1EAE77047094B70B51968024637
:10908000002328250C8898B2844201D8002006E0ED
:1090900005FB03F04E680133305A9042F3D370BDA4
:1090A000900A00201FB50422019103A90446FEF78F
:1090B000E7FE18B9039A019B9A420AD0042220467F
:1090C0000DEB0201FEF706FFB0FA80F0400904B094
:1090D00010BD0120FBE770B500242826094D2A6841
:1090E000E0B21188884201D3012009E053680134BD
:1090F00006FB0033D9695868FFF7D4FF0028EED18A
:1091000070BD00BF900A002007B500210748FEF798
:109110006DFE0422064B0DEB020100200193FEF7C9
:10912000D9FEFFF7D8FF03B05DF804FB2D670008F8
:1091300000140800114B10B5186819F0B1F9104B64
:10914000186819F0ADF9FFF7DFFF00231A460D4943
:1091500011F8010F00B1013301320C2AF8D11322AA
:10916000002409481133D11E8B4200D210BD1F2AA2
:1091700098BF40F822400132F5E700BF900D002073
:10918000940D00204F0D00200000085007B5042268
:1091900000200DEB02010190FEF772FE08B1FFF70F
:1091A000C9FF03B05DF804FBF7B500252827144E6E
:1091B000144B33603368AAB21988914201D803B0C6
:1091C000F0BD0422ACB27C435B680DEB020123448A
:1091D00058680093FEF754FE33685B68234430B14F
:1091E000D969009B5868FFF75DFF0135E2E75B6ACC
:1091F000002BFAD0684698470028F6D00199F0E78E
:10920000900A0020944403080B4BF0B41A682827F6
:109210000023168899B28E4202D80020F0BC704715
:1092200007FB03F1556801336C18695A8142F1D18B
:10923000E1696068F0BC35E7900A0020084BF0B5A2
:1092400019680246002328250C88D8B2A04206D20D
:1092500005FB00F64F680133BE5B9642F5D1F0BDC9
:10926000900A002007B5FFF7E9FF0C4B1B681A882E
:1092700082420FD904225B6800B200EB800003EB4E
:10928000C00358680DEB0201FEF7FAFD019803B028
:109290005DF804FB00230193F8E700BF900A00206B
:1092A0003A232DE9F0475BA7D7E9006786B04E4D1A
:1092B0008DF813304D4B0DF1130118682AF090FA18
:1092C000012802D006B0BDE8F0879DF81330A3F165
:1092D0003002082A00F2A280DFE802F0670E441C88
:1092E00005A0A0A05800424B1B781BB133201CF0F6
:1092F000E9FCDFE73120FAE73E4B1B689B691B78EE
:1093000033B10320FEF786FD0122394B1A70D1E7F5
:109310000120F7E70020FEF77DFDFEF793FD2B7897
:10932000012B40F05D81334B1B689B691B78002B40
:1093300000F05181304A137823F0060343F006030E
:1093400013700AF0EDFE002106200AF072FFC82219
:109350002A4B1A702B78002BACD00BF03DF9002370
:109360002B70A7E70021012342F2747208461DF01A
:1093700077FB0122224B83F8F5221E4B1B689B6969
:109380001B78002BC9D0FEF718FBC6E7FFF7D2FE0B
:109390001C4B1A7832B100221A701B4B1B4A5A62BE
:1093A00018F0CEFDFFF7F2FE84E70123154A137093
:1093B0004FF0807205920F4A12689269D2881AB9EA
:1093C00005A8FDF775FD75E70021114A08460392CF
:1093D000CDE901115A2200911CF021FC00283FF434
:1093E00069AFEDE7AFF30080000A0020F00E002027
:1093F000930E0020F8090020FC090020010A00203B
:1094000084540020940E00200000085004001D0326
:10941000B16E00080000000000FEAF40702B00F0AD
:10942000EA807FF647AF812B7FF444AF15241423E5
:109430009D4AA2F14C08A2F2744E204652F8049FB5
:10944000194601331FFA89FCDBB258F820A0D44535
:1094500088BFC1B200F1010088BF1FFA8AFC5FFA21
:1094600080FABAF1280FF0D10EEB8101272BC1F859
:10947000289404F10104C2F800C0DED119230020B1
:1094800058F823200133242B1044F9D10B23B0FBCF
:10949000F3F0DEF8CC34854C584307EE900AF8EE32
:1094A000677A17EE900A26F0D1FB32463B4626F04B
:1094B0004FFD7F4B80469868894626F0C7FB0B46D8
:1094C00002464946404626F019FC26F029FE4FF692
:1094D000FF73D4F804A09A4509D050458CBFA0EB87
:1094E0000A03AAEB0003B3F5167FC0F092800023B5
:1094F000637240F6B733984294F801E0606000F27E
:10950000AD8040F6F613984240F2AA804FF0000C6E
:1095100063466849D1F800801FFA88F2904216D855
:109520008A681FFA82F9484511D30B7B0A79A0EBB0
:10953000090AD21A92B21FFA8AFA0AFB02F2A8EBBF
:1095400009081FFA88F8B2FBF8F21344DBB20CF1F9
:10955000010CBCF1040F01F10801DBD1BEF1650F74
:1095600008BF6370627832B1652A04D09A4284BF22
:1095700002F1FF3262701AF0DBFBDFF8488194F8E9
:1095800001A0562098F80190247888F802A0FFF7EF
:1095900069FE82453CBF002388F80230B9F1000F14
:1095A00060D0B9F1010F6FD0002498F80030092184
:1095B0006FF34103204605AA88F8003088F801407F
:1095C0001AF054FA00283FF475AE092221462046CD
:1095D0001DF037F86EE6002107200AF02AFEB9E6F2
:1095E000022B7FF4B7AE344B1B689B6919780029B6
:1095F000F1D10620F1E7314B1B78002B3FF45AAE36
:10960000082B01D1302072E6012100200AF011FE62
:1096100050E607EE900AF8EE677A17EE900A26F009
:1096200015FB1DA3D3E9002326F068FB07EE90AAE3
:10963000F8EE677A804617EE900A894626F006FB18
:1096400017A3D3E9002326F059FB02460B464046F8
:10965000494626F09DF926F063FD4AE764237DE73D
:1096600000237BE7652C0FD098F802301BB95CB95A
:10967000E41A042C03E09C42FAD21B1B042BD4BF37
:1096800000240124002C8FD00D4A137843F00403EA
:1096900013700AF045FD87E79A9999999999C93FFE
:1096A0009A9999999999E93FF85800204C09002016
:1096B0004C5900209C440308F80900209C09002014
:1096C000FC0900200A0A0020F8B50E4B4FF0280CC8
:1096D0001A68002317889CB2A74201D8002010E026
:1096E0000CFB03F5566801337419755B8542F2D1A2
:1096F0000422606841F8044BFEF7C2FBB0FA80F028
:109700004009F8BD900A002003289DBF034B03EBDE
:109710008003D3F8F8000248704700BFCC43030829
:109720001C4003080B289DBF034B03EB8003D3F8B9
:1097300008010248704700BFCC4303082C400308CF
:1097400010B51C4898B090F8482072B390F8493092
:1097500063B3642490F87C1312FB04F211BB51082C
:10976000FF2B08BF0023521A90F8BD40C4B1FF245C
:10977000ADF8044064248DF8074002248DF80840B9
:1097800004248DF80C40002404918DF814400692B6
:10979000179329B1012380F8193101A804F040FB87
:1097A00018B010BD11FB04F1DAE713461A4619464A
:1097B000DAE700BF845400202DE9F8430D466E78A7
:1097C0008046022E17461C4608997AD0042E00F0D7
:1097D000B380012E40F0CC80664C0E2204F2D449B6
:1097E0000021484626F03EFDD8F80030032FC4F88B
:1097F000D434D8F80430C4F8D834D8F80830C4F8D1
:10980000DC3408D128461AF01DFB0646012E44D14F
:10981000FF20BDE8F88340D903230421EA7802F051
:109820001F0213FB0213BB4237D8002AEAD00023E1
:1098300098469946194618461F4695F804C0BCF14B
:10984000500F2CD195F805E095F806C0BEF1040F35
:1098500027D0BEF1050F28D0BEF1030F12BF00269E
:10986000614601200137BA4205F10305E5D8A0B1F0
:10987000B9F1000F11D099424FF0500584F848100B
:1098800084F8498013D2002384F87C33FFF758FF13
:10989000394884F8E0541AF053FA0220B9E7002658
:1098A000E0E7E0464FF00109DCE76346DAE784F8D9
:1098B0007C33FFF745FF304884F8E0541AF040FA53
:1098C000A4E7FCF7D9FE02460028E6D1022F08D112
:1098D0008723032223706270FDF7C0F8A0700A701E
:1098E00096E7DAD9AE7887230325502E237065706A
:1098F00018D1FDF7B3F81F4BA07093F84820E5701E
:10990000A2710422227293F8492093F87C33627288
:10991000052223730D2326716571E671A672E2722A
:109920000B7075E7FDF79AF80123A070E3702271C0
:1099300007236271A271F3E7FCF79EFE0028ACD109
:10994000022FAAD98723AA7823700523502A63708F
:1099500000D04AB95023A3700023E3700123237180
:10996000382363710623DBE7A070E0702071D7E72E
:1099700000204EE78454002058590020F0B50D46D1
:1099800006461C461746B3B0C022002102A826F0A6
:1099900069FC2A46314602A88DF8C450019727F089
:1099A0008FFB23462DAC03F1100522461868596839
:1099B000083303C2AB421446F7D10023094C1A46C0
:1099C000D4F8040401A928F01FFF40B194F808342A
:1099D00023B994F8DF310BB9FFF7AEF9012033B0AA
:1099E000F0BD00BF8454002030B50D46ADB0AA22B2
:1099F0000446002101A826F035FC40F287332A7B7B
:109A0000ADF80430502A2AD1FDF728F803238DF849
:109A100007304FF454738DF80B200422ADF8083052
:109A2000134B8DF806008DF80C2093F8492093F81D
:109A300048108DF80D204FF4AA628DF80A100D2100
:109A400093F87C33ADF80E208DF810300123094ACD
:109A5000637301A82346FFF791FF2DB030BDFCF7DB
:109A6000FDFF012307218DF806008DF80730EDE793
:109A7000845400201572000870B50C46097B054619
:109A8000A822ACB041BB0DF1060026F0EBFB712320
:109A90008DF8043005238DF80530164B21699A7D29
:109AA0000DF10D008DF809205A7B5B7D8DF80A20A1
:109AB000227D8DF80B3002F01F068DF80C6027F028
:109AC000FFFA01230C4A6B7306F109012B4601A82A
:109AD000FFF754FF2CB070BD00210DF1060026F0F9
:109AE000C1FB71238DF8043005238DF80530002368
:109AF0009B7DFFDE189C00201572000870B58378EE
:109B0000294CB0B023B9B4F83A330133A4F83A334E
:109B100026481BF07DFAB4F890315BB1013B9BB253
:109B2000A4F8903133B12821204830B0BDE870400E
:109B300004F048B9B4F83A530E22003D18BF01258D
:109B400000210DF10600B4F83A6384F8945126F030
:109B500089FBB4F8923176BAADF8043025238DF83C
:109B60000E30FCF7F1FDFEF713FCA4228DF80F0078
:109B700000210DF11A0026F075FB40F27363ADF879
:109B80001430B4F88C3100228DF8163001230621F0
:109B90008DF8113005A801AB8DF81750ADF818609D
:109BA000FFF7ECFE30B070BD84540020C057002099
:109BB00010B5124BC0B01B68F822002102A81C6827
:109BC00026F050FB0B238DF808300D4B20460393F5
:109BD0000C4B02A9B3F88C2193F88E31ADF810200C
:109BE00000228DF8123004F06EF8012804D1064BE3
:109BF00001A80193FFF782FF40B010BDF8090020D3
:109C0000FD9A0008845400200000020273B500256C
:109C10000C4C294604F2E2464FF47572304684F843
:109C2000085484F8DF5126F01DFB3246C42100950C
:109C300004F6B803052029F06AFCC4F8040402B055
:109C400070BD00BF8454002030B5A5B0882200212B
:109C500002A826F007FBFF238DF80830284B1C686C
:109C6000E06802A929F0BCFD012801D025B030BD73
:109C70009DF80830C32B19D0C42B3ED0C02BEFD198
:109C80009DF81030002BEBD0039B002BE8D0002276
:109C9000ADF804209DF8112001A88DF806200222BD
:109CA0008DF807209847FCF747FDD9E79DF80C3061
:109CB000ABB9A3691A781AB11879FEF769FB50B1EC
:109CC000FFF722FAA3691D782DB9FFF79FFF0D4B0F
:109CD0001D701BF0DDFF32201BF0F4FFE3E7052BC6
:109CE00003D139201BF0EEFFBAE7072B01D1322058
:109CF000F8E7082BB4D13020F4E73820F2E700BFB2
:109D0000F8090020980D002043880B800379C3F3E5
:109D100006034B72037913F07F0318BF01230B7303
:109D20004378CB72037813F0020F0CBF252327234F
:109D30008B72037AC3F306030B7200234B737047D5
:109D400070B50C4691F8BD60B8B0324649792079BB
:109D5000FEF75DFB002840D0002594F8B02094F871
:109D6000AE308DF80C20B4F8B8208DF82030ADF866
:109D70000E20B4F8BA200DAB29461846CDE904559B
:109D80008DF80D60ADF8122003AEAA2204340696B9
:109D9000079426F067FA01A9CDE9010506A8FCF7AA
:109DA00037FC042814D09DF808408CB102280FD04D
:109DB0000E2229460DF1260026F054FA09A9304654
:109DC000FFF7A2FF2A460B4601982146FFF7D6FD72
:109DD00038B0BDE87040FCF7AFBC38B070BD00B51E
:109DE000B1B0A622002106A826F03CFA0E220021DE
:109DF0000DF1060026F036FA214A01A902F60810F4
:109E0000FFF782FF40F25943ADF8143092F88033E7
:109E100092F88103991E4B424B41DB0192F81019D5
:109E200043F0010301288DF8163001F07F0106D9B7
:109E3000936803EBC1031B790133984202DD0123D0
:109E400082F8813392F88133012B8DF817300CD0D2
:109E5000926803F1805352F83120023B180102EB63
:109E60000313125C5B788DF819208DF81A300A21E3
:109E7000044A01AB05A8FFF781FD31B05DF804FB92
:109E800084540020CF840008A9E72DE9FF410A9EF1
:109E9000044617461D46FCF7EFFB00285ED14B78C1
:109EA000032B35D0052B5DD0012B58D1032F55D175
:109EB00059232B7002236B708B78012BAB700AD95E
:109EC0004D49227A886802F07F0200EBC2010979CD
:109ED00001318B4215DD0123484CAB70204627F041
:109EE00040F921460246281D27F0EAF8204627F0CF
:109EF00038F9E870204627F034F904303070FF203C
:109F00002DE050F8322002EB031353F8184CE5E72C
:109F1000394D95F880330BBB8B78227A13F0400FC4
:109F20004FF0010312BF022185F88033CB78C2F3D2
:109F3000060285F88133236885F88223C5F808393D
:109F400063682F4A18BF85F880135360A368936035
:109F5000FFF745FF0028D2D185F88003022004B026
:109F6000BDE8F081CF78237A012F03F07F0305F15C
:109F7000040819D9204A916801EBC3021279013211
:109F8000974211DCCDF80480002BE7D10B6807F174
:109F90008052023A03EB02139C784046640022464A
:109FA000596827F08DF819E0CDF80480002BD5D141
:109FB000FCF7CAFB0446FEF7EBF9D8B9114B124A7D
:109FC000002C08BF134601270293104801AB02A9D9
:109FD0000393FDF70BFF019CA4EB0804002CBDD0FC
:109FE00059232B700623E4B2EC7004346B70AF700D
:109FF000347084E7064BE6E7845400203C400308B5
:10A000008C5D00208C0C0020840C002085670008EB
:10A01000940C00202DE9F04F4B7805460E2B0C4692
:10A02000D5B013D8ABB1013B0D2B12D8DFE813F03C
:10A03000410311001100B7007B0011008402690286
:10A04000110030011100130011009D01FD2B00F0E3
:10A0500033830020E6E28C4B10221B68B1F80280AB
:10A060009B69002109A89F8926F0FCF82846FCF787
:10A0700003FB064608B10220D4E298FA98F005A93D
:10A0800080B2FFF721FB4FF457630246ADF8A430CE
:10A09000A37828468DF8A630E37809A92A968DF88A
:10A0A000AC608DF8A730FFF72FFE002A00F05A8130
:10A0B000059BDB68D3B91C467D1FADB2B4FBF5F33D
:10A0C00005FB1342002A08BF013B002603F0FF03F3
:10A0D000A6428DF8A8300BD3FF20A3E20134B4F5DB
:10A0E000807FE9D01A5D002AF8D1E5E73446F9E728
:10A0F000A71BAF4228BF2F46059B3A46D9680DF1F2
:10A10000A900314426F0DCFF791D002209ABC9B259
:10A1100029A8FFF733FC0028ADD09DF8A8303E44B5
:10A12000013BDBB2D4E710228C7809A8002126F08D
:10A1300099F8B222002127A826F094F82846FCF7C7
:10A140009BFA002897D1204605A9FFF7BDFA20B950
:10A15000FCF75FFC05A9FFF7B7FA05994FF4CE634A
:10A16000A1B9ADF8A4308DF8A64006AA2AA81BF024
:10A170000DFC09A92846FFF7C7FD00220B46082160
:10A1800029A8FFF7FBFB0028A6D174E70A88ADF8E1
:10A19000A4308DF8A6200B7E8DF8A730E5E7CB78AC
:10A1A00003F00702022A1FD8002A3FF464AFDB093C
:10A1B00062D109A90993E01C1144013310F8015F31
:10A1C000DBB29A4201F8015DF7D800234FF028096D
:10A1D0002E4E94F802803168B1F800E09FB2BE457F
:10A1E00005D84FF0020837E0042AE0D043E709FB26
:10A1F00003F5D1F804C00CEB050090F820A01AF08C
:10A20000020F37D13CF805C0C44533D1037E9342D9
:10A210007FF431AF28A904224068FDF731FED6F85B
:10A2200000900028D9F8040009A9284414BF4FF071
:10A2300001084FF0020827901BF096FC00283FF41D
:10A240001AAF09992891D9F804302B445868FEF7C1
:10A2500029FF00283FF40FAF33681B88BB423FF44F
:10A260000AAFB8F1010F3FF406AF0021A0780AF061
:10A2700001FA31E70133B1E7A078FEF7C5FF002806
:10A280003FF4F9AEF1E700BFF8090020900A002082
:10A29000A54B10221B68B1F802809B69002109A818
:10A2A0009F8925F0DFFF2846FCF7E6F906460028DF
:10A2B0007FF4E1AE98FA98F005A980B2FFF704FAAE
:10A2C0004FF437630246ADF8A430A37828468DF8E2
:10A2D000A630E37809A92A968DF8AC608DF8A730EE
:10A2E000FFF712FD002A3DD0059B9B68002B37D15C
:10A2F0001C467D1FADB2B4FBF5F35A1E05FB13439C
:10A30000003B18BF0123002613FA82F38DF8A83012
:10A31000A642BFF4E1AEA71BAF4228BF2F46059B64
:10A320003A4699680DF1A900314426F0C9FE791D1D
:10A33000002209ABC9B229A8FFF720FB00283FF48F
:10A340009AAE9DF8A8303E44013B8DF8A830DFE777
:10A350000134B4F5807FCCD01A5D002AF8D1C8E76B
:10A360003446F9E7092109AB0AE7B1F802A091F8F0
:10A370000280CF781022002109A825F073FF002366
:10A380004FF0280EDFF8AC919AFA9AF6D9F800004F
:10A39000B6B2B0F800C0DAB2624541D34FF0000B5C
:10A3A0002846FCF769F900287FF465AEBAF1000F82
:10A3B00040D1FCF72EFB5D4B09A9A3F8160903F663
:10A3C00014132846CDF818A00593FFF79DFCBBF1A8
:10A3D000000F3AD1FCF71DFB0023D9F800401A46C4
:10A3E000FF254FF02809B4F800E05FFA83FCF4453C
:10A3F0007AD3002A18BF10464FF477630022ADF8D5
:10A40000A430030A8DF8A9308DF8A6808DF8A770C6
:10A410008DF8A8208DF8AA008DF8AB2009ABAEE628
:10A420000EFB02F2416801338A5AB242B3D14FF0B7
:10A43000010BB5E7BBF1000F51D005A93046FFF77E
:10A4400043F9284609A9FFF75FFC002110222AA83A
:10A4500025F008FF4FF47763ADF8A430A378059D8D
:10A460008DF8A630E3780DF1A9008DF8A7302B7E8A
:10A470006A7E43EAC202013BDBB2032B8CBF00269B
:10A480002B498DF8A82098BF5B1805F110022946CA
:10A4900098BF93F838611BF079FA2B7E0DF1A90271
:10A4A000D4182046294605F114021BF06FFA2B7EC2
:10A4B00029461C4405F11C0220461BF067FA6B88F4
:10A4C000297E1B0A63546B886218537095F82030FC
:10A4D0003146C3F380039370002209AB50E628464F
:10A4E00009A9FFF711FC75E76168013309FB0C113D
:10A4F0004988A1EB060CAC45DCBF0A461FFA8CF577
:10A5000073E749882479FCF7B7F8034600287FF4FD
:10A51000B2AD284649BA14FA81F292B289B255B066
:10A52000BDE8F04F1BF043BAF80900208454002026
:10A53000CC430308900A00204B880F795BBA9BB28A
:10A540000193002F3FF497AD91F805B00BF0070889
:10A55000B8F1020F4FEADB193AD8B8F1000F3AD040
:10A560000198FEF789FD064600283FF484AD019B63
:10A570001F44BFB287427FF67EAD00283FF47BAD1B
:10A5800027A9FFF7A1F800283FF475AD279B93F8A2
:10A590002020910723D4B9F1000F35D130468742EE
:10A5A00001D9002841D1B8F1010F04D0B8F1020F50
:10A5B00018BF4FF004080023B14602930DF1240A9E
:10A5C0004F4502D9B9F1000F3CD1029B03BB52E5C4
:10A5D000B8F1040FC4D0B9F1000FC1D14BE55888D0
:10A5E000C8E7304627A9FFF76FF888B1279B93F893
:10A5F00020309A0706D43046FEF706FE0121304689
:10A600000AF038F8279B5E88B74201D9002EE8D1BE
:10A610001BF0400F3FF460AD01233A4628460199F4
:10A620001BF0C5F955B0BDE8F08F27A9FFF74CF82E
:10A6300000283FF420AD279B1A7E42457FF41BADD6
:10A640005888ACE727A94846FFF73EF8279A92F8C2
:10A6500020108B07C1F3400027D4A9EB060111FBA2
:10A6600008F10631CAF8000054FA81F10AEB08003B
:10A6700011F801CB00F801CD8245F9D110465146C1
:10A6800003921BF071FA039A78B1DAF8001050685F
:10A69000FEF708FD48B14846012109F0EBFF029B97
:10A6A00003F101091FFA89F30293279BB3F8029083
:10A6B00086E7FEF710FD66E50E2200210DF116007B
:10A6C00025F0D0FD05A92846FFF71EFB4FF6705375
:10A6D000A278ADF8A430E378FD2A8DF8A6208DF895
:10A6E000A73009A949D1072B32D10A46244B254866
:10A6F00013F8014B834202F8014BF9D110252423B2
:10A70000B5FBF3F403FB1453DBB2002B18BF013489
:10A710000E46E4B2002C3FF49CAC242D2F4628BFFB
:10A72000242731463A460DF1A90026F0C9FC013C28
:10A73000791DED1BE4B2002205ABC9B229A8EDB228
:10A740003E448DF8A840FFF719F90028E2D192E4C1
:10A75000082B12D10C4B0D4AD8B213F8014B93427F
:10A760000C54F9D10A4B0B489A1F13F8014BD2B283
:10A7700083428C54F8D16125C1E70025BFE700BFB3
:10A78000E0E30708F0E3070800E407085AE40708D5
:10A7900060E4070867E407082DE9F04FB3B080468E
:10A7A0000C4617461D46DDF8F090FBF765FF0028C4
:10A7B00040F018824E78731E092B00F22E82DFE8DB
:10A7C00013F00A002C02F5002C022C022F002C02A0
:10A7D000DC012C0221027A232B70022363226B708E
:10A7E0000023EA701846AB70FCF770FE020A2A716B
:10A7F000FF222A724FF6FC72AB71EB716B72AD4B9C
:10A8000068711B689B699B89063B1A40C3F3072349
:10A81000AB7201232B730D23EA7289F8003013E029
:10A82000A54D3A4641F60F5003F024FA2B7C94F8DC
:10A8300002A0022B94F80390A04E09D096F8DE31C6
:10A84000012B01D9FEF7C6FBFF2033B0BDE8F08F26
:10A8500048B196F8DE31012B01D9FEF7BBFB00238E
:10A8600085F8AC30F0E74FEA0A2303F4FE4399443D
:10A87000B5F8983028750133994503D0012385F840
:10A88000AC30DBE796F83C39063FFFB2BB424FFAEB
:10A890008AFA02D0BAF1000FF0DA95F8A91089B956
:10A8A000A82205A825F0DEFC45238DF81430814B45
:10A8B0004FF4FA721B6805A9986803F004FA0123A3
:10A8C00085F8A9307E481BF049F896F8DE317D48BE
:10A8D000012B04F1040496F83C3926D995F8ADC053
:10A8E0003A4621460CFB030026F0EAFB95F8AD80C2
:10A8F000B5F89A0008F101083A4621465FFA88F84F
:10A9000085F8AD80A5F8989003F0B4F9BAF1000F7E
:10A91000A5F89A0034DA6B8A834213D00023092009
:10A9200085F8AC30FCF798FE88E709F1FF3803FBA7
:10A9300008F821463A4626F0C3FB3946404619F04E
:10A94000BBFAD3E796F8DE31012B0ED9FEF742FBB6
:10A9500095F8AD3096F83C095A1E02FB0071A9EB40
:10A960000303584389B219F0A7FA6421564803F04B
:10A9700029FA01287FF468AF0820FCF76DFE63E731
:10A9800096F8DE31984501D20520F6E7012B0BD968
:10A9900096F83C09A9EB080908FB00F100FB09F057
:10A9A00019F08AFAFEF716FB0720E6E710220021CD
:10A9B00001A825F057FC0A2F237A1AD8002B57D16B
:10A9C0004FF6FC753B4B1B689B699B89063B1D4002
:10A9D0006288A388B2F5C64F374F06D10020FCF736
:10A9E00075FD5BBA9BB2834257D0002687F8AB60F7
:10A9F00002E0B4F8095023B30120FCF72DFEB22287
:10AA0000002105A825F02EFC40F27A4301A940461A
:10AA1000ADF81C308DF81E60FFF776F901232B4A44
:10AA20008DF8113007A80B460321FEF7A7FF002879
:10AA30007FF40AAF4FF4003368460093FCF756FEEC
:10AA400002E70B2F1C4A18D0E17A92F8AA30C90706
:10AA50004CBF43F0010303F0FE030C2F82F8AA3031
:10AA60000BD0237B012B08D0042682F8AB60C3E710
:10AA70000322114B83F8AB20BEE70E4B6DBA1B6867
:10AA8000ADB29B6999894FF6FC7306390B409D4224
:10AA900001D8002D9CD10226E7E797F8A830002BBB
:10AAA000E6D0E688BB6876BAB1B28BB1984778B980
:10AAB00001269BE7F8090020C49C00208454002054
:10AAC000DC9C0020645600201C9D0020ED760008D0
:10AAD000002103230846524A1CF022FB514A00235E
:10AAE000C7F898204FF0010CFF224F4C87F8AC209C
:10AAF0003B743B75C4F848397B82C4F84039C4F8CC
:10AB000044C9D8F80000D8F80410484A089303C292
:10AB1000D8F80800EDB2106097F8AA3010228DF82E
:10AB20001430B8F802300620ADF8183098F8043028
:10AB300005A9C3F306038DF81A3098F80030ADF874
:10AB400016608DF81B3098F801308DF815C007930A
:10AB5000FDF7C0F9642DD8BFC8237E82D8BFB3FBF0
:10AB6000F5F34FF0FF064FF0000084F83C59D8BFD2
:10AB700084F8DE3187F8AB603FE7DFF8B88091F802
:10AB800008A0B1F802B08F88CE88B8F8121061B969
:10AB9000102205A825F066FB1022062005A9FDF766
:10ABA0006FF9BDF81630A8F81230BBF5C64F1BD1AF
:10ABB0005046FCF78BFC7FBABFB2874214D1B8F87D
:10ABC000123076BAB6B29E420ED1637A012B0BD107
:10ABD0006421174803F0F6F801280CBF0B200A2067
:10ABE000FCF73AFD022030E623682B6063686B6057
:10ABF000237A2B7209236B7000236B72637AAB721A
:10AC00000B230AE67A232B700B236B700323AB70A4
:10AC10000023EB702B710523FFE5002015E600BF34
:10AC2000009F240000000F1D84540020609D002020
:10AC30001C9D0020C49C0020F0B5B3B005460F4613
:10AC400016460021B22205A81C4625F00BFB40F257
:10AC50007A7301A92846ADF81C308DF81E708DF866
:10AC600020602246FFF750F80B4607A80521FEF7A3
:10AC700085FE40B9054BD3F83C0100906846A047DB
:10AC8000012033B0F0BD0020FBE700BFCC43030838
:10AC90000023F0B5BFB0714CCDE903330593704B81
:10ACA000704DA360704BE360012384F8A83085F8F1
:10ACB000DE3194F8AA3063F07F0384F8AA300BF0F9
:10ACC000A7FA002840F0B78005F64C1018F086FB74
:10ACD000002840F0B48003A817F0AEF99DF80C30BE
:10ACE0000025012B1CBF002384F8A830059B0620FB
:10ACF00013F0010301A908BF84F8A8300195FCF7FF
:10AD000007F970B110242946224611A825F0AAFAA5
:10AD100001232246062011A98DF845300194FDF744
:10AD2000D9F80021514A5248FCF776FF0021514AD8
:10AD30005148FCF771FF514B1B78072B79D1504BD1
:10AD40001E886FF40073F318092B72D800214D4848
:10AD5000FDF74CF81022002109A825F083FA002302
:10AD600002A906200293FCF7D3F80620029A09A94B
:10AD7000FDF786F8029B0C2B13D101209DF82920AA
:10AD80009DF828109DF82A308DF82500ADF8281080
:10AD90008DF82A200620102209A98DF82B30FDF706
:10ADA00099F89DF82B3000248DF818300B9B9DF8F6
:10ADB0002A208DF81930BDF82830CDE90744ADF8C8
:10ADC0001A304FF0000362F306038DF81C309DF833
:10ADD000243040F20121812B35D18E4214BF01264F
:10ADE000FF260E2221460DF13600BDF8267025F013
:10ADF00039FA2046FCF76AFBB2220546214611A823
:10AE000025F030FA204B0DA91393012306A87FBA31
:10AE10006DBA8DF85630ADF85050ADF852708DF8CF
:10AE200055602246FEF770FF0B4613A80B21FEF774
:10AE3000A5FD3FB0F0BD05F64C1018F0CFFA002389
:10AE400084F8A83047E7234622468E4214BF0521E6
:10AE5000FF2106A8FFF7F0FEEBE700BFC49C00202F
:10AE60004D6A00088454002071720108ED8F0008BB
:10AE7000DC9C0020D97600081C9D00206C1300206B
:10AE800068130020516A00087A09006308B5FCF7CE
:10AE90003DFA0C4890F8AC10FF290ED0FC298CBF6D
:10AEA00000220122084B52009C30FFF7C5FE40B142
:10AEB000BDE808400020FCF7F4B8BDE80840FBF707
:10AEC000FCBF08BDC49C0020A37000080122014BF8
:10AED0005A74DBE7C49C002070B50026334CC822AE
:10AEE0003146334890B084F8AD6025F0BBF9314B62
:10AEF0005D6815F0010502D0304617F083F84FF079
:10AF000000639B6A03F17843B3F5C04F04D218F095
:10AF10001BFA0646002838D003A80BF0B9F99DF8B3
:10AF20001430012B17D1069B3BB101A818F056FA3B
:10AF300018B9DDE901010BF0CBF90CF043FA284612
:10AF400017F060F801236374042384F8AC3010B068
:10AF5000BDE870409AE74FF00066B36A03F17842AB
:10AF6000B2F5C04FE9D21B6B03F17843B3F5C04F84
:10AF7000E3D211480BF092F8B36A00201B6B5B69B7
:10AF800098470D4809F062FCD7E7284617F03AF8D1
:10AF900094F8AA30812B14BFFF23FD2384F8AC3032
:10AFA000FFF774FF667410B070BD00BFC49C002032
:10AFB000645600200040005BF40B00202DE9F047B0
:10AFC0004A780446012A0D461F468AB006D0022A56
:10AFD00000F0B78000200AB0BDE8F0870023634E80
:10AFE000DFF88C8191F8029088F8002096F8D8213B
:10AFF000017A09F03F0A5245CDE9043318BF86F8BB
:10B0000054394B0650D1427869792879FDF7FFF918
:10B01000002861D05146D4F80600FCF7F6F908B3D1
:10B020004FEA490202F07E022B1D42F0010209F0B4
:10B03000800942EA09020793EB78A27204A906A8E4
:10B040008DF8203006940497FBF7E2FA474B9DF801
:10B050001410129A042883F85409117002D10022A6
:10B0600083F85429002388F80030DFF8008198F82D
:10B070005499B9F1030F15D0AF78D4F806A007F0B2
:10B080003F0739465046FCF7C0F9237813F00C0F00
:10B0900024D0002853D0C8F8DAA1237888F8D871D2
:10B0A00088F85539FF2096E7002001F07F01FDF771
:10B0B000ACF9034680B10120FDF7A7F960B11A7819
:10B0C00002925B6801930378009343686A79297957
:10B0D0006078FDF76CF99BE7244BC0E710B998F84E
:10B0E000553963B3D4F8063019F0FD0FC6F8DA31DC
:10B0F0004FF00003AD7886F8D87186F8553918D12D
:10B1000005F03F052046FBF7B7FA01460028C9D1F4
:10B110000E220DF11A0025F0A5F8204606A9FEF72B
:10B12000F3FD4A4629469DF8153006A81AF0E8FBBB
:10B13000B8E7B9F1FF0F08BF05F07F05E2E702208D
:10B1400049E70A4C8A7894F87E339A42AAD10021C2
:10B15000042208461BF075FA94F8E0030028A1D1F8
:10B16000FDF7FCFC012384F8E1339BE784540020C5
:10B17000980D0020F0B50E4687B002B942600DF17F
:10B1800003020721002018F071FC024618B90723BA
:10B1900001461BF0C5FF334D95F8384314F0020407
:10B1A00057D1002E57D0D5F824330194002B4AD024
:10B1B0002D4E3068002846D008220493CDE90224A1
:10B1C000234601AA02A927F0A1F9012833D130684A
:10B1D000D5F8243378B309210A220493CDE9021269
:10B1E000234601AA02A927F091F9012823D195F855
:10B1F0002823D5F8303390406FF001021B6A029289
:10B200001A4A0590CDE9032302A923462246306855
:10B2100027F07CF9D5F8247301F07EFF144B3068D9
:10B220001B6840B1062202A9CDE90223234601AAE8
:10B23000049727F06BF9019B2BB14FF0E0234FF0FF
:10B240008052C3F8042D95F8383343F0020385F893
:10B25000383307B0F0BD0A2105F53E7002F0B2FDAB
:10B26000F1E700BF845400207C2000206F360308E3
:10B27000682300200B7810B50C4663B1C86A023110
:10B2800001301AF053FE002201212046FFF772FF21
:10B2900023690133236110BD2DE9F84FEFF31187C6
:10B2A000302383F31188584B58495B6903F001023E
:10B2B00013F0020F03F003034B6110D14AB1544A5B
:10B2C000D2F858390133C2F8583926F00DFD26F06E
:10B2D0006DFD87F31188BFF36F8FBDE8F88F4AB11A
:10B2E0004B4AD2F858390133C2F8583926F0FCFCE1
:10B2F00026F05CFDEFF3118A302585F311884FF0BD
:10B30000000B26F0F1FC5E46DFF8FC90414B1C6818
:10B310000CB16369B3B100223D4B012E83F85C2967
:10B3200004D11BF0020F18BF83F85C6926F03EFDC4
:10B33000222802BF0222354B9A618AF31188BFF39B
:10B340006F8FC6E723465A693AB91A792179914233
:10B3500088BF1C469B68002BF5D18AF31188BFF388
:10B360006F8FD4F810B0BBF1000F1BD0D9F820209C
:10B37000A369A2EB030A4FEAEA72DA4572F100020E
:10B3800011DB5B44A361E36813B120462168984751
:10B39000B4F806B00136EFF3118A85F3118826F070
:10B3A000A3FCB3E7DA46EFF3118885F31188204652
:10B3B00026F020FC88F31188BFF36F8F2369002BE0
:10B3C000E1D0A38BBBEB0A0133B1E28B13449BB2F8
:10B3D000B3F57A7F10D2E383EFF3118A85F31188F6
:10B3E000204626F09DFCA36922691344A3618AF3D9
:10B3F0001188BFF36F8FC6E7A3F57A73E383A36960
:10B400000139013BA361E7E70040065000600650A8
:10B4100084540020441D00202DE9F843EFF31188E7
:10B42000302383F31188314F97F85D39002B56D1C3
:10B430002F4A304C1360304A30481360C7F85839EF
:10B4400027F050FF63680BB10BF01AF901222C4B67
:10B450005A60656815F00205FBD103220126284BCE
:10B46000DFF8AC90A5606562C9F804609A615A6122
:10B470000BF006F90223E36025620BF001F9E660A8
:10B480000BF0FEF8E6600BF0FBF84FF480221D4B4A
:10B49000C3F880211A60C9F81860EFF311843023D3
:10B4A00083F311884FF4F0600BF08CFC024684F3B8
:10B4B0001188BFF36F8F144B186030B988F311886F
:10B4C000BFF36F8F2320BDE8F8832B4640F2E731AE
:10B4D0000E4824F0C7F887F85D69C7F8600988F35B
:10B4E0001188BFF36F8F0020EDE700BF8454002068
:10B4F000441D002000400650481D00204C3E03081B
:10B500000060065000E100E0F410002018FCFFFF8E
:10B51000005006502DE9F04F604C8BB094F8BD50B0
:10B52000002D40F0B8800126032304273146252052
:10B5300084F8503084F85A3084F8527084F85150AE
:10B5400084F8535084F8546084F8555084F8565069
:10B5500084F8575084F8586084F8595084F85B5048
:10B5600084F85C600BF048FB31463A200BF044FB5A
:10B570004FF400724A4B2846CDE902234FF4803342
:10B5800002A904938DF8145018F0C0F939463246D8
:10B5900028461BF089FE4FF48023DFF80CA1DFF86A
:10B5A0000C81CAF81C373F4FD8F83030C8F86850C3
:10B5B000D7F818373343C7F8183794F8583003B31F
:10B5C00094F8572094F8559094F856B0724030464D
:10B5D00002A98DF81220019218F098F959464846B0
:10B5E000019A1BF061FE49EA0B41CAF82017D8F80E
:10B5F0003030C8F88850D7F8183743F00203C7F83E
:10B60000183794F85C3023B394F85B6094F8595081
:10B6100094F85A70022086F0010602A98DF8126093
:10B6200018F074F93246284639461BF03DFE1E4B91
:10B6300045EA0745C3F8245703F580331A6B002207
:10B64000C3F8A820174AD2F8183743F00403C2F809
:10B650001837164B00211A6B42F20F720DF11900C8
:10B66000DA610F2224F0FEFD0125072306A8ADF8BC
:10B670001A308DF8185018F0FFF80D4A29460D4879
:10B68000FCF7CAFA00230C4AC4F8653084F8183174
:10B6900084F8BD5013710BB0BDE8F08F84540020C6
:10B6A0000001030000D0035000C0035000C004504C
:10B6B000197100085C550020E95400202DE9F04F75
:10B6C0002DED048B93B010B10123864A5370854B46
:10B6D0001E7816F0020640F0CE82834C01212A200B
:10B6E00008AD0BF089FA0FCC0FC50FCC0FC594E84D
:10B6F000030001AB083485E8030094E8070083E801
:10B7000007007A4B04AD83E8070085E807002A208C
:10B710000BF058FB764B00F5C3309F30984284BF46
:10B720000133B0FBF3F04FF0040388BF00F1FF36A4
:10B73000032E28BF03262A208DF830300BF042FB61
:10B74000F4B2013644F61F62B0FBF6F313449342A1
:10B7500086BF44F62062B3FBF2F3002340F2FF32CF
:10B7600088BF03F1FF33934294BF0A930A920DAE50
:10B7700008AF0FCF0FC63B682A2033600BF022FBC7
:10B780005C4B5D4A034493422ABFB3FBF2F30026AD
:10B7900003F1FF36032E28BF0326F6B2A64238BFB8
:10B7A000264617F066FE2A200BF00CFB524CA042F6
:10B7B000C0F08180B0FBF6F0504B00F5742000F231
:10B7C0003F20B0FBF3F001387F2828BF7F20DFF84F
:10B7D0003CA1330743EA0043CAF8083000239B46E4
:10B7E000CAF810300DF12008CAF8203098F800701F
:10B7F000434B444C2A20002F18BF1C46D8F8089011
:10B800000BF0E0FA711CB0FBF1F0611E0844B0FBD4
:10B81000F4F1844240F2FF3098BF01F1FF318142E0
:10B8200028BF01461FFA89F38B4238BF0B460AEB4B
:10B830000B149946DFF8D8C0A36C98F8030003EA0C
:10B840000C0C07F003034CEA030C98F801304FEAA4
:10B850000B119B0003F01C034CEA030C98F8023018
:10B860001B0303F4E0434CEA03034FEA004C0CF4DF
:10B87000E02C43EA0C0398F810C04FEA4C5C0CF43F
:10B88000600C43EA0C0398F804C04FEA0C7C0CF0FF
:10B89000405C43EA0C03A364A46C1B4BC4F3023466
:10B8A000013C042C00F20381DFE814F001010101E6
:10B8B0003400EA00F50000287FF47EAF2A200BF068
:10B8C00081FA50B1A0427FF677AF104B9B68C3F36B
:10B8D00002730133B0FBF3F06EE701206CE7A3467F
:10B8E00084E700BF0A0A00200C4503084C590020D9
:10B8F0009F860100FF596202005A620240420F0017
:10B90000404B4C00809698000080E00F00400059AA
:10B91000E08F18CFD3F88041240C002F00F0348141
:10B920000BF10503C9F309010AEB03130124596064
:10B9300008F11408BBF1000FD1D0D14F7C6017F093
:10B9400098FD302341F20102CAF87030DAF82C3049
:10B9500023F48B3323F4807343F48053CAF82C30E0
:10B96000DAF804307C60DB07CAF8982001D417F0BD
:10B9700080FD0126DFF854837E60D8F8C090C14F67
:10B98000B9F1FF0F2AD1EFF31183302282F311882E
:10B9900097F86449002C00F02C8183F31188BFF3E1
:10B9A0006F8F97F86439002B00F06581EFF31181F8
:10B9B000302383F31188B44A00231046147B002CF3
:10B9C00040F04F8101261A01C8F8C03000EB031384
:10B9D0001E73845081F31188BFF36F8F97F8643919
:10B9E000D8F8C060002B00F04681072E00F243819A
:10B9F000DFF894824FEA061A08EB06173B7B002B10
:10BA000000F039810024A14BDFF8C492049309EBC4
:10BA10004613184610222146CDE90544079424F028
:10BA200021FC02219A4A4FEA461B49F80B20994A09
:10BA3000C7E901448260984A7C734260C27861F32E
:10BA40008302C270954A294648F80A2002463046C9
:10BA50000BF03AFC0122924B0921DA60914A204610
:10BA6000137843F00203137008AA17F0FFFF024691
:10BA7000002840F00081092301461BF051FBFAE049
:10BA8000D3F88441002F7FF44BAFD3F88C31A4B2AC
:10BA90001B145B007BE0D3F88441002F7FF440AFA0
:10BAA000D3F88C31240C1B1403EB43036FE0D3F861
:10BAB0008041002F7FF434AFDFED7B7AA4B2012305
:10BAC0005144896C24F4C047C1F3820101F1010C97
:10BAD00003FA0CF309EE103ABF042204B8EEC99A37
